:10000000F00B0020F929000043180000471D0000F4
:1000100000000000000000000000000000000000E0
:10002000000000000000000000000000C32A0000E3
:1000300000000000000000000F2B0000112B00004A
:10004000132B0000152B000003240000172B0000C9
:10005000192B0000000000001B2B00001D2B0000CE
:100060001F2B0000212B0000232B0000252B00005C
:10007000272B0000292B00002B2B00002D2B00002C
:100080002F2B0000312B0000332B0000352B0000FC
:10009000372B0000392B00003B2B00003D2B0000CC
:1000A0003F2B0000412B000000000000000000007A
:1000B0000000000000000000000000000000000040
:1000C000F1B5A4B00E0014001D004A487844FF307A
:1000D000253003C822AA03C2049600200D9001E037
:1000E0000198241800206946488022AB0022D243A0
:1000F000210000A8801C01F044F90190012805DAD4
:100100002078411E8941C943C90F01916846408842
:100110002528019E00D1761E012E0EDB270039789E
:100120000498249A90470490002800D1F4E20D9896
:10013000401C0D907F1C761EF1D168464088252812
:1001400007D100200790089009900A900B900C901E
:1001500008E0684640880028C2D10D98DEE2010020
:1001600001200843641C21782029F8D023290ED0CF
:100170002B2904D02D2907D030290BD00DE0010008
:100180000220084380B2EDE701000420F9E70100F6
:100190000820F6E701001020F3E72A290FD129688B
:1001A00029600A68091D29600F92002A05D551426D
:1001B0000F9101000420084380B2641C12E000216A
:1001C0000F910AE00F9A7B4B9A4205D093009A1840
:1001D0005200511830390F91641C21780A00303ACE
:1001E0000A2AEFD321782E2906D00021C9430E9187
:1001F00021E000BF30280000641C21782A2907D1A3
:10020000296829600A68091D29600E92641C12E0A1
:1002100000210E910AE00E9A664B9A4205D0930097
:100220009A185200511830390E91641C21780A0036
:10023000303A0A2AEFD302A9088726783100044809
:1002400078440C3001F0ABF8002803D0641C02E0C5
:10025000DC270000002602A83A30067002A83A30D7
:100260000078682804D12178682901D1622005E04E
:100270006C2807D120786C2804D1712002A93A316A
:100280000870641C12A806902678641C300025387B
:100290002AD01C3800D1D6E0001F022800D8D2E0B6
:1002A000133800D1F6E0093800D1CCE0801E00D12F
:1002B0005EE1401E00D132E1401E022800D8C2E0BB
:1002C000001F00D12BE1401F00D18DE0401E00D166
:1002D000E0E0401E2FD0C01E0BD0801E00D1D9E020
:1002E000C01E00D1D6E066E101200790252012A9AA
:1002F0009FE002A83A3000786C282868286016D061
:100300000668001D286005960E9F002F03D530005B
:1003100001F04FF809E03A000021300001F051F8F7
:10032000002801D0801B00E0380008904FE10268EF
:10033000001D286038E1286828600268001D2860D8
:100340000020C0430021104002AA03C212A8059059
:10035000069B3C2602A803C8002904D1002802D12C
:100360000E9A002A14D0761E01960207120F303220
:10037000D2B23A2A00DB27329A5500090A07104305
:10038000090901D1002803D0059A9F19BA42EAD37E
:100390003C20801B0890991905910E9988420DDA2E
:1003A000081A0A9002A8008F0349014002A8018799
:1003B0000DE100BFFFFFFF7FEFFF0000002900D429
:1003C00005E102A93831097814220A40102A00D028
:1003D000FDE00F99079A891A0A9A891A0E1A012EB6
:1003E00000DAF4E00A96F2E002A83A3000786228D7
:1003F00019D0682806D06A280CD06C281BD0712828
:1004000008D018E0286828600168001D28600D9851
:100410000880DCE0286828600268001D28600D98CC
:10042000C11703C2D3E0286828600168001D286056
:100430000D980870CBE0286828600168001D2860CE
:100440000D980860C3E02A68D21D072082432A6005
:1004500003CA2A6002AA03C2002903D5012007901B
:100460002D200CE002A8008F810703D50120079002
:100470002B2004E0C00704D501200790202012A9FA
:10048000087012A8079940180590310002A800F0E2
:10049000AFFB9CE002A83A3002786C2A0BD0712A9C
:1004A00001D06A2A07D12B68DB1D072083432B600C
:1004B00003CB2B6005E0296829600868091D2960C5
:1004C000002102AB03C3682A03D102A803C880B28B
:1004D0000BE0622A03D102A803C8C0B205E0742A67
:1004E00001D07A2A04D102A803C8002102AA03C2BB
:1004F00002A838300078000731D502A803C80029C7
:1005000001D100282BD020203043782827D130205B
:1005100012A908700220079012A846701FE0290057
:1005200002A83A30007800F0FBF802AA03C202A841
:10053000002904DA0798411C07912D210DE0008F56
:10054000810704D50798411C07912B2105E0C007BE
:1005500005D50798411C0791202112AA115412A811
:10056000079940180590310002A800F0A7FA2EE084
:1005700002A83A3000786C2809D00120079028683A
:1005800028600168001D286012A801701FE028681B
:1005900028600168001D286068468180002001A94C
:1005A0004880C0430E9001AA02A9249800F0ECF8FC
:1005B00000280CD5B0E001200790252012A9087072
:1005C000002E04D00798411C079112A90E540F98D1
:1005D0000799401A0A99401A0899401A0B99401A2B
:1005E0000999401A0C99401A019002A838300078F5
:1005F000400711D4202069460870002609E0012335
:100600006A4602A9249800F0A4FE002800D083E0E6
:10061000761C01988642F2DB079F12AE0BE0317820
:100620000498249A90470490002875D00D98401C97
:100630000D90761C7F1E002FF1D130206946087086
:100640000A9F002608E001236A4602A9249800F0C8
:1006500080FE002860D1761CBE42F4DB089F059E18
:100660000BE031780498249A90470490002853D0E6
:100670000D98401C0D90761C7F1E002FF1D130206C
:10068000694608700B9F002608E001236A4602A90C
:10069000249800F05EFE00283ED1761CBE42F4DBBA
:1006A000099F0598089946180BE031780498249A18
:1006B0009047049000282FD00D98401C0D90761C78
:1006C0007F1E002FF1D13020694608700C9F002654
:1006D00008E001236A4602A9249800F03AFE0028A7
:1006E0001AD1761CBE42F4DB02A8383000784007ED
:1006F00000D4F7E4202069460870002600E0761C4C
:100700000198864200DBEDE401236A4602A92498A1
:1007100000F01FFE0028F2D00020C04325B0F0BD3D
:100720000A00622822D0682819D06A2808D06C28CC
:1007300023D0712804D074281FD07A2808D01CE058
:100740001368DB1D07208343136003CB13607047DE
:10075000116811600868091D116000217047116857
:1007600011600868091D116000B20BE0116811608A
:100770000868091D116040B204E011681160086842
:10078000091D1160C1177047F4B598B007000C003F
:10079000206B002800D50E48029000F01EFE616B11
:1007A0000818049009487844223003C806AA03C2F6
:1007B0003820205C400702D4049841280AD208A8B7
:1007C000039040200490002613E000BF6822000040
:1007D000FFFFFF7F00F006FE03900028F3D100200A
:1007E000C04369E11898801C189002980099401A3B
:1007F00002900298012800DAD1E006AA1898018830
:1008000001A8401C00F04AFE0090002800D5DAE064
:1008100018980088002804D10098401E009000D548
:10082000D1E002980099884200DAB8E06069049942
:10083000009A8218914200D3A0E066634142206A88
:10084000081AA169401A616A401AE169401AA16A4E
:10085000401A05903820205C400711D420206946BA
:100860000871002509E0012301AA2100380000F0E9
:1008700070FD002800D0A6E06D1C05988542F2DBD3
:100880006669039D0BE02978A068B847A06000283E
:1008900000D198E0E06A401CE0626D1C761E002EDC
:1008A000F1D1302069460871266A002509E001234C
:1008B00001AA2100380000F04CFD002800D082E0A1
:1008C0006D1CB542F3DBA669E5680AE02978A068EB
:1008D000B847A060002876D0E06A401CE0626D1C3A
:1008E000761E002EF2D1302069460871666A002516
:1008F00008E0012301AA2100380000F02AFD0028A9
:1009000061D16D1CB542F4DBE669E068A169451868
:100910000AE02978A068B847A060002853D0E06AB0
:10092000401CE0626D1C761E002EF2D1302069461C
:100930000871A66A002508E0012301AA21003800F9
:1009400000F007FD00283ED16D1CB542F4DB3820D5
:10095000205C400710D5202069460871002508E07A
:10096000012301AA2100380000F0F3FC00282AD15D
:100970006D1C05988542F3DB00266661009A01A98B
:10098000491C03986369C01800F094FD60690099E0
:100990004018606118980088002800D022E7606B3A
:1009A0006169401A216A401AA169401A616A401AB5
:1009B000E169401AA16A401A02903820205C400781
:1009C00011D400250CE00026F6436EE02021A0683B
:1009D000B847A0600028F6D0E06A401CE0626D1CB9
:1009E00002988542F2DB6369039A2100380000F027
:1009F000B0FC0028E7D1206A0090002509E03021F2
:100A0000A068B847A0600028DDD0E06A401CE06222
:100A10006D1C00988542F2DBA369E2682100380072
:100A200000F097FC0028CED1606A0090002509E014
:100A30003021A068B847A0600028C4D0E06A401CFC
:100A4000E0626D1C00988542F2DBE369E068A16911
:100A500042182100380000F07CFC0028B3D1A06AC5
:100A60000090002509E03021A068B847A060002868
:100A7000A9D0E06A401CE0626D1C00988542F2DB60
:100A80003820205C40070ED5002509E02021A06811
:100A9000B847A060002896D0E06A401CE0626D1C58
:100AA00002988542F2DB66616663039808A9884272
:100AB00001D000F02DFD300019B0F0BDF3B583B0CA
:100AC000006900906846027C6F2A01D1082406E084
:100AD00020211143782901D00A2400E010243C256C
:100AE000039803C806000F00642A01D0692A07D1C1
:100AF000002905DA00200021801BB94106000F0003
:100B0000002F12D1002E10D10398006B00280CD1B9
:100B1000082C3CD1039838300078000737D53B25A6
:100B2000302000993B31087031E06D1E0195300096
:100B300039002200E31700F02FFD3032D2B23A2AFA
:100B400003DB6846007C513812180098425530008B
:100B500039002200E31700F01FFD06000F0001D14D
:100B6000002E05D00398C068009949198842DCD34B
:100B7000082C0CD1039838300078000707D500986E
:100B8000405D302803D06D1E3020009948553C2030
:100B9000401B0399886100994919039AD160039910
:100BA000096B884209DA081A039908620398008FD2
:100BB0000E4901400398018715E0002913D50399D8
:100BC0003831097814220A40102A0CD10399496B54
:100BD000039A5269891A039A126A891A0D1A012D09
:100BE00001DB0398056205B0F0BD0000EFFF0000D7
:100BF000F3B591B006AD03C802AA03C212A80078EB
:100C000020210143009161290BD01198006B00282D
:100C100001D5062003E004D1672902D101201199F2
:100C20000863119841684800400DAA4A904225D1B6
:100C3000080310D11198006800280CD103201199E5
:100C4000886112A8007861381A2842D32348784472
:100C50008A3000900BE003201199886112A8007877
:100C600061381A2831D31E4878447430009003222A
:100C700000991198C06800F01DFCF1E1012817DA15
:100C8000119800F0BEFC012812DB00270026009816
:100C9000612832D11198C06830210170401C411C7C
:100CA000119AD16012A9097861291FD178211EE01B
:100CB00011994968884A0A4088491143119A51603C
:100CC0008749461A0027FF43E1E706487844143075
:100CD000CCE7054878441030BBE700BF6C1D00002E
:100CE000601D0000581D00005C1D000058210170AF
:100CF00011984069801C11994861002F03D100248C
:100D000068468780A2E10098612800D09FE0119892
:100D1000046B002C01D5212400E0641C24B2601C6B
:100D20000090119803C804AA03C202A803C80022B5
:100D3000002300F088FC04A803C802D28022120617
:100D4000514002AA03C2301F6946888000270F76EF
:100D500006AE761C00E0F61D0098012830DB02A8E4
:100D600003C80022002300F087FC29D21C2102A81E
:100D700000F0B0FC02A803C800F03AFD050000989E
:100D8000C01F009001280ADB280000F05BFD020074
:100D90000B0002A803C800F0CCFD02AA03C2F61D96
:100DA000072004E0761E2907090F31702D11012D4F
:100DB00001DB401EF6D5401ECDD4761E3770FAE713
:100DC00006A8401C311A06AD6D1CA14200DA0C00C9
:100DD00024B2200032D4884205DA06A909184978DD
:100DE000082900DB0F2706A9091801E0641E491E27
:100DF000401E0A78BA42F9D00F2F04D106A909186B
:100E00004A78521C4A70002806D506AD641C019829
:100E100000B2001D6946888024B2601E0ED42918D5
:100E20000A783032D2B23A2A03DB12AB1B783A3B53
:100E3000D2180A70401E491E0028F1D51198006B87
:100E4000002800D402E1601E11990863FEE002A8A8
:100E500003C80022002300F0F6FB06D202A803C854
:100E600080221206514002AA03C236B27D48704366
:100E70007D4900F0EBFD694688800720019909B2A1
:100E8000421A00207949012A20DB049202AA30CAC2
:100E900000260F000498C00707D532003B00200051
:100EA000290000F02DFE04000D000498401004906D
:100EB0003000390032003B0000F022FE06000F0037
:100EC00004980028E6D102A830C028E05442002649
:100ED000674F18E0FF070000FFFF0F800000E03FB2
:100EE000FE030000E00707D504A803C832003B005A
:100EF00000F006FE06000F00641004A803C804AA50
:100F00000CCA00F0FDFD04AA03C2002CEAD102A81D
:100F100003C832003B0000F0B5FE02AA03C20098ED
:100F2000662803D1019800B20A3000E0062011992A
:100F3000096B08180490142801DB1320049030205A
:100F40006946087606AC641C049801283ADB02A8BE
:100F500003C800F05FFC05000834042628000A21BD
:100F600000F077FD0F0028000A2100F072FD050057
:100F7000641E303727700A2100F06BFD0F00280037
:100F80000A2100F066FD0500641E30372770761ECA
:100F9000E4D108340498083804900128D4DB02A86E
:100FA00003C800F037FC00F057FC02000B0002A859
:100FB00003C800F0BEFC00222E4B00F0A1FD02AAE7
:100FC00003C2C4E706A8401C201A06AD6D1C6A4681
:100FD00005E0401E019909B2491E91806D1C2978D7
:100FE0003029F6D00099662903D1019909B2491C2C
:100FF00004E0652901D1012100E00021119A126B62
:10100000541824B2A04200DA040024B221001DD4F6
:10101000814204DA685C352801DB392000E03020A9
:101020006A1800E0641E521E491E13788342F9D0EC
:10103000392802D1685C401C6854002906D56D1E11
:10104000641C019800B2401C69468880019800B277
:10105000009023B22A0012A80178119800F00CF831
:1010600013B0F0BD97750000A08601000000244079
:101070000000F03F84D79741F3B589B015001C00FC
:1010800000F07BFE0190406A00786946087209987A
:10109000076B012C01DA0124ADA50AA801782020F4
:1010A0000843109E662801D1761C18E0672800D0FE
:1010B0009FE036B20321C9438E4200DA9DE0BE4272
:1010C00000DB9AE0761C099838300078000702D4DB
:1010D000BC4200DA270036B2BF1B00D500270998B2
:1010E000C06800900998806900990918019136B28A
:1010F000012E2CDA401C3021019A1170012F04DAE4
:10110000099938310978090704D56946097A009A9E
:101110001154401C099988617042874200DA7E426E
:1011200036B2704209994862BF19A74200DA3C0002
:1011300024B20998C461220029000098099B9B6988
:10114000C01800F0B7F9381B09998862E1E0B44291
:1011500020DA22002900019800F0ACF90999896988
:101160000919099A9161301B099A5062012F04DA1A
:10117000099838300078000709D56846007A099A3E
:10118000D26850540998C069401C0999C8610998EF
:101190008762BEE032002900019800F08BF90998BF
:1011A00080698019A41B012F04DA09993831097864
:1011B000090705D56946097A099AD2681154401C75
:1011C0000999886124B2A74200DA3C0024B22200C7
:1011D000A9190998C068099B9B69C01800F06AF9B1
:1011E00009988069001909998861381B0999486232
:1011F0008FE0612914D1702015E0BC4205DA09990D
:1012000038310978090700D427007F1E00D5002750
:101210000AA80078672801D1652004E0452002E093
:10122000412902D150200AA9087009988169481CF7
:10123000099AD26800922A78009B5A54691C012F9F
:1012400007DA099A38321278120702D409998861AC
:101250001BE06A46127A009B1A54401C099A90615E
:10126000012F12DB641E24B2A74200DA3C0024B234
:101270002200009B181800F01DF9099880690019D8
:1012800009998861381B099948620998C0680999C9
:10129000896945180AA8007828706D1C36B230009C
:1012A00003D42B2028706D1C03E02D2129706D1CA8
:1012B0004642002405AF08E00A2203A800F078FDAA
:1012C00004983870039E641C7F1C31B20129F3DA44
:1012D000022C08DA0AA8007820210143652902D1EE
:1012E000302028706D1C002C09D1302028706D1C16
:1012F00007E0641E05A8005D303028706D1C012CCD
:10130000F7DA0998C068099989694018281A099973
:10131000C86109983830007814210140102914D18F
:10132000099840690999896940180999496A4018DA
:101330000999C96940180999896A40180999496B3E
:10134000884202DA081A099908620BB0F0BD000061
:10135000300079B50E0014001D00002005E0F06A91
:10136000401CF0620020641C6D1E002D08D0217806
:10137000B068009A9047B0600028F0D10020C043C8
:1013800076BDF8B504000F0015001E0000F020FD2A
:1013900033002A003900200000F02EFDF2BDC9B252
:1013A00000E0401C02788A4202D0002AF9D10020D5
:1013B0007047010000E0491C0A78002AFBD1081A96
:1013C0007047C9B201E0401C521E002A03D00378C6
:1013D0008B42F8D170470020704780B500F0F8FCD0
:1013E000012002BD70B505002C000F340720844396
:1013F000C046C046A54233D2082C04D2082402E0DD
:10140000083000F085F82448026811000CD1011D55
:101410000A68002A20D01368A34212D2111DF7E7F0
:101420001D68A5420DD2191D0B68002BF8D112685A
:10143000011D00E0191D0B6893420DD01D68A542E7
:10144000F8D300290CD00D682A681300083BA3428A
:101450000AD26A680A600FE000F0ECFC0028CFD1E5
:10146000C046C046002070BD2B190B606E685E60E0
:10147000121B0B681A602C600968002904D04A68A6
:10148000002A01D0091D00E000210160C046C046CD
:101490000835280070BD0000E003002070B504008E
:1014A0000D00160000F094FC32002900200000F02E
:1014B00099FC70BD124207D08B0706D00B78491CEF
:1014C0000370401C521EF7D87047830706D00B7874
:1014D000491C0370401C521EF9D1704770B4103A79
:1014E00003D378C9103A78C0FBD2530701D318C987
:1014F00018C001D508C908C0D20704D30B880380DF
:10150000891C801C002A01D50B78037070BC7047C1
:10151000002800D1704738B5083804002068082832
:1015200036D3400734D1C046C0461A484168002926
:1015300001D08C4203D26160446019E019004B680D
:10154000002B01D0A342F9D30B68CD18AC421DD3B8
:10155000A54204D122689A180A600C0008E04A6883
:10156000002A03D02368E3189A420FD362604C60CC
:10157000616800290AD02268A3188B4206D1002393
:10158000036008681018206048686060C046C04664
:1015900031BD0000E0030020124224D0994228D936
:1015A00070B500251B4202D00C00002109E0002488
:1015B000012649186441944200D3A41A7641F8D315
:1015C0003100012601E0764109D2001864416D41E5
:1015D000A41A9D41F7D2A4185D41B619F5D3300085
:1015E00022002B0070BD1B42D8D108B5C046C046B2
:1015F00008BD01D19042D3D202000B00002100208F
:10160000704730B401004B68802212061A40012056
:101610001B031B0B4B600BD10B68002B08D10DE09B
:101620000B686400DD0F25434D605B000B60401EBE
:101630004C68E302F4D523031B0B4B604B681A4341
:101640004A6030BC704730B4012464054D00EC4260
:101650000BD85D00EC4208D80C001C436400044326
:10166000144304D2994200D1904230BC7047FCD060
:101670008B42FAD18242F8E730B4012464054D0070
:10168000EC420BD85D00EC4208D80C001C4364000F
:101690000443144304D28B4200D1824230BC7047D1
:1016A000FCD09942FAD19042F8E730B401210022EF
:1016B0000368001D002B0BD00468001D0C4202D0F3
:1016C0004D466D1E64192260241D1B1FF0D0FAE7E1
:1016D00030BC704770B504000D0060684000400DDC
:1016E0003F4EB04207D16068000302D12068002855
:1016F00016D0022070BD002804D12000FFF781FF22
:1017000001286BDA012D0DDB311A8D420AD3606896
:10171000002802D50020334901E00020310503C430
:10172000012070BD4142A942616806DA2E4A0A4092
:10173000281800051043606047E08022120611401F
:1017400062681203120B80235B0313436360401E25
:101750002D1800202A003532352A02D3616020601E
:1017600070BD00221E23DB439D4204DA203522682F
:10177000636823606060684211D0521E9241D24378
:10178000D20F20231B1A25689D402A432568C54097
:1017900066689E402E4326606368C340636060684D
:1017A000084360601148824206D2802000068242CF
:1017B0000ED12078C0070BD52068401C206020681F
:1017C000002805D16068401C60600020C04370BDE7
:1017D00060688842F9D120680028F6D1002070BDE9
:1017E000FF0700000000F0FFFFFF0F8001000080F6
:1017F000F4464A1805D200F00FF801D580174008CA
:10180000604700F009F80121C907884200D90800A3
:10181000404260474A1812D2400DC90208430121D4
:10182000C9070843520D40210901521A521C06D41F
:1018300052421F3201D4D0407047C0177047002079
:101840007047FEE7010009D5F446404200F006F873
:101850000122D20711436047010000BF422212015A
:10186000D21E004207D002D4521E0018FCD5C10A75
:1018700040051205891870478B4200D1824205D974
:101880008446100062468C4619006346DF184C18E7
:10189000640D7F0D3AD0661C760537D0E61B352ED9
:1018A00034DCDB022B43DB0A0C0DC9022943C912CD
:1018B000202E0DDB1700203E06D01F00F741F3401D
:1018C0005F400026012A7741C01871410DD217E010
:1018D0001700F741F2405740F3415A40B340F340FC
:1018E0005A400026801859410AD3A21C52050FD035
:1018F000C207012F724117004008CB07184349085F
:10190000641C24054208AF4170416141F0BC70473E
:10191000641C21050020F9E76B4010E06B40ABE749
:10192000F742F3D1E943F1E72442EFD1002000214F
:10193000ECE7F0B40125ED070F005F40EED40C009A
:10194000871A9C4105D2C01BA141D219634169404D
:101950006B40AE0ADF184C18F442E1D2640D7F0DE3
:10196000E2D0E61B362ED1DCDB022B43DB0AA44699
:101970000C0DC9022943C90A012E28DC04D1D6075F
:101980005208DF073A435B08EF0A764290419941DB
:1019900014D039423BD1B61940414941761C3942F5
:1019A00004D1761C001849413942FAD0B943674640
:1019B000B74208D9A41B24052143A7E70042EAD176
:1019C0003642E8D1A2E7E40AE10700209EE7202E94
:1019D0000BDD203E1F00F340F7415F40012A00224B
:1019E00057417E42984191410BE01700F741F24088
:1019F0005740F3415A40B340F3405A407E42904131
:101A000099410A0303D2641EB61940414941002797
:101A1000641E24054208AE4178416141F0BC704724
:101A2000F446002804D4494200F013F840426047CD
:101A30004042002905D45FD000F00BF840424942F3
:101A40006047494200F005F84942604703460B43AE
:101A5000E6D40022030A8B420BD203098B4219D22F
:101A600043088B422ED2411A00D201465241104601
:101A70007047FF2209023FD012068B4205D3121293
:101A800009028B4201D31212090203098B4219D3B6
:101A900000E0090AC3098B4201D3CB01C01A5241AD
:101AA00083098B4201D38B01C01A524143098B42F7
:101AB00001D34B01C01A524103098B4201D30B01E0
:101AC000C01A5241C3088B4201D3CB00C01A524105
:101AD00083088B4201D38B00C01A524143088B42CA
:101AE00001D34B00C01A5241884200D3401A5241E0
:101AF000CFD201461046704708B5C046C04608BD63
:101B0000F0B50E005E400125ED072E40B446AE0A4A
:101B1000DF184C18F44208D2F7420ED2640D01D0FF
:101B20007F0D12D100206146F0BD05D1F74201D8EA
:101B30007F0D05D10020C143F0BDFBD1640DF9D06C
:101B40000020C143490549088FE0E419C902DB02BE
:101B500029432B43DB0A460DC00231438E4630B485
:101B600087B295B27D432E0CADB2140C7C43A41900
:101B7000260C240425439CB27C43A419190C7943F8
:101B8000270CC919A4B20F043C43090C000C97B2EE
:101B900047432E0CBE193543ADB2170C4743360CE4
:101BA000BF19A6B2BF193E043543240C3E0C3619AA
:101BB0009FB24743BF19BCB23E0C89191F0C474363
:101BC0007F183E043443390C704680B297B24743C5
:101BD0002E0CBE193543ADB2170C4743360CBF1956
:101BE000A6B2BF193E043543240C3E0C36199FB2F1
:101BF0004743BF19BCB23E0C89191F0C47437F18DD
:101C00003E043443390C77463F0C90B278432E0C97
:101C100080190604ADB22E43050CA0B22D18120C8B
:101C20007A435019020C80B2240CA4189AB27A4359
:101C3000121914042043120C89181B0C7B43C91879
:101C400030BCEF0A394203D1B61940414941641E04
:101C50006F12BF0DE41B0BDBFF19BC4211DA240528
:101C600000274208AE417841614166463143F0BDEC
:101C7000641C05D1401C6141CF0201D34908F4E73F
:101C800050E75DE7F0B40E005E400125ED072E4001
:101C9000B446AE0ADF184C18F4423BD2F74241D2A8
:101CA000640D43D07F0D38D0E41BC902DB02294309
:101CB0002B43CF0ADB0A0600B61A9F4104D2641EEA
:101CC000B6197F41B6185F416812800D24180018BC
:101CD000844222DAE80C0021B6197F41B61A9F41EE
:101CE00002D2B6185F413F1C40414941F4D3241C45
:101CF00021DD2405B6197F41B61A9F4105D337432C
:101D0000C60737430026012F7041614166463143C3
:101D1000F0BC7047FCD1F74205D20020C143490511
:101D20004908F3E704D00020C143F1E77F0DFAD062
:101D300000206146ECE72442FAD1401C61410F03C8
:101D4000F6D30020E2E7FEE780B51248C046C04661
:101D500011A1016041608160C160016141618161E7
:101D60000EA242628162C162016341630CA282637E
:101D70000DA2C2630164416401BD10B50548C046AF
:101D8000C04604002068002801D1FFF7DDFF2000D5
:101D900010BD000000000020000000002E00000028
:101DA00066616C7365000000747275650000000068
:101DB0007CB504000E00150030002900FFF746FE38
:101DC00000904543701B0190684603C803C476BD6C
:101DD00080B50348C046C046806902BD00000000CF
:101DE00090000020002804D10EA003C803C20020E8
:101DF0007047017001207047002904D10BA003C86F
:101E000003C300207047002A02D10120C04370475D
:101E1000002801D00A7802800978481E8041C0431A
:101E2000C00F70470000000000000000000000002C
:101E30000000000007490868002801D00020704712
:101E4000054807229043086004499143091A01603C
:101E5000704700BFE8030020F70B0020F00D0020C2
:101E60000022425070474058002808E0C1229200EA
:101E700081507047C122920080580140080000D074
:101E80000120C0B27047C222920081507047902159
:101E9000C90041180868086070478C4B01E0A12315
:101EA000DB00C018016082607047A321C900405860
:101EB000C0B27047012242507047000300167047BD
:101EC00052000A4399001143009A12020A430199F1
:101ED000090411437E4A80001150704700B583B059
:101EE000002101910091002301220121FFF7E8FF69
:101EF00007BD00B583B000220192032200920B00BF
:101F000000220021FFF7DCFF07BD0121814071485D
:101F10000160704738B505000C002068FFF7F5FF39
:101F20002068FFF7DBFF00216068FFF7E2FFA06990
:101F30002968A94A8850607D217D0143286848327C
:101F40008150626821682868FFF7A7FF207D01287B
:101F50000ED10021A068FFF7CCFFE068FFF7D5FFA6
:101F6000E068FFF7BBFFA268E1682868FFF797FF0A
:101F700031BDF8B504000E001700B54821791C22C8
:101F800051434518E87E002801D00820F2BD3100F9
:101F90002000FFF7BFFF6F60306928606868002885
:101FA00014D0367F8E2149002068FFF759FFA22107
:101FB00049002068FFF754FFB0492068FFF756FF3B
:101FC0002068FFF77AFF310000F026FA042021682C
:101FD000A022D20088500020E8752876A87501213B
:101FE000E976A876F2BD38B504000D008E214900CF
:101FF000FFF736FFA868A98A405CA98A491CA98214
:10200000AD49605031BDF2B582B006001700904C6A
:1020100030791C2148432518300000F04BF8002887
:1020200001D01120FEBDAF750298A8600020A882E3
:1020300030791C2148432418002000908E277F000F
:1020400039003068FFF70CFF08213068FFF732FFD6
:1020500021003068FFF7C7FF6068002828D180257D
:102060006D000FE039003068FFF7FDFE002802D157
:10207000A08AA842F6D1A08AA84203D021003068E5
:10208000FFF7B1FFA08AA17D8842EBD3A08AA842C6
:1020900002D10F20009009E039003068FFF7E3FE1D
:1020A0000028F9D00C213068FFF704FF0020A0754C
:1020B0000098FEBD664900791C2250430818807DB7
:1020C000002800D001207047000000000C0500002F
:1020D000000700500805005010B504009221490087
:1020E0002068FFF7BDFE842149002068FFF7B8FE95
:1020F0000021E3E070B504000D0084214900E87D73
:10210000002806D12000FFF7ABFE2000FFF7CDFE30
:1021100070BD2000FFF7A4FE6E7E2000FFF7C5FE15
:10212000E9688855687E401C687670BDF1B54848FE
:10213000009909791C2251434718B87E034302D104
:102140000098FFF7C9FF00980068796800293DD121
:10215000A2214900FFF784FE9221490000980068FF
:10216000FFF781FE06008421490000980068FFF710
:102170007AFE0400A221490000980068FFF773FE70
:102180000500204331000143E6D02900314308D146
:10219000390000980068FFF7ADFF787EF97D88422E
:1021A000DAD30020F875002E01D00320F2BD002DF7
:1021B00001D00F20F2BD00980068B97E002901D03F
:1021C000002100E00421FFF775FE03E08121890072
:1021D000FFF74CFE0020F2BD24050000F7B51C48B7
:1021E000009909791C2251434418002600258127B3
:1021F000BF006068002804D0390000980068FFF72D
:1022000042FEE07D002813D0207E002809D06068BF
:10221000002804D0390000980068FFF727FE11203D
:10222000FEBD0125019820616846007A207606E00F
:102230006846007AE0750198E060667626762B00A5
:102240006846027A01990098FFF770FFFEBD000012
:10225000C403002038B504006D4D20791C2148438B
:102260002818807E002808D12000FFF735FF20794C
:102270001C21484328180121817631BD80000200CD
:102280001FB50300684601240470017201921968A9
:102290005A6890471FBD00B585B0020000206B460C
:1022A00018701972916801919075116868465268AA
:1022B000904705B000BD00001C0500002068FFF736
:1022C000F9FD10BDF0B585B005000C000027802198
:1022D0008900FFF7CFFD002829D092267600310033
:1022E0002800FFF7C0FD002821D031002800FFF7AB
:1022F000B7FD812189002800FFF7C5FDA07E0028D9
:1023000003D104212800FFF7D5FD6E46022030706E
:102310002800FFF7BCFD0390E07D3072E06801907B
:10232000E7752776216868466268904731E00421A6
:102330002800FFF79FFD00282BD0842149002800AA
:10234000FFF791FD002824D021002800FFF7D2FEDE
:10235000E07D617E88421CD1207E002807D0E268A3
:10236000617EE0752069E060277667760EE0A07EEA
:10237000002803D104212800FFF79CFD812189005A
:102380002800FFF780FDE775E268617E2000FFF717
:1023900077FF8E26760031002800FFF764FD0028C5
:1023A00012D0A08AA17D884204D221002800FFF724
:1023B0001AFE09E031002800FFF752FDA17D002937
:1023C00002D02000FFF767FF283631002800FFF712
:1023D0004AFD002813D031002800FFF741FDA07E00
:1023E000002803D000212800FFF764FDE07D0028CD
:1023F00005D0E775E268617E2000FFF741FF05B078
:10240000F0BD80B502490348FFF75CFF01BD000045
:10241000C40300200020004010B58207D30EFF2423
:102420009C40E2438907090E9940030005D50B4CF7
:1024300003071B0F083B9B0801E0094C83089B0026
:10244000E3181C682240114319600121C006C00E28
:102450008140044801600448016010BD1CED00E0AB
:1024600000E400E080E200E000E100E08168C06894
:10247000401A70477CB5664C0178002935D0022996
:1024800027D04DD240680178201D00F00BF9656916
:102490000126002803D069460E70019007E0201D38
:1024A000FFF7E4FF002804D0002069460870684662
:1024B000A847201DFFF7DAFF2189814207D30122B7
:1024C000210019311C342000FFF788FE73BD2670EF
:1024D00073BD6A461170C068019001222100193154
:1024E00020001C30FFF77AFE17E021001831200091
:1024F000243000F0E7F8002806D10122210018312D
:1025000020001C30FFF77FFD20002430FFF7AEFFD6
:10251000002805D10320694608706846616988472C
:1025200073BD0000F0B589B006000D001F00384CE7
:102530006261002D01D1072047E06A6892B22968E4
:10254000201D00F09AF800283FD1EA6892B2A968ED
:102550002000243000F091F8002836D1684600BFF2
:102560002DA12022FEF7BAFF70690690307C00286A
:1025700000D00120694608750F770025707C00287F
:1025800000D00E204875F0680290B0680390306863
:102590000190706800901F4A20001C30FFF7E9FC92
:1025A000002812D1257030680021C94388420BD021
:1025B00020001C30FFF74EFE0122210019311C348F
:1025C0002000FFF70BFE00E0002009B0F0BD38B599
:1025D0000F4C01002000243000F064F8050015D1F4
:1025E00020001C30FFF766FD00280FD121001831B4
:1025F0002000243000F066F8002807D101222100D5
:1026000018311C342000FFF7FEFC0500280032BD05
:102610003C01002075240000FFFFFFFFFFFFFFFFCC
:10262000FFFFFFFFFFFFFFFF0000000000000000B2
:1026300000E0D701030000008168C068401A7047BD
:1026400010B50268C36884882340D154C168491C0E
:10265000C16010BD10B503688468611880880140AE
:10266000585C107010BD10B504000A000021FFF77F
:10267000F1FFA068401CA06010BD10B5002901D179
:102680000E2010BD002A03D0531E14001C4001D0A0
:10269000092010BD0160511E818000218160C16050
:1026A000002010BD38B505000C00FFF7C5FFA98854
:1026B000814205D321002800FFF7C2FF002032BD70
:1026C000042032BD38B505000C00FFF7B5FF002827
:1026D00005D021002800FFF7C6FF002032BD0520ED
:1026E00032BD816807E00268116851185368CB1841
:1026F000C36008320260C2689142F4D04A1C826012
:1027000008787047F0B587B001000831029102687F
:102710005208D20089180391002504950595016897
:102720004908C9004418083440686946C307DB0FEC
:102730004B704008C00020180190002735E002A827
:10274000FFF7CFFF46B20AE00298016840180490F4
:102750000299496840180590029808300290049840
:1027600005998842F0D0411C0491007869460870B0
:10277000BD4210D10198844201D100F01EF82568B5
:1027800068464078002801D048462D1860682F1808
:102790000834BD42EED06846007828706D1C002ECB
:1027A00008D5761CE4D1BD42C9D101988442C6D176
:1027B00007B0F0BD761ED2D5F5E780B5012000F058
:1027C00001F801BD2021090326311820ABBEF9E72D
:1027D00080B50178022901D0012902D1406800F0BA
:1027E0005FF801BD30B58BB000200022F021490414
:1027F0000B00D340DB0703D50323194C950063512D
:10280000521C202AF4D3174A5160106004A800BF5C
:1028100017A11822FEF762FE13480090802149009C
:1028200001914018029003910323104A694604A8BD
:10283000FFF778FE002801D000F032F812A000F077
:102840003FF8E0B2FFF7C3FE0028FAD1E4B2712CE2
:1028500001D0512CF5D100BF0EA000F031F8FEE7F9
:10286000000700500805005074010020D127000027
:10287000090000000B000000080000000A00000032
:102880000000000000E0D7010D0A53746172743A31
:10289000200D0A00200D0A45786974210D0A0000F8
:1028A00010B584B0040068460C2100F033F802949F
:1028B0006A460021014800F02FF81FBD01400000CA
:1028C0000EB400B582B003A900916B46020001214D
:1028D000034878440A30FDF7F3FB029906B0084735
:1028E000EF010000130030B414001500103902D3BA
:1028F00010393CC0FCD2490700D30CC000D504C03D
:10290000890002D30280801C002900D5027030BCEF
:10291000704700000022E5E7BFF34F8F03480449EA
:102920000860BFF34F8F00BFFDE700BF0400FA054A
:102930000CED00E010B5F0200F2228490B78012B98
:102940001BD14B68134018D18B68034202D1CC686D
:1029500004400CD0F0241C40102C02D1CC68044060
:1029600005D00340302B08D1CB68034005D11C4B68
:102970001C4C2360E30B1C4C23600B78012B0CD107
:102980004B68134009D18B680340402B05D1CB68BD
:10299000034002D10123154C23600B78012B1BD17E
:1029A0004B681A4018D18A68F0231340A02B02D13B
:1029B000CB68034005D00240D02A0DD1C968084039
:1029C0000AD10B480168012904D00A490160016855
:1029D0000129FCD1C021416110BD0000E00F00F0D1
:1029E000DFFF07C004050040186C004008060040E7
:1029F00000EC0640759300000321064802680A4374
:102A00000260054802680A4302600448804704489F
:102A1000004700002405004054050040352900000F
:102A2000032B00000000000000000000686A6C74C6
:102A30007A4C000000000000000000006E616E0093
:102A40004E414E00696E6600494E460010B507497A
:102A500079441831064C7C44163404E0081D0A6899
:102A6000891888470100A142F8D110BD0800000074
:102A70003000000037ECFFFF7802000074010020F6
:102A80000000000081FCFFFF0200000002000000C7
:102A9000B2000000390000000000002074010000B6
:102AA0000120C046002801D0FFF7D0FF0020C0461B
:102AB000C046FFF797FE00F000F880B500F002F87E
:102AC00001BDFEE707463846FFF77CFEFBE738B559
:102AD00005000C00200000F005F8A04200D0002501
:102AE000280032BD80B5024900F004F802BD00BFE5
:102AF000FC00002010B50400C0B2FFF768FD200004
:102B000010BDC046C046C046C046FFF7C9FFFEE73D
:102B1000FEE7FEE7FEE7FEE7FEE7FEE7FEE7FEE78D
:102B2000FEE7FEE7FEE7FEE7FEE7FEE7FEE7FEE77D
:102B3000FEE7FEE7FEE7FEE7FEE7FEE7FEE7FEE76D
:102B4000FEE7E400F8FFDC00FAFF8100D1001F027D
:102B500004010174030020C40300207403002074E6
:102B6000030020740300203901002020010020C34D
:0B2B70000002200040EB000224F400F3
:0400000500002B03C9
:00000001FF
