:1000000088110020A14C0000E71500004B160000ED
:10001000171700008F1700006F1900000000000084
:100020000000000000000000000000009F19000018
:10003000631E000000000000AB200000272100002C
:10004000233C0000CB210000B12900000345000043
:10005000714C0000934C00009D4700009F4C000035
:10006000BD4C0000BF4C0000C14C0000C34C000060
:10007000C54C0000C74C0000C94C0000CB4C000030
:10008000CD4C0000AD2E0000CF4C0000D14C000044
:10009000BF2E0000D34C0000D54C0000D74C000010
:1000A000D94C0000DB4C0000DD4C0000DF4C0000B0
:1000B0000F390000E14C00000000000000000000CB
:1000C000E34C0000153900001B390000E54C00002E
:1000D000E74C0000E94C0000EB4C00000000000081
:1000E0000000000000000000000000000000000010
:1000F0000000000000000000000000000000000000
:1001000000000000000000000000000000000000EF
:1001100000000000000000000000000000000000DF
:100400002DE9F04F80460FF21860A5B017461D4643
:10041000D0E90023CDE91223002004910D900DF1C5
:10042000500A6FF0004900E0E7190020ADF8020023
:1004300012AB4FF0FF3239460DF1020001F087F8A0
:100440000446012C04DA3878441EA441E043C40F6A
:10045000BDF8020025280CBFA4F1010BA346BBF197
:10046000010F0EDB3E4616F8011B0498C0470490AE
:10047000002800F0CF820D98401CBBF1010B0D90BD
:10048000F1D1BDF80200252807D10020079008907F
:1004900009900A900B900C9005E00028C4D10D98AB
:1004A000BAE240F0010017F8011F2029F9D02329F2
:1004B0000DD02B2904D02D2906D030290AD00CE0EC
:1004C00040F0020080B2EEE740F00400FAE740F0AE
:1004D0000800F7E740F01000F4E72A290ED1296858
:1004E000296051F8042B2960002A0F9204D551424B
:1004F00040F004000F9180B27F1C11E000210F91A9
:1005000009E00F99494505D001EB810302EB430156
:1005100030390F917F1C3A78A2F130010A29F0D3CB
:1005200039782E2903D04FF0FF310E911DE017F8D6
:10053000011F2A2907D1296829607F1C51F8042B43
:1005400029600E9211E000210E9109E00E994945B3
:1005500005D001EB810302EB430130390E917F1C82
:100560003A78A2F130010A29F0D3ADF840000FF239
:10057000B840397801F00CF808B117F8010B8DF884
:1005800042009DF84200682802BF3978682962203D
:1005900005D06C2804BF38786C2803D171208DF801
:1005A00042007F1C14A8069017F8014BB4F12500F7
:1005B0002AD01C3800F0CC80001F022840F2C880EE
:1005C000133800F0EE80093800F0C280801E00F081
:1005D0004F81401E00F02481401E022840F2B88066
:1005E000001F00F01D81401F00F08380401E00F0BE
:1005F000D880401E2DD0C01E0CD0801E00F0D180AF
:10060000C01E00F0CE8056E10120079025208DF815
:1006100050005BE19DF842006C282868286014D0E7
:1006200050F8046B286005960E9C002C04D53046CB
:1006300000F0BEFF044606E022460021304600F0EE
:10064000D3FF00B1841B089440E150F8042B2860CC
:100650002AE1296829603C2451F8040B2960002113
:10066000CDE9020114A80590DDE90201069E11B949
:1006700008B90E9AB2B10206120FA0EB0212303284
:10068000631ED2B23A2AA8BF2732000940EA01709D
:1006900009099A5508BF00281C4603D0059AA319DA
:1006A0009A42E8D3A0190590C4F13C010E98089134
:1006B000814209DA401A0A904FF6EF71BDF8400006
:1006C0000840ADF8400001E1002840F1FF809DF8AE
:1006D000400000F01400102840F0F8800F98079AAE
:1006E000801A0A9A801A401A0128C0F2EF800A90F4
:1006F000ECE09DF8420062281AD0682806D06A28EB
:100700000CD06C281CD0712808D019E0286828600B
:1007100050F8041B28600D980880D7E028682860EE
:1007200050F8042B28600D98C117C2E90001CDE0F4
:100730002868286050F8041B28600D980870C5E0F0
:100740002868286050F8041B28600D980860BDE0F8
:100750002868C01D20F007022A60D2E90001083293
:100760002A60CDE90201002903D5012007902D2040
:100770000CE0BDF84000810703D5012007902B2035
:1007800004E0C00704D50120079020208DF8500018
:10079000079914A808180590214602A800F08CFBC0
:1007A00094E09DF842206C2A0DD0712A18BF6A2A65
:1007B00009D12868C01D20F007032B60D3E9000190
:1007C00008332B6005E02968296051F8040B296083
:1007D0000021CDE90201682A08BF80B207D0622A51
:1007E00008BFC0B203D0742A18BF7A2A02D10021F0
:1007F000CDE902019DF84000000730D5DDE9020196
:10080000002908BF00282AD044F02000782826D1EB
:1008100030208DF850008AF80140022007901EE039
:100820009DF84200294600F003F9CDE902010029B4
:1008300004DA0798411C07912D210EE0BDF8400015
:10084000810704D50798411C07912B2105E0C007BB
:1008500005D50798411C0791202100F80A10079937
:1008600014A808180590214602A800F0A1FA2DE06E
:100870009DF842006C2809D0012007902868286064
:1008800050F8041B28608DF850101FE0286828607D
:1008900001AA50F8041B2860ADF804100020ADF840
:1008A00006004FF0FF300E9002A9404600F0F7F826
:1008B00000280BD5AEE00120079025208DF85000D0
:1008C00024B10798411C079100F80A400F98079936
:1008D000401A0A99401A0899401A0B99401A099926
:1008E000401A0C99441A9DF84000400710D420206B
:1008F0008DF80000002609E0012300AA02A9404665
:1009000000F001FE002840F08580761CA642F3DB53
:10091000079E0DF1500B0AE01BF8011B0498C0471D
:100920000490002876D00D98401C0D90761E002E65
:10093000F2D130208DF800004FF0000B0A9E09E044
:10094000012300AA02A9404600F0DDFD002861D184
:100950000BF1010BB345F3DB089EDDF814B00AE0A0
:100960001BF8011B0498C0470490002852D00D9832
:10097000401C0D90761E002EF2D130208DF8000024
:100980004FF0000B0B9E09E0012300AA02A940468C
:1009900000F0B9FD00283DD10BF1010BB345F3DBAD
:1009A00005980899099E01EB000B09E01BF8011B53
:1009B0000498C047049068B30D98401C0D90761EB3
:1009C000002EF3D130208DF800004FF0000B0C9E6C
:1009D00008E0012300AA02A9404600F094FDC8B92E
:1009E0000BF1010BB345F4DB9DF8400040077FF5A8
:1009F0001CAD20208DF80000002600E0761CA642E9
:100A0000BFF613AD012300AA02A9404600F07BFD0A
:100A10000028F3D04FF0FF3025B0BDE8F08F000084
:100A20000000000000000000686A6C747A4C00004E
:100A3000622826D068281DD06A2808D06C2827D0C4
:100A4000712804D0742823D07A280CD020E00868BC
:100A5000C01D20F007000860D0E9002308300860BE
:100A60001946104670470A680A6052F8040B0A607B
:100A7000002170470A680A6052F8040B0A6000B24D
:100A80000BE00A680A6052F8040B0A6040B204E006
:100A90000A680A6052F8040B0A60C11770472DE912
:100AA000F44F0D4694B0D5F830B0BBF1000F80463E
:100AB00048BF6FF0004B00F0C3FD696B4018019018
:100AC0000FF67020D0E90023CDE9022395F8380015
:100AD000400702D40198412806D240200DF1100AA7
:100AE00001904FF0000909E000F0B0FD5FEA000A54
:100AF000F7D14FF0FF3058E1ABEB040BBBF1010F26
:100B0000C0F2CD801498018802AA0DF1010000F016
:100B1000F5FD0028044600F1D5801498008810B92E
:100B2000641E00F1CF80A345C0F2B98068690199C5
:100B30002218914280F0A180C5F834904042296A81
:100B4000401AA969401A696A401AE969401AA96AF3
:100B5000A0EB010995F83800400710D420208DF84B
:100B60000000002609E0012300AA2946404600F0C3
:100B7000CAFC002840F0A680761C4E45F3DB6E6967
:100B800057460BE017F8011BA868C047A86000286B
:100B900000F09880E86A401CE862761E002EF1D1D1
:100BA00030208DF8000000272E6A09E0012300AAFA
:100BB0002946404600F0A7FC002840F083807F1CB7
:100BC000B742F3DBAE69EF680AE017F8011BA868CB
:100BD000C047A860002875D0E86A401CE862761E0D
:100BE000002EF2D130208DF8000000276E6A08E058
:100BF000012300AA2946404600F085FC002861D167
:100C00007F1CB742F4DBE868A969EE690F180AE0B7
:100C100017F8011BA868C047A860002852D0E86AEE
:100C2000401CE862761E002EF2D130208DF80000C4
:100C30000027AE6A08E0012300AA2946404600F0DA
:100C400062FC00283ED17F1CB742F4DB95F83800E7
:100C500040070ED520208DF80000002607E0012374
:100C600000AA2946404600F04EFC58BB761C4E4573
:100C7000F5DB4FF00009C5F81490224668690DF1C4
:100C80000101504400F048FD68692018686114981B
:100C9000801C1490801E008800287FF42DAF686BA4
:100CA0006969401A296A401AA969401A696A401A92
:100CB000E969401AA96A471A95F83800400710D424
:100CC00000240CE04FF0FF3968E0A8682021C047FD
:100CD0000028A860F6D0E86A401CE862641CBC42A8
:100CE000F3DB6B6952462946404600F00CFC0028B5
:100CF000E8D12C6A002609E0A8683021C047002806
:100D0000A860DFD0E86A401CE862761CA642F3DBEC
:100D1000AB69EA682946404600F0F5FB0028D1D1CE
:100D20006C6A002609E0A8683021C0470028A86046
:100D3000C8D0E86A401CE862761CA642F3DBE8688B
:100D4000A969EB690A182946404600F0DCFB002837
:100D5000B8D1AC6A002609E0A8683021C047002855
:100D6000A860AFD0E86A401CE862761CA642F3DBBC
:100D700095F8380040070DD5002409E0A868202127
:100D8000C0470028A8609DD0E86A401CE862641C47
:100D9000BC42F3DBC5F81490C5F8349004A8824532
:100DA0001CBF504600F0F4FC484615B0BDE8F08F7B
:100DB0002DE9FA4E05460A462F696F2A08BF082416
:100DC00005D041F02000782814BF0A2410243C26C6
:100DD000D5E90001642A18BF692A81468A4605D1EF
:100DE000002903DAD9F100096AEB4A0ABAF1000FC7
:100DF00008BFB9F1000F0CD1286B50B9082C36D1BF
:100E000095F83800000732D530203B2687F83B00A4
:100E10002DE0E31748465146224600F0F9FCA4FBBA
:100E20000023A9EB02023032D2B2A6F1010B3A2A1A
:100E30005E4603DB9DF80030513B9A1881465FEA1D
:100E4000010A0BF8072008BFB9F1000F03D0E868CA
:100E5000F1198842DDD3082C09D195F83800000734
:100E600005D5F05D302802D0761E3020F055C6F151
:100E70003C00A861F119E960296B884208DA081A78
:100E800028624FF6EF71288F08402887BDE8F38E5F
:100E900000290ED595F8381001F01401102908D159
:100EA000696B6A69891A2A6A891A081A0128A8BF0F
:100EB0002862BDE8F38E00002DE9F24F04468EB0A3
:100EC000D4E90001CDE9020104AF9DF8380040F0FB
:100ED000200BBBF1610F0AD0206B002848BF062011
:100EE00004D408BFBBF1670F01D101202063616802
:100EF000C1F30A5040F2FF7290421CD1080304BFB4
:100F00002068002809D10320A0619DF838006138CD
:100F10001A2836D30FF2306108E00320A0619DF853
:100F2000380061381A2829D30FF21461E0680322CF
:100F300000F0F2FBBEE1012816DA204600F0DFFCEB
:100F4000012811DB00250020BBF1610F20D1E168F1
:100F5000302201F8012B4A1CE2609DF83820612AFA
:100F60000CBF782258220FE0626840F2FE3161F334
:100F70001E52451A62604FF0FF30E5E70FF2BC5198
:100F8000D4E70FF2C051D1E70A706169891C616131
:100F900010B90026002584E1BBF1610F40F0978075
:100FA000206B00284CBF2126461CDDE90201D4E954
:100FB00000AB0022002300F0C3FC36B23ABF8BF036
:100FC0000040CDE902A0CDE902AB06F101082D1FDA
:100FD0008DF810200DF1110700E0C71DB8F1010FC9
:100FE00033DBDDE902010022002300F0C1FC2CD23A
:100FF0001C2102A800F0D4FCDDE9020100F05CFD38
:10100000A8F10708B8F1010F814609DB00F080FD67
:1010100002460B46DDE9020100F092FDCDE9020136
:10102000F81D072105E009F00F0200F8012D4FEA35
:101030002919B9F1010F01DB491EF4D5491E5CBF26
:10104000002200F8012DF9D5C7E70DF11100391A7A
:10105000B142B8BF0E4636B230000DF111072FD4A1
:10106000884206DA04A9411849780829A8BF0F2147
:1010700000DA002104AA821800E0761E12F8013975
:10108000401E8B42F9D00F2904D104A941184A7897
:10109000521C4A70002802D504AF761C2D1D36B2B2
:1010A000701E0DD4C1190A783032D2B23A2A03DB4D
:1010B0009DF838303A3B9A18401E01F80129F2D5C4
:1010C000206B002840F1ED80701E2063E9E0DDE92F
:1010D00002010022002300F033FC3CBF81F00041FC
:1010E000CDE902012DB247F2975068434B49DFF832
:1010F000309190FBF1F52DB2C5F1070ABAF1010F5D
:1011000090461CDBDDE902675FEACA7007D54246FC
:101110004B463046394600F0D3FD06460F464FEAAF
:101120006A0A4046494642464B4600F0C9FDBAF1BC
:10113000000F80468946E7D1CDE9026724E0CAF175
:10114000000A0026374F14E05FEACA7007D542460E
:101150004B463046394600F0B3FD06460F464FEA8F
:101160006A0A4046494642464B4600F0A9FD804681
:101170008946BAF1000FE7D1DDE9020132463B466C
:1011800000F070FECDE90201BBF1660F216BDFF8C4
:1011900098900CBF05F10A0006204618142EA8BF2F
:1011A000132630208DF810000DF11107012E3DDBC4
:1011B000DDE9020100F096FC07F1080104220A2390
:1011C000B0FBF3F303EB8307A0EB4700303001F8EB
:1011D000010D0A20B3FBF0F000EB8007A3EB4703FF
:1011E0003033521E01F8013DE9D1083E012E01F1D4
:1011F0000807DBDBDDE9020100F074FC00F092FC83
:1012000002460B46DDE9020100F09AFC00224B4643
:1012100000F056FDCDE90201CAE700BFA08601003B
:10122000000024400000F03F84D797410DF11100E9
:10123000381A0DF1110702E0401E6D1E7F1C39782F
:101240003029F9D0BBF1660F02D12DB2691C04E040
:10125000BBF1650F0CBF01210021226B8E1836B245
:10126000B042B8BF064636B231001AD4814204DA21
:10127000C85D3528A8BF392000DA3020CA19521EAF
:1012800000E0761E12F80139491E8342F9D0392850
:1012900002D1C85D401CC855002902D57F1E761CAE
:1012A0006D1C2DB29DF83810009533B23A46204699
:1012B00000F003F80FB0BDE8F08F2DE9F04786B0DD
:1012C00006468A4690461D4600F00DFF406A376B81
:1012D00090F80090012D02DA01250FF270284AF0F3
:1012E0002000BDF93840662808BF641C12D067286A
:1012F00076D114F1040F79DBBC4277DA96F8380026
:10130000641C000702D4BD42B8BF2F4624B23F1B65
:1013100048BF002724B2F068B169012C21DA4A1CC9
:1013200030230B54012F03DA96F83810090702D541
:1013300002F80090521CE742B8BF7C4224B26142DE
:10134000E719AF42B261B8BF3D4671622DB2F56197
:101350002A46B3694146181800F0DEF9781BB062DE
:10136000BAE00818A54216DA2A46414600F0D4F938
:10137000B1696918601BB161012F706203DA96F8D8
:101380003800000705D5F06801F80090F069401CAE
:10139000F061B762A0E02246414600F0BDF9B069B5
:1013A00020182D1B012F03DA96F83810090703D5F2
:1013B000F16800F80190401CB0612DB2AF42B8BF97
:1013C0003D46F068B3692DB22A4604EB08011818AF
:1013D00000F0A2F9B0692818B061781B70627BE058
:1013E000BAF1610F14D14FF0700A16E0BD4204DA71
:1013F00096F83810090758BF2F467F1E48BF0027B0
:10140000BAF1670F14BF4FF0450A4FF0650A04E0C8
:10141000BAF1410F08BF4FF0500AB169F06818F8EF
:10142000013B0B544A1C012F05DA96F838100907C6
:1014300058BFB26115D502F80090531C012FB3615B
:101440000FDB6D1E2DB2AF42B8BF3D462DB22A460E
:101450004146181800F060F9B0692818B061781B8F
:101460007062F068B16901EB0008200008F801AB78
:1014700003D42B2008F8010B03E02D2108F8011BF1
:101480006442002502AF08E00A2200A800F044FEF2
:10149000019807F8010B6D1C009C21B20129F3DAB9
:1014A000022D06DA4AF02000652804BF302008F833
:1014B000010B4DB9302008F8010B07E06D1E02A8A2
:1014C000285C303008F8010B012DF7DAF068B169BB
:1014D0000818A8EB0000F06196F8380000F014003E
:1014E00010280DD17069B1690818716A0818F1697E
:1014F0000818B16A0818716B8842BCBF081A3062BC
:1015000006B0BDE8F087F8B504460D4616461F46FE
:10151000002004E0E86A401CE8627F1E002047B11A
:1015200016F8011BA868A047A8600028F2D14FF068
:10153000FF30F2BD00000000000000006E616E0090
:101540004E414E00696E6600494E46003000F8B5C7
:1015500004460D4616461F4600F0E6FD3B46324661
:101560002946204601B0BDE8F04000F0F4BD50F837
:10157000041B61B150F8042BD30744BFA9F1010348
:101580009A180023091F42F8043BFAD1EFE770478D
:101590000278C9B28A421AB11CBF10F8012FF9E7CC
:1015A00018BF002070470268531C03601170704719
:1015B00000F10103810704D010F8011B89B18107F4
:1015C000FAD10268B2F10131914311F0803F04BFBA
:1015D00050F8042FF6E710F8011B11B110F8011BA9
:1015E000FBE7C01A7047FEE7C9B2830706D0521E58
:1015F00022D310F8013B9942F7D11FE0083A13D3E8
:1016000002F1040241EA012141EA014150F8043BA0
:10161000121F21BF4B40A3F1013C2CEA030C1CF02C
:10162000803FF3D0C9B2001F083210F8013B521EB0
:1016300028BF91EA030FF8D818BF0120401E704759
:1016400080B500F071FD012002BDFEE770B50546D2
:1016500005F10F00C408E400C046C046A54232D2DE
:10166000082C04D2082402E0083000F091F8224847
:10167000026811000CD1011D0A6802B31368A3426D
:1016800038BF111DF8D310E01D68A5420DD2191DF9
:101690000B68002BF8D11268011D00E0191D0B68C2
:1016A00093420CD01D68A542F8D361B10D682A6839
:1016B000A2F10803A3420AD26A680A600FE000F0B0
:1016C0006DFD0028D0D1C046C046002070BD631912
:1016D0000B60121B6E685E600B681A602C600968F4
:1016E00000291DBF4A68002A091D00210160C0466B
:1016F000C04605F1080070BD7009002070B50446B1
:101700000D46164600F010FD324629462046BDE83B
:10171000704000F013BDFEE762B38B0708D0521E85
:1017200011F8013B00F8013B00F024808B07F6D153
:10173000830740F0208000BF103A07D330B4B1E8EF
:101740003810103AA0E83810F9D230BC530724BF43
:10175000B1E80810A0E8081044BF51F8043B40F875
:10176000043BD20724BF31F8022B20F8022B44BFE0
:101770000B7803707047083A07D3B1E80810083AAD
:1017800040F8043B40F804CBF7D25307E4E7FEE708
:1017900000B9704738B5A0F108042068082833D391
:1017A00010F0070F30D1C046C0461848416809B153
:1017B0008C4203D26160446017E019464B680BB15C
:1017C000A342FAD30B685D18AC421BD3A54204D1E7
:1017D0002268D2180A600C4607E04A681AB12368EA
:1017E0001B199A420ED362604C60616851B1226845
:1017F00013198B4206D1002303600868801820600B
:1018000048686060C046C04631BD000070090020D5
:101810001B4213D1094236D12AB18446B0FBF2F003
:1018200002FB10C2704700F0CFBCFCD300220023A3
:1018300070470B000200002100207047904271EBBE
:10184000030CF6D370B5B1FA81F4B3FA83F52C1B0F
:10185000A340C4F1200532FA05F63343A2405FF0FD
:101860000046E64002E05B085FEA3202841A71EB50
:10187000030524BF204629467641F4D302000B001D
:101880003000002170BD012ACFD970B5140C20D0D2
:10189000B1FA81F4B2FA82F5C4F120046419B4F10A
:1018A0002006D6D3B2405FF00044F440002502E0A9
:1018B00052085FEA3303C61A71EB020E24BF3046AA
:1018C000714664416D41F3D302000B0020002900F2
:1018D00070BD0C46B1FBF2F102FB11452D0445EA47
:1018E0001045B5FBF2F402FB145580B240EA054501
:1018F000B5FBF2F002FB105240EA044070BD30B478
:10190000436803F0004201211B031B0B436004BF2B
:101910000368002B08D10DE00368DD0F45EA44049D
:1019200044605B000360491E4468E302F4D523036E
:101930001B0B436043681A434260084630BC704743
:101940004FF4001C1CEB410F94BF1CEB430F09E04C
:1019500041EA030C50EA4C0C52EA0C0C03D29942B7
:1019600008BF9042704714BF8B4282427047FEE727
:101970004FF4001C1CEB410F94BF1CEB430F09E01C
:1019800041EA030C50EA4C0C52EA0C0C03D28B4295
:1019900008BF8242704714BF994290427047FEE7E9
:1019A00070B504460D466068C0F30A5040F2FF71FE
:1019B000884207D16068000304BF2068002817D060
:1019C000022070BD20B92046FFF799FF012868DA90
:1019D000012D0FDB40F2FF71091A8D420AD36068B6
:1019E00000284CBF9FED300B9FED310B84ED000BB9
:1019F000012070BD4142A942616806DA6FF31E51B1
:101A0000401941EA0050606042E0401E6368451999
:101A1000012205F1350062F31F53352801F0004122
:101A2000636003D361600020206070BD002215F167
:101A30001F0F04DA226823600020203560606842AE
:101A400014D0521E25689241C0F12003D2439D401C
:101A500045EAD272256825FA00F6656805FA03F3AF
:101A600033432360636823FA00F5656060680843C8
:101A7000B2F1004F606003D80DD12078C0070AD5BD
:101A80002068401C2060206828B96068401C6060A5
:101A90004FF0FF3070BD6068884204BF20680028A6
:101AA000F6D1002070BD00BF000000000000F0FF74
:101AB000000000000000F07FF446400D40EAC12025
:101AC000490006D200F014F8004248BF6FF0004011
:101AD000604700F00DF84FF0004188428CBF084687
:101AE00040426047400D40EAC120490080F00D802F
:101AF00040F00040490DA1F58061491C05D4D1F1A9
:101B00001F0154BFC840C01770474FF00000704716
:101B1000010040F10980F446404200F005F851F020
:101B200000416047010000BF09D0B0FA80F1884051
:101B3000C91CC1F58461090501EBD021400570473E
:101B400070B44FF0004591EA030F44BF6B4000F0C2
:101B50003DBB00BF841A71EB030604D26E40001B2C
:101B6000B141121973414FF4001C1CEB410F34BFFB
:101B70007CEB430684E00C0DA4EB1356362E7DDC83
:101B8000012E43DC45EAC32343EA525312BFD2027B
:101B900092025B08240545EAC12141EA5051D2EB8B
:101BA000C020994125D407D1B0FA80F610FA06F189
:101BB00064D00020203608E0B1FA81F6B140C6F1C9
:101BC000200220FA02F21143B0404FEAF474B4EB61
:101BD000465434F001064FEA74040AD8D6F50016CC
:101BE000760D04F00044F04061FA06F25040F140F6
:101BF0004840C00A40EA415021F0004128BF5FEA56
:101C0000500550F1000044EBD12137E045EAC323F1
:101C1000DB0A45EAC121C90AB6F120050EDD42EA18
:101C20000242120CC5F1200603FA06F6EB4042EA26
:101C300006056D42984161F100010DE062FA06F57A
:101C4000F240554063FA06FC82EA0C02F3405A4027
:101C50006D42904161EB030111F4801F05D1641EB8
:101C6000620502D06D004041494121F480114308D2
:101C700075F1004350F1000041EB045170BC704716
:101C80001CEB410F15D223F0004352EA43060BD060
:101C90004FEA4C0CBCEB410F04D80C0D661E342EE1
:101CA000B7DDEBE7801A994150EA410608BF0021F1
:101CB000E4E708BF1CEB430F28BF6FF00001DDE72E
:101CC000B0B581EA030C0CF0004C40F2FF7515EA48
:101CD00011541DBF15EA1357AC42AF4239E0E41965
:101CE00023EA455343F48013C90241F0004141EA1D
:101CF000505EC7021100A7FB020200284FF000004F
:101D0000EEFB01204FF00001E3FB072118BF42F07A
:101D10000102401800214941E3FB0E01A4F5806453
:101D20000F0302D252004041494154F101046CDDDD
:101D3000470872F1004250F1000051EB0451A1F547
:101D400080115CBF41EA0C01B0BD4CEA0551002096
:101D5000B0BD05EA1357AC4214BFAF4241E050EAB0
:101D6000410E1CBF52EA430E02E061460020B0BDA6
:101D700024423C441BD15FEA070EF6D0090302BFA0
:101D800001460020AEF1140EB1FA81F7AEEB070464
:101D900001FA07FE0C37C7F1200100FA07F7C84027
:101DA0004EEA000E23EA455343F48013A2E733F0D2
:101DB0000043B3FA83F704BFB2FA82FE77440B3FC5
:101DC000E41BB7F1200E2FBF02FA0EF3BB40C7F1A0
:101DD000200E22FA0EFE38BF43EA0E03BA40641CFE
:101DE00082E750EA410E14BF52EA430E6FF0000141
:101DF0004FF4001717EB430F8ABF194617EB410F3B
:101E0000B5E74CEA05510020B0BDD4F10104B4F1AE
:101E100020070FDAC4F12007520828BF42F0010260
:101E200010FA07F501FA07F7E1BF2A43E04038430B
:101E3000E1400FE0352C98DCC7F1200452EA400263
:101E400020FA07F218BF42F0010231FA07F0A14070
:101E50000A43002172F1004250F1000051EB0C01E5
:101E6000B0BDFEE7F0B540F2FF7581EA030C0CF05F
:101E7000004C15EA11541DBF15EA1357AC42AF428E
:101E8000E5E0BC41C1F31301C3F31303801A994188
:101E900043F4801304D2641E400049418018594124
:101EA000C90241EA5051B1FBF3F603FB1611A2FB44
:101EB0000675D7EBC020A94102D2761E8018594181
:101EC000C90241EA5051B1FBF3FE03FB1E11A2FB14
:101ED0000E75D7EBC020A94103D2AEF1010E8018D8
:101EE0005941890241EA9051760546EA8E2EB1FBAE
:101EF000F3F603FB1611A2FB0675D7EB8020A94170
:101F000002D2761E80185941C90241EA50514EEA68
:101F1000060EB1FBF3F603FB1611A2FB0675D7EB19
:101F2000C020A94102D2761E80185941C90241EA57
:101F30005051B1FBF3F703FB1711A2FB0735D3EBAD
:101F4000C020A94167F100070CBF004247F001071C
:101F500066F3D5274FEA1E31B80814F5806412DD08
:101F6000BD0775F1004250EB0E5051EB045111F5D5
:101F7000801F5CBF41EA0C01F0BD4CF07F6141F075
:101F8000E0410020F0BDBD076D0840EA0E5041F46D
:101F90008011D4F10104B4F120060ADAC4F120065C
:101FA0000200E04001FA06F3E1401843B240154355
:101FB0000EE0342C13DCC6F1200445EA40056D0820
:101FC00020FA06F2154321FA06F0A1400D43002144
:101FD00075F1004250F1000051EB0C01F0BD002002
:101FE0005FEA0C01F0BDCFB992185B41B3FA83F7F9
:101FF00004BFB2FA82F6BF190B3FB7F120062FBF1C
:1020000002FA06F3BB40C7F1200622FA06F638BFF3
:102010003343BA401CB1E419641E33E77F4231F008
:102020000041B1FA81F404BFB0FA80F6A4190B3C68
:10203000B4F120062FBF00FA06F1A140C4F120063A
:1020400020FA06F638BF3143A0403C1B1AE7AC42E9
:102050001ABF05EA1357AF4212E050EA41061CBF0F
:1020600052EA4306BFE750EA4107304661461CBFCB
:1020700041EA0551F0BD52EA430C08BFC143F0BD2F
:1020800000204FF4001616EB410F98BF16EB430FDC
:1020900008BF16EB410F24BFC14305E016EB430F09
:1020A0000CBF61464CEA0551F0BDFEE780B5134810
:1020B000C046C0460FF24801016041608160C160C6
:1020C0000161416181610FF23C0242628162C16241
:1020D000016341630FF2300282630FF23402C26384
:1020E0000164416401BD10B50448C046C0460446C1
:1020F000206808B9FFF7DAFF204610BD0C01002068
:10210000000000002E00000066616C736500000096
:10211000747275650000000091FBF2F303FB12116D
:10212000C0E900317047FEE780B5DFF80C00C0461B
:10213000C046806902BD00009C01002030B430B967
:102140000FF24800D0E90045C2E900451BE00170EC
:10215000012030BC704730B431B90FF23800D0E9FB
:102160000045C3E900450EE01AB930BC6FF001002C
:10217000704708B10A7802800978481E804130BC57
:10218000C043C00F7047002030BC70470000000003
:10219000000000000000000000000000074908687F
:1021A00008B1002070470648C008C0000860054913
:1021B000C908C900091A0160704700BF80090020E2
:1021C0008F110020881300207047FEE7841A71EBFE
:1021D000030603D2001BB141121973414FF4001CD6
:1021E0001CEB410F34BF7CEB430443E00C0DA4EB2C
:1021F0001356352E50DC45EAC323DB0A45EAC121DC
:10220000C912B6F120050DDD63FA05F6EB4086EA4A
:102210000305124218BF45F00105C01851F1000135
:102220000CD213E062FA06F5F2405540F3415A40F1
:10223000B340F3405A408018594107D349085FEA38
:1022400030005FEA350528BF45F0010501F5801132
:10225000420875F1004250F1000041EB045170BC9E
:102260004FF4001C1CEB410F38BF70470020090DD4
:10227000090570471CEB410F10D252EA43060BD000
:10228000BCEB410F05D80C0DAB43661E342EB5DDFB
:1022900002E0AB438018594170BC704770BC704776
:1022A00012E01AE01FE0D0F80403084018BF012034
:1022B000C0B270471BE01EE024E029E0D0F818050A
:1022C000C0B270472AE000BF81B000220A5008580F
:1022D0000090009801B0704700BF085800B101207D
:1022E000C0B2704700BFC0F80413704700BFC0F809
:1022F0000813704700BFD0F88014C0F88014084657
:10230000704700BFC0F80C15C0F81425704700BF17
:10231000C0F80815C0F81025704700BF01220A5008
:102320007047012100F01F029140DFF89426400918
:102330000EE000030016704741EA420141EA8302C1
:10234000009942EA0122019942EA0141DFF874262C
:1023500042F82010704700B583B000210191009130
:1023600001220023114608E000B583B0002201924B
:102370000B460322009200210022FFF7DDFF07BD7C
:1023800000B583B000210191009100230122F4E700
:10239000012101FA00F0DFF830160860704738B507
:1023A0000D4604462868FFF7F3FF2868FFF7D3FFC0
:1023B000686800F03AF82279DFF81016A86901EB96
:1023C0004211097F00292168C1F82405297D687D13
:1023D00014D000F02CF8FFF794FF287D012822D1BB
:1023E00000F022F8E868FFF7D3FFE868FFF7B3FFD3
:1023F000AA68E9682068BDE8384088E700F017F867
:10240000FFF75AFF287D01280DD100F00DF8E8688C
:10241000FFF7BEFFE868FFF79EFFAA68E96820683B
:10242000BDE8384049E731BDA86800219CE7084372
:102430002168C1F86C056A682968206870472DE931
:10244000F04100F0A7F90028206812D000F5A16142
:102450004FF0FF324D68CE68D0F808858F6811467E
:10246000FFF74FFF4FF0FF3220681146FFF74FFF95
:1024700012E0D0F80C55D0F81465D0F80885D0F8E3
:1024800010754FF0FF321146FFF716FF4FF0FF3285
:1024900020681146FFF711FF2846FFF771FF30460D
:1024A000FFF76EFF17F1010F1CBF3846FFF768FFFB
:1024B00018F1010F03D04046BDE8F04160E7BDE8E8
:1024C000F0812DE9F0410446DFF80085207908EB22
:1024D00040160F46F07E154608B108204CE0787F84
:1024E00030772046FFF75BFF7560386930607068B1
:1024F00078B320793F7F08EB4010007FB0B12068AF
:102500004FF48871FFF7DFFE20684FF49071FFF7FA
:10251000DAFE20684FF49271FFF7D5FE00F009F95A
:102520002068DFF8AC14FFF7DDFE0CE0206800F057
:102530005AF820684FF4A271FFF7B2FE2068DFF866
:102540009414FFF7AFFE2068FFF7F3FE394600F062
:1025500047FA2079216808EB4010007F002814BF5B
:1025600008200420C1F800050020F0753076B07511
:102570000120F0760020B076BDE8F08138B500F09B
:1025800003F9297F01B100212268C2F800156968AA
:10259000A1B1217900EB4110007F28B12068DFF85C
:1025A0003014FFF7A3FE04E02068DFF82C14FFF7D7
:1025B00081FE2068FFF7BDFEFFF7B3FE2046FFF760
:1025C0003EFF0020E876686031BD38B50D46044610
:1025D00000F009F8A868A98A085CA98A491CA982A0
:1025E000C4F81C0531BD4FF48E7159E62DE9F04158
:1025F0000446DFF8D853207905EB40170E46387FA4
:1026000000281FBF300C0004B0F1005F102090467E
:1026100065D1204600F069F808B111205FE087F825
:102620001680BE60B882207905EB4015287F18B36C
:10263000206800264FF49071FFF745FE00F0A0F8E7
:102640002168A87DAA68C1F84425C1F84805082179
:102650002068FFF762FE686800283FD120684FF4C9
:102660009071FFF739FE074600F086F850EA07013F
:10267000F4D000B10F262FE020680026FFF7B3FF4B
:1026800020680821FFF71EFE20682946FFF79DFFFE
:10269000686818BB0EE000F024F818B9A88AB0F5F5
:1026A000807FF8D1A88AB0F5807F03D020682946C2
:1026B000FFF78BFFA88AA97D8842ECD3A88AB0F5E2
:1026C000807F08BF0F2607D000F00BF80028FBD052
:1026D00020680C21FFF7F6FD0020A8753046BDE804
:1026E000F08120684FF48E71DBE50079DFF8DC12B1
:1026F00001EB4010807D00B10120704770B50D46A0
:102700000446E87D00284FF48471204605D1FFF788
:10271000C7FD2046BDE87040D0E5FFF7C1FD6E7EE5
:102720002046FFF7CBFDE9687054687E401C687650
:1027300070BD20684FF4A271C5E500B585B00346B1
:1027400001208DF8081001928DF8000019685A6870
:1027500000A80EE000B585B0024600208DF800000C
:102760008DF80810906801900020907500A81168FD
:102770005268904705B000BD20684FF4AC71ABE5DE
:1027800020684FF4AC719EE504469048217900EB37
:102790004115704704468D48217900EB4110007FB8
:1027A000704730B50D4685B004464FF40071FFF711
:1027B0007AFD18B34FF4927100F085F8F0B14FF440
:1027C00092712046FFF76CFD00F078F8A87E08B9FA
:1027D00000F070F802208DF800002046FFF76BFD36
:1027E0000390E87D8DF80800E86801900020E87506
:1027F000287629686A6800A8904729E004212046C5
:10280000FFF751FD20B34FF4847100F05CF8F8B18C
:1028100029462046FFF772FFE87D697E884217D17E
:10282000287E40B1EA68697EE8752869E860002082
:102830002876687609E0A87E08B900F03BF800F039
:102840003DF80020E875EA68697E2846FFF775FFC5
:102850004FF48E7100F037F890B1A88AA97D8842B4
:1028600004D229462046FFF7B0FE09E04FF48E71EE
:102870002046FFF715FDA97D11B12846FFF76AFF35
:102880004FF4A27100F01FF890B14FF4A2712046EE
:10289000FFF706FDA87E10B1002100F00CF8E87DDE
:1028A00030B10020E8752846EA68697EFFF745FFE9
:1028B00005B030BD04212046FFF704BD4FF401717F
:1028C0002046FFF7F7BC2046FFF7EBBC30B50C46BF
:1028D00085B005464FF49271FFF7FEFCC0B14FF48E
:1028E000927100F062F802208DF800002846FFF790
:1028F00001FD0390D5F83C058DF80800E0680190D3
:102900000020E07520762168626800A8904723E0E7
:102910004FF488712846FFF7DFFCE8B14FF4887167
:1029200000F043F8D5F83C15E07DC9B2814213D1DF
:10293000E268207E60B1D5F8000220F02000C5F8E2
:102940000002207EE0752069E0600020207600E033
:10295000E0752046FFF7F1FE4FF4A2712846FFF71D
:10296000BBFC70B14FF4A27100F01FF8E07D40B1E4
:102970000020E0752046D5F83C15E268C9B2FFF7A3
:10298000DCFE4FF490712846FFF7A6FC58B14FF4D7
:10299000907100F00AF8A07D28B1D5F84C15C9B2A5
:1029A0002046FFF7D7FE05B030BD2846FFF78BBCA9
:1029B00006490A480A7F002A18BFFFF787BFF0E6DA
:1029C00080E100E0000700500805005024090020C5
:1029D0001003020080000200840202000020004078
:1029E00010B54901020006D50A4B00F00F04E318A8
:1029F00003F8041C01E0084C01554109012200F0D4
:102A00001F0002FA00F0054A42F82100044A42F889
:102A1000210010BD18ED00E000E400E080E200E0DD
:102A200000E100E0012100F01F029140DFF8A02545
:102A300005E0012100F01F029140DFF898254009D0
:102A400042F820107047012100F01F029140DFF88A
:102A50008825F4E74901002807D5DFF8802500F034
:102A60000F00801800F8041C7047DFF874258154AB
:102A700070470000002842D0DFF86815DFF86825AD
:102A8000096800BF00BF00BF00BF00BF00BF00BF9C
:102A900000BF91422FD000BF00BF00BF00BF00BFEA
:102AA00000BF00BF00BF00BF00BF00BF00BF00BF2E
:102AB00000BF00BF00BF00BF00BF00BF00BF00BF1E
:102AC00000BF00BF00BF00BF00BF00BF00BF00BF0E
:102AD00000BF00BF00BF00BF00BF00BF00BF00BFFE
:102AE00000BF00BF00BF00BF00BF00BF00BF00BFEE
:102AF00000BF00BF00BF401EC3D1BFF35F8F704750
:102B000010B5DFF8E814DFF8E8444FF4003008604F
:102B10004FF48031DFF8DC040164016001202060A3
:102B200000F08EF9012060600020DFF8CC442061C5
:102B300000F086F90020A07210BD401A0002000AC1
:102B40007047F8B5DFF8B044E668A6B3DFF8AC0428
:102B5000006821690025FFF7F0FF074630688742CB
:102B600016D33F1A45193046F669017C71B1002130
:102B7000017442698169E369180005D010469847DD
:102B800020B100F047FA01E008469047002EE5D159
:102B9000607A217A814201BF401C6072C0B2022873
:102BA00004BF00206072607A04EB8000456114204D
:102BB000BDE8F2403DE7F1BD70B5DFF83C040178B7
:102BC000C26819E01C46DB69B3B1AB42FAD19C4242
:102BD00002BFF569C560002D07D1DFF82464012527
:102BE0003560002505610125C5721D68DB69E3615B
:102BF00013B11C682C191C60437899421DD043689E
:102C0000182414FB0133491C8478C9B2A1421C78F2
:102C100008BF0021022C02D0032C05D0ECE7C668C7
:102C20005D6834462346CFE7C368002B1FBF0024EE
:102C30001C74DB69C360F7D1DEE7C068904201D045
:102C4000012070BD002070BDF8B5DFF8AC53EE6810
:102C5000044600E0EF6084BB2878697888425BD046
:102C60006968182212FB0011401CAA78C0B2904279
:102C700008BF0020287008784F68012804BF387CFE
:102C80000028E9D188687860C868B8600869F86089
:102C90004869B861E87A08B1002078602A697868E4
:102CA000DFF86033811A0902090A994208D21146F5
:102CB000FFF743FFB96808180BE02746FC69EDE70A
:102CC00001461046FFF739FFB968884234BF081A39
:102CD0000020386000207860B8600120387400203F
:102CE000F861E8680028B5D001683A68914203D3DA
:102CF000891A0160F861ADE701460B68934205D27D
:102D00000846C969D21A0029F7D101E09B1A0B6065
:102D10003A60F961C7619EE7E868B04201D00120DE
:102D2000F2BD0020F2BD2DE9F843B34C217A637A5D
:102D300020690025994280460A460DD0521CD2B225
:102D4000022A08BF002204EB820101264F693818CD
:102D50000002000A206101E000272E462272FFF7E0
:102D60002BFFE1688146F6B1002213E03F1A82187A
:102D7000002018600846DE68D969002E0AD002EBF0
:102D8000080E4FEA0E2E4FEA1E2EC3F804E09E6096
:102D9000DD61054629B10B4618688742E6D2C01BA3
:102DA00018604FF00109E1602846FFF74DFF002849
:102DB00008BFB9F1000F3FD0E06800283AD007689B
:102DC0008E4DD5F80080266931464046FFF7B5FEA6
:102DD00000F10309A07A88B98B484FF4803101646F
:102DE00001601120FFF72FFE1120FFF71BFE87491E
:102DF0000120086000F024F80120A072B94538BF16
:102E0000B94609EB06000002000AE86341462F6854
:102E1000FFF793FE064641463846FFF78EFEC01C7C
:102E2000864209D22868E86300F00AF81120FFF70B
:102E300000FE01E0FFF764FE0020E072BDE8F183D0
:102E40002F2017E66C494870704710B56A494A78D8
:102E50008C78531CDBB2A3420C7808BF0023A3423A
:102E600001D1002010BD03704868182111FB020039
:102E700010BD70B5044682B00D460026002000F05B
:102E800019F900A8FFF7E1FF08B9042605E005706D
:102E900044609DF80000FFF7D5FF002000F00BF91B
:102EA00016B91420FFF7C5FD304676BD58480021FD
:102EB000016441648164C1640160416041E632E7BC
:102EC0002DE9F0410446174617F003000E469846D8
:102ED00000D10FB907201DE0FFF712FE464DC5F8DF
:102EE0001C8000202880E8602881AE706F6014206C
:102EF000FFF7A9FD06211420FFF7ACFD1420FFF712
:102F000091FD3E4E062174601120FFF7A3FD30684D
:102F100028610020BDE8F081374B5B6843B11300A6
:102F200018BF002801D1072070470068037C0BB14F
:102F300008207047037441744261002070472DE9F6
:102F4000F04106462C484068002818BF002E82B089
:102F50000C46904605D0052C38BF072028D3706951
:102F600008B9082024E0707C01280CBF2746002700
:102F70000025002000F09EF800A8FFF766FF08B9C2
:102F800004250DE00121017046601C49096881603B
:102F9000C4600761C0F814809DF80000FFF752FF7D
:102FA000002000F088F815B91420FFF742FD2846EC
:102FB000BDE8F68110494968002918BF002801D0F2
:102FC000416909B90820704700210174022150E7C6
:102FD00000E100E000E200E080E200E018ED00E047
:102FE00000E400E0A80200200024F40080E100E0FA
:102FF0000410014008130140040900200415014099
:1030000008100140FFFF7F00041301400010014041
:103010000011014010B584B000A90022002314461D
:103020001CC1029000AA194644F2010000F0EAF91E
:103030001FBD00B589B00B4601218DF800109DF829
:103040000010134908604B608A6044F20103C01A03
:1030500007D0401E0FD1CA60C86800888861C86860
:1030600007E00A610869806848610869008888612A
:1030700008694068C86101A82022FEF75DFB72B6AE
:103080009DF800000028FBD162B609B000BD000029
:10309000E408002072B606480168491C01607047C8
:1030A00003480168491E016000D162B67047000004
:1030B00078090020EEE7F3E710B5DFF8C8134A7887
:1030C000B0B9500801EB4000D407838804D5C83B51
:1030D0009BB23BB183800BE0C83342F210749BB2C9
:1030E000A342F7D3521CD2B2082A8380A8BF002281
:1030F0004A7010BD10B584B00FF2A03100F024F971
:103100000FF224411CC900A800A91CC042F2107093
:10311000ADF80800DB4CDC4A04F1400000F0CDFAC9
:1031200008B1FFF777FF20780FF2EC3140F0010093
:10313000207002230020A080E080208160816070E8
:10314000012204F1400000F039FB1FBD10B58CB026
:103150000FF25C3100F0F8F80FF2D8311CC909A861
:1031600009A900F040F808B1FFF754FF20780FF2EA
:10317000D03140F001002070102205A8FEF7DCFAE3
:103180000020002104EB4102491C00F5C8701929F8
:103190009081F7DB01A80FF2B8311022FEF7CCFACC
:1031A00002200090012301AA05A904F1400000F0CB
:1031B0003AFB0CB010BD10B588B00FF2083100F02A
:1031C000C3F80FF29C3100F00BF808B1FFF722FFB3
:1031D00020780FF2983100F0D5F801230322CAE0DD
:1031E0001CC904A804A91CC0A64C002204F140007C
:1031F00000F063BAF0B599B00FF2DC2100F0A4F84A
:103200000FF278311CC901A8FF251CC091208DF850
:1032100004008DF8055092208DF806008DF80750B7
:1032200007208DF8090047F61220ADF80C000120A8
:103230008DF80E000022934C01A904F1400000F02B
:103240003CFA08B1FFF7E6FE20780FF23C3140F07F
:1032500001002070102214A8FEF76EFA04208DF8E9
:103260000900002141F28830ADF80C008DF80E10F5
:103270000022864B643123F8121003EB4207461AF2
:10328000521C322AA7F86460F4DB8DF804509320B6
:103290008DF806008DF805508DF80750002201A921
:1032A00004F1480000F009FA08B1FFF7B3FE2078F6
:1032B0000FF2E42140F002002070102210A8FEF767
:1032C0003BFA0CA80FF2E0211022FEF735FA942009
:1032D0008DF807008DF804508DF805508DF80650D4
:1032E000002201A904F1500000F0E7F908B1FFF74E
:1032F00091FE20780FF2C02140F0040020701022CF
:1033000008A8FEF719FA04A80FF2BC211022FEF754
:1033100013FA0223012214A904F1400000F04EFA2E
:103320000220009001230CAA10A904F1480000F02B
:103330007AFA02200090012304AA08A904F150009F
:1033400000F071FA19B0F0BD032000F042BB10B5D7
:1033500088B00FF29811FFF7F7FF0FF27C21FFF70B
:103360003FFF08B1FFF756FE20780FF2782100F0FA
:1033700009F80223012200A904F1400000F01EFA1E
:1033800008B010BD40F001002070102200A8FEF728
:10339000D3B930B585B0054600A80FF258211422E4
:1033A000FEF7CAF9374CA0780D2D02D00E2D23D090
:1033B00020E000280CBF0420401EA0702078C00729
:1033C00044BF04F1400000F0C2F92078800744BFF8
:1033D00004F1480000F0BBF92078400744BF04F135
:1033E000500000F0B4F90020207000A8A17850F837
:1033F0002100804705B030BD042801DA401CDCE71D
:103400000020DAE710B5224B4FF4F0145C60002482
:103410001C60BDE81040FFF70CBE80B500F0ACFBAF
:1034200008B1FFF7F7FD002000F0BDFB0023194AAB
:1034300003210020FFF744FD08B1FFF7EBFD164A1A
:1034400040F6CD41022000F064FD08B1FFF7E2FD37
:1034500000F0BBFD08B1FFF7DDFD002000F072FABF
:1034600008B1FFF7D7FD0FF29801FFF76DFFFFF7E7
:1034700041FE20BF40BF20BF00F0D1FA0028FBD1A1
:10348000F7E7000008020020B9300000C406002061
:103490000805005068080020933300004150503A5E
:1034A000494E464F3A44656D6F20310D0A000000C9
:1034B0004150503A494E464F3A44656D6F20320DA7
:1034C0000A0000004150503A494E464F3A44656D5B
:1034D0006F20330D0A0000004150503A494E464FCC
:1034E0003A44656D6F20340D0A0000004150503A97
:1034F000494E464F3A44656D6F20350D0A00000075
:103500004150503A494E464F3A50574D20657861E8
:103510006D706C650D0A00000C02002004000000B4
:103520000000000000000000919294930604000047
:1035300000000200919293940605000010270000FD
:10354000140200201900000001000000000000002B
:1035500090020020060000000400000000000000AF
:1035600091FFFFFF06070000A86100009C020020F9
:103570000600000000000000040000000000000041
:10358000060000000000000080020020080000008B
:103590000100000000000000C406002064000000DC
:1035A00000000000000000007C0900200200000074
:1035B00095000000000000007C09002002000000CF
:1035C0003100000000000000C4060020640000007C
:1035D0000200000000000000919394920607000092
:1035E000093D020060020020100000000000000001
:1035F00000000000F53000004D310000B731000040
:10360000F53100004F33000001220A50704781B0AD
:1036100000220A5008580090009801B070470858DE
:1036200000B10120C0B27047C0F800127047C0F866
:1036300000137047D0F80403084018BF01207047FA
:1036400000EB41101168C0F8201500F5A4609188C6
:10365000416091688160D168C1607047C0F81415FD
:103660007047000300167047FFB50023AC4C00AA5A
:103670005D5CFF2D0ED025F08006012742F8236007
:10368000B740ED0914BF27606760A64F032547F8D0
:10369000265003E04FF0FF3542F823505B1C042B0B
:1036A000E6DB0068002152F8213000EB8104491C60
:1036B0000429C4F86035F6DBFFBDF8B505460C46B5
:1036C0002979994800EBC106307908B10820F2BD8C
:1036D000326021462846FFF7C7FF28680121C0F85D
:1036E000001500F204532189A27967799F60C0F820
:1036F00004255960E27AA17A41EA0221C0F8101546
:103700000021FFF791FF28680021FFF790FF28684C
:103710004FF48E71FFF77BFF28684FF48871FFF735
:1037200076FF28684FF48A71FFF771FF28684FF41D
:103730008271FFF76CFF306828B12868FFF791FFAE
:103740002179FFF74DF9012030710020F2BD38B525
:1037500004467548217900EBC1052068FFF781FF19
:10376000012100F01F029140704A400942F82010E8
:1037700000202168C1F80005287131BD38B5044624
:10378000022008711D46086870B18221500748BFA9
:103790009221100748BF41F02001D006206848BFA1
:1037A00021F08001FFF743FF20684FF48271FFF79B
:1037B0002EFF20682946BDE8344025E72DE9F04179
:1037C00004460E462179584800EBC1081746206888
:1037D0001D4632460021FFF733FF206832460121A3
:1037E000FFF72EFF07F0010606EB5701206889B2AC
:1037F000FFF734FFE80748BF102107D4A80704D516
:10380000002E0CBF0421082100E000212068FFF7F2
:103810000BFF002EEAB241462046BDE8F04114BF3E
:103820000C230823AAE7F8B50446154622793E483A
:1038300000EBC2070A4620681E460021FFF700FF82
:1038400020682A460121FFF7FBFE20683146FFF77A
:1038500005FF069DE80748BF102103D4A8074CBF09
:10386000042100212068FFF7DFFEEAB23946204636
:1038700001B0BDE8F040082380E738B50D460446A6
:103880001021FFF7D7FE58B14FF4887100F03BF8D4
:1038900030B14FF4887100F038F82968012088476A
:1038A00020212046FFF7C6FE58B14FF48A7100F080
:1038B0002AF830B14FF48A7100F027F82968022005
:1038C000884780212046FFF7B5FE58B14FF48E712E
:1038D00000F019F830B14FF48E7100F016F8296835
:1038E000002088474FF4827100F00DF850B14FF47A
:1038F000827100F00AF80120287103202968BDE8D0
:103900003440084731BD204689E620467FE6064917
:103910000748B2E707490848AFE708490848ACE755
:1039200008050050000700504409002080E100E035
:1039300000C001404C090020001002405409002042
:103940000020024070B50446002000F071FB050025
:1039500008D100F0C2FC064600F0BDFC224631460C
:1039600000F002F8284670BDDFF8D021FF239360F5
:10397000002313605360DFF8C421C2F81004C2F8BA
:103980001414704770B5441C01250020FFF792FB0A
:10399000DFF8A8018168026846684B1C9B1AF3187F
:1039A000661CB3420ED25BB111400FF2941200EBD1
:1039B0008101920242F02902CA600168491C01603B
:1039C000002501E0A11801600020FFF774FB2846E4
:1039D00070BD2DE9F041DFF86461B7683468804656
:1039E0000D460020FFF7CEFF48B107EA040008F0BB
:1039F0000701AA0200F005F841F00101C160BDE82D
:103A0000F08106EB800042EAC10170474B484168F3
:103A10000068814201D101207047002070472DE9E4
:103A2000F04788B0FFF7F2FF08B1002082E0DFF82E
:103A30000C91D9F80470D9F808A001E09819471939
:103A40000AEA070009EB80007D1CC468A60D14F08B
:103A5000030FC4F38913F1D004F00300022847D107
:103A60000AEA050009EB80006D1CC2680AEA05013C
:103A70000AF10100401A09F582688000D8F8048034
:103A8000B04209EB810114D228B909F10C01B44606
:103A90004FF0000E04E084460C3109F10C0E301A90
:103AA000C0B20390CDF808E05FFA8CF0019000916D
:103AB00006E0002003900290019601F10C000090B6
:103AC0000021C4F3C200C047B04203D1F01C05EB93
:103AD000900527E00AEA070122464FF6C07309EB7A
:103AE00081016FF38F1203EA80101043C8601BE05E
:103AF00001A8A20AC4F38311002308E00AEA05061C
:103B000009EB86066D1CF66840F8046B5B1C8B4263
:103B1000F4D3009101ABD9F810840021C4F3C200A2
:103B2000C04708B1C9F80450FFF770FF00F001006A
:103B300080F0010008B0BDE8F0870000AC02002072
:103B40004F766572666C6F770D0A000000F1804059
:103B50000121016070474FF0804181B00022425046
:103B600040580090009801B0704700F18040006814
:103B700000B10120C0B2704710B53C4C207808B1AC
:103B8000852010BDA06060602061E0600621FEF726
:103B900027FF3749012008602070002010BD02680F
:103BA0000A600160704738B5304C0546A07830B1E6
:103BB00015B169680120884700F01EF813E0FFF78F
:103BC00079FA25B1294604F11000FFF7E8FFE06813
:103BD00048B94FF48270FFF7BEFF27490220086002
:103BE0000820FFF7B3FFE068401CE060FFE700201B
:103BF000BDE83240FFF75FBA0020FFF75BBA38B587
:103C000004001A4814BF00F1100500F1080504E093
:103C10000868286020464968884729680029F7D144
:103C200031BD38B5114C134D4FF48070FFF79DFF37
:103C300048B14FF48070FFF78EFF0120286060705C
:103C40000020FFF7DCFF4FF48270FFF78EFF50B1CA
:103C50004FF48270FFF77FFF022028600120A070E0
:103C6000BDE83240CBE731BD000000005C09002018
:103C70001805004008030040040300402DE9F0410E
:103C80008046002400200FF26C3252F82030434569
:103C900002D0401C0428F8D304282DD200EB4002A7
:103CA000DFF82C6397198519A1B102291BD01BD20B
:103CB000945D787858B170690A21414306F10D028C
:103CC00006F16400FFF73BF908B986F80D80B87873
:103CD000287409E006F16400FFF76CF9BC78287CD1
:103CE000A04209D100E07C7834B1316A080003D0E9
:103CF0002046BDE8F0410847BDE8F0810078022188
:103D0000BCE700002DE9F047B14CB24EE1698246B4
:103D1000CA4300206169BAF1170F02F4E01701EB02
:103D200081034FF4C87E4FF47A684FF4F0194FF4D2
:103D3000003512D8DFE80AF00C1212272F3E515D31
:103D4000636D636DC97D7D7D7D7DA7ACB4BEC9C942
:103D500002F4F0117160B0602073BBE07760B06076
:103D6000326882F4F012920307D57560BAF1020F3F
:103D7000B06019D14FF4E16E27E0B560BAF1020FDF
:103D8000706022D11FE000F0ABF819D500F0A4F864
:103D90004FF4487E19E07760B060306880F4F0102E
:103DA000800303D500F098F8C6460EE0B560002009
:103DB00070600AE000F094F802D500F08DF802E09F
:103DC000B560002070604FF0C80E6420BEFBF0F0BC
:103DD00084F80CA00022414325E000F081F802D5D0
:103DE00000F07AF802E0B5600020706006202073D1
:103DF0000DE07760B060B5607060072163E0306807
:103E0000C24302F48022726000F48020B06000227D
:103E100009E03068C14301F48021716000F4802022
:103E2000B0600022194604F12400BDE8F047FFF716
:103E300086B804F14400FFF7BDF8DAF1110E1AD08C
:103E4000C8B94FF40021BEF1020FE1610CD3C821C3
:103E5000606911FB0EF16423B1FBF3F141430022D1
:103E600004F14400FFF76BF8E16901F4F011B1606F
:103E7000002171602EE0E16901F4F0117160002110
:103E8000B160E16126E0C6F80490B06012211AE04A
:103E90004FF4E0117160B060B5607060132112E002
:103EA0004FF4D0117160B0604FF48021B160706048
:103EB000142108E04FF4C0117160B0604FF4C021CC
:103EC000B16070601521217304E0C6F8089070603D
:103ED00084F80CA0BDE8F08775600020B0607047E2
:103EE0007760B060306880F4F01080037047384825
:103EF000017EC90744BF007BFFF704BF7047354808
:103F00000168CA4302F40022426001F4002181608A
:103F1000704770B50D462E49044600204D618C61F6
:103F20000A62A1071BD5002601220121304600F0BC
:103F300030F8761C042E01D20028F5D028B96A0882
:103F400004210FF2C00000F042FA08B900F071FA43
:103F500028B9214A0FF298000021FEF7DDFFE107A2
:103F600006D51E494FF4F0120A6000234B600A6127
:103F700028B900211A4A0FF27000FEF7CDFF38B9B8
:103F8000184A0FF26800BDE870400121FEF7C4BF77
:103F900070BD30B50023042814D2012A04D10129B0
:103FA0000CBF00F10D02002200EB4000084C051987
:103FB00031B1022902D005D2025504E06A7002E054
:103FC000AA7000E00723184630BD00F032BA0000A6
:103FD0008C07002004050050FD3C0000080500503F
:103FE000EF3E0000FF3E0000B0070020D007002099
:103FF000F00700200D0000000E0000000F00000080
:10400000100000000D0003007D3C00000E000300C6
:104010007D3C00000F0003007D3C00001000030009
:104020007D3C00000078012804BFAD4988707047CE
:1040300070B5AB4D0446287888B010B168788442DA
:1040400024D000A80FF2B4212022FDF775FB002038
:104050008DF8140005F58276062000900820019066
:1040600005200390072002904FF0EB700690304639
:10407000FEF784FA002C14BF00229A4A00A93046A9
:10408000FEF71FFA18B9012028706C70002008B0E4
:1040900070BD9548FEF729BB70B50C46904E0146A1
:1040A00001252246301DFDF737FBE2B2311D06F532
:1040B0008270FEF79BFA00B10025284670BD0029EA
:1040C00001D50020704702688918016001207047FF
:1040D00038B503460C461546012053B11A680FF255
:1040E0001421204600F0C0F901462846BDE83440BE
:1040F000E5E70021296032BDF0B5C5B000260F46C6
:1041000014461D460496FFF7C4FF002847D10499C2
:1041100005A8091804AA3846FFF7DAFF00283ED0A0
:10412000049905A80F184A9806282FD8DFE800F050
:104130000412182523211F002046FDF739FA0646F0
:1041400004988019FF2821D8324621463846FDF7C9
:10415000E3FA1BE02A682146384600F085F914E0AE
:104160006B682A682146384600F07EF90DE06869E0
:10417000039028690290E86801902146A8680090A1
:104180006B682A68384600F06FF90646314604A885
:10419000FFF795FF18B10498B0F5807F01D9002092
:1041A00003E0014605A8FFF777FF45B0F0BD2DE914
:1041B000F04FC1B0002000900C46DDF82C914D98D6
:1041C0001D46002C1646AA4600EB090B14BF0A2711
:1041D0000027FFF75EFF40B9D5B9009901A809187B
:1041E00000AA2046FFF774FF08B9284670E0304661
:1041F000FDF7DEF90446C32C009B28BFC22401A8AA
:10420000224631461818FDF787FA009820180090CA
:10421000DDF828814C9C009901A80E18791808181F
:1042200000F131052FB120223946304600F036F931
:10423000BE191020DA4509D3202106F8011B06F823
:10424000011B06F8011B05F8011B27E0CA4532BF18
:104250001AF80810AAEB0901095D022203E0A6EB97
:10426000020C8CF8013013465A1E4BB1930041FAF0
:1042700003FC0CF00F030A2BACBF37333033EEE7EF
:10428000B61C202206F8012BA1F120032A46551C5A
:104290005F2B28BF2E2111700AF1010A401EC9D1DF
:1042A0000D20287007F143010A2005F8010F202096
:1042B0003070009808180090014601A8FFF7ECFE46
:1042C00028B1FFF7E6FE10B9DA450090A3D35046B7
:1042D00041B0BDE8F08F05487047054870470000C1
:1042E000000000202540000004010020F9400000EB
:1042F000AF4100005B253038645D0000FFFFFFFF29
:10430000FFFFFFFFFFFFFFFFFFFFFFFF00000000B9
:10431000000000000000D60106010000F8B50026EC
:1043200001244C4D07E051407A6881F001011300EF
:1043300018BF9047761C2878F6B286421ED268686D
:10434000296900EBC60797F9000004FA00F008425B
:10435000F0D021EA00002861387800F018FAEA6805
:104360000146387804FA00F31A4001FA00F39A4241
:10437000E0D17A78012A18BF0022D4E7F1BDF8B560
:104380000546012000FA05F6324C04F11400FEF750
:1043900011FED8B92069F743304215D1284600F004
:1043A000F6F9E168002814BF46EA010007EA0100B7
:1043B000E06000222069A1683043206104F114000C
:1043C000BDE8F840FEF7BBBD38402061F1BDF8B54F
:1043D0001646052E04460D4601D20720F2BD00F018
:1043E00042F910B900F017F910BB1A480FF2740720
:1043F0008660002144600570C1600161164E284648
:10440000451E78B139680091EDB204EBC500324623
:1044100081788DF8011000A9007800F02BF90028B0
:10442000EDD0F2BD0D4A0FF238000021FEF774FD09
:10443000F2BD38B50024074D06E0686810F8340076
:10444000012100F062F9641C28788442F5D3002031
:1044500032BD0000B00800207F4300001D43000073
:10446000C4080020030000000CB41CB5044604A8D6
:1044700001900A46009401AB00A90748784418301F
:10448000FBF7BEFF009A0021117000285CBF009866
:10449000001B16BC5DF80CFB0FD1FFFF62F30F226F
:1044A00062F31F42401810F0030308D0C91A1FD34B
:1044B000DB0748BF00F8012D28BF20F8022D1300AC
:1044C00030B414461546103928BF20E93C00FAD80C
:1044D000490728BF20E90C0048BF40F8042D890097
:1044E00028BF20F8022D48BF00F8012D30BC7047CE
:1044F000C91818BF00F8012DCB0728BF00F8012DFF
:104500007047FEE7DFF8CC130858012818BF0020D9
:10451000704700F1804000F5C04081B0002101608B
:1045200000680090009801B0704741EA420141EAFA
:104530008302009942EA0122019942EA0141DFF82F
:104540009C2342F820107047DFF8902352F8203067
:1045500023F4403342F8203052F8203043EA01413E
:10456000EFE7DFF87C13401890F93000082880410D
:10457000C00F7047DFF86813401890F93000082822
:1045800001DB0120704700207047DFF8541340180A
:1045900090F93000C043C00F7047DFF84423801803
:1045A0004FF0FF3180F830107047DFF834134018B7
:1045B00090F930007047DFF8281351F82000704759
:1045C000F0B5002A4FF0FF3307BF08240C25002464
:1045D0000825DFF80C6300E0641CAC420DD256F8ED
:1045E00024709F42F8D1831983F8304046F8241094
:1045F00012B9A11981F84800234658B2F0BDDFF87E
:10460000E0124FF0FF3241F820200828A4BF4018E4
:1046100080F84820704738B5DFF8C44294F8540059
:1046200008B1082032BD00252846FFF7B6FF6D1CF3
:10463000202DF9DB00252846FFF7E1FF6D1C0C2D2E
:10464000F9DB06210620FEF7CBF94FF4BE70FFF729
:1046500060FFDFF890124FF000400860012084F8FE
:104660005400002032BDDFF8780290F8540000B109
:1046700001207047F0B583B005460F46164600246A
:10468000FFF783FF08B108243DE0FA783146284659
:10469000FFF796FF064616F1010F33D0B87838B110
:1046A0008E4850F8251021F0020140F8251008E04E
:1046B000019000220320009011467B782846FFF7E6
:1046C00034FF3978F87898B18348874B50F8262022
:1046D0001A4040F826202B02090450F8262003F443
:1046E000F85301F440311943114340F826100AE011
:1046F0007B483218301892F8482042EA811180F83D
:10470000481000E004242046FEBD70B504460E4665
:10471000FFF730FF0028204619D0FFF746FF704909
:10472000401890F948000006800F032806D16F4812
:10473000006820FA04F1C80702D503E0012801D17E
:10474000022100E003212046BDE87040FCE6FFF7AF
:1047500008FFC8B100F019F805465F4850F8251069
:1047600041F0010140F82510A80000F5807000B26A
:10477000FFF7CFFE46B100F008F8FFF71CFF18B1B5
:1047800001205849A840086070BD20460DE75749F0
:10479000096821FA00F202F0010070472DE9F84F94
:1047A0000025A8464FF480760127082430B2FFF791
:1047B000A9FE00281EBF4B480068384203D030B223
:1047C000FFF7A7FE3D437F00361D641EEED14FF478
:1047D000BE70FFF797FE40B14FF4BE70FFF799FE31
:1047E0004248D0F8008045F00045280618D001273F
:1047F0000026394C2F420FD054F8269054F826A0AA
:104800003046FFF7D8FE020006D04FEA1A4000F00B
:104810000301C9F3042090477F00761C082EE9D3DA
:10482000002D54D54FF0FF300025009001E0804668
:104830000095002400262A48301890F95000C1B293
:1048400010F1010F21F0C00937D0009820FA09F2C9
:10485000D00732D5880900F0030A4846FFF7A5FEC5
:10486000FFF7A9FE834610B9BAF1030F25D1012045
:1048700000FA09F7194850F82900BAF1030F08BFE8
:104880003D43000C17EA080F00F0030002D0022895
:1048900013D101E0032810D1BAF1030F07D1022888
:1048A0000CBF032102214846FFF74EFE641CBBF1FA
:1048B000000F02D051464846D847761C042EBAD382
:1048C000E0B200281EBF094800684045AFD1BDE8EE
:1048D000F18F0000006000401065004000070050AC
:1048E0001008002004630040FFE0FCFF10050050AA
:1048F00010B578480178062904BF017911F00F0F2F
:1049000002BF017A01F0F001302902D1724A7349E5
:1049100011600378724A7349062B04BF037913F0C0
:104920000F0F0DD1836803F0F004302C1EBF402C14
:1049300003F0F003502B03D10B68C3F342335360F1
:104940000378062B04BF037913F00F0F02BF037A1D
:1049500003F0F003302B04D1634B1C6824F0807407
:104960001C600378062B04BF037913F00F0F0ED1E0
:10497000836803F0F004302C1EBF402C03F0F003DA
:10498000502B04D1594B00241C605C6014600378E8
:10499000062B04BF037913F00F0F06D1037A03F03F
:1049A000F003302B04BF032393660278062A04BF6A
:1049B000027912F00F0F02BF027A02F0F002302AE1
:1049C00008D14B4A052313600123936700239360AA
:1049D0003F2353600278062A04BF027912F00F0FBA
:1049E00002BF027A02F0F002502A23D1414B424A20
:1049F0001C6814605C6854609C689460DC68D460D7
:104A00001C6914615C6954619C691462DC695462BC
:104A10001C6A94625C6AD4629C6A1463DC6A5463A4
:104A20001C6B14645C6B54649C6B9464DC6BD4648A
:104A30001B6C13650278062A04BF027912F00F0F6F
:104A40000ED1806800F0F002302A1EBF402A00F02C
:104A5000F000502804D14869284900F04F00086050
:104A60002748C16F41F47001C167BFF34F8FBFF397
:104A70006F8F24490A68002A5CBF4A68002A21D542
:104A8000214A01231360214B1C68002CFCD0152403
:104A90000C601C68002CFCD015244C60196800299F
:104AA000FCD00021116019680029FCD0BFF34F8FA2
:104AB0000168174A01F4E06111430160BFF34F8FB1
:104AC00000BFFDE701490248086010BDA8020020B0
:104AD0000090D003E00F00F074C007400DF0ADBAB5
:104AE0003805004044020010FCED00E00C010040DD
:104AF000105600400404001020C50040E40E0040A1
:104B00000CED00E00012001004E5014000E401405B
:104B10000400FA05816807E0026811685368891883
:104B20005B18C36008320260C2689142F4D04A1C2C
:104B30008260087870472DE9FF4D00F1080100916F
:104B400000270268520801EBC2010191B84600211A
:104B5000029103910168490800EBC101406800F02F
:104B6000010501F10804400804EBC00631E000A88B
:104B7000FFF7D0FF4FFA80FA0AE0009801680818A2
:104B80000099029049680818039000980830009036
:104B9000029803998842F0D0401C029010F801BDA1
:104BA00047450CD1B44208BF00F01DF8276805B195
:104BB0004F44606800EB070808344745F2D0BAF16B
:104BC000000F07F801BB0AD51AF1010AE8D14745E1
:104BD000CDD1B442CBD1304604B0BDE8F08DBAF1AE
:104BE000010AD5D5F3E7012000F000B82021090320
:104BF00026311820ABBEF9E710B5074979441831C2
:104C0000064C7C44163404E00A68081D5118884795
:104C10000146A142F8D110BD2C0000005400000054
:104C20004EF68851CEF20001086840F4700008602A
:104C3000BFF34F8FBFF36F8F4FF00070E1EE100A9C
:104C4000704700002BC9FFFFD8060000AC0200200F
:104C500000000000E3FEFFFF020000000200000071
:104C60008C0000005E00000000000020AC0200008C
:104C7000FEE700000120C046002801D0FFF7BCFF7E
:104C80000020C046C046FEF7C8FB00F000F800F068
:104C900001B8FEE707463846FFF7A8FFFBE7FEE747
:104CA0000148804701480047F1480000B14C00002E
:104CB000C046C046FFF7B4FFFFF7DCFFFEE7FEE7A4
:104CC000FEE7FEE7FEE7FEE7FEE7FEE7FEE7FEE7BC
:104CD000FEE7FEE7FEE7FEE7FEE7FEE7FEE7FEE7AC
:104CE000FEE7FEE7FEE7FEE7FEE7FEE78100810064
:104CF000F90002200040E000F8FFDC00FAFF81002C
:104D0000900002C00140FB000310024001FC0003C0
:104D100020024002FC000080F7000080F7000080C5
:104D2000F7000080FB000080FB0004800080008012
:104D3000FD000080FD000080FB000080FD00008081
:0A4D4000FD000080FD000290D0038A
:0400000500004CB1FA
:00000001FF
