:020000040001F9
:10B00000102A00208DE101003FBB0100FBD30100AD
:10B010000000000000000000000000000000000030
:10B0200000000000000000000000000027E2010016
:10B03000000000000000000033E2010081E2010096
:10B04000B7DC010083E20100D3DF010085E20100EB
:10B0500087E20100000000000FC8010089E2010042
:10B060008BE201008DE201008FE2010091E201001C
:10B0700093E2010095E2010097E2010099E20100EC
:10B080009BE201002BB801009DE201009FE201005C
:10B0900061B80100A1E2010019DB0100A3E2010097
:10B0A000A5E20100A7E2010000000000000000008E
:10B0B0000000000000000000000000000000000090
:10B0C0000121C206D20E9140A64A116070470121AB
:10B0D000C206D20E9140C54A116070470121C206D6
:10B0E000D20E9140C24A116070470121C206D20EB1
:10B0F0009140C04A11607047F0B540B2002822D597
:10B10000994C40B20207120F083A1500AD0804220C
:10B110005543954A40B203071B0F083B9B08042682
:10B120007343D258FF238607B60F08277E43B340E8
:10B130009A438B01DBB28607B60F08277E43B340E4
:10B14000134363511CE0C44A40B203009B0804242B
:10B150006343D258FF238407A40F08256C43A34000
:10B160009A438B01DBB28407A40F08256C43A340EC
:10B170001343B94A40B20400A40804256C43135198
:10B18000F0BD00B5800701D1012000E00020C0B271
:10B1900000BD000000B59849002810D0AF4A1268E1
:10B1A00000BF00BF00BF00BF00BF00BF00BF00BFA7
:10B1B0008A4200D000BF401EF2D1BFF35F8F00BDB6
:10B1C00010B50400A648046003211120FFF794FF86
:10B1D00010BD80B580204002A24908608020400256
:10B1E000A14908601120FFF780FF1120FFF768FFD9
:10B1F00001209E4908602F20FFF7CCFF0120BB49AA
:10B20000087001BD80B51120FFF761FF802040026A
:10B210009749086080204002964908600120B4499F
:10B2200008602F20FFF7B6FF0120B2490860002018
:10B23000B14908602F20FFF7ADFF0020AB4908702F
:10B2400001BDC34800687047401A0002000A7047F9
:10B25000C0490860704710B5BF490968002902D18C
:10B26000BD4908602DE0BC4909680968026891423F
:10B270000DD3B949096809680268891AB64A126883
:10B280001160B5490968C161B349086019E00468F3
:10B290002300B14C24682100AF4C24682200002A0E
:10B2A00007D014689C4204D214681B1B1100D26999
:10B2B000F5E7002A02D01468E41A14600360C26142
:10B2C000C86110BD30B5A44C246821000B00002BD0
:10B2D00004D0834202D01900DB69F8E7002B1ED0AE
:10B2E000994211D19C4C2468E4699B4D2C609A4C86
:10B2F0002468002C08D101247E4D2C6000247E4D52
:10B300002C600124954D2C701C682200DC69CC61F6
:10B31000CC692300002B02D01C68A4181C6030BD2F
:10B3200080B51120FFF7DAFE01BD80B51420FFF7CC
:10B33000D5FE01BD70B50400C448006800280CD0DB
:10B34000A1696069C14A1268904705002E00002E6D
:10B3500002D0300000F03AFB02E0A0696169884742
:10B3600070BD000000E100E01CED00E0F8B57A4897
:10B370000068002839D000200600FFF762FF5E4910
:10B380000968FFF761FF0500734800680400002C9E
:10B3900011D0206885420ED320682D1A20683618F7
:10B3A0002700E469387C0028F1D000203874380088
:10B3B000FFF7C0FFEBE7A6480078C9490978884243
:10B3C0000BD1C7480078401CC5490870C4480078B4
:10B3D000022802D10020C2490870C248C049097839
:10B3E000042251434650FFF7A0FFF1BD80E100E089
:10B3F00000E200E080E200E00024F40000B501007B
:10B4000093480078B64A1278904220D0904800784D
:10B41000401C8F4A10708E480078022802D100200C
:10B420008B4A1070AF488A4A127804235A438058D6
:10B430000860314800680A6880182F4A10602E485A
:10B4400000680002000A2C4A1060012002E000207F
:10B450000860002000BD000000E400E0F01F0020B4
:10B46000081501404413014004130140001001403D
:10B47000481301400813014070B5C24806783648A9
:10B4800000680400BF484078F6B2864225D0BD4827
:10B490004068F6B2182171434518761CB948807887
:10B4A000F6B2864201D1002006002878022802D098
:10B4B000032804D010E06868FFF704FFE2E726489D
:10B4C0000068002807D02448006800210174C06982
:10B4D00021490860F3E7D5E7D4E71F480068A04298
:10B4E00001D0012000E00020C0B270BD0322002086
:10B4F0000410014008100140E4210020F0B50023B1
:10B50000154C2468002C22D0134E3668340026686F
:10B51000B04203D22668361A266018E02668801BDF
:10B5200026689B19002626600B4E36683500E669B2
:10B53000094F3E60E668002EE2D0CE183602360A89
:10B540006660E668A6601668E6611560D8E7F0BD3B
:10B550000415014040150140E02100200422002094
:10B56000F8B504003B4800680700002C05D1854869
:10B5700000788449497888425ED0002C03D02500A9
:10B58000E86904002BE07F4840687E49097818226A
:10B59000514340187B490978491C7A4A117079490E
:10B5A0000978784A9278914202D10021754A117047
:10B5B00041680D000178012902D1297C002900D0C1
:10B5C000D3E781686960C168A9600169E960416980
:10B5D000A961C2490978002901D000216960686821
:10B5E0009D490968401A0002000A9C49884208D215
:10B5F000994801686868FFF727FEA9684018286025
:10B600000EE0696894480068FFF71EFE0600A8680F
:10B61000864203D2A868801B286001E000202860D1
:10B62000002068600020A860012028740020E861E4
:10B630002800FFF710FE98E706480068B84201D0DE
:10B64000012000E00020C0B2F2BD0000E82100208F
:10B6500001220020E0210020F1B582B0AF4800684F
:10B66000002839D0AD48006800680090FFF7E9FD78
:10B6700006007948046821003000FFF7E5FD050069
:10B68000ED1CC6480078002801D1FFF7A2FD009804
:10B69000854201D2009800E0280024182402240AE0
:10B6A0002000FFF7D5FDFFF7CCFD01903100200011
:10B6B000FFF7CAFD070031000198FFF7C5FDC01C68
:10B6C00087420BD2FFF7BDFDFFF7C2FD2F20FFF72A
:10B6D00061FDFFF725FE01E0FFF794FDF7BD0000D7
:10B6E00002220020B0210020F0B583B0002000909D
:10B6F00059480068050089480068060001A8FFF75E
:10B700007DFE0700FFF7B8FE0400FFB2002F06D051
:10B710006A4629000198FFF7F1FE01200400009815
:10B72000FFF71EFF002801D001200400E4B2002C26
:10B7300002D03000FFF790FF002068490870F7BD85
:10B7400097494870704730B5010095484078401CD3
:10B75000020093488078D2B2824201D100200200D8
:10B760008F480078D2B2824201D1002009E00A70ED
:10B770008B4840688A4C647818256C430019030094
:10B78000180030BDA8210020F7B504001F000025D7
:10B79000002069460870684600F070F900A8401C57
:10B7A000FFF7D1FF0600002E02D1042005000EE0B5
:10B7B000012030707460FFF744FDB0600198F060C4
:10B7C00002983061776168464078FFF7B9FF6846B4
:10B7D000007800F059F9002D01D1FFF7A6FD2800EF
:10B7E000FEBDF8B504000F00002500206946087072
:10B7F000684600F043F900A8401CFFF7A4FF0600CC
:10B80000002E02D10420050005E037707460684600
:10B810004078FFF795FF6846007800F035F9002D75
:10B8200001D1FFF782FD2800F2BD80B500205D49FF
:10B83000086000205C49086000205C490860002026
:10B840005B49086000205B49086000205A49086095
:10B85000FFF78CFD01BD0000E4210020FFFF7F0009
:10B8600080B5FFF741FF01BDF8B505000C001600DB
:10B870001F003000FFF785FC002801D107202CE0D5
:10B88000002E01D1072028E0FFF7BCFC4B480760E1
:10B8900000204349087000204149487040488470A6
:10B8A0003F48466000201D49086000204449087058
:10B8B0000020444908701420FFF717FC03211420CE
:10B8C000FFF71AFC1420FFF7FBFB2800FFF778FCBA
:10B8D000FFF7B7FC3C4908600020F2BD04220020BD
:10B8E00010B503002E484068002801D1082014E05C
:10B8F0001000002801D107200FE0002B01D1072004
:10B900000BE01868007C002801D0082005E01C68C6
:10B910000020207461746261002010BDE0210020CD
:10B92000F8B506000F00150000961D484068002875
:10B9300001D108201AE0002E01D1082016E0052FC1
:10B9400001D2072012E000984069002801D10820A8
:10B950000CE00098407C012801D13C0000E000246C
:10B960002B00220039000098FFF70EFFF2BD38B51A
:10B97000040025000A484068002801D108200CE096
:10B98000002C02D06869002801D1082005E00020C1
:10B99000287402212800FFF724FF32BD0322002073
:10B9A000A8210020401101404411014048110140EC
:10B9B0004C1101400011014004110140E821002018
:10B9C0000122002002220020E421002010B584B0D2
:10B9D000040068460C2100F09BF802946A4600219E
:10B9E000014800F0A5F81FBD01400000EFF31080F2
:10B9F00072B6704762B6704738B50400FFF7F6FFBD
:10BA000005001A48406800280ED1012017494860F7
:10BA10001748006817490140144801601548144947
:10BA200008600020207001E001202070002D01D16D
:10BA3000FFF7E0FF002032BD38B504000B48406836
:10BA4000002810D0E4B2002C0DD1FFF7CFFF050085
:10BA50000648006808490860002004494860002D35
:10BA600001D1FFF7C7FF002032BD0000B821002040
:10BA700080E100E0FC06FFBC00E100E010B504003E
:10BA80002000FFF7B9FF10BD10B504002000C0B2C0
:10BA9000FFF7D2FF10BD30B4012100220368001D62
:10BAA000002B0BD00468001D0C4202D04D466D1EC9
:10BAB00064192260241D1B1FF0D0FAE730BC7047C8
:10BAC0001206130A1A43130C1A4300BF094205D089
:10BAD000830705D00270401C491EF9D17047000051
:10BAE000130030B414001500103902D310393CC0D3
:10BAF000FCD2490700D30CC000D504C0890002D392
:10BB00000280801C002900D5027030BC7047000004
:10BB10000022E5E700B5BFF34F8F034803490860F3
:10BB2000BFF34F8F00BFFDE70400FA050CED00E006
:10BB300070B504000D001600FFF7ECFF70BDFEE7C6
:10BB4000020010000870100080B2000A4870022045
:10BB50007047F4B584B004000D006846008A298857
:10BB60000931884201D20C2030E002A871DF009038
:10BB70000098002801D0009828E008202988605407
:10BB80002888401C28801B20298860542888401C55
:10BB900028800620019002AE761C28882718019A7A
:10BBA0003100380000F094FB2888801D288068460A
:10BBB000007A002803D100202988605402E0012087
:10BBC000298860542888401C2880002005B0F0BDDA
:10BBD000F8B504000D002078012804D16078002811
:10BBE00001D1072059E09BB21088801C834209D301
:10BBF0002078012808D19BB2108861784018801CF9
:10BC0000834201D20C2048E09BB21088181A801E93
:10BC1000060068460680694610882818801C7DDF6B
:10BC20000700002F01D0380037E02078022808D123
:10BC300068460088B6B2864203D3092069468870F8
:10BC400010E00820694688702078012808D16078C3
:10BC5000B6B280B2864203D360786946088001E0BC
:10BC60006846068068460088FF2801D30C2014E04F
:10BC700068460088401C118868541088401C108059
:10BC800068468078118868541088401C108010889D
:10BC900069460988401810800020F2BDF8B50500FB
:10BCA0000C001700BFB22088001D874201D20C2073
:10BCB0001DE0684679DF0600002E01D0300016E056
:10BCC0000320218868542088401C20801920218866
:10BCD00068542088401C20802088291868460088E5
:10BCE000FFF72EFF2188C0B2081820800020F2BD87
:10BCF00030B504009BB21088C01C834201D20C20D6
:10BD000011E00220158848551088401C1080012041
:10BD1000158848551088401C108010880C541088D5
:10BD2000401C1080002030BD30B504009BB210884C
:10BD3000C01C834201D20C2011E002201588485516
:10BD40001088401C10800A20158848551088401C17
:10BD5000108010880C541088401C1080002030BDCA
:10BD6000FFB583B00C9B0025188869460881002028
:10BD700004000398008884424CDA01A803994968BA
:10BD80000422624389180A8802804A88428000227D
:10BD9000694601A865DF0600002E01D0300050E0A2
:10BDA000684600786946097D884231D1EDB2002DA0
:10BDB00001D0002700E002276846818E18886A4675
:10BDC00012788018FFB2C019814201DA0C2038E0E5
:10BDD000EDB2002D0CD11888401C18806846007CFC
:10BDE00006991A8888541888401C1880012005007C
:10BDF000069819884218694601A865DF0600002EDA
:10BE000001D030001DE01888694609784018188074
:10BE1000641CAEE7EDB2002D12D0684619886A4660
:10BE20001289891A491E418068464088FF2801DD31
:10BE30000C2006E06846408806996A4612898854B4
:10BE4000002007B0F0BDFEB582B006000A9D0B9C35
:10BE5000A4B201940095049B02226846017A300046
:10BE6000FFF77EFF0700002F01D038000FE0A4B2DB
:10BE700001940095049B10226846017B3000FFF777
:10BE80006FFF0700002F01D0380000E0002005B050
:10BE9000F0BD00B501000888062807DB0888134AB2
:10BEA000904205DB0888124A904201D007201BE02F
:10BEB0004888062807DB48880C4A904205DB4888FA
:10BEC0000B4A904201D007200EE00888084A9042B1
:10BED00009D04888064A904205D048880A8890428E
:10BEE00001D2072000E0002000BD0000810C00000E
:10BEF000FFFF0000F8B506000C001500684600883A
:10BF00002988891D884201D20C2026E03000FFF7E5
:10BF1000C0FF0700002F01D038001EE0052029884F
:10BF200060542888401C2880122029886054288862
:10BF3000401C2880288821183088FFF701FE2988B6
:10BF4000C0B208182880288821187088FFF7F8FDEB
:10BF50002988C0B2081828800020F2BDFAB583B045
:10BF600005001400AE88B61C6846008A218889192D
:10BF7000891C884201D20C2035E0FF2E01D30C2011
:10BF800031E03000401C0399228888542088401CEE
:10BF90002080FF200399228888542088401C20801C
:10BFA0000398218841182888FFF7CAFD2188C0B26C
:10BFB00008182080A888002814D0A868002801D17B
:10BFC000072010E0A8880190A868009003982188B5
:10BFD0004718019A0099380000F07AF92088A9885A
:10BFE00040182080002005B0F0BDFBB584B01400DF
:10BFF0000498806A002801D107204AE0002006004A
:10C0000004982C300078F6B2864241D20498806AB7
:10C01000F6B20C21714340180500A888801C0090DE
:10C020000098FF2801D30C2033E00098401C0599AC
:10C03000228888542088401C208016200599228858
:10C0400088542088401C2080059821884118288821
:10C05000FFF776FD2188C0B208182080A888002844
:10C0600014D0A868002801D1072012E0A888029007
:10C07000A8680190059821884718029A019938000C
:10C0800000F026F92088A98840182080761CB7E7A0
:10C09000002007B0F0BDF2B582B005001700002403
:10C0A0003E88002038802D20285C00280AD03200ED
:10C0B00092B239000298FFF74CFD0400002C01D029
:10C0C0002000A4E0A87800280AD0320092B23900FB
:10C0D0000298FFF7E3FD0400002C01D0200096E059
:10C0E000E87800280CD033009BB23A000299E87837
:10C0F00040B2FFF7FDFD0400002C01D0200086E0D7
:10C10000686800280FD033009BB23A0002991E00E5
:10C1100068680023C0563300FFF706FE0400002CB9
:10C1200001D0200073E0288900280ED0B6B2019615
:10C130000097029B0622022128000830FFF783FEA9
:10C140000400002C01D0200061E0288A00280ED0D5
:10C15000B6B201960097029B0722032128001030F7
:10C16000FFF771FE0400002C01D020004FE0288B67
:10C1700000280ED0B6B201960097029B152214211A
:10C1800028001830FFF75FFE0400002C01D02000CB
:10C190003DE0286A00280BD033009BB23A00029998
:10C1A000286AFFF7A7FE0400002C01D020002EE033
:10C1B000686A00280BD033009BB23A000299686A83
:10C1C000FFF7CCFE0400002C01D020001FE02C2043
:10C1D000285C00280BD033009BB23A00029928005B
:10C1E000FFF703FF0400002C01D020000FE02878A7
:10C1F00000280BD033009BB23A0002992800FFF7C9
:10C20000E7FC0400002C01D0200000E02000FEBD6F
:10C2100000B50100C878400701D4072000E00020E5
:10C2200000BD00B50100C878002801D0072000E05B
:10C23000002000BDF0B593B006000D001F20694638
:10C2400048801F2069460880002E15D03000FFF777
:10C25000DFFF0400002C01D0200037E000AA921C70
:10C260000AA93000FFF717FF0400002C01D02000BE
:10C270002CE00AA8019004E000200190002069460B
:10C280004880002D14D02800FFF7CBFF0400002CBD
:10C2900001D020001AE06A4602A92800FFF7FBFE41
:10C2A0000400002C01D0200010E002A8070004E0E8
:10C2B0000020070000206946088068460388DBB23A
:10C2C0003A0068464188C9B2019872DF13B0F0BDE8
:10C2D000124207D08B0706D00B78491C0370401C14
:10C2E000521EF7D87047830706D00B78491C03709D
:10C2F000401C521EF9D1704770B4103A03D378C96C
:10C30000103A78C0FBD2530701D318C918C001D521
:10C3100008C908C0D20704D30B880380891C801C7D
:10C32000002A01D50B78037070BC704710B504006B
:10C33000200000B200F011F80068012801D10120AE
:10C3400000E00020C0B210BD10B50400200000B213
:10C3500000F003F80021016010BD00B258494018F8
:10C3600070476A49086070476949086070476749C3
:10C370000968084070476D490422424389580122E8
:10C380000A436A4904234343CA5070476749042259
:10C390004243895801229143644A04234343D150C4
:10C3A000704770B4614B042444431B59604C1C40DB
:10C3B0005E4B042545435C515C4B042444431C59AB
:10C3C0000B02F8256D011D40D2B21604C0239B025A
:10C3D00033402B432343554C04254543635170BCE4
:10C3E00070475249042250430858000AC006C00E44
:10C3F00070474E49042250430858000C8007800FB4
:10C400007047F1B40598069CC9B2D2B255000D43ED
:10C41000DBB29E002E43C0B205023543E4B22704CE
:10C420002F438F4DAC46009E04256E436546AF51A9
:10C43000F1BC704730B583B005000C0000200190BE
:10C44000032000902300DBB2002200212800FFF728
:10C45000D8FF37BD824904224243895802229143C2
:10C460007F4A04234343D150704710B47C4A0423CD
:10C470004343D258804B1340794A04244443135118
:10C48000774A04234343D258C9B20B041343744A76
:10C4900004244443135110BC704778490968C140D3
:10C4A0000800C007C00F70477448006870476C49A7
:10C4B000042250430858000C8007800F704700008A
:10C4C0000060004000B56E490918202289560029F5
:10C4D00007D46B49081820214056042801DA0120AE
:10C4E00000E00020002801D0012000E00020C0B2C0
:10C4F00000BD00B56249081820214056042801DB20
:10C50000012000E00020C0B200BD00000463004034
:10C510000863004000B55A490818202140560028F9
:10C5200001D4012000E00020C0B200BD1065004031
:10C53000FFE0FCFF30B50C00514D2D1820352C705C
:10C540004F4C04254D436251DBB2002B04D1040053
:10C550004B4D6D183C352C7030BD0021C943484A05
:10C560001218203211707047454908182021405692
:10C570007047434904225043085870470000F3B500
:10C5800081B017000020C04369460870FFB2002F39
:10C5900001D0002600E00426FFB2002F01D00425C0
:10C5A00000E008253400AC4214D235480421614330
:10C5B00040580021C94388420AD13B00DBB2029AAD
:10C5C00021000198FFF7B6FF20006946087001E0DE
:10C5D000641CE8E7694600200856FEBD00B500214E
:10C5E000C943284AC0B204234343D150C0B20428EF
:10C5F00006DB0021C943234AC0B212183C32117035
:10C6000000BD10B53F480078002801D0082025E083
:10C6100000200400E4B2202C05DAE4B22000FFF789
:10C620009CFF641CF6E700200400E4B2082C05DA45
:10C630002000C0B2FFF7D2FF641CF6E703210620FA
:10C6400000F02EFABE204000FFF77EFE802000069C
:10C65000FFF787FE01202B490870002010BD000065
:10C660000007005000B527480078002801D00120BD
:10C6700000E00020C0B200BDFFFFFCFF100500502D
:10C68000B8200020B8200020F4B506000C000027D8
:10C690003000FFF73FFF002802D0082007002FE0FE
:10C6A000E27800993000FFF76AFF05006DB20020C4
:10C6B000C043854222D0A078002803D03000FFF785
:10C6C000C9FE03E061783000FFF7B4FEE07800288F
:10C6D00006D0227831006DB22800FFF762FE0FE02D
:10C6E00035486DB240193C3000782178890101430A
:10C6F00031486DB240193C30017001E00420070060
:10C700003800F2BDFC200020F8B504000F00200026
:10C71000FFF7EFFE002826D02000FFF725FF69462F
:10C72000254A40B210183C300078887068468078FE
:10C730000600F6B2B609F6B2032E08D1FFF7B4FE32
:10C74000E040C00701D5032507E0022505E0F6B269
:10C75000012E01D1022500E003252900C9B22000E5
:10C76000FFF783FE27E02000FFF7ACFE002822D071
:10C770002000FFF7F9FE0500684604216943802286
:10C780005200891801802800FFF7F5FD009800B2DB
:10C79000FFF7DAFDFFB2002F0DD02000FFF7E4FE17
:10C7A00040B2FFF7E6FE06003000002803D001206B
:10C7B000A840FFF7D6FDF1BDB820002038B5040031
:10C7C0002000FFF796FE002804D000212000FFF78C
:10C7D0004CFE0FE02000FFF775FE00280AD0200075
:10C7E000FFF7C2FE05002800FFF7D0FD0120A8409A
:10C7F000FFF7BAFD31BD10B504002000FFF74DFE74
:10C80000002801D0012000E00020C0B210BDF0B52A
:10C8100089B00020029000200390802040006946EB
:10C820004880012400200500042D19D2009800142E
:10C83000FFF77CFD00280BD02000FFF798FD0028B3
:10C8400006D000980014FFF77FFD02982043029065
:10C850006400684600990914091D41806D1CE3E7D6
:10C86000BE204000FFF762FD00280BD0BE20400034
:10C87000FFF76AFD02988021090601430291FFF744
:10C8800013FE039002980007000F00281FD001201C
:10C89000040000200500042D19D202982040002831
:10C8A00012D02800FFF79DFD01902800FFF7A1FDA1
:10C8B00007002800FFF75DFE06003000002803D0C7
:10C8C0003900C9B20198B04764006D1CE3E70298D3
:10C8D000002800D484E00027002005900020C043F9
:10C8E00007900020070000200500042D66D268464E
:10C8F0003C4949194031097801766846007EC021DB
:10C900008843019037484019402140560021C943CF
:10C91000884251D007980199C840C0074CD5684655
:10C920006946097EC9B2890901700198FFF71CFEAA
:10C9300040B2FFF71EFE04900498002803D1684619
:10C940000078032838D10120019988400400684606
:10C950000078032802D10598204305900198FFF73D
:10C96000A6FD6946487003982040002803D0684619
:10C970004078022807D00398204000281CD1684640
:10C980004078032818D16846007803280CD16846FF
:10C990004078022801D1032600E002263100C9B206
:10C9A0000198FFF762FD7F1C0498002804D06846B8
:10C9B00001780198049A90476D1C96E7FFB2002F0A
:10C9C0000AD0FFF771FD0399884202D100210F00C0
:10C9D00002E0039005990791FFB2002F00D080E795
:10C9E00009B0F0BDB82000200121C206D20E91404E
:10C9F000274A116070470121C206D20E9140254A94
:10CA000011607047F0B540B2002822D5224C40B2E8
:10CA10000207120F083A1500AD08042255431E4ABA
:10CA200040B203071B0F083B9B0804267343D258F0
:10CA3000FF238607B60F08277E43B3409A438B0136
:10CA4000DBB28607B60F08277E43B340134363511A
:10CA50001CE0124A40B203009B0804246343D258EE
:10CA6000FF238407A40F08256C43A3409A438B013E
:10CA7000DBB28407A40F08256C43A3401343074A85
:10CA800040B20400A40804256C431351F0BD00001B
:10CA900000E100E080E200E01CED00E000E400E0E6
:10CAA00038B505000C00E4B22100280040B2FFF7C1
:10CAB000A9FF280040B2FFF79EFF280040B2FFF711
:10CAC00093FF31BDF1B40598069CC9B2D2B25500AE
:10CAD0000D43DBB29E002E43C0B205023543E4B2E3
:10CAE00027042F439B4DAC46009E04256E436546AC
:10CAF000AF51F1BC70471CB504000020019000202C
:10CB000000900023012201212000FFF7DBFF13BD6D
:10CB100010B500200400202C09D2E02000042041A0
:10CB2000C00702D52000FFF7E6FF641CF3E7E02012
:10CB300000048949086000208849086010BD38B5A4
:10CB40000023874A05210020FEF78EFE0400250001
:10CB5000002D02D02800FEF739FF31BDFEB50120BF
:10CB600069460870684600780007000F10210143ED
:10CB7000684601700D227B4968467CDF0400250071
:10CB8000002D02D02800FEF721FF0826002701AD66
:10CB90003A0031002800FEF793FF50206946888054
:10CBA000A02001A94880002001A98880C820400059
:10CBB00001A9C88001A87ADF04002500002D02D059
:10CBC0002800FEF703FFF7BDF0B59FB06846664941
:10CBD0000A680260C648807C6946887038200290E6
:10CBE000002611AC320002992000FEF769FF0220F6
:10CBF00011A90870012011A98870062011A9C87018
:10CC00003825002403AF220029003800FEF758FF22
:10CC1000012003A908826846089003A911A8FFF71C
:10CC200009FB019001980700002F02D03800FEF7A1
:10CC3000CDFE1FB0F0BD00B5C9B2002907D08022DB
:10CC40001204464B1A600022434B1A6006E0802211
:10CC50001204414B1A600022404B1A6000BD38B5E7
:10CC6000A44800906946A24800F065FB0400250036
:10CC7000002D02D02800FEF7A9FE31BD70B50400DA
:10CC8000207800280AD13B21B648008876DF0500CD
:10CC90002E00002E02D03000FEF798FE70BD10B5B9
:10CCA00004002000FEF792FE10BDF0B587B01C25F1
:10CCB00000246E46220029003000FEF701FF00200C
:10CCC0000090A02000030190A02080020290032089
:10CCD0006946087300206946C881002069460874C7
:10CCE000B1480590B8480690684600F0DBFB0700A5
:10CCF0003E00002E02D03000FEF768FE07B0F0BD07
:10CD0000F0B587B0182600276D463A00310028009C
:10CD1000FEF7D6FE00206946087000200190002032
:10CD200069460872402069460882002069464882A8
:10CD3000684673DF04002500002D02D02800FEF7AE
:10CD400045FE8020800305490860002002490860F4
:10CD500007B0F0BD00070050080500500C0500505A
:10CD6000F81F002050E2010078E2010070B588B0A1
:10CD700004002088022871D010280CD0112825D05A
:10CD8000132839D03A2853D0512872D0522841D094
:10CD9000552858D09DE08020C0038C4908600020B1
:10CDA0005549086080208003534908600020874966
:10CDB0000860A0886B49088000F02CFD05002E005B
:10CDC000002E02D03000FEF701FE82E08020C0037A
:10CDD0004949086000207D4908607D486149088014
:10CDE00000F02BFD05002E00002E02D03000FEF7D3
:10CDF000EDFDFFF785FF6CE00023002285215948F7
:10CE000000887FDF05002E00002E02D03000FEF7E4
:10CE1000DDFD5EE000230022002152480088A9DFEA
:10CE200005002E00002E02D03000FEF7CFFD50E0AE
:10CE30001321A08876DF05002E00002E02D03000DE
:10CE4000FEF7C4FD45E01321A08876DF05002E0023
:10CE5000002E02D03000FEF7B9FD3AE00021A08894
:10CE600067DF05002E00002E02D03000FEF7AEFD79
:10CE70002FE068462100891D1022FFF729FA684635
:10CE80000078002824D06846007A042807D0684635
:10CE9000007A062803D06846007A052818D168462B
:10CEA0000078022803D102206946087402E00120BC
:10CEB00069460874C120400004A9888004A9A0889C
:10CEC000A8DF05002E00002E02D03000FEF77EFD08
:10CED000FFE708B070BD10B504002000FFF746FF63
:10CEE000200000F0B3FB21003A4800F0C3F810BD69
:10CEF0005C21002037CC01000805005070B586B0D9
:10CF0000354800680090002348223449684600F004
:10CF1000B9FD05002E00002E02D03000FEF756FDB0
:10CF200001AA0121002000F013FE04002600002EBB
:10CF300002D03000FEF74AFD01A800F026FE0400F2
:10CF40002500002D02D02800FEF740FD244800F007
:10CF5000D5FD04002500002D02D02800FEF736FD87
:10CF600006B070BDF41F0020F8B504000F00E4B255
:10CF7000112C13D13900C9B2164800F021FA05006E
:10CF8000002D0AD01748854207D0082D05D02E0065
:10CF9000002E02D03000FEF719FD03E0E4B22000BD
:10CFA000FEF714FDF1BD00007DCC010038B50E4A3E
:10CFB00001210E4800F0EBFB04002500002D02D0FB
:10CFC0002800FEF703FD31BD9FCC01000C05005089
:10CFD000FFFF00005C2100207CE2010070200020A7
:10CFE000D7CE01000230000066060000E81F0020D6
:10CFF00038B548DF04002500002D02D02800FEF7D8
:10D00000E5FC31BD38B5FFF783FDFFF798FD002043
:10D0100004002500002D02D02800FEF7D7FCFFF702
:10D02000C5FFFFF76BFFFFF799FDFFF718FEFFF74E
:10D03000CBFDFFF73AFEFFF763FEFFF7D9FFFCE7F2
:10D040008A8882827047D94A8282704770B504000C
:10D050000D002E00B61D30886188884209D1708984
:10D06000012806D1A069002803D0317B2000A269E5
:10D07000904770BD38B505000C002088102804D0FA
:10D08000112807D050280AD00EE021002800FFF711
:10D09000D7FF09E021002800FFF7D5FF04E02100B9
:10D0A0002800FFF7D3FFFFE731BDF2B592B00400CF
:10D0B0001C200590002004900BAD049A05992800CF
:10D0C000FEF7FEFC0BA80078022101430BA80170BB
:10D0D0000BA80078082101430BA8017000200C90D8
:10D0E00000200E9000200F90002010900020119042
:10D0F000A07C01A98870AE4869468880032003900F
:10D10000002002906D46029A03992800FEF7D8FC91
:10D1100068460078F0210140012008436946087004
:10D12000684600780007000F10210143684601702F
:10D1300068464078F0210140012008436946487064
:10D14000684640780007000F10210143684641708F
:10D1500068468078F92101400220084369468870BA
:10D1600068468078F721014068468170684680787B
:10D17000EF2101406846817068468078FE210140B9
:10D18000684681701425002606AF32002900380059
:10D19000FEF796FC01A8069068460790012006A9B4
:10D1A0000881002006A94881012006A98881002065
:10D1B0000A9023009B1C06AA0BA92088A2DF13B0AB
:10D1C000F0BDF2B596B0040003200890002007904F
:10D1D00001AD079A08992800FEF772FC68460079AD
:10D1E000F021014001200843694608716846007932
:10D1F0000007000F102101436846017101A8407823
:10D20000F02101400120084301A9487001A840789D
:10D210000007000F1021014301A8417001A8807888
:10D22000F92101400220084301A988701C200690C2
:10D23000002005900EAD059A06992800FEF740FCE7
:10D240000EA80078022101430EA801700EA80078F4
:10D25000102101430EA8017000200F9000201190B2
:10D260000020129001A8139000201490A07C02A925
:10D27000887050486946088103200490002003907C
:10D280006D46039A04992800FEF71AFC6846007858
:10D29000F021014001200843694608706846007883
:10D2A0000007000F1021014368460170684640786E
:10D2B000F021014068464170684640780007000F41
:10D2C0006946487068468078F92101400220084389
:10D2D0006946887068468078F72101406846817009
:10D2E00068468078EF210140684681706846807802
:10D2F000FE210140684681701425002609AF3200E6
:10D3000029003800FEF7DCFB02A8099068460A9065
:10D31000012009A90881002009A94881012009A943
:10D32000888100200D9023000A3309AA0EA92088C5
:10D33000A2DF17B0F0BD70B586B005000E001B4827
:10D34000A8823068A86101A81B491022FEF7D4FF0B
:10D350002900123101A863DF0400002C01D0200055
:10D3600021E0A87C694688701448694608802A0034
:10D3700069460120A0DF0400002C01D0200012E04B
:10D3800031002800FFF71DFF0400002C01D0200011
:10D3900009E031002800FFF788FE0400002C01D0CE
:10D3A000200000E0002006B070BD0000FFFF00007C
:10D3B000251500002415000040E20100231500009F
:10D3C000F2B586B0040001206946088010250026C9
:10D3D00001AF320029003800FEF772FB012001A9DD
:10D3E000887060896946888006A804906846039022
:10D3F00001A9A08AA6DF07B0F0BDFEE700B50100D5
:10D400004888A14A1288904206D39F4840884A889B
:10D41000904201D3012000E0002000BD38B5040097
:10D4200086480088864988423BD086480078401C60
:10D43000844908709548007B8249097888420FD357
:10D4400081497E48008875DF0500002D29D08F486E
:10D450008069002825D028008C498969884720E008
:10D460000020784908708948007C00280ED03B21B4
:10D470007248008876DF0500002D07D08348806958
:10D48000002803D028008149896988477F4840697E
:10D49000002806D000206946087068467B49496923
:10D4A000884731BD38B50400784821001C22FEF7BA
:10D4B00023FF002076490870206800280BD06248BE
:10D4C00021680822FEF704FF5F487ADF0500002D7F
:10D4D00008D0280011E05C487BDF0500002D01D05A
:10D4E00028000AE056485549088000205549087030
:10D4F000684A00216848FEF7F3F932BD30B583B0C1
:10D500006648FFF77BFF00282CD16148007800288F
:10D510000BD05E48406900282FD000206946087172
:10D5200001A85A494969884727E0464800780028F9
:10D5300003D156484068050002E054488068050061
:10D540000022290054480068FEF7EAF90400002C84
:10D5500013D04E48806900280FD020004B498969BC
:10D5600088470AE049484069002806D001206946FA
:10D570000870684645494969884700204449087051
:10D5800037BD10B50400A0882C490880434821000D
:10D5900018310822FEF79CFE00202A4908703B48FB
:10D5A000C089002801D1FFF7A9FF10BD38B50400DC
:10D5B0002348224908800020224908703648006824
:10D5C000FEF7D5F90500002D07D030488069002806
:10D5D00003D028002D498969884731BD70B5050001
:10D5E0002C00A41D20882949C98988421AD1608944
:10D5F000022817D120000C3000F0F2FA002802D0E7
:10D60000FFF77CFF0EE024480068FEF7B0F9060043
:10D61000002E07D01D488069002803D030001B4928
:10D620008969884770BD10B504001C482100083185
:10D630000822FEF74DFEFFF761FF10BDFC21002020
:10D64000FFFF000005220020C021002010B50400CB
:10D650002088102806D0112808D012280ED0502873
:10D6600008D00FE02000FFF78CFF0BE02000FFF751
:10D670009DFF07E02000FFF7B1FF03E02000FFF768
:10D68000D2FFFFE710BD0000C02100204021002094
:10D69000062200201DD4010074E20100C8210020F0
:10D6A000F1B582B0002004006E480078E4B28442F4
:10D6B00037D26D480068E4B208216143461801275B
:10D6C00030788740694800683840002827D067488C
:10D6D0000068B843654908603078FFF78CF80500AA
:10D6E000634800680121327891400140EDB2327800
:10D6F00028009040814212D17078012801D1012088
:10D7000000E00020684001214140C9B200917068EA
:10D71000002804D00099C9B2307872689047641C20
:10D72000C2E7F7BDF8B505000E000124AC40514832
:10D730000068FEF71CF90700002F27D14B4800684E
:10D74000204000281DD12800FFF755F8002805D0FB
:10D750004748006820434649086004E044480068A0
:10D76000A043434908604148006820433F4908609E
:10D770000022414801683F480068FEF7D1F80700E1
:10D7800004E03A480068A04338490860F1BDF0B5AC
:10D7900083B006000C001700052F01D2072038E0E7
:10D7A000FEF760FF002806D1FEF72BFF0500002DD5
:10D7B00001D028002DE02C4806602A4804702E482D
:10D7C000076000202A4908600020284908602000DE
:10D7D000441EC0B2002817D0E4B2082060433018BD
:10D7E000019026480068009001988078694648704A
:10D7F000234A694601980078FEF746FF0500002D90
:10D8000001D0280005E0E2E71E4A00211948FEF792
:10D8100067F8FEBD10B5002004001248007884426D
:10D8200009D201211048006808226243805CFEF79B
:10D830006BFF641CF1E7002010BD10B50020040050
:10D8400008480078844208D20748006808216143EC
:10D85000405CFEF7B3FF641CF2E706480068FEF781
:10D8600086F810BD00220020D0210020DC210020FD
:10D87000D82100206CE20100D421002070E20100D8
:10D8800025D70100A1D601000121C206D20E914088
:10D89000984A116070470121C206D20E9140964A03
:10D8A0001160704700B540B2002812D5744940B2EB
:10D8B0000207120F083A920804235A438958800736
:10D8C000800F08225043C140080080098007800F64
:10D8D0000FE0904940B20200920804235A4389584D
:10D8E0008007800F08225043C1400800800980074C
:10D8F000800F00BD00B5800701D1012000E00020AD
:10D90000C0B200BD00B5010049B2202905DA8C4A39
:10D91000CA401000C007C00F00E0012000BD00B5E4
:10D920000100042901D3002006E0002901D00229CA
:10D9300001D1002000E0012000BD10B5040020004E
:10D9400040B2FFF7DFFF002801D17E4826E020002B
:10D9500040B2FFF7A7FFFFF7E2FF002801D17A48A6
:10D960001CE07A484068002813D0784864B221004F
:10D9700049090422514340580121E206D20E914048
:10D980000143724864B22200520904235A43815071
:10D9900003E0200040B2FFF777FF002010BD55499B
:10D9A00040B20200520904235A438958C006C00EEF
:10D9B000C1400800C007C00F704770B504000E00DA
:10D9C00015002A0031002000FEF7B2F870BD7CB5CA
:10D9D0007748007800284DD0002676480068002857
:10D9E00001D1012400E00024F6B2002E1CD17248BF
:10D9F000007800283ED1684652DF0500052D02D18F
:10DA00000120060010E0002D03D02800FDF7DEFF06
:10DA10000AE0009800F07AF968480068002803D00E
:10DA20000098664909688847E4B2002C1CD1624816
:10DA3000007800281ED1624800886946888001A9C4
:10DA40006048006861DF0500052D02D10120040057
:10DA50000AE0002D03D02800FDF7B8FF04E0594884
:10DA60000068544909688847F6B2002EBCD0E4B279
:10DA7000002CB9D073BD4E480078704700000000FC
:10DA80001CED00E0FEB506000C00002C01D10720C3
:10DA90002FE02000FFF72EFF002801D1072028E00B
:10DAA000484804606846808845490880029846498D
:10DAB00008600020FFF773FF0500EDB2002D02D0D3
:10DAC0000020FFF7E8FE4149300010DF0700002F7B
:10DAD00007D0EDB2002D02D00020FFF7D5FE3800B0
:10DAE00007E001203249087000F018F91620FFF70E
:10DAF00024FFFEBD00E100E080E100E000B5010090
:10DB00000800002801D10E2002E02A480160002010
:10DB100000BD000000E400E038B52B480068002894
:10DB20000AD029480068804704002500002D02D053
:10DB30002800FDF74BFF01E0FFF749FF31BD000072
:10DB4000FC06FFBC0120000002200000B8210020DC
:10DB5000F1B50C001500142600273A00310028000A
:10DB6000FDF7AEFF0120288000202861287BFE21E0
:10DB7000014029732C72684600786872687A002820
:10DB800001D00120A8720020F2BD00B583B00200D0
:10DB90000F4800900098019001A9100060DF030079
:10DBA00001980099884200D1002B18000EBD00009A
:10DBB00007220020F421002008220020F821002064
:10DBC000FE210020F0210020EC210020BBD9010023
:10DBD000E81F0020017840780002084380B27047B7
:10DBE00010B504002000FFF7F5FF01000800C00792
:10DBF000C00F10BD22490860704700218022D20565
:10DC000000B21150704700B58021C90500B2085814
:10DC1000002801D0012000E00020C0B200BDC0B249
:10DC20008107890F174A1160704780B53648007820
:10DC3000002801D085201AE00020334988600020A8
:10DC40003149486000203049086100202E49C860F1
:10DC500003210020FEF724FFFFF70DFF002802D16B
:10DC60000120FFF7DCFF012027490870002002BDDA
:10DC700000B501000868002801D002680A6000BDF4
:10DC8000080300401805004070B50400E4B2002C01
:10DC900002D13048050001E02D4805002800FFF7BB
:10DCA000E7FF0600002E04D02000C0B2716888474C
:10DCB000F4E770BD000080B580204000FFF7A3FFAF
:10DCC00000280CD080204000FFF797FF0120FFF7CD
:10DCD00091FF01200C4948700020FFF7D5FF8220FA
:10DCE0004000FFF790FF00280CD082204000FFF793
:10DCF00084FF0220FFF77EFF012003498870012086
:10DD0000FFF7C2FF01BD00009421002010B5040000
:10DD1000002C02D10020FFF7B7FF10BD80B5002016
:10DD2000694608706846FDF7A9FE0B480078002890
:10DD300001D1FFF77AFF0848C068401C0649C86057
:10DD400001200549887068460078FDF79DFE01BDF9
:10DD5000A42100209C21002094210020002209B24F
:10DD60004250704700B509B24058002801D0012048
:10DD700000E00020C0B200BD00B5C1229200805872
:10DD80000140002901D0012000E00020C0B200BD08
:10DD9000C22292008150704701009020C0000858B4
:10DDA0009022D20088507047A321C9004058C0B2C9
:10DDB0007047C9B20D4A815070470122C9B2425022
:10DDC000704770B504000D008E2149002000FFF758
:10DDD000C5FFA868A98A465CA88A401CA8823100B1
:10DDE000C9B22000FFF7E5FF70BD00001C05000070
:10DDF00070B504000D00E87D002808D18421490099
:10DE00002000FFF7ABFF2000FFF7CEFF0EE08421DC
:10DE100049002000FFF7A2FF6E7E2000FFF7C4FF3D
:10DE2000E968F6B28855687E401C687670BD7FB59B
:10DE300004000D001600012069460870684605724E
:10DE4000019621686846626890477FBD30B585B00D
:10DE500004000D0000206946087068460572A0683D
:10DE600001900020A075216868466268904705B05F
:10DE700030BDF0B585B005000C0080218900280078
:10DE8000FFF77AFF00282CD0922149002800FFF7E5
:10DE900069FF002825D0922149002800FFF75EFF86
:10DEA000812189002800FFF773FFA07E002803D19D
:10DEB00004212800FFF781FF02206946087028002E
:10DEC000FFF76AFF0390E07D69460872E068019001
:10DED0000020E0750020207621686846626890473F
:10DEE0003BE004212800FFF747FF002835D08421BC
:10DEF00049002800FFF736FF00282ED02100280017
:10DF0000FFF776FFE07D617E884226D1207E0028E3
:10DF100010D0E768667E207EE0752069E060002012
:10DF20002076002060763A003100C9B22000FFF769
:10DF30007EFF12E0A07E002803D104212800FFF715
:10DF40003CFF812189002800FFF722FF0020E075B7
:10DF5000E268617E2000FFF76AFF8E2149002800F9
:10DF6000FFF700FF002815D0A08AA17D89B2884262
:10DF700004D221002800FFF724FF0BE08E21490086
:10DF80002800FFF7EBFEA07D002803D0A17D200034
:10DF9000FFF75CFFA22149002800FFF7E3FE0028FD
:10DFA00015D0A22149002800FFF7D8FEA07E002846
:10DFB00003D000212800FFF700FFE07D002806D0F5
:10DFC0000020E075E268617E2000FFF730FF05B0B9
:10DFD000F0BD80B502490348FFF74BFF01BD0000CB
:10DFE000782100200020004080B500F023F80028B0
:10DFF00006D04F484F490860802000024E49086013
:10E0000000F050F8002802D001204C49086000F0D0
:10E0100065F800280DD04A480068012806D0494814
:10E0200047490860464800680128FBD1C02046499E
:10E03000086001BD00B545480078C0B201282FD165
:10E04000434800780007000F002829D14148007894
:10E05000F0210140002907D13F480078F02101401C
:10E06000002901D101201CE03A480078F02101404C
:10E07000102907D138480078F0210140002901D14A
:10E0800001200EE033480078F0210140302907D10B
:10E0900031480078F0210140002901D1012000E041
:10E0A000002000BD00B529480078C0B2012813D176
:10E0B000274800780007000F00280DD12548007878
:10E0C000F0210140402907D123480078F021014088
:10E0D000002901D1012000E0002000BD00B51B484F
:10E0E0000078C0B2012821D1194800780007000F3C
:10E0F00000281BD117480078F0210140A02907D142
:10E1000015480078F0210140002901D101200EE0DE
:10E1100010480078F0210140D02907D10E4800783E
:10E12000F0210140002901D1012000E0002000BDC4
:10E13000DFFF07C004050040186C004008060040DF
:10E1400000EC06407593000014EC0640E00F00F070
:10E15000E40F00F0E80F00F0EC0F00F030B4012104
:10E160000268001D002A0FD00368C31844680830F5
:10E170000C4202D04D466D1E64191D6825601B1DA2
:10E18000241D121FECD0F8E730BC7047032106486D
:10E1900002680A430260054802680A4302600448B4
:10E1A0008047044800470000240500405405004013
:10E1B000E9DF010061E2010010B507497944183137
:10E1C000064C7C44163404E0081D0A688918884708
:10E1D0000100A142F8D110BD080000002800000095
:10E1E000B7D8FFFF14020000F81F00200000000055
:10E1F0006DFFFFFF10000000B0000000E81F0020CE
:10E20000000000000120C046002801D0FFF7D4FF25
:10E210000020C046C046FEF7F5FE00F000F880B5CD
:10E2200000F002F801BDFEE70746384600F002F8AC
:10E23000FBE7FEE72021090326311820ABBEF9E7F2
:10E2400023D1BCEA5F782315DEEF12120000000034
:10E250004E6F726469635F426C696E6B7900000097
:10E26000C046C046C046C046FFF7CCFF0021002094
:10E2700003000000202100202315000001000007FA
:10E28000FEE7FEE7FEE7FEE7FEE7FEE7FEE7FEE766
:10E29000FEE7FEE7FEE7FEE7FEE7FEE7FEE7FEE756
:10E2A000FEE7FEE7FEE7FEE71100030069CF01008D
:08E2B0000024F400FFFF000050
:040000050001E261B3
:00000001FF
