:020000040001F9
:10B00000F82700203D5102004FCD01008FE90100DB
:10B010000000000000000000000000000000000030
:10B02000000000000000000000000000AFFE010072
:10B0300000000000000000006F2502009B2D0200B0
:10B04000114202006B500200FF4D02002352020029
:10B050003B52020000000000B147020045520200CE
:10B0600047520200495202004B5202004D52020068
:10B070004F52020051520200535202005552020038
:10B080005752020001F60100595202005B520200C1
:10B0900019F601005D520200731502005F520200B2
:10B0A0006152020063520200000000000000000034
:10B0B0000000000000000000000000000000000090
:10B0C000F1B5A4B00E0014001D004A487844FF30CA
:10B0D000253003C822AA03C2049600200D9001E087
:10B0E0000198241800206946488022AB0022D243F0
:10B0F000210000A8801C01F044F90190012805DA24
:10B100002078411E8941C943C90F01916846408892
:10B110002528019E00D1761E012E0EDB27003978EE
:10B120000498249A90470490002800D1F4E20D98E6
:10B13000401C0D907F1C761EF1D168464088252862
:10B1400007D100200790089009900A900B900C906E
:10B1500008E0684640880028C2D10D98DEE2010070
:10B1600001200843641C21782029F8D023290ED01F
:10B170002B2904D02D2907D030290BD00DE0010058
:10B180000220084380B2EDE701000420F9E7010046
:10B190000820F6E701001020F3E72A290FD12968DB
:10B1A00029600A68091D29600F92002A05D55142BD
:10B1B0000F9101000420084380B2641C12E00021BA
:10B1C0000F910AE00F9A7B4B9A4205D093009A1890
:10B1D0005200511830390F91641C21780A00303A1E
:10B1E0000A2AEFD321782E2906D00021C9430E91D7
:10B1F00021E000BF749F0000641C21782A2907D138
:10B20000296829600A68091D29600E92641C12E0F1
:10B2100000210E910AE00E9A664B9A4205D09300E7
:10B220009A185200511830390E91641C21780A0086
:10B23000303A0A2AEFD302A9088726783100044859
:10B2400078440C3001F0ABF8002803D0641C02E015
:10B25000209F0000002602A83A30067002A83A306B
:10B260000078682804D12178682901D1622005E09E
:10B270006C2807D120786C2804D1712002A93A31BA
:10B280000870641C12A806902678641C30002538CB
:10B290002AD01C3800D1D6E0001F022800D8D2E006
:10B2A000133800D1F6E0093800D1CCE0801E00D17F
:10B2B0005EE1401E00D132E1401E022800D8C2E00B
:10B2C000001F00D12BE1401F00D18DE0401E00D1B6
:10B2D000E0E0401E2FD0C01E0BD0801E00D1D9E070
:10B2E000C01E00D1D6E066E101200790252012A9FA
:10B2F0009FE002A83A3000786C282868286016D0B1
:10B300000668001D286005960E9F002F03D53000AB
:10B3100001F04FF809E03A000021300001F051F847
:10B32000002801D0801B00E0380008904FE102683F
:10B33000001D286038E1286828600268001D286028
:10B340000020C0430021104002AA03C212A80590A9
:10B35000069B3C2602A803C8002904D1002802D17C
:10B360000E9A002A14D0761E01960207120F303270
:10B37000D2B23A2A00DB27329A5500090A07104355
:10B38000090901D1002803D0059A9F19BA42EAD3CE
:10B390003C20801B0890991905910E9988420DDA7E
:10B3A000081A0A9002A8008F0349014002A80187E9
:10B3B0000DE100BFFFFFFF7FEFFF0000002900D479
:10B3C00005E102A93831097814220A40102A00D078
:10B3D000FDE00F99079A891A0A9A891A0E1A012E06
:10B3E00000DAF4E00A96F2E002A83A300078622827
:10B3F00019D0682806D06A280CD06C281BD0712878
:10B4000008D018E0286828600168001D28600D98A1
:10B410000880DCE0286828600268001D28600D981C
:10B42000C11703C2D3E0286828600168001D2860A6
:10B430000D980870CBE0286828600168001D28601E
:10B440000D980860C3E02A68D21D072082432A6055
:10B4500003CA2A6002AA03C2002903D5012007906B
:10B460002D200CE002A8008F810703D50120079052
:10B470002B2004E0C00704D501200790202012A94A
:10B48000087012A8079940180590310002A800F032
:10B49000AFFB9CE002A83A3002786C2A0BD0712AEC
:10B4A00001D06A2A07D12B68DB1D072083432B605C
:10B4B00003CB2B6005E0296829600868091D296015
:10B4C000002102AB03C3682A03D102A803C880B2DB
:10B4D0000BE0622A03D102A803C8C0B205E0742AB7
:10B4E00001D07A2A04D102A803C8002102AA03C20B
:10B4F00002A838300078000731D502A803C8002917
:10B5000001D100282BD020203043782827D13020AB
:10B5100012A908700220079012A846701FE02900A7
:10B5200002A83A30007800F0FBF802AA03C202A891
:10B53000002904DA0798411C07912D210DE0008FA6
:10B54000810704D50798411C07912B2105E0C0070E
:10B5500005D50798411C0791202112AA115412A861
:10B56000079940180590310002A800F0A7FA2EE0D4
:10B5700002A83A3000786C2809D00120079028688A
:10B5800028600168001D286012A801701FE028686B
:10B5900028600168001D286068468180002001A99C
:10B5A0004880C0430E9001AA02A9249800F0ECF84C
:10B5B00000280CD5B0E001200790252012A90870C2
:10B5C000002E04D00798411C079112A90E540F9821
:10B5D0000799401A0A99401A0899401A0B99401A7B
:10B5E0000999401A0C99401A019002A83830007845
:10B5F000400711D4202069460870002609E0012385
:10B600006A4602A9249800F0A4FE002800D083E036
:10B61000761C01988642F2DB079F12AE0BE0317870
:10B620000498249A90470490002875D00D98401CE7
:10B630000D90761C7F1E002FF1D1302069460870D6
:10B640000A9F002608E001236A4602A9249800F018
:10B6500080FE002860D1761CBE42F4DB089F059E68
:10B660000BE031780498249A90470490002853D036
:10B670000D98401C0D90761C7F1E002FF1D13020BC
:10B68000694608700B9F002608E001236A4602A95C
:10B69000249800F05EFE00283ED1761CBE42F4DB0A
:10B6A000099F0598089946180BE031780498249A68
:10B6B0009047049000282FD00D98401C0D90761CC8
:10B6C0007F1E002FF1D13020694608700C9F0026A4
:10B6D00008E001236A4602A9249800F03AFE0028F7
:10B6E0001AD1761CBE42F4DB02A83830007840073D
:10B6F00000D4F7E4202069460870002600E0761C9C
:10B700000198864200DBEDE401236A4602A92498F1
:10B7100000F01FFE0028F2D00020C04325B0F0BD8D
:10B720000A00622822D0682819D06A2808D06C281C
:10B7300023D0712804D074281FD07A2808D01CE0A8
:10B740001368DB1D07208343136003CB136070472E
:10B75000116811600868091D1160002170471168A7
:10B7600011600868091D116000B20BE011681160DA
:10B770000868091D116040B204E011681160086892
:10B78000091D1160C1177047F4B598B007000C008F
:10B79000206B002800D50E48029000F01EFE616B61
:10B7A0000818049009487844223003C806AA03C246
:10B7B0003820205C400702D4049841280AD208A807
:10B7C000039040200490002613E000BFAC990000D5
:10B7D000FFFFFF7F00F006FE03900028F3D100205A
:10B7E000C04369E11898801C189002980099401A8B
:10B7F00002900298012800DAD1E006AA1898018880
:10B8000001A8401C00F04AFE0090002800D5DAE0B4
:10B8100018980088002804D10098401E009000D598
:10B82000D1E002980099884200DAB8E06069049992
:10B83000009A8218914200D3A0E066634142206AD8
:10B84000081AA169401A616A401AE169401AA16A9E
:10B85000401A05903820205C400711D4202069460A
:10B860000871002509E0012301AA2100380000F039
:10B8700070FD002800D0A6E06D1C05988542F2DB23
:10B880006669039D0BE02978A068B847A06000288E
:10B8900000D198E0E06A401CE0626D1C761E002E2C
:10B8A000F1D1302069460871266A002509E001239C
:10B8B00001AA2100380000F04CFD002800D082E0F1
:10B8C0006D1CB542F3DBA669E5680AE02978A0683B
:10B8D000B847A060002876D0E06A401CE0626D1C8A
:10B8E000761E002EF2D1302069460871666A002566
:10B8F00008E0012301AA2100380000F02AFD0028F9
:10B9000061D16D1CB542F4DBE669E068A1694518B8
:10B910000AE02978A068B847A060002853D0E06A00
:10B92000401CE0626D1C761E002EF2D1302069466C
:10B930000871A66A002508E0012301AA2100380049
:10B9400000F007FD00283ED16D1CB542F4DB382025
:10B95000205C400710D5202069460871002508E0CA
:10B96000012301AA2100380000F0F3FC00282AD1AD
:10B970006D1C05988542F3DB00266661009A01A9DB
:10B98000491C03986369C01800F094FD6069009930
:10B990004018606118980088002800D022E7606B8A
:10B9A0006169401A216A401AA169401A616A401A05
:10B9B000E169401AA16A401A02903820205C4007D1
:10B9C00011D400250CE00026F6436EE02021A0688B
:10B9D000B847A0600028F6D0E06A401CE0626D1C09
:10B9E00002988542F2DB6369039A2100380000F077
:10B9F000B0FC0028E7D1206A0090002509E0302142
:10BA0000A068B847A0600028DDD0E06A401CE06272
:10BA10006D1C00988542F2DBA369E26821003800C2
:10BA200000F097FC0028CED1606A0090002509E064
:10BA30003021A068B847A0600028C4D0E06A401C4C
:10BA4000E0626D1C00988542F2DBE369E068A16961
:10BA500042182100380000F07CFC0028B3D1A06A15
:10BA60000090002509E03021A068B847A0600028B8
:10BA7000A9D0E06A401CE0626D1C00988542F2DBB0
:10BA80003820205C40070ED5002509E02021A06861
:10BA9000B847A060002896D0E06A401CE0626D1CA8
:10BAA00002988542F2DB66616663039808A98842C2
:10BAB00001D000F02DFD300019B0F0BDF3B583B01A
:10BAC000006900906846027C6F2A01D1082406E0D4
:10BAD00020211143782901D00A2400E010243C25BC
:10BAE000039803C806000F00642A01D0692A07D111
:10BAF000002905DA00200021801BB94106000F0053
:10BB0000002F12D1002E10D10398006B00280CD109
:10BB1000082C3CD1039838300078000737D53B25F6
:10BB2000302000993B31087031E06D1E01953000E6
:10BB300039002200E31700F02FFD3032D2B23A2A4A
:10BB400003DB6846007C51381218009842553000DB
:10BB500039002200E31700F01FFD06000F0001D19D
:10BB6000002E05D00398C068009949198842DCD39B
:10BB7000082C0CD1039838300078000707D50098BE
:10BB8000405D302803D06D1E3020009948553C2080
:10BB9000401B0399886100994919039AD160039960
:10BBA000096B884209DA081A039908620398008F22
:10BBB0000E4901400398018715E0002913D5039928
:10BBC0003831097814220A40102A0CD10399496BA4
:10BBD000039A5269891A039A126A891A0D1A012D59
:10BBE00001DB0398056205B0F0BD0000EFFF000027
:10BBF000F3B591B006AD03C802AA03C212A800783B
:10BC000020210143009161290BD01198006B00287D
:10BC100001D5062003E004D1672902D10120119942
:10BC20000863119841684800400DAA4A904225D106
:10BC3000080310D11198006800280CD10320119935
:10BC4000886112A8007861381A2842D323487844C2
:10BC50008A3000900BE003201199886112A80078C7
:10BC600061381A2831D31E4878447430009003227A
:10BC700000991198C06800F01DFCF1E1012817DA65
:10BC8000119800F0BEFC012812DB00270026009866
:10BC9000612832D11198C06830210170401C411CCC
:10BCA000119AD16012A9097861291FD178211EE06B
:10BCB00011994968884A0A4088491143119A51608C
:10BCC0008749461A0027FF43E1E7064878441430C5
:10BCD000CCE7054878441030BBE700BFB0940000C3
:10BCE000A49400009C940000A094000058210170CE
:10BCF00011984069801C11994861002F03D10024DC
:10BD000068468780A2E10098612800D09FE01198E2
:10BD1000046B002C01D5212400E0641C24B2601CBB
:10BD20000090119803C804AA03C202A803C8002205
:10BD3000002300F088FC04A803C802D28022120667
:10BD4000514002AA03C2301F6946888000270F763F
:10BD500006AE761C00E0F61D0098012830DB02A834
:10BD600003C80022002300F087FC29D21C2102A86E
:10BD700000F0B0FC02A803C800F03AFD05000098EE
:10BD8000C01F009001280ADB280000F05FFD0200C0
:10BD90000B0002A803C800F0D0FD02AA03C2F61DE2
:10BDA000072004E0761E2907090F31702D11012D9F
:10BDB00001DB401EF6D5401ECDD4761E3770FAE763
:10BDC00006A8401C311A06AD6D1CA14200DA0C0019
:10BDD00024B2200032D4884205DA06A9091849782D
:10BDE000082900DB0F2706A9091801E0641E491E77
:10BDF000401E0A78BA42F9D00F2F04D106A90918BB
:10BE00004A78521C4A70002806D506AD641C019879
:10BE100000B2001D6946888024B2601E0ED4291825
:10BE20000A783032D2B23A2A03DB12AB1B783A3BA3
:10BE3000D2180A70401E491E0028F1D51198006BD7
:10BE4000002800D402E1601E11990863FEE002A8F8
:10BE500003C80022002300F0F6FB06D202A803C8A4
:10BE600080221206514002AA03C236B27D487043B6
:10BE70007D4900F0EFFD694688800720019909B2ED
:10BE8000421A00207949012A20DB049202AA30CA12
:10BE900000260F000498C00707D532003B002000A1
:10BEA000290000F031FE04000D00049840100490B9
:10BEB0003000390032003B0000F026FE06000F0083
:10BEC00004980028E6D102A830C028E05442002699
:10BED000674F18E0FF070000FFFF0F800000E03F02
:10BEE000FE030000E00707D504A803C832003B00AA
:10BEF00000F00AFE06000F00641004A803C804AA9C
:10BF00000CCA00F001FE04AA03C2002CEAD102A868
:10BF100003C832003B0000F0B9FE02AA03C2009839
:10BF2000662803D1019800B20A3000E0062011997A
:10BF3000096B08180490142801DB132004903020AA
:10BF40006946087606AC641C049801283ADB02A80E
:10BF500003C800F05FFC05000834042628000A210D
:10BF600000F07BFD0F0028000A2100F076FD05009F
:10BF7000641E303727700A2100F06FFD0F00280083
:10BF80000A2100F06AFD0500641E30372770761E16
:10BF9000E4D108340498083804900128D4DB02A8BE
:10BFA00003C800F037FC00F05BFC02000B0002A8A5
:10BFB00003C800F0C2FC00222E4B00F0A5FD02AA2F
:10BFC00003C2C4E706A8401C201A06AD6D1C6A46D1
:10BFD00005E0401E019909B2491E91806D1C297827
:10BFE0003029F6D00099662903D1019909B2491C7C
:10BFF00004E0652901D1012100E00021119A126BB2
:10C00000541824B2A04200DA040024B221001DD446
:10C01000814204DA685C352801DB392000E03020F9
:10C020006A1800E0641E521E491E13788342F9D03C
:10C03000392802D1685C401C6854002906D56D1E61
:10C04000641C019800B2401C69468880019800B2C7
:10C05000009023B22A0012A80178119800F00CF881
:10C0600013B0F0BD97750000A086010000002440C9
:10C070000000F03F84D79741F3B589B015001C004C
:10C0800000F07FFE0190406A0078694608720998C6
:10C09000076B012C01DA0124ADA50AA80178202044
:10C0A0000843109E662801D1761C18E0672800D04E
:10C0B0009FE036B20321C9438E4200DA9DE0BE42C2
:10C0C00000DB9AE0761C099838300078000702D42B
:10C0D000BC4200DA270036B2BF1B00D50027099802
:10C0E000C06800900998806900990918019136B2DA
:10C0F000012E2CDA401C3021019A1170012F04DA34
:10C10000099938310978090704D56946097A009AEE
:10C110001154401C099988617042874200DA7E42BE
:10C1200036B2704209994862BF19A74200DA3C0052
:10C1300024B20998C461220029000098099B9B69D8
:10C14000C01800F0B7F9381B09998862E1E0B442E1
:10C1500020DA22002900019800F0ACF909998969D8
:10C160000919099A9161301B099A5062012F04DA6A
:10C17000099838300078000709D56846007A099A8E
:10C18000D26850540998C069401C0999C86109983F
:10C190008762BEE032002900019800F08BF909980F
:10C1A00080698019A41B012F04DA099938310978B4
:10C1B000090705D56946097A099AD2681154401CC5
:10C1C0000999886124B2A74200DA3C0024B2220017
:10C1D000A9190998C068099B9B69C01800F06AF901
:10C1E00009988069001909998861381B0999486282
:10C1F0008FE0612914D1702015E0BC4205DA09995D
:10C2000038310978090700D427007F1E00D50027A0
:10C210000AA80078672801D1652004E0452002E0E3
:10C22000412902D150200AA9087009988169481C47
:10C23000099AD26800922A78009B5A54691C012FEF
:10C2400007DA099A38321278120702D409998861FC
:10C250001BE06A46127A009B1A54401C099A9061AE
:10C26000012F12DB641E24B2A74200DA3C0024B284
:10C270002200009B181800F01DF909988069001928
:10C2800009998861381B099948620998C068099919
:10C29000896945180AA8007828706D1C36B23000EC
:10C2A00003D42B2028706D1C03E02D2129706D1CF8
:10C2B0004642002405AF08E00A2203A800F07CFDF6
:10C2C00004983870039E641C7F1C31B20129F3DA94
:10C2D000022C08DA0AA8007820210143652902D13E
:10C2E000302028706D1C002C09D1302028706D1C66
:10C2F00007E0641E05A8005D303028706D1C012C1D
:10C30000F7DA0998C068099989694018281A0999C3
:10C31000C86109983830007814210140102914D1DF
:10C32000099840690999896940180999496A40182A
:10C330000999C96940180999896A40180999496B8E
:10C34000884202DA081A099908620BB0F0BD0000B1
:10C35000300079B50E0014001D00002005E0F06AE1
:10C36000401CF0620020641C6D1E002D08D0217856
:10C37000B068009A9047B0600028F0D10020C04318
:10C3800076BDF8B504000F0015001E0000F024FD76
:10C3900033002A003900200000F032FDF2BDC9B29E
:10C3A00000E0401C02788A4202D0002AF9D1002025
:10C3B0007047010000E0491C0A78002AFBD1081AE6
:10C3C0007047C9B201E0401C521E002A03D0037816
:10C3D0008B42F8D170470020704780B500F0FCFC1C
:10C3E000012002BD70B505002C000F3407208443E6
:10C3F000C046C046A54233D2082C04D2082402E02D
:10C40000083000F085F82448026811000CD1011DA5
:10C410000A68002A20D01368A34212D2111DF7E740
:10C420001D68A5420DD2191D0B68002BF8D11268AA
:10C43000011D00E0191D0B6893420DD01D68A54237
:10C44000F8D300290CD00D682A681300083BA342DA
:10C450000AD26A680A600FE000F0F0FC0028CFD131
:10C46000C046C046002070BD2B190B606E685E6030
:10C47000121B0B681A602C600968002904D04A68F6
:10C48000002A01D0091D00E000210160C046C0461D
:10C490000835280070BD00004C3F002070B5040036
:10C4A0000D00160000F098FC32002900200000F07A
:10C4B0009DFC70BD124207D08B0706D00B78491C3B
:10C4C0000370401C521EF7D87047830706D00B78C4
:10C4D000491C0370401C521EF9D1704770B4103AC9
:10C4E00003D378C9103A78C0FBD2530701D318C9D7
:10C4F00018C001D508C908C0D20704D30B8803802F
:10C50000891C801C002A01D50B78037070BC704711
:10C51000002800D1704738B5083804002068082882
:10C5200036D3400734D1C046C0461A484168002976
:10C5300001D08C4203D26160446019E019004B685D
:10C54000002B01D0A342F9D30B68CD18AC421DD308
:10C55000A54204D122689A180A600C0008E04A68D3
:10C56000002A03D02368E3189A420FD362604C601C
:10C57000616800290AD02268A3188B4206D10023E3
:10C58000036008681018206048686060C046C046B4
:10C5900031BD00004C3F0020124224D0994228D9DE
:10C5A00070B500251B4202D00C00002109E00024D8
:10C5B000012649186441944200D3A41A7641F8D365
:10C5C0003100012601E0764109D2001864416D4135
:10C5D000A41A9D41F7D2A4185D41B619F5D33000D5
:10C5E00022002B0070BD1B42D8D108B5C046C04602
:10C5F00008BD01D19042D3D202000B0000210020DF
:10C60000704730B401004B68802212061A400120A6
:10C610001B031B0B4B600BD10B68002B08D10DE0EB
:10C620000B686400DD0F25434D605B000B60401E0E
:10C630004C68E302F4D523031B0B4B604B681A4391
:10C640004A6030BC704730B4012464054D00EC42B0
:10C650000BD85D00EC4208D80C001C436400044376
:10C66000144304D2994200D1904230BC7047FCD0B0
:10C670008B42FAD18242F8E730B4012464054D00C0
:10C68000EC420BD85D00EC4208D80C001C4364005F
:10C690000443144304D28B4200D1824230BC704721
:10C6A000FCD09942FAD19042F8E730B4012100223F
:10C6B0000368001D002B0BD00468001D0C4202D043
:10C6C0004D466D1E64192260241D1B1FF0D0FAE731
:10C6D00030BC704770B504000D0060684000400D2C
:10C6E0003F4EB04207D16068000302D120680028A5
:10C6F00016D0022070BD002804D12000FFF781FF72
:10C7000001286BDA012D0DDB311A8D420AD36068E6
:10C71000002802D50020334901E00020310503C480
:10C72000012070BD4142A942616806DA2E4A0A40E2
:10C73000281800051043606047E08022120611406F
:10C7400062681203120B80235B0313436360401E75
:10C750002D1800202A003532352A02D3616020606E
:10C7600070BD00221E23DB439D4204DA203522687F
:10C77000636823606060684211D0521E9241D243C8
:10C78000D20F20231B1A25689D402A432568C540E7
:10C7900066689E402E4326606368C340636060689D
:10C7A000084360601148824206D28020000682421F
:10C7B0000ED12078C0070BD52068401C206020686F
:10C7C000002805D16068401C60600020C04370BD37
:10C7D00060688842F9D120680028F6D1002070BD39
:10C7E000FF0700000000F0FFFFFF0F800100008046
:10C7F000F4464A1805D200F00FF801D5801740081A
:10C80000604700F009F80121C907884200D90800F3
:10C81000404260474A1812D2400DC9020843012124
:10C82000C9070843520D40210901521A521C06D46F
:10C8300052421F3201D4D0407047C01770470020C9
:10C8400070470268531C036011707047010009D5DE
:10C85000F446404200F006F80122D2071143604737
:10C86000010000BF42221201D21E004207D002D4B2
:10C87000521E0018FCD5C10A4005120589187047E0
:10C880008B4200D1824205D98446100062468C4614
:10C8900019006346DF184C18640D7F0D3AD0661CF2
:10C8A000760537D0E61B352E34DCDB022B43DB0A62
:10C8B0000C0DC9022943C912202E0DDB1700203EA2
:10C8C00006D01F00F741F3405F400026012A774160
:10C8D000C01871410DD217E01700F741F2405740E0
:10C8E000F3415A40B340F3405A4000268018594162
:10C8F0000AD3A21C52050FD0C207012F72411700A4
:10C900004008CB0718434908641C24054208AF417E
:10C9100070416141F0BC7047641C21050020F9E7BB
:10C920006B4010E06B40ABE7F742F3D1E943F1E72E
:10C930002442EFD100200021ECE7F0B40125ED07FF
:10C940000F005F40EED40C00871A9C4105D2C01B3B
:10C95000A141D219634169406B40AE0ADF184C18FF
:10C96000F442E1D2640D7F0DE2D0E61B362ED1DC1D
:10C97000DB022B43DB0AA4460C0DC9022943C90A7A
:10C98000012E28DC04D1D6075208DF073A435B08A2
:10C99000EF0A76429041994114D039423BD1B61901
:10C9A00040414941761C394204D1761C0018494166
:10C9B0003942FAD0B9436746B74208D9A41B2405C7
:10C9C0002143A7E70042EAD13642E8D1A2E7E40AD0
:10C9D000E10700209EE7202E0BDD203E1F00F340E4
:10C9E000F7415F40012A002257417E429841914120
:10C9F0000BE01700F741F2405740F3415A40B34073
:10CA0000F3405A407E42904199410A0303D2641E8A
:10CA1000B619404149410027641E24054208AE4131
:10CA200078416141F0BC7047F446002804D4494283
:10CA300000F013F8404260474042002905D45FD01F
:10CA400000F00BF8404249426047494200F005F8C7
:10CA50004942604703460B43E6D40022030A8B4257
:10CA60000BD203098B4219D243088B422ED2411AB2
:10CA700000D20146524110467047FF2209023FD0C2
:10CA800012068B4205D3121209028B4201D31212F5
:10CA9000090203098B4219D300E0090AC3098B423A
:10CAA00001D3CB01C01A524183098B4201D38B01C0
:10CAB000C01A524143098B4201D34B01C01A524163
:10CAC00003098B4201D30B01C01A5241C3088B42A8
:10CAD00001D3CB00C01A524183088B4201D38B0093
:10CAE000C01A524143088B4201D34B00C01A524135
:10CAF000884200D3401A5241CFD2014610467047B7
:10CB000008B5C046C04608BDF0B50E005E40012520
:10CB1000ED072E40B446AE0ADF184C18F44208D296
:10CB2000F7420ED2640D01D07F0D12D10020614674
:10CB3000F0BD05D1F74201D87F0D05D10020C143DA
:10CB4000F0BDFBD1640DF9D00020C143490549086F
:10CB50008FE0E419C902DB0229432B43DB0A460DAF
:10CB6000C00231438E4630B487B295B27D432E0C5D
:10CB7000ADB2140C7C43A419260C240425439CB2AA
:10CB80007C43A419190C7943270CC919A4B20F04CA
:10CB90003C43090C000C97B247432E0CBE19354399
:10CBA000ADB2170C4743360CBF19A6B2BF193E04ED
:10CBB0003543240C3E0C36199FB24743BF19BCB213
:10CBC0003E0C89191F0C47437F183E043443390C2F
:10CBD000704680B297B247432E0CBE193543ADB2B2
:10CBE000170C4743360CBF19A6B2BF193E04354394
:10CBF000240C3E0C36199FB24743BF19BCB23E0C01
:10CC000089191F0C47437F183E043443390C77467B
:10CC10003F0C90B278432E0C80190604ADB22E431F
:10CC2000050CA0B22D18120C7A435019020C80B2D8
:10CC3000240CA4189AB27A43121914042043120C3B
:10CC400089181B0C7B43C91830BCEF0A394203D149
:10CC5000B61940414941641E6F12BF0DE41B0BDB46
:10CC6000FF19BC4211DA240500274208AE41784181
:10CC7000614166463143F0BD641C05D1401C6141F1
:10CC8000CF0201D34908F4E750E75DE7F0B40E00A6
:10CC90005E400125ED072E40B446AE0ADF184C1861
:10CCA000F4423BD2F74241D2640D43D07F0D38D0DD
:10CCB000E41BC902DB0229432B43CF0ADB0A06002F
:10CCC000B61A9F4104D2641EB6197F41B6185F415F
:10CCD0006812800D24180018844222DAE80C002122
:10CCE000B6197F41B61A9F4102D2B6185F413F1C68
:10CCF00040414941F4D3241C21DD2405B6197F416C
:10CD0000B61A9F4105D33743C60737430026012F84
:10CD10007041614166463143F0BC7047FCD1F74237
:10CD200005D20020C14349054908F3E704D000209B
:10CD3000C143F1E77F0DFAD000206146ECE72442C1
:10CD4000FAD1401C61410F03F6D30020E2E7FEE771
:10CD500080B51248C046C04611A1016041608160A3
:10CD6000C1600161416181610EA242628162C16262
:10CD7000016341630CA282630DA2C263016441643A
:10CD800001BD10B50548C046C04604002068002813
:10CD900001D1FFF7DDFF200010BD00006C2C00204A
:10CDA000000000002E00000066616C73650000004A
:10CDB00074727565000000007CB504000E0015005B
:10CDC00030002900FFF746FE00904543701B01909C
:10CDD000684603C803C476BD80B50348C046C04654
:10CDE000806902BD00000000FC2C0020002804D156
:10CDF0000EA003C803C200207047017001207047D5
:10CE0000002904D10BA003C803C300207047002AE7
:10CE100002D10120C0437047002801D00A78028067
:10CE20000978481E8041C043C00F704700000000D1
:10CE30000000000000000000000000000749086832
:10CE4000002801D000207047054807229043086061
:10CE500004499143091A0160704700BF5C3F0020FC
:10CE6000FF270020F82900208107890F481E8041F4
:10CE7000C00F7047B0490A78104308707047AE4938
:10CE80000A7882430A7070470100AB48007801407D
:10CE9000080000D00120704738B504000025A748DD
:10CEA000A90040184168080001D0200088476D1C87
:10CEB000082DF4D331BD8188A14A914204D0008865
:10CEC000002802D0012000E00020C0B27047BCB5AD
:10CED00082B00F008021C900411800910024083061
:10CEE000050002200DE0B4488169AA68914200D291
:10CEF00011008161688881006D180C353988C01C6B
:10CF000008183880009885420BD228680021C94350
:10CF1000884206D02800FFF7CEFF0028E3D1012485
:10CF2000E8E70298002800D00470BFBD0200138912
:10CF3000C81C181810815089401AC01E50817047B3
:10CF400080B500200090022301A29B48016909E0FE
:10CF5000DEC0ADDEFF011EF180B50021009102238D
:10CF600002A20100954800F01DFF02BDDEC0ADDE4B
:10CF7000FE011EF170B5C21C92B2FE2A01DB09202F
:10CF800070BD002000238E4C1D0164192578002DF2
:10CF90000BD1268995196689AD19ADB2FF2D04DC38
:10CFA0000B8061898918618170BD5B1C9BB2022B6B
:10CFB000E9DB072070BD824A090151184A89101A1D
:10CFC000C01E4881704770B50C0021687C4A000182
:10CFD00010184568002903D0488880000E1805E025
:10CFE0002E00083603E07088800036180C3680204A
:10CFF000C000281886420CD230680021C9438842FC
:10D0000007D03000FFF757FF0028ECD02660012042
:10D0100070BD002070BDF8B504000E0060680025EA
:10D02000654F002826D0654A1368984222D352687B
:10D0300082421FD3FFF718FF00281BD020893989AF
:10D04000884217D1606821688268914212D100211C
:10D050005B4A0B01D2185268824204D28023DB0063
:10D06000D218904204D3491C89B20229F0DB1AE09D
:10D07000318010E03580009569463088FFF7A3FFC6
:10D0800000280AD00098806821688842F4D100986E
:10D090006060388920810120F2BD3088401C3080DA
:10D0A00080B20228E7DB0020F2BDF8B505000C00D5
:10D0B00017001E000220FFF7E7FE002801D1022022
:10D0C000F2BD002F01D0002E05D10520F2BD306049
:10D0D000B088401CB080B08802281FDA38490001AF
:10D0E000085C0028F4D13100B088FFF76CFF0028FD
:10D0F000EDD03068002D03D082882B889A42F2D17F
:10D10000002C03D0028823889A42ECD181683960D0
:10D1100078602948008938810020F2BD0A20F2BDDC
:10D120000268A54B190038318A4202D008320260E9
:10D130007047036070470000643F0020CC3D002032
:10D14000FFFF0000F4B582B002000D0000260020B1
:10D150009A4F796F04292DD2974C0821491B636C93
:10D16000994227D3786F396F40188007800F1C21B0
:10D170004843381811001C22FFF7B0F9786F401CA3
:10D180007867002D15D0606C216C40184007800E28
:10D19000201800900298F100401803C8009A03C2BA
:10D1A0006846FFF7BDFF761CAE42F3D3606C4019B2
:10D1B00060640120FEBD0000703E0020E81F0020DA
:10D1C000983D0020FEB5002001900024694688703B
:10D1D00008804A4E0027FF434948006809888902B1
:10D1E0004018611C89B202917549220189180225F3
:10D1F00002689E4B9A4225D142689D4BD21A02D0BA
:10D20000521E0BD01EE00A7048600A000E32083130
:10D21000FFF75DFE01980543019526E06A46927886
:10D22000002A04D00D7032694A600D81029C306181
:10D23000002231001431FFF74AFEB08A022820D1C3
:10D2400004201FE000229300C358BB420BD1521CA4
:10D25000FF2AF8D93269002A09D00D7048600D8183
:10D260007480029C08E003200870029C0DE030618D
:10D27000B58201206946887001980121014301911E
:10D2800003E0082001990843019068460088401C8B
:10D29000694608806846008803289DDB0198C0B273
:10D2A000FEBD000080B500210091012304A2010011
:10D2B000134800F077FD002800D00E2002BD0000CA
:10D2C0000000FFFF10B50D4C60883D4900010918B2
:10D2D0000B488A89002A07D100230122496800F0FF
:10D2E000A7FD0421217010BD052121700221A1821A
:10D2F00000230122216900F09BFD10BD703E00203B
:10D30000E81F002080B5A54842685388DB1C032134
:10D310000170002100919BB20169808A8000091888
:10D3200020E680B59D48011D4088FFF74CFE00288F
:10D3300002D0FFF7E7FF02BDFFF7C4FF02BD30B523
:10D34000012202231E4995480478002C09D0E41ECE
:10D3500018D0641E1ED0641E012C27D9A41E28D00C
:10D3600030BD03895B1C03810023438003731C01D0
:10D370000D5D6C1EA441E40FC518AC725B1C022B42
:10D38000F5DB16E0818A42685288D21C89188182B6
:10D39000037030BD02694488240109194C68046196
:10D3A0004A60828A0A818382062100E00721017097
:10D3B00030BD027030BD0000A83B00201C3A0020A8
:10D3C000983D0020F8B502000D000F20002A04D07F
:10D3D0000120FFF754FD0120F2BD02276F4E00240B
:10D3E0002979002905D0022920D007D3032925D087
:10D3F00034E0FFF7A5FD012129712FE00020B3499A
:10D4000002018D182978022904D16868FFF7A4FD6C
:10D410002C7023E0401C80B20228F0DB0220FFF7D2
:10D4200029FD0120FFF72BFDA948F2BD00230122B1
:10D430003169A84800F0FCFCB7820EE03069FFF7C4
:10D440008BFD72883169A14B12019A1853683361C0
:10D450005160B18A1181B78214702C71002803D0F9
:10D460000120FFF70CFD0E20F2BD0000DEC0ADDE96
:10D47000FE011EF1F0B583B002000C009348618AF2
:10D48000090141180191002A05D0E1880198FFF7B0
:10D490004DFD0120FEBD4968019A128992008D1848
:10D4A00001260627217C062970D801A2525C9744E8
:10D4B0001EAA3A6006C8D6000021C162A169816235
:10D4C00069462830FFF7A7FD002801D10A20FEBDDC
:10D4D000002000900123221D29007E4800F062FCFC
:10D4E00002212174002812D1002554E00020009070
:10D4F000012322000C3208352900764800F052FC46
:10D50000A17D002900D0032626740028ECD00E252A
:10D510003DE00027B548416C002908D0026CD300DB
:10D52000C718521C5207520F0264491E4164002062
:10D530000090BB883A68A08A80002918654800F0EE
:10D5400031FCA18ABA888918A182A17D491EA175E2
:10D55000090600D126740028D9D1C5E70020009023
:10D56000012322000832291D5A4800F01BFC2178B3
:10D57000032900D105272774EDE7C06AFFF792FE63
:10D580000500277403D106E0514D00E00F25E18826
:10D590000198FFF7CBFC2800FEBD0000703E002084
:10D5A000F0B585B00D00002801D0012040E0474CC7
:10D5B000474E01272879002803D0022835D01DD3F3
:10D5C00035E001A80C2100F005FDE86801906946EE
:10D5D00001A8FFF720FD00280CD002988188E9807F
:10D5E00001882981FFF75EFE6946098809016118F3
:10D5F0008F7300E00A200221297119E023002033F3
:10D6000001AA0021A81DFFF750FD002807D10298AC
:10D61000FFF748FEA18C090161188F7303E02034E5
:10D620000021002206C40A2802D1300000E00F20A9
:10D6300005B0F0BD38B5002801D0012032BD264C20
:10D640000025207B002801D0257301E0FFF777FE3D
:10D650001E482178491E062936D801A2525C9744FB
:10D6600006363C4266485A0000216218937A002B25
:10D6700008D095720A0182189389002B02D1927BFF
:10D68000002A08D1491C89B20229EEDB2570658089
:10D6900065600F4832BD6180FFF743FE32BDFFF782
:10D6A00031FE32BDFFF70EFE32BD062121706188CA
:10D6B000090140184068FFF74FFC32BD0720207079
:10D6C0006560FFF73DFC32BD0F2032BD983D002064
:10D6D0001D1D0000E81F0020703E0020F0B585B041
:10D6E000954C216F1C22514366183178491E08D091
:10D6F000491E012910D9891E012911D9891E13D06B
:10D7000015E03100FFF75EFE00286DD000218B4A46
:10D7100090420ED101911BE03100FFF7ABFEF3E721
:10D720003100FFF73DFFEFE7FFF784FFECE70F2045
:10D73000ECE701903078022801D0032808D12B486B
:10D74000026CB37DD2180264426CB37DD21A42647B
:10D7500001220325684633785B1E052B29D801A7D3
:10D76000FF5CBF444A3A1E140804052120E004224D
:10D770000270F2888281C1811BE00570F18881818D
:10D78000318911E00223037033898381B388C38117
:10D79000F3680293337C062B00D10121017408E069
:10D7A000027031898181B188C181F068029000E006
:10D7B00001706846FFF770FB1C21206F1C2250434C
:10D7C000201800F005FC606F002806D0216F491C6E
:10D7D0000D402567401E606703D10420FFF74FFB13
:10D7E00002E00020FFF77AFF05B0F0BDA83B002063
:10D7F00080B50420FFF748FB002805D10420FFF77F
:10D8000039FB0020FFF76AFF01BD80B50800FFF774
:10D8100065FF01BDFDB58AB00D0000270024022080
:10D82000FFF732FB002801D1022075E0002D01D165
:10D83000052071E02888A449884202D06888002821
:10D8400001D1042068E028890290686801900026D0
:10D8500000E0761C0298864208D20198F1004058F8
:10D86000FFF702FB0028F4D1032055E00B980028B5
:10D8700011D106E06968C200891889886418A4B2C9
:10D88000401C29898842F5D369462000FFF772FBC6
:10D89000002805D040E00088694608800B9844883D
:10D8A00003A80CA9097801700774694609884182A8
:10D8B00029898175032181829F4EB169491CB1611B
:10D8C00006912988018169888180C4800CA9097822
:10D8D000032904D1042101740A9909680991478137
:10D8E0006A682989FFF72EFC002806D1684601885E
:10D8F0002000FFF760FB08200EE00A98002808D0FF
:10D90000476006980A9908600A98877230890A99D0
:10D910000881FFF76DFF00200DB0F0BD97490A7830
:10D92000082A01D10C2070479300CB185860521C74
:10D930000A700020704700001C3A00201D1D0000E6
:10D9400000B58DB06846142100F044FB0220FFF7BB
:10D950009BFA002817D10120FFF796FA002837D14B
:10D960000120FFF787FA00F0CBF9FFF72BFC002826
:10D9700001D10B202DE0062809D10220FFF77AFA09
:10D980000120FFF77CFA6846FFF786FA20E005A938
:10D9900001220A7001280CD003280AD005280FD0D4
:10D9A00007280DD0092806D00A2806D00B2802D057
:10D9B00007E0002002E0032000E00220087100E000
:10D9C0000A710022002105A8FFF7BCFBFFF710FF3A
:10D9D00000200DB000BD38B504000D00002C01D0B2
:10D9E000002D01D1052032BD6946FFF714FB002848
:10D9F0000FD0606873496A461288120189188A89B3
:10DA0000521C8A8128600C3068600120A0720020BE
:10DA100032BD0A2032BD10B582B0040001D105200C
:10DA200016BD6946FFF7F7FA002811D06548694628
:10DA30000988090140188189002907D0A27A002AA3
:10DA400004D0491E81810020A07216BD062016BD9B
:10DA50000A2016BD38B504000D000220FFF714FAA5
:10DA6000002801D1022032BD002C01D1052032BD99
:10DA700069462800FFF77EFA002803D16946098825
:10DA80002180658032BD10B504000220FFF7FCF94B
:10DA9000002801D1022010BD002C01D1052010BDAD
:10DAA000218803290DDA6088464B0A019A185289A9
:10DAB000121AD21E05D4FFF77EFA00202080608063
:10DAC00010BD042010BD0000FFFF000080B5022340
:10DAD0000CE080B5002A01D1052002BD022306E03A
:10DAE00080B5002801D1052002BD03230022FFF7E5
:10DAF00091FE02BD10B588B004000220FFF7C4F902
:10DB0000002801D1022015E02F48844201D10420D1
:10DB100010E068460521017001210171C4800022D6
:10DB20000021FFF70FFB002803D0FFF761FE002064
:10DB300000E0082008B010BD703E002000B587B09E
:10DB40000220FFF7A1F9002801D1022014E00620ED
:10DB500069460870002200216846FFF7F3FA0028A2
:10DB600009D01A480178002901D001210173FFF77B
:10DB70003FFE002000E0082007B000BDCC3D0020A3
:10DB800003B581B002A901A8FFF78FFA0EBD01B558
:10DB900013000A0069460020FFF787FA02BD01B5AD
:10DBA00013000A0000216846FFF77FFA02BD002833
:10DBB00001D0002901D105207047006808600020CD
:10DBC00070470000983D0020FFFF0000703E0020DD
:10DBD0007FB502006846002300240025002678C097
:10DBE0006846137A012B02D0022B06D00DE0047098
:10DBF00013690293938A838107E001230370938959
:10DC0000D4891B1B03819389438150680190684626
:10DC10001268926890477FBD002808D0AA494A68D8
:10DC2000904204D38968884201D2012070470020C5
:10DC30007047A648416E491E416604D1A2490A7840
:10DC4000FD2313400B70016E491C042900D10021F3
:10DC50000166704738B59D48016E1822514343183C
:10DC6000406E002826D0187A012802D002280FD052
:10DC70001CE0D88A9C8AE832251A954200DA221ADA
:10DC8000800092B2D96809181C69201829DF01E0C8
:10DC9000988928DF112807D18B480178FD220A4096
:10DCA00004211143017031BD002803D0092118005F
:10DCB000FFF78EFF31BD844801780622114200D063
:10DCC000704780B502220A430270FFF7C3FF01BD0F
:10DCD00038B50400A448416E042901D1002032BDAA
:10DCE000026E5218042A00D3121F491C41661821E3
:10DCF0004A438518280000F06BF92560012032BDE9
:10DD0000FCB59A489A49401A01090191994800685E
:10DD10000022D243904202D19748006880026A4AAA
:10DD20001278D2073CD40022674B5B6800930AE06C
:10DD3000009B14011B191C68002C03D05B68002B8E
:10DD400000D0491E521C019B9A42F1D300221BE0D5
:10DD5000009E1F01F6193768002F02D07768002F48
:10DD600004D1767BB44201D234001D005B1C019EBD
:10DD7000B342EDD3009B2D062C0D1B1958601C7B64
:10DD8000A402001B1860521C8A4203D20024150012
:10DD90000023ECE74C480078012101434A48017018
:10DDA0000020F6BDF8B504000D0017001E0046481F
:10DDB0000078C00701D40120F2BD2000FFF72CFF3E
:10DDC000002801D10220F2BD002F01D0002D01D189
:10DDD0000320F2BD0320074201D1054201D00620F5
:10DDE000F2BD2068854204D36068B100691888429A
:10DDF00001D20520F2BD002E01D10420F2BD6846FB
:10DE0000FFF766FF002801D10720F2BD06980099B0
:10DE10004860009804600120009908720098C7606B
:10DE20000098056100988682FFF745FF0020F2BD4B
:10DE3000F2B582B0040015001F0023480078C00727
:10DE400001D40120FEBD2000FFF7E6FE002801D12D
:10DE50000220FEBD0298002801D10320FEBD8005EE
:10DE600001D00620FEBD029E2068864204D3606871
:10DE7000AA02B118884201D20520FEBD002D01D1B1
:10DE80000420FEBD6846FFF723FF002801D10720CC
:10DE9000FEBD009847600098046002200099087257
:10DEA000B00A0099888100980582FFF704FF0020DE
:10DEB000FEBD002801D1032070472B49496E016047
:10DEC0000020704700000000A82D0020943A002098
:10DED00038B50100244B186E182250431818274AF1
:10DEE000147802252C4232D00023022902D00329C3
:10DEF00020D036E05370017A01290CD0022930D1AC
:10DF00008189491C8181C189491CC181028A89B2E8
:10DF1000914226D10CE0C18A828AEB01541A9C42BC
:10DF200001DA531A9BB2C918C18289B2914218D141
:10DF3000002107E05178491C5170C9B2042910DB57
:10DF400053700821FFF744FEFFF773FE09E06007F6
:10DF500007D5FB2020401070596E002901D00543E1
:10DF60001570FFF777FE31BD943A0020F81F0020AE
:10DF7000E81F00201410001014000010A82D00202D
:10DF80001206130A1A43130C1A4300BF094205D0A4
:10DF9000830705D00270401C491EF9D1704700006C
:10DFA000130030B414001500103902D310393CC0EE
:10DFB000FCD2490700D30CC000D504C0890002D3AD
:10DFC0000280801C002900D5027030BC7047000020
:10DFD0000022DBE70022E3E70870000A4870022015
:10DFE0007047F8B504000E0020783070491C608836
:10DFF000FFF7F2FF451CEDB27719201D00903900A4
:10E000000088FFF7E9FF009989783954401C00998E
:10E01000C978C0B23954401C00990979C0B239544A
:10E02000401C00994979C0B23954401C0099897943
:10E03000C0B23954401C2D182078C00705D5E8B26D
:10E040003118A089FFF7C8FF2D182078800717D551
:10E050000E2020560103208A0005000D084380B2DF
:10E06000EDB270556D1C000AEDB270556D1CE07C70
:10E070000001A17C0907090F0143EDB271556D1C28
:10E080002078000705D5E8B23118A08AFFF7A4FF71
:10E090002D18E8B2F2BD70B5A0B00600032101A8AA
:10E0A000FFF798FF01A811210170212141708178AB
:10E0B000F9220A400221114381701C2108A8FFF7B0
:10E0C00089FF08A800781021014308A801700024E6
:10E0D00009940B940C9401A80D900E9402A80121B0
:10E0E0008170C149018003216846FFF773FF6846CC
:10E0F00004808178E3220A400321114381701421B6
:10E1000003A8FFF767FF2A2114A8FFF763FF00F0B9
:10E11000B8FBC0B2002806D014A9401EC0B200F05F
:10E12000B3FB002814D102A803906846049003AD05
:10E130000FA914A8FFF755FF28816C811420A8812E
:10E140000FA8079033000A3303AA08A93089A2DF79
:10E1500020B070BD70B590B004001C2108A8FFF776
:10E1600039FF022508A800780221014308A80170A0
:10E17000002609960B960C960D960E9602A8012184
:10E1800081709A49018003216846FFF723FF6846A2
:10E190002121017046708178E2220A400221114358
:10E1A0008170142103A8FFF715FF01A8A18D01704C
:10E1B000A18D090A417002A803906846049003A843
:10E1C00005814681858101A8079023001A3343E029
:10E1D00070B590B00400032101A8FFF7FBFE01A871
:10E1E00011210170212545708178F9220A40022110
:10E1F000114381701C2108A8FFF7ECFE08A80078E5
:10E200002821014308A80170002609960B960C9658
:10E2100001A80D900E9602A8012181707449018019
:10E2200003216846FFF7D6FE684606704570817880
:10E23000F1220A40132111438170142103A8FFF732
:10E24000C9FE02A803906846049003A886601721BF
:10E25000818107962300223303AA08A92089A2DF1F
:10E2600010B070BDF0B58DB004000E0000F0FAFAE9
:10E27000002838D100F005FBA34D0027002801D16C
:10E280002F820AE001A9401EC0B200F0FDFA00286A
:10E2900029D101A84088401C28823068206070681D
:10E2A00060603089A085B07A2E21605497486085DF
:10E2B000AF72AF73684601218170954901802200D9
:10E2C000083269460120A0DF00280CD12000FFF7AA
:10E2D000E2FE002807D12000FFF73CFF002802D112
:10E2E0002000FFF775FF0DB0F0BDF0B58DB0070051
:10E2F00008000226844CA17A022904D0A17B0029BF
:10E3000001D0A67223E005A900F00AFB02006946CD
:10E31000088001A80021002300252AC0016001A86F
:10E32000798C0180867085806846039005A80490EA
:10E3300001A9788DA6DF00280BD16846008890429D
:10E340000ED00C2079680A0000D08847A5720DB065
:10E35000F0BD05D00828F9D0964A904202D0F1E7E6
:10E360000325F3E70225F1E710B51300664A0624FA
:10E370001470002454700224947014000834546003
:10E38000117253721100FFF7B0FF10BD70B58AB063
:10E390000400080005A9FFF724FE02006846028079
:10E3A00001A800210023002500266AC001A8618978
:10E3B00001800121817083806846039005A8049044
:10E3C00001A9608DA6DF00280CD169460988914219
:10E3D00001D00C2006E04C494A7B521C4A738A7BD0
:10E3E000521C8A730AB070BD182A0000512A00001E
:10E3F000522A0000F0B58BB00600434C002502E025
:10E40000207B401C2073A07A01287AD1E07A401E3C
:10E4100005D0801E47D0801E012823D961E000F07E
:10E4200030FA0100207B884201D3A57215E06946CD
:10E4300000F02AFA002805D169463000FFF7A6FF50
:10E44000002807D0010005D0082859D0594A904229
:10E4500057D051E0A07A0128D2D0607B002845D067
:10E46000012244E000F00DFA617B0029DDD1002893
:10E47000DBD0E17A052906D16946002000F004FAD4
:10E480000028DFD108E0062906D16946401EC0B247
:10E4900000F0FAF90028D5D169463000FFF776FF81
:10E4A0000028D7D0CEE700F0ECF9070002E0207B8F
:10E4B000401C2073207BB8420FDA694600F0E4F973
:10E4C0000028BFD168464088618A8842EFD36946F8
:10E4D0003000FFF75BFF0028B4D1207BB842B9D1F0
:10E4E000A3E7716808000BD0032008E00622012191
:10E4F0003000FFF739FF86E771680A0000D08847CF
:10E50000A5720BB0F0BD0000DC3E0020FFFF000054
:10E5100008180000F8B50A000021117096498D7A9C
:10E520000678052301210324032E11D1012D0CD1DE
:10E530004578002D02D014700020F2BD80780028AC
:10E5400001D01370F8E71170F6E707201070F3E7B9
:10E55000002DF1D1012E01D0042E26D145786E4632
:10E56000357004253678761E052E19D801A7BF5DB3
:10E57000BF4400BF06280E2806068078002816D063
:10E58000DFE744682478012C02D180780328F6E77D
:10E590000920022CDAD0072CD3DBD7E71570CBE7A4
:10E5A000684600780728C6DBF8E70220CEE701209E
:10E5B000F2BD000004300000F1B58CB00D0000F099
:10E5C00060F90600002700246878012801D1340092
:10E5D00026E003281DD1686881780902407801434C
:10E5E0000091002506E001A840880099884200DBE0
:10E5F000641C6D1CADB2B54212DA01A9E8B200F09C
:10E6000043F90028EFD00C9949680A0018D08847D0
:10E6100016E0052801D0062802D1002E00D00124E2
:10E620005549052008704F70022088700800083096
:10E6300048600C722004000E48720C98FFF755FEDB
:10E640000DB0F0BD70B584B005000E0001A800212A
:10E65000002206C001A80221018042806846029083
:10E6600001AAE989688DA5DF002812D1684600F06B
:10E6700073F9040001AAE98C688DA5DF002808D190
:10E68000684600F06FF90440200000D0012030708F
:10E69000002004B070BDF0B587B004000E0003ADDB
:10E6A000022028700027AF60069700A9491C2000AF
:10E6B000FFF7C8FF002824D168464078002808D119
:10E6C000FF208230A88003A9608DA8DF002831D008
:10E6D00017E001AA31000C317089C0B200F00AF9CC
:10E6E000254E694601A8FFF715FF00282BD0AF8003
:10E6F000A87901210143A97103A9608DA8DF002831
:10E7000004D061680A0015D0884713E06846007994
:10E71000012811D102998878000249780843012123
:10E72000B172377301A94978F17277737082200052
:10E73000FFF760FE07B0F0BD0428FBD101A920005F
:10E74000FFF73AFFF6E768460078002811D0AF805F
:10E75000A87901210143A97103A9608DA8DF0028D0
:10E76000CFD1B7726846027801792000FFF7FCFD2F
:10E77000E0E7C0204000A5E7DC3E002070B582B095
:10E7800004000A003548857A891D00231688012E69
:10E790002AD0102E08D0112E09D0502E0AD0512E7A
:10E7A00030D0532E42D073BD9188618544E02C480F
:10E7B000608573BD0888E289904211D1488902289A
:10E7C00041D10C31080000F0C7F8401E8041C00F55
:10E7D000694608702268100035D02000904773BD4C
:10E7E000628C90422FD11DE08373022D04D1010071
:10E7F0002000FFF77AFD73BD012D24D12000FFF723
:10E80000F9FD73BD121D087802281CD1907A0428E6
:10E8100019D0062817D0052815D04888628C904258
:10E8200011D1891C2000FFF736FF73BD0988628C67
:10E83000914208D1032D01D1837273BD6168080034
:10E8400001D00820884773BD80B50448028A4A80F9
:10E85000521C0282080000F02BF802BDDC3E0020B2
:10E86000FFFF000030B500200021204A204B2C255E
:10E870004D435855FF245454491C1429F7DB90820A
:10E8800030BD1A48808A704710B502000800174949
:10E890008C8AA24201D3072010BD154B895C2C2223
:10E8A00051435918891C2A22FDF704FE002010BD8F
:10E8B000B0B501000D4CA58A142D15D000270C48C9
:10E8C0002C227A4380180278002A0AD10122027091
:10E8D000801C2A22FDF7EEFD67556D1CA5820020E5
:10E8E000B0BD7F1C142FEADB0420B0BDC43E002065
:10E8F000E031002010B5FF23137053700023937094
:10E900005360002801D00B781370022801DB4C788B
:10E910005470032803DB801E9070891C516010BD69
:10E9200010B502000023002000290ED010780870D6
:10E9300050784870022005E05468E45CC0B20C5482
:10E94000401C5B1C9478A342F6DBC0B210BD01787A
:10E95000407800020843704780B5FFF7F8FFC00712
:10E96000C00F02BD80B5FFF7F2FF8007C00F02BDE8
:10E970000A780270497841700220704738B5050066
:10E980000C002000FDF715FD28806C6031BDFEE70E
:10E9900038B50400824D20780E285FD801A1095CAB
:10E9A0008F4400BF10B82E6A7E90A8B89EB8A8A267
:10E9B000A8B8B40000227B498835280000F072FE18
:10E9C000002801D000F0CEFEA08801F0D3F9112874
:10E9D00035E06946608801F0F3F8002801D000F0C6
:10E9E000C1FE6846007840070CD429001431688ABB
:10E9F00001F022F9002801D000F0B4FE1321688A4A
:10EA000076DF24E0A08801F0B5F9112817E0132182
:10EA1000688A76DF002801D000F0A4FE6248688290
:10EA200031BD00BF0EA0006800906946608801F00B
:10EA3000B7F831BDFFF782F80E280FD008280DD0A7
:10EA400005E0002005E000F047FA31BDA06800288D
:10EA500004D000F087FE31BD01F0A6F831BD000002
:10EA60000000000080B500F07DFE01BD10B54C4CEB
:10EA700021002000603001F0F0F9C1B2183420000C
:10EA800001F003FB002809D0082807D0A6498842D6
:10EA900004D0A649884201D000F064FE10BD404871
:10EAA000408A4149884200D1704780B5002101F079
:10EAB0006DF8082803D0002801D000F053FE01BDF6
:10EAC00070B59CB068460021002200230EC00025CE
:10EAD0000095B94801906846FF2142310181857255
:10EAE0002F4C694620003030FFF7BCFB002801D0D6
:10EAF00000F038FE142103A8FFF76CFA112603A8D2
:10EB000046738673C57306740395012101710595DB
:10EB10006421017303A91834200001F094FA00283D
:10EB200001D000F01FFE40210CA8FFF753FA00BFF0
:10EB30000FA10CA8FFF722FF0CAC00BF11A1200011
:10EB40001030FFF71BFF9D48552108AA03C29C48BF
:10EB50000A9008A818903C2026543D3425700CA833
:10EB600001F027FB002801D000F0FCFD1CB070BDB7
:10EB70004E6F7264696353656D69636F6E6475632C
:10EB8000746F72006E524635310000000078002824
:10EB900000D0704780B53B210148408A76DF18E0FD
:10EBA000F829002033330000FFFF000080B500F09B
:10EBB000D9FD01BD80B5002001F054FD002801D031
:10EBC00000F0D0FD01F028FE002801D000F0CAFDC1
:10EBD0003CDF002801D000F0C5FD01BD80B5002854
:10EBE0000DD003280DD100BF06A101F047FF022080
:10EBF00001F038FD002804D000F0B4FD01BDFFF79E
:10EC0000D9FF01BD4150503A494E464F3A466173D3
:10EC100074206164766572746973696E670D0A00A9
:10EC2000F0B58BB00400A94D2F008837A84E20887E
:10EC3000022850D010281BD0112808D0152830D019
:10EC40003A282AD051284AD0552826D069E000BF5A
:10EC500037A1032001F012FF6E82A88AB04260D073
:10EC600001F000F8002801D000F07CFDAE8258E0F1
:10EC7000AE8200BF34A1032001F000FF072001F0A5
:10EC8000F1FC002801D000F06DFDA0886882002210
:10EC90009049380000F006FD3FE01321A08876DFA0
:10ECA0003BE00622083421006846FDF717FC0020EF
:10ECB00069468871380000F036FD002801D000F068
:10ECC00051FD684601F074FE020000BF24A103203C
:10ECD00001F0EAFE25E00021688A67DF1DE002A856
:10ECE000A11D1022FDF7E6FB6846007A002818D027
:10ECF00002A8007A042803D0062801D0052810D1E4
:10ED000006A86946097A022900D001210170C121B3
:10ED10004900818006A9A088A8DF002801D000F062
:10ED200021FD0BB0F0BD00000430000001340000F4
:10ED30004150503A494E464F3A446973636F6E6E84
:10ED400065637465640D0A004150503A494E464F60
:10ED50003A436F6E6E65637465640D0A00000000CF
:10ED60004150503A494E464F3A506173736B657942
:10ED70003A2025730D0A000038B5040001F070FF39
:10ED8000200000F09FFE514D210028003030FFF799
:10ED9000F5FC21001835280001F08AF8200002F067
:10EDA000DFF8200001F042FD2000FFF739FF2000CE
:10EDB00002F0B4FA31BD000065EA010055AA55AA77
:10EDC000EEBBEE0010B50400FFF782F8200002F061
:10EDD000CFFA10BD10B58CB001003C48428A04291E
:10EDE00009D007290BD00A2902D00E2913D041E0FF
:10EDF000FFF7E0FE3EE01321100076DF04E0344828
:10EE0000824237D102F0CEFA082833D0002831D020
:10EE100000F0A8FC2EE0694607220A70B74A8A80F3
:10EE200001228A71CA710C230B721E234B720F23AD
:10EE30008B720223DB438B731623C45E0C82002388
:10EE40008B818A74CA748B821734C48224B2EB21FA
:10EE500089008C4203DBD9214900611AC182017CFF
:10EE6000C91C0174C9B23C2900DB03746946303007
:10EE7000FFF7EAFC0CB010BD10B598B0382109A816
:10EE8000FFF7A8F809A80221017001248470052168
:10EE9000C170032101829A480E90202101A8FFF73A
:10EEA00099F801A8C47028200590B420069000208D
:10EEB0000090944B01AA002109A802F0A4F80028B0
:10EEC00001D000F04FFC18B010BD0000F829002060
:10EED000FFFF00003333000080B5032002F038F953
:10EEE00077E60000F0B591B0002001F00BFD00289E
:10EEF00001D000F037FC844C00232200A832052109
:10EF0000002000F08DFB002801D000F02BFC7F4A90
:10EF1000012100BF97A000F0ADFB002801D000F058
:10EF200021FC7B4A002100BF93A000F0A3FB002836
:10EF300001D000F017FC774A7749032001F0A2FBCB
:10EF4000002801D000F00EFC03A9002001F0A9FC6C
:10EF5000002801D000F006FC00266846007B02284D
:10EF600001D1012500E0002584A000680090002365
:10EF7000482290002118684602F0C3FA002801D008
:10EF800000F0F0FB0BAA0121002002F000FB00289A
:10EF900001D000F0E7FB0BA802F026FB002801D00F
:10EFA00000F0E0FB5D4802F0D4FA002801D000F048
:10EFB000D9FB5B4802F0D5FA002801D000F0D2FB63
:10EFC00000F090FD002801D000F0CCFB002D05D012
:10EFD00000F052FE002801D000F0C4FB052101A87A
:10EFE000FEF7F8FF032701A80770072141701021E1
:10EFF0008170C17803220A43C270017903220A4357
:10F00000027100F0B9FD002801D000F0ABFB4548CB
:10F0100000F09EFD002801D000F0A4FB002D03D0DD
:10F0200047A1032001F02AFD1120694608700E2235
:10F030003FA168467CDF002801D000F093FB8020D0
:10F04000C00078DF002801D000F08CFB01A800216F
:10F05000002206C001A8082101805021418086803D
:10F06000C8214900C1807ADF002801D000F07AFB76
:10F07000FFF702FFFFF724FD51202060642060604D
:10F080000120A060207321002000603000F0DAFE33
:10F090001C2104A8FEF79EFF0496A0208002059084
:10F0A000F0200003069004A80773C68106741E486A
:10F0B00009901E480A9004A801F000FF002801D022
:10F0C00000F050FB0022A021C9026834200000F0AB
:10F0D000E9FA002801D000F045FB00BF1FA1032082
:10F0E00001F0CCFCFFF7F8FE01F010FD0028FBD189
:10F0F00048DF0028F8D000F035FBF5E7DC0700001A
:10F10000B42D0020DDEB0100F82900206DEA01009C
:10F110009FEA0100D5ED0100CD0C000079ED010062
:10F12000C5ED010091E901008DEB0100ADEB01009F
:10F130004E6F726469635F476C75636F736500003F
:10F140004150503A494E464F3A426F6E64732065C3
:10F150007261736564210D0A000000004150503A4D
:10F16000494E464F3A474C53205374617274210DF7
:10F170000A000000602A0020802A00200100000709
:10F180000121C006C00E8140A648016070470121E0
:10F19000C006C00E8140A448016070470121C0062E
:10F1A000C00E8140A1480160704710B58207D30EA0
:10F1B000FF249C40E2438907090E9940030004D5CF
:10F1C0009B481B071B0F083B00E09A489B089B00CD
:10F1D000C01803681A401143016010BD002811D007
:10F1E00095490968954A00BF00BF00BF00BF00BF36
:10F1F00000BF00BF00BF914200D000BF401EF2D14F
:10F20000BFF35F8F704738B5802080028C4908605B
:10F210008C4880214902016401608B4C01252560E6
:10F220002F20FFF7DBFF6560884C002525612F202C
:10F23000FFF7D4FFA57231BD401A0002000A7047E3
:10F24000F8B5824FFE68002E34D000248048006854
:10F250003969FFF7F1FF05003068854218D32D1A90
:10F2600024183000F669017C00290FD000210174B8
:10F2700042698169FB69180006D010009847002890
:10F2800004D000F06FFA01E008009047002EE3D1AF
:10F29000787A397A814206D1401C7872C0B202284D
:10F2A00001D100207872787A8000381844611420E7
:10F2B000FFF76DFFF1BDF8B5644A1378D068009090
:10F2C000002117E02500E469002C13D0B442F9D1E5
:10F2D000A54207D1FE69D660002E03D1B54E30603D
:10F2E0001161D0722068E469EC61002C02D02568BD
:10F2F0002818206001205478A3421BD05468182598
:10F300005D4364195B1C9578DBB2AB4200D10023EE
:10F310002578022D02D0032D05D0EBE76668D7686B
:10F320003D002C00D0E7D0680028E3D00174C0690C
:10F33000D060F8E7D268009B9A4200D10020F2BD6D
:10F34000F1B582B0414CE06800900027012600E052
:10F35000E5600298002830D120786178884259D041
:10F360006168182242438918401CA278C0B29042BA
:10F3700000D1002020704D6808780128ECD1287C4D
:10F380000028E9D188686860C868A8600869E860F2
:10F390004869A861E07A002800D06F6020696A6837
:10F3A000111A0902090ABE4B99420AD20100100043
:10F3B000FFF742FFA96840180CE00546E869029093
:10F3C000ECE71100FFF738FFA968884201D2081A5C
:10F3D00000E0002028606F60AF602E74EF61E0688D
:10F3E0000028B5D0026829688A4203D3511A016007
:10F3F000E861ADE7020013688B4205D2C91A10001C
:10F40000D269002A02D0F6E75B1A13602960EA612C
:10F41000C5619EE7E0680099884201D00120FEBDE9
:10F420000020FEBD00E100E000E200E080E200E03C
:10F430001CED00E000E400E0C02D00200024F400FA
:10F4400080E100E00813014004100140F03D00207D
:10F45000041501407CB50025BC4800690190BB49FA
:10F460000A7A1100B94B5B7A9A4210D0491CC9B292
:10F47000022900D10021B54A8B00D2185469001925
:10F480000002000AB14A10610120009001E000244E
:10F490000094AE480172FFF70EFF0600AB48C0684B
:10F4A000009900291BD0002210E0E41AD218002392
:10F4B0000B600090C869CB68002B07D0019EB6187E
:10F4C0003602360A4E608B60CD61009D002805D063
:10F4D00001000B689C42E8D21A1B0A6001269B4976
:10F4E000C8602800FFF72CFF002801D1002E46D06D
:10F4F0009648C068002840D000680090944C20686E
:10F5000001909248056929000198FFF795FEC61CF5
:10F510008E48807A002813D18E48802149020164E8
:10F5200001601120FFF73AFE1120FFF729FE0120AC
:10F53000894908602F20FFF751FE01208349887216
:10F540000098864200D20600A8190002000AE06373
:10F5500026680199FFF770FE050001993000FFF75A
:10F560006BFEC01C85420AD22068E0632F20FFF7A3
:10F5700035FE1120FFF70BFE01E0FFF744FE0020EF
:10F580007249C87273BD75494870704710B57349A8
:10F590004A78531C8C78DBB2A34200D100230C784C
:10F5A000A34201D1002010BD0370486818214A43CE
:10F5B000801810BD0810014070B582B005000C0025
:10F5C0000020002669460870684602F0AFF800A8DF
:10F5D000401CFFF7DBFF002801D1042605E0047082
:10F5E000456068464078FFF7CEFF6846007802F035
:10F5F000B3F8002E02D11420FFF7C9FD300076BD0C
:10F6000080B557480021016441648164C164016090
:10F610004160FFF715FE01BD80B5FFF71BFF01BD7F
:10F62000F2B5070014001E00A00701D1002C01D183
:10F630000720F2BDFFF7E7FD444DEE610020288072
:10F6400069460978A9706C60E86028811420FFF78A
:10F65000A5FD03211420FFF7A8FD1420FFF790FD5E
:10F660003B4C676003211120FFF79FFD2068286154
:10F670000020F2BD394B5B68002B09D0130001D08C
:10F68000002801D1072070470068037C002B01D0BF
:10F6900008207047037441744261002070470000E5
:10F6A000FFFF7F00F4B582B005000C0027484068DA
:10F6B000002808D0002D06D0052C01D20720FEBD61
:10F6C0006869002801D10820FEBD0020697C01295D
:10F6D00001D1270000E0002700266946087068462F
:10F6E00002F024F800A8401CFFF750FF002801D1C9
:10F6F00004260DE00121017045601549096881600B
:10F70000C46007610299416168464078FFF73BFF9A
:10F710006846007802F020F8002E02D11420FFF78E
:10F7200036FD3000FEBD80B50C494968002904D083
:10F73000002802D04169002901D1082002BD002122
:10F7400001740221FFF738FF02BD0000F03D0020E8
:10F75000041501400413014000100140F03D002059
:10F760000011014010B584B0040068460C21FEF77A
:10F7700031FC02946A460021014802F009F81FBDDD
:10F780000140000038B50400002505E02000AA0073
:10F790008918096988476D1C9849C8788542F5DB46
:10F7A00031BD0000F0B58BB0070014216846FEF7AC
:10F7B00011FC78886C46A08002F096F960800721E1
:10F7C00001208E4D00263A78092A00D983E002A351
:10F7D0009B5C5B009F4400BF050E21353B43607F6F
:10F7E000787A21703979217266720396A17A08437A
:10F7F000A0726DE02170397921726672B968039147
:10F80000A17A0843A072A868002861D0B96888422C
:10F810005ED1AE60A088E88017E0082020703879BB
:10F8200020726672B8680390F8680490A86800288F
:10F830004ED0B96888424BD1AE60E868401EE8609F
:10F8400003E02170397921726072039640E008214B
:10F850002170397921726072B868049038E009200B
:10F860002070A878002833D0C24802F053FCC14968
:10F8700088422DD1084602F051FCBE49884227D16A
:10F88000AE70142105A8FEF7A5FB05A80B21017099
:10F89000B8498180418014E00A202070B868029045
:10F8A000A878002814D0AE70142105A8FEF792FBAA
:10F8B00005A80C210170AF4981804180B86807908C
:10F8C00005A8FFF75FFF03E0052000E00620207099
:10F8D0006846FFF757FF0BB0F0BD0000F0B587B0EA
:10F8E000070001200090142101A8FEF773FB01AC72
:10F8F0007888608007200321022600253A78521E6E
:10F900000B2A6ED801A39B5C9F4400BFEC0C2C52C9
:10F91000687C8894A6B0B4D00120207038790200A9
:10F9200000D00122012800D10125344801797888CE
:10F9300001F070FA2A000CE026703879002800D017
:10F940000126267201222D480179788801F062FA99
:10F950003A792A484179788801F05CFA42E02170CE
:10F9600026484179788801F048FA002800D001261D
:10F9700026720BE021480179788801F03EFA0028D0
:10F980003AD1267025722DE021702572B879207346
:10F99000B88821E02070B988A1802072657228E0C3
:10F9A00008212170B988A18020726572B86805901D
:10F9B0001FE0062020707868039013E005200EE019
:10F9C00021700E484179788801F017FA002800D09C
:10F9D0000126267225737948608103E00420207097
:10F9E00000E00095788802F025F8A08000980028B3
:10F9F00002D001A8FFF7C6FE07B0F0BDA83E002068
:10FA000070B586B0040014216846FEF7E3FA6088FA
:10FA10006D46A88002F068F8688007200521002262
:10FA20002378092B21D801A6F65CB74408081216E2
:10FA30001A2226422C3028706A720820287214E09C
:10FA40000D2008E00E2006E028706A7229720CE092
:10FA50000F2000E01020287007E0297005E0062044
:10FA60002870A0680290A08868806846FFF78AFE28
:10FA700006B070BD30B585B004002078002802D0F3
:10FA8000012804D019E0E08800F0ECF815E001222C
:10FA90000B484179608801F0BDF914216846FEF7F2
:10FAA00099FA6D4660886880608801F0C3FFA8807D
:10FAB000002028706846FFF765FE05B030BD0000E5
:10FAC000A83E002010B5040064480078002808D043
:10FAD000200001F0FDFE200002F0DAFC200002F020
:10FAE00091FE10BD38B503F026F8002829D102F0A8
:10FAF0006CF9002825D102F0A4FC002821D103F0E4
:10FB0000C8FA00281DD102F0EAFD002819D103F03F
:10FB100027FD002815D101F074FF002811D14F4CAA
:10FB20001448E0800025A56018202071607101F064
:10FB300052F92071182804D001F04DF9607118288D
:10FB400001D1032032BD657001202070002032BD3C
:10FB500043490A78002A01D108207047CA78032A4D
:10FB600001DB042070479300CB181861521CCA7047
:10FB700000207047FFFF000080B53949097800294F
:10FB800001D1082002BD02F0C7FC02BD80B5344A95
:10FB90001278002A01D1082002BD02F0E1FC02BD6A
:10FBA00080B502F0CFFC01BD2D480078002800D1BF
:10FBB000704780B502F097FE01BD00000111000002
:10FBC00070B504000D00254E3078002801D10820C2
:10FBD00070BD002D01D10E2070BD200001F0CFF8C6
:10FBE000002801D1324870BD022801D1012000E077
:10FBF00000202978FE220A401043287071792000E5
:10FC000001F0FBF82978F7220A40C0001043287061
:10FC1000200001F0CBF82978FD220A404000104373
:10FC20002870200001F0CAF82978FB220A408000E1
:10FC300010432870002070BD10B50C0008490978E9
:10FC4000002901D1082010BD002C01D10E2010BDCB
:10FC500001F0F0FE2080002010BD0000A83E002032
:10FC6000A83E002080B572490978002901D10820FA
:10FC700002BD01F068FF02BD38B53D48017800299A
:10FC800001D1082032BD01218170384C200000E0F4
:10FC9000280002F03FFA0500A54205D0FFF7E2FF79
:10FCA0000028F5D0032032BD002032BD0000000046
:10FCB00002300000FFB585B02D480078002801D142
:10FCC000082050E0294802F025FA04000027009798
:10FCD00058A003C802AA03C26846039002AA0621DC
:10FCE000200002F01FFA00260025ED43290C6A4689
:10FCF000D1809180072816D1052034E00097009824
:10FD0000B04202D306466846C4800098A84202D298
:10FD1000054668468480200002F0FCF9040002AA2F
:10FD2000062102F0FFF90028E9D00528E6D00F48A7
:10FD3000844217D100200599002903D06946C9885B
:10FD4000059A11800699002900D00E6007990029B4
:10FD500003D069468988079A11800899002902D042
:10FD60000D6000E0032009B0F0BD0000FFFF0000BF
:10FD7000A83E0020F0B587B007002D4C2078002861
:10FD800001D1082051E000BF2CA003C805AA03C27E
:10FD9000607800280DD10023002221000C31A01D25
:10FDA000FFF788FF002801D0052802D101206070EC
:10FDB00002E06078002802D0A068002801D0112558
:10FDC00032E0E0680026E1888F421AD1002818D07E
:10FDD000002514216846FEF7FDF86C4607202070C8
:10FDE000380001F081FE6080A780062020726672D4
:10FDF0000396A07AFE210140A1726846FFF7C2FC7B
:10FE000012E0401CE0602200083205A9380002F030
:10FE100091F9050008D0A660E068401EE060112D51
:10FE200002D0042D00D00325280007B0F0BD00004B
:10FE3000A83E0020010000000000000001000600B4
:10FE4000B43E00200A7B002A02D04968002201E06B
:10FE50000968012202710160704710B50400207921
:10FE6000002803D0200000F006F802E0200000F097
:10FE700010F8206810BD10B54A6889680368D41A64
:10FE8000A14202D25918016010BD02600021017127
:10FE900010BD10B58A68096803685C1AA24202D2D4
:10FEA000991A016010BD01600121017110BDFEE7CA
:10FEB00010B582B004000800002C27D0002825D0FF
:10FEC0000188102904D0112904D0502905D013BD70
:10FED000808800E08B48608213BD217D002915D009
:10FEE000801D01886289914210D1418902290DD17A
:10FEF000216800290AD00C30FEF72EFD401E8041FB
:10FF0000C00F6946087020002268904713BDF0B505
:10FF100091B004000E00207D00280FD0032103A81B
:10FF2000FEF758F803A811210170717B03AA5170E4
:10FF30008178F9220A400221114381701C2109A80D
:10FF4000FEF748F809A800780221014309A80170CA
:10FF50000025207D002800D0102009A90978EF2273
:10FF60000A40104309A908700A950C950D95207D4B
:10FF7000002800D003A80E900F95012001A98870D9
:10FF800061486946888003216846FEF723F8B07B04
:10FF900069460870F07B48706F46B878E2210140EE
:10FFA00002200843B870307B69468872142104A887
:10FFB000FEF710F801A8049068460590012004A9F6
:10FFC00008814D81888102A8801C0890A31D04AA85
:10FFD00009A9A088A2DF002833D1B06800282ED05C
:10FFE000012001A988704948694688800321684634
:10FFF000FDF7F0FF307C694608707D70B878E2212B
:020000040002F8
:10000000014002200843B870B16802A8FEF7B0FCB6
:100010000600142104A8FDF7DDFF01A8049068463E
:10002000059004A806814581868102A808902200D7
:100030000E3204A9E088A3DF002801D001E0E581A9
:10004000002011B0F0BD10B582B003000C00002BF1
:1000500001D0002C01D10E2016BD2068186029485F
:10006000588220791875FF20187468460121817024
:10007000274901801A1D69460120A0DF002803D10D
:1000800021001800FFF743FF16BDF2B586B003004C
:1000900001D10E2034E000206946097E1A7C91428D
:1000A0002ED069460022002414C101246D462C8004
:1000B000688006A801906A46D988588AA4DF00287B
:1000C0001ED16846007E1874588A0E49884216D0A0
:1000D000187D002813D002A8002100220026002746
:1000E000C6C002A8D988018084706988818068466A
:1000F00004900198059002A9588AA6DF00E0082024
:1001000007B0F0BDFFFF0000192A00000829000019
:100110000F1800000870000A487002207047F3B5FD
:100120008FB014001D000846002801D1FFF71AFB0C
:10013000002C02D10020FFF715FB1C2107A8FDF7BA
:1001400049FF02266846007F022101436846017785
:10015000002708970A970B970C970D9701A8012184
:1001600081706946898F018003216846FDF732FF5F
:100170002878694608706878487068468178E22275
:100180000A4016438670142102A8FDF723FF01A838
:1001900002906846039002A80481478184811098E8
:1001A0000690169B02AA07A967480088A2DF11B033
:1001B000F0BDF0B585B0040001A80121817063494C
:1001C0000180614D2A0001A90120A0DF002843D150
:1001D0002288002A09D0281D009023003C33616842
:1001E0005B48FFF79CFF002836D12289002A0AD0FD
:1001F00028000C30009023003C33E1685548FFF79D
:100200008EFF002828D1228A002A0AD02800143024
:10021000009023003C3361694F48FFF780FF0028BE
:100220001AD1228B002A0AD028001C30009023000B
:100230003C33E1694948FFF772FF00280CD1228C5A
:10024000002A0AD028002430009023003C33616A41
:100250004348FFF764FF002874D1228D002A0AD09A
:1002600028002C30009023003C33E16A3D48FFF722
:1002700056FF002866D1236B002B27D002AA03CBA0
:10028000083B107003CB083B0004000E507003CBFA
:10029000083B000C907003CB083B000ED07003CBE2
:1002A000083B1171986850719868000A90719868BD
:1002B000000CD07128003430009023003C33082219
:1002C00002A92948FFF72BFF00283BD1616B0029C9
:1002D0000BD028003C30009023003C330A79096899
:1002E0002248FFF71CFF00282CD1A76B002F28D035
:1002F00002AE38783070711C7888FFF70BFF401C15
:10030000C0B200903118B888FFF704FF00990818B0
:10031000C0B200903118F888FFF7FCFE0099081869
:10032000C0B2072802D00020FFF71CFA4435009520
:100330003C342300072202A90D48FFF7F0FE0028F5
:1003400000D1002005B0F0BD5C3B00200A18000081
:10035000292A0000242A0000252A0000272A00005C
:10036000262A0000282A0000232A00002A2A00004A
:10037000502A0000042809D2AE4A1268D343BF4A6B
:1003800080001058C340D807C00F00E0002008705C
:1003900000207047F1B500200025AC4A8300D358F7
:1003A0006C462478A34202D0401C0428F6D30428CB
:1003B0002FD2B34C42001218A6182718002917D0C4
:1003C00002291ED01ED23578707800280DD0220068
:1003D0000D3261690A20414320006430FFF762F961
:1003E000002802D1684600786073B078387409E05C
:1003F00020006430FFF797F9B578387CA84208D11F
:1004000000E07578002D04D0216A080001D0280092
:100410008847F1BD80B502210078FFF7BBFF01BD21
:10042000F1B584B000250020954EF169CA430392CE
:100430001146E02252040A40009271698A00511864
:1004400002916946097C0191AF4C802292035100D0
:10045000019B172B17D802A7FF5C7F00BF4400BF8A
:100460000C14142B394C67787F887F88E19595951B
:100470009595C2C8D0D8E1E10399F02252040A4010
:100480006260A5603573D3E000986060A56068463F
:10049000007C2168F0235B044B40134006D062606F
:1004A000A560022820D1E121C90034E0A260656086
:1004B00002281ED12EE000986060A5602068F0211F
:1004C00049044140114023D06260A560C8218900E1
:1004D00021E000986060A5602068F0214904414057
:1004E000114004D06260A560FA21090113E0A26006
:1004F0006560C82149000EE000986060A560206832
:10050000F02149044140114002D06260A56001E041
:10051000A2606560C8216846007C30737569080078
:100520006421FCF79AFA45432900002228E000984C
:100530006060A5602068F02149044140114002D06C
:100540006260A56001E0A2606560062030730CE087
:1005500000996160A560A2606560072167E020687E
:100560000A00824362600140A1600022716907E0D5
:1005700020680A00824362600140A1600022029963
:1005800024363000FFF78EF852E030004430FFF799
:10059000CAF81121019A891A1CD000281AD1802288
:1005A0001204F26102290ED300957769C8204143F5
:1005B00008006421FCF751FA47433900002230005B
:1005C0004430FFF76FF8F169F02252040A40A2604C
:1005D00065602DE0F169F02252040A406260A56076
:1005E000F56125E0F02149046160A56012211EE05B
:1005F000E02149046160A560A2606560132116E0F6
:10060000D02252046260A560A160656014210EE0F2
:10061000C02149046160A5608908A1606560152159
:1006200005E0F0214904A16065606946097C3173E9
:1006300005B0F0BD100500503448017EC90700D454
:10064000704780B5007BFFF7EBFE01BDAC070200F1
:100650002D4801688022120413008B4343600A4036
:100660008260704780B50021284A127ED20702D5E9
:10067000FFF7D6FE0100080002BD0000AC07020033
:1006800098390020F8B505000F00002600201F490A
:100690004F618D610A62A9071DD500240122012145
:1006A000200000F035F8641C042C01D20028F5D09D
:1006B000002804D17A08042140A003F069F800283A
:1006C00001D103F099F8002805D12E4A002100BF7E
:1006D00035A0FEF7CFFFE90705D52B49F0225204DC
:1006E0000A604E600A61002805D1284A002100BF37
:1006F0002BA0FEF7BFFF002805D1254A012100BF2E
:1007000028A0FEF7B7FFF2BD04050050983900207D
:1007100030B503000020042B16D2012A05D101298F
:1007200002D11A000D3200E000221A4C5D00EB18D5
:10073000E318002906D0022902D005D21A7030BD74
:100740005A7030BD9A7030BD072030BD70B50022A0
:10075000114B00BF15A495006459A4001B191C6817
:100760000500D540ED0701D5032500E000250B4E1F
:1007700026402C0434431C60521C042AE8D3002079
:1007800070BD000015040200080500503906020083
:10079000510602009839002000070050FFFFFCFFBF
:1007A000BC390020DC390020FC3900201100000099
:1007B00012000000130000001400000011000300EC
:1007C00095030200120003009503020013000300CA
:1007D00095030200140003009503020080B5012276
:1007E00002210020FFF794FF002801D0072812D132
:1007F000072202210120FFF78BFF002801D00728E4
:1008000009D10A2200210020FFF782FF002801D031
:10081000072800D1002002BD80B50320FFF796FF16
:10082000002801D0062800D1002002BD10B5344CAC
:1008300061680088102802D0112826D010BD002938
:100840001FD101220020FFF763FF002801D00728F5
:1008500011D1072202210120FFF75AFF002801D001
:10086000072808D1042202210020FFF751FF0028A9
:1008700007D0072805D0002803D021680A0000D03F
:1008800088476068401C606010BD491E616007D1E8
:10089000FFF7A4FF002803D021680A0000D0884792
:1008A00010BDF8B50F0000260025154C2060002F64
:1008B0001DD000A9491C0020FFF75CFD002814D1C1
:1008C00069460120FFF756FD00280ED168460078E2
:1008D000002801D0022004E068464078002802D0B9
:1008E0000B20387003E03E7001E0050005D1606820
:1008F000002802D1FFF772FF05002800F2BD0000BA
:100900003C3F002070B50600002002F095FF040077
:1009100008D103F0F7F8050003F0F2F832002900DF
:1009200000F007F8200070BD80B5012002F084FFC0
:1009300002BD80B56B4AFF239360002313605360B0
:1009400000F001F801BD684A106051607047000076
:10095000F8B5461C0124002569460D70684600F074
:10096000E5FE60498B680A68581C801A4F68C719F1
:10097000701C87420ED2002F0AD01340980008182E
:1009800008A2920229231343C3600868401C086030
:10099000002401E0901908606846007800F0DCFE51
:1009A0002000F2BD4F766572666C6F770D0A00000D
:1009B000F1B588B04B4CA068069020680590089867
:1009C000FBF7F7FC451CE81C800804900026002774
:1009D00000960498401C019069460E7303A800F02D
:1009E000A5FEA268501C02902068029913000340E3
:1009F000C91A019B994209D3411C0A409100611810
:100A00000C3100910199401820600DE09C4663680C
:100A10001A40944508D262465218521E801820602F
:100A20004F1E20000C30009002982168401A616827
:100A3000401800D100966846007B00F08DFE0098BB
:100A4000002815D00CA000680599069A0A4091006C
:100A500061182C4A0240B8012B4B03401343049801
:100A600080051843C8602A0008990098FBF722FD0A
:100A7000009809B0F0BD000000000000F2B50400CD
:100A80001A4DAF682E680020FFF762FF00280AD0D9
:100A90003740B80028186107890E009A92020A436D
:100AA00001211143C160F1BDF7B504000F4DAF68DE
:100AB0002E680120FFF74CFF002811D0380030408D
:100AC000800028186107890E019A92020A43412189
