:020000040001F9
:10B00000F8270020A110020083E901007F0A020056
:10B010000000000000000000000000000000000030
:10B020000000000000000000000000004F110200BE
:10B0300000000000000000005B1102008D11020002
:10B04000ED0A02008F110200E30D020091110200CF
:10B050009311020000000000490E02009511020049
:10B0600097110200991102009B1102009D1102002C
:10B070009F110200A1110200A3110200A5110200FC
:10B08000A7110200C5F20100A9110200AB110200D4
:10B09000DDF20100AD110200FF080200AF11020055
:10B0A000B1110200B3110200000000000000000016
:10B0B0000000000000000000000000000000000090
:10B0C0008107890F481E8041C00F7047B0490A7838
:10B0D000104308707047AE490A7882430A7070477F
:10B0E0000100AB4800780140080000D00120704703
:10B0F00038B504000025A748A90040184168080099
:10B1000001D0200088476D1C082DF4D331BD818803
:10B11000A14A914204D00088002802D0012000E01A
:10B120000020C0B27047BCB582B00F008021C900BA
:10B130004118009100240830050002200DE0B448B9
:10B140008169AA68914200D21100816168888100FA
:10B150006D180C353988C01C081838800098854255
:10B160000BD228680021C943884206D02800FFF787
:10B17000CEFF0028E3D10124E8E70298002800D0A0
:10B180000470BFBD02001389C81C181810815089B3
:10B19000401AC01E5081704780B5002000900223E5
:10B1A00001A29B48016909E0DEC0ADDEFF011EF18E
:10B1B00080B500210091022302A20100954800F011
:10B1C0001DFF02BDDEC0ADDEFE011EF170B5C21C6A
:10B1D00092B2FE2A01DB092070BD002000238E4CB4
:10B1E0001D0164192578002D0BD1268995196689D2
:10B1F000AD19ADB2FF2D04DC0B8061898918618126
:10B2000070BD5B1C9BB2022BE9DB072070BD824A3C
:10B21000090151184A89101AC01E4881704770B53B
:10B220000C0021687C4A000110184568002903D0F1
:10B23000488880000E1805E02E00083603E070886C
:10B24000800036180C368020C000281886420CD2A8
:10B2500030680021C943884207D03000FFF757FF0C
:10B260000028ECD02660012070BD002070BDF8B52C
:10B2700004000E0060680025654F002826D0654A4E
:10B280001368984222D3526882421FD3FFF718FFF7
:10B2900000281BD020893989884217D1606821682D
:10B2A0008268914212D100215B4A0B01D218526888
:10B2B000824204D28023DB00D218904204D3491C7E
:10B2C00089B20229F0DB1AE0318010E03580009568
:10B2D00069463088FFF7A3FF00280AD000988068ED
:10B2E00021688842F4D1009860603889208101206B
:10B2F000F2BD3088401C308080B20228E7DB00209D
:10B30000F2BDF8B505000C0017001E000220FFF783
:10B31000E7FE002801D10220F2BD002F01D0002E4F
:10B3200005D10520F2BD3060B088401CB080B088E7
:10B3300002281FDA38490001085C0028F4D13100E6
:10B34000B088FFF76CFF0028EDD03068002D03D0E7
:10B3500082882B889A42F2D1002C03D0028823885D
:10B360009A42ECD181683960786029480089388137
:10B370000020F2BD0A20F2BD0268A54B1900383149
:10B380008A4202D0083202607047036070470000B2
:10B390007E32002010310020FFFF0000F4B582B0A3
:10B3A00002000D00002600209A4F796F04292DD24B
:10B3B000974C0821491B636C994227D3786F396FEA
:10B3C00040188007800F1C214843381811001C22A8
:10B3D00000F016FF786F401C7867002D15D0606C68
:10B3E000216C40184007800E201800900298F10050
:10B3F000401803C8009A03C26846FFF7BDFF761CD9
:10B40000AE42F3D3606C401960640120FEBD0000C1
:10B41000B4310020E81F0020DC300020FEB5002001
:10B42000019000246946887008804A4E0027FF4337
:10B4300049480068098889024018611C89B2029154
:10B44000754922018918022502689E4B9A4225D12E
:10B4500042689D4BD21A02D0521E0BD01EE00A70D9
:10B4600048600A000E320831FFF75DFE019805437F
:10B47000019526E06A469278002A04D00D70326960
:10B480004A600D81029C3061002231001431FFF7C7
:10B490004AFEB08A022820D104201FE00022930037
:10B4A000C358BB420BD1521CFF2AF8D93269002A7B
:10B4B00009D00D7048600D817480029C08E0032063
:10B4C0000870029C0DE03061B582012069468870E9
:10B4D000019801210143019103E0082001990843EB
:10B4E000019068460088401C6946088068460088CC
:10B4F00003289DDB0198C0B2FEBD000080B500218D
:10B500000091012304A20100134800F077FD0028F8
:10B5100000D00E2002BD00000000FFFF10B50D4C52
:10B5200060883D49000109180B488A89002A07D123
:10B5300000230122496800F0A7FD0421217010BDFD
:10B54000052121700221A18200230122216900F03E
:10B550009BFD10BDB4310020E81F002080B5A54838
:10B5600042685388DB1C03210170002100919BB2CB
:10B570000169808A8000091820E680B59D48011D78
:10B580004088FFF74CFE002802D0FFF7E7FF02BD1E
:10B59000FFF7C4FF02BD30B5012202231E499548C2
:10B5A0000478002C09D0E41E18D0641E1ED0641E3E
:10B5B000012C27D9A41E28D030BD03895B1C038130
:10B5C0000023438003731C010D5D6C1EA441E40F36
:10B5D000C518AC725B1C022BF5DB16E0818A426851
:10B5E0005288D21C89188182037030BD0269448858
:10B5F000240109194C6804614A60828A0A818382A5
:10B60000062100E00721017030BD027030BD00004E
:10B61000202F0020E02D0020DC300020F8B50200B3
:10B620000D000F20002A04D00120FFF754FD012057
:10B63000F2BD02276F4E00242979002905D0022986
:10B6400020D007D3032925D034E0FFF7A5FD012141
:10B6500029712FE00020B34902018D1829780229B1
:10B6600004D16868FFF7A4FD2C7023E0401C80B271
:10B670000228F0DB0220FFF729FD0120FFF72BFD58
:10B68000A948F2BD002301223169A84800F0FCFC62
:10B69000B7820EE03069FFF78BFD72883169A14BEC
:10B6A00012019A18536833615160B18A1181B782CF
:10B6B00014702C71002803D00120FFF70CFD0E2020
:10B6C000F2BD0000DEC0ADDEFE011EF1F0B583B0BC
:10B6D00002000C009348618A090141180191002A77
:10B6E00005D0E1880198FFF74DFD0120FEBD4968B6
:10B6F000019A128992008D1801260627217C0629BD
:10B7000070D801A2525C97441EAA3A6006C8D600BF
:10B710000021C162A169816269462830FFF7A7FD57
:10B72000002801D10A20FEBD002000900123221D27
:10B7300029007E4800F062FC02212174002812D109
:10B74000002554E000200090012322000C3208352F
:10B750002900764800F052FCA17D002900D0032684
:10B7600026740028ECD00E253DE00027B548416C3A
:10B77000002908D0026CD300C718521C5207520F80
:10B780000264491E416400200090BB883A68A08A88
:10B7900080002918654800F031FCA18ABA88891810
:10B7A000A182A17D491EA175090600D12674002839
:10B7B000D9D1C5E700200090012322000832291DBD
:10B7C0005A4800F01BFC2178032900D10527277473
:10B7D000EDE7C06AFFF792FE0500277403D106E08B
:10B7E000514D00E00F25E1880198FFF7CBFC2800C0
:10B7F000FEBD0000B4310020F0B585B00D0000287A
:10B8000001D0012040E0474C474E0127287900280D
:10B8100003D0022835D01DD335E001A80C2100F05B
:10B820002DFDE8680190694601A8FFF720FD00287A
:10B830000CD002988188E98001882981FFF75EFE9B
:10B8400069460988090161188F7300E00A20022106
:10B85000297119E02300203301AA0021A81DFFF758
:10B8600050FD002807D10298FFF748FEA18C09017E
:10B8700061188F7303E020340021002206C40A28D7
:10B8800002D1300000E00F2005B0F0BD38B500282F
:10B8900001D0012032BD264C0025207B002801D09C
:10B8A000257301E0FFF777FE1E482178491E06291F
:10B8B00036D801A2525C974406363C4266485A008C
:10B8C00000216218937A002B08D095720A01821821
:10B8D0009389002B02D1927B002A08D1491C89B29E
:10B8E0000229EEDB2570658065600F4832BD6180FE
:10B8F000FFF743FE32BDFFF731FE32BDFFF70EFE0C
:10B9000032BD062121706188090140184068FFF7A7
:10B910004FFC32BD072020706560FFF73DFC32BD53
:10B920000F2032BDDC3000201D1D0000E81F00206C
:10B93000B4310020F0B585B0954C216F1C225143E5
:10B9400066183178491E08D0491E012910D9891E70
:10B95000012911D9891E13D015E03100FFF75EFED1
:10B9600000286DD000218B4A90420ED101911BE03E
:10B970003100FFF7ABFEF3E73100FFF73DFFEFE7E4
:10B98000FFF784FFECE70F20ECE701903078022806
:10B9900001D0032808D12B48026CB37DD218026471
:10B9A000426CB37DD21A4264012203256846337883
:10B9B0005B1E052B29D801A7FF5CBF444A3A1E1421
:10B9C0000804052120E004220270F2888281C181EE
:10B9D0001BE00570F1888181318911E00223037039
:10B9E00033898381B388C381F3680293337C062B48
:10B9F00000D10121017408E0027031898181B18890
:10BA0000C181F068029000E001706846FFF770FBAA
:10BA10001C21206F1C225043201800F02DFC606F69
:10BA2000002806D0216F491C0D402567401E606725
:10BA300003D10420FFF74FFB02E00020FFF77AFF5D
:10BA400005B0F0BD202F002080B50420FFF748FB93
:10BA5000002805D10420FFF739FB0020FFF76AFF1B
:10BA600001BD80B50800FFF765FF01BDFDB58AB0D7
:10BA70000D00002700240220FFF732FB002801D12F
:10BA8000022075E0002D01D1052071E02888A4492D
:10BA9000884202D06888002801D1042068E0288903
:10BAA000029068680190002600E0761C02988642A9
:10BAB00008D20198F1004058FFF702FB0028F4D1AA
:10BAC000032055E00B98002811D106E06968C200F8
:10BAD000891889886418A4B2401C29898842F5D342
:10BAE00069462000FFF772FB002805D040E000887F
:10BAF000694608800B98448803A80CA9097801704E
:10BB000007746946098841822989817503218182E8
:10BB10009F4EB169491CB1610691298801816988EC
:10BB20008180C4800CA90978032904D104210174FF
:10BB30000A990968099147816A682989FFF72EFCEB
:10BB4000002806D1684601882000FFF760FB082026
:10BB50000EE00A98002808D0476006980A99086005
:10BB60000A98877230890A990881FFF76DFF0020D3
:10BB70000DB0F0BD97490A78082A01D10C20704712
:10BB80009300CB185860521C0A70002070470000C8
:10BB9000E02D00201D1D000000B58DB06846142169
:10BBA00000F06CFB0220FFF79BFA002817D1012060
:10BBB000FFF796FA002837D10120FFF787FA00F047
:10BBC000CBF9FFF72BFC002801D10B202DE0062834
:10BBD00009D10220FFF77AFA0120FFF77CFA6846C4
:10BBE000FFF786FA20E005A901220A7001280CD08F
:10BBF00003280AD005280FD007280DD0092806D021
:10BC00000A2806D00B2802D007E0002002E003201B
:10BC100000E00220087100E00A710022002105A85E
:10BC2000FFF7BCFBFFF710FF00200DB000BD38B5DB
:10BC300004000D00002C01D0002D01D1052032BDE3
:10BC40006946FFF714FB00280FD0606873496A4605
:10BC50001288120189188A89521C8A8128600C3046
:10BC600068600120A072002032BD0A2032BD10B5EC
:10BC700082B0040001D1052016BD6946FFF7F7FA2E
:10BC8000002811D065486946098809014018818952
:10BC9000002907D0A27A002A04D0491E8181002001
:10BCA000A07216BD062016BD0A2016BD38B50400C8
:10BCB0000D000220FFF714FA002801D1022032BD46
:10BCC000002C01D1052032BD69462800FFF77EFA1D
:10BCD000002803D1694609882180658032BD10B5EE
:10BCE00004000220FFF7FCF9002801D1022010BD5A
:10BCF000002C01D1052010BD218803290DDA6088B0
:10BD0000464B0A019A185289121AD21E05D4FFF71F
:10BD10007EFA00202080608010BD042010BD00004D
:10BD2000FFFF000080B502230CE080B5002A01D19E
:10BD3000052002BD022306E080B5002801D10520C0
:10BD400002BD03230022FFF791FE02BD10B588B0AB
:10BD500004000220FFF7C4F9002801D1022015E0F9
:10BD60002F48844201D1042010E06846052101706B
:10BD700001210171C48000220021FFF70FFB002880
:10BD800003D0FFF761FE002000E0082008B010BDDE
:10BD9000B431002000B587B00220FFF7A1F90028D8
:10BDA00001D1022014E0062069460870002200211B
:10BDB0006846FFF7F3FA002809D01A4801780029ED
:10BDC00001D001210173FFF73FFE002000E00820B1
:10BDD00007B000BD1031002003B581B002A901A851
:10BDE000FFF78FFA0EBD01B513000A006946002067
:10BDF000FFF787FA02BD01B513000A00002168466B
:10BE0000FFF77FFA02BD002801D0002901D10520EB
:10BE1000704700680860002070470000DC30002098
:10BE2000FFFF0000B43100207FB502006846002308
:10BE300000240025002678C06846137A012B02D022
:10BE4000022B06D00DE0047013690293938A83815C
:10BE500007E0012303709389D4891B1B0381938915
:10BE600043815068019068461268926890477FBD90
:10BE7000002808D0AA494A68904204D389688842B9
:10BE800001D20120704700207047A648416E491E2C
:10BE9000416604D1A2490A78FD2313400B70016E5C
:10BEA000491C042900D100210166704738B59D481E
:10BEB000016E182251434318406E002826D0187A8C
:10BEC000012802D002280FD01CE0D88A9C8AE832D0
:10BED000251A954200DA221A800092B2D968091810
:10BEE0001C69201829DF01E0988928DF112807D173
:10BEF0008B480178FD220A4004211143017031BDB5
:10BF0000002803D009211800FFF78EFF31BD8448B7
:10BF100001780622114200D0704780B502220A4300
:10BF20000270FFF7C3FF01BD38B50400A448416E9D
:10BF3000042901D1002032BD026E5218042A00D318
:10BF4000121F491C416618214A438518280000F039
:10BF500093F92560012032BDFCB59A489A49401AF0
:10BF600001090191994800680022D243904202D110
:10BF70009748006880026A4A1278D2073CD40022AF
:10BF8000674B5B6800930AE0009B14011B191C6857
:10BF9000002C03D05B68002B00D0491E521C019B73
:10BFA0009A42F1D300221BE0009E1F01F619376868
:10BFB000002F02D07768002F04D1767BB44201D2E3
:10BFC00034001D005B1C019EB342EDD3009B2D0687
:10BFD0002C0D1B1958601C7BA402001B1860521CFE
:10BFE0008A4203D2002415000023ECE74C48007875
:10BFF000012101434A4801700020F6BDF8B5040054
:10C000000D0017001E0046480078C00701D401202B
:10C01000F2BD2000FFF72CFF002801D10220F2BD65
:10C02000002F01D0002D01D10320F2BD03200742D3
:10C0300001D1054201D00620F2BD2068854204D31B
:10C040006068B1006918884201D20520F2BD002E57
:10C0500001D10420F2BD6846FFF766FF002801D138
:10C060000720F2BD069800994860009804600120FE
:10C07000009908720098C760009805610098868250
:10C08000FFF745FF0020F2BDF2B582B004001500B5
:10C090001F0023480078C00701D40120FEBD200006
:10C0A000FFF7E6FE002801D10220FEBD029800281D
:10C0B00001D10320FEBD800501D00620FEBD029EF9
:10C0C0002068864204D36068AA02B118884201D26F
:10C0D0000520FEBD002D01D10420FEBD6846FFF7FE
:10C0E00023FF002801D10720FEBD0098476000987B
:10C0F0000460022000990872B00A009988810098B3
:10C100000582FFF704FF0020FEBD002801D10320B7
:10C1100070472B49496E0160002070470000000005
:10C1200038280020582E002038B50100244B186E06
:10C13000182250431818274A147802252C4232D06E
:10C140000023022902D0032920D036E05370017A5F
:10C1500001290CD0022930D18189491C8181C189F2
:10C16000491CC181028A89B2914226D10CE0C18A60
:10C17000828AEB01541A9C4201DA531A9BB2C91805
:10C18000C18289B2914218D1002107E05178491C3F
:10C190005170C9B2042910DB53700821FFF744FE27
:10C1A000FFF773FE09E0600707D5FB202040107001
:10C1B000596E002901D005431570FFF777FE31BD98
:10C1C000582E0020F81F0020E81F00201410001037
:10C1D0001400001038280020124207D08B0706D028
:10C1E0000B78491C0370401C521EF7D87047830718
:10C1F00006D00B78491C0370401C521EF9D17047C1
:10C2000070B4103A03D378C9103A78C0FBD2530700
:10C2100001D318C918C001D508C908C0D20704D372
:10C220000B880380891C801C002A01D50B780370C1
:10C2300070BC7047094205D0830705D00270401CCE
:10C24000491EF9D170470000130030B414001500E6
:10C25000103902D310393CC0FCD2490700D30CC0BE
:10C2600000D504C0890002D30280801C002900D5BB
:10C27000027030BC704700000022DBE70022E3E7D9
:10C2800010B5040000F07CFC200000F073FE10BD2F
:10C2900070B584B06A4600BF04A370CB70C26A4612
:10C2A000508011716846FFF7EBFF7FBD0200000070
:10C2B00000000000000000003EB5040020780028C7
:10C2C00011D1207907280ED1684600BF06A12CC9DC
:10C2D0002CC06D46608801F00BF968806088A880EA
:10C2E0006846FFF7CDFF37BD0700000000000000E3
:10C2F00000000000FBB506001700AB4D297801F0E7
:10C3000044FA089C002F12D06846027A69783000FF
:10C3100001F03BFA2200A978300001F036FA002C37
:10C320000BD068468188300001F00DF9F7BD002C74
:10C3300003D06846808801F00AF9F7BDF0B587B0F0
:10C34000050000240C3001F0B1F8060001AF288888
:10C3500078809648864203D1288801F06FF806005D
:10C360009248864215D004AA0721300001F062FBF2
:10C3700000280ED1059834300090007CC00707D407
:10C3800029000C310098123001F07AF8002800D012
:10C39000009C002300222100288886DF002806D088
:10C3A00009213970029001A8FFF76AFF1AE0002CFA
:10C3B0000CD106203870C448B880BA7101A8FFF7C4
:10C3C0005FFF002000900023002207E00021288862
:10C3D000FFF75EFF00200090002301223100288833
:10C3E000FFF788FF07B0F0BDF0B585B004002088E6
:10C3F00001F080F90700208801F020F80500207A7C
:10C400000490607A0390B14E00223178208801F0C8
:10C41000BCF9002F35D06079400710D507212800DE
:10C4200001F0FCFB002813D0694608220A7022881C
:10C430004A808D8002906846FFF722FF08E0B178BD
:10C44000208801F095F9002802D0280001F07FF83B
:10C450006846032101702188418061794A07D20F23
:10C460000271A1794A07D20F4271801D04A90A788E
:10C4700002706846C01D03A90A7802706846FFF77B
:10C48000FFFE05B0F0BD0000FEB56B4607A4E0CC92
:10C49000E0C36B46588099809A7100228B490978D5
:10C4A00001F073F96846FFF7EBFEF7BD06000000E8
:10C4B0000000000000000000F4B586B004000D008C
:10C4C000394F397801F054F9002842D0200000F0AB
:10C4D000B5FF0600354886423BD07978200001F050
:10C4E00047F900282FD003A91BA00CC80CC1026873
:10C4F0000A6003A8448085806946097E8171B97805
:10C50000200001F035F9002803D0300001F01FF8B9
:10C5100010E00721300001F039FB00280AD005287F
:10C5200008D16846092101704480052001906846C1
:10C53000FFF7A6FE00223978200001F026F903A8B3
:10C54000FFF79EFE05E06846027E29002000FFF707
:10C550009BFF07B0F0BD00000400000000000000D9
:10C560000000000010B504002078182802D101F066
:10C57000EDF8207010BD10B5544C2000FFF7F2FF0D
:10C58000601CFFF7EFFFA01CFFF7ECFF20781828D6
:10C5900005D06078182802D0A078182801D103208F
:10C5A00010BD002010BD00004C280020FFFF00003F
:10C5B000F7B58CB06846008E01F09CF869460870AB
:10C5C000B94C250000260E71202104A8FFF756FE65
:10C5D00068460078002801D1BF485DE001270D982A
:10C5E000002801D185263AE00078384237D06846E5
:10C5F000008E00F023FF0500A54206D101F0F0F9FE
:10C600000500A5423CD069460F7102AB012207210B
:10C61000280001F036FA04001FD150210398FFF7DB
:10C620002BFE684600780399087003983430049014
:10C630000E9807900398183008900398401C0990B2
:10C64000A6480B90039911316846008E00F002FF56
:10C650000721280001F0B0FA0400002C0AD1684636
:10C660000078022804AB19D1002231006846008E00
:10C670007FDF0400002C04D1852E02D0012201E0CE
:10C6800003240022684600790090012329006846AF
:10C69000008EFFF72FFE20000FB0F0BD0D9A310085
:10C6A0006846008E7FDF04000D980028E2D0002C41
:10C6B000E0D100780121084200D102216846008EB5
:10C6C000FFF7E6FDD8E70000061000004C28002028
:10C6D000FFB585B000260025002701AA07211846CE
:10C6E00001F0A8F9040009D1029805001835442189
:10C6F000415CCF07FF0F01D0050034356846007F4D
:10C70000002816D1002C14D1002D16D0002F05D1F1
:10C710002800123000F0FEFE00280ED02A0012354C
:10C7200029006846808A85DF04000E990E70002378
:10C730002EE0002C01D0052C25D106980078C007EA
:10C7400010D503AB012207216846008C01F099F94E
:10C75000040005D107216846008C01F02DFA040081
:10C76000002C04D106996846808A7EDF0400002CE4
:10C7700009D007216846008C01F008FA002802D091
:10C78000052800D003240E980378002B00D0012345
:10C79000621E9241D20F00966846018C808AFFF794
:10C7A000A9FD200009B0F0BDF1B584B00F0016005E
:10C7B000002F03D16846008A7EDF72E001243878BA
:10C7C000204201D0012000E002206946087168463D
:10C7D000008A00F033FE0500334885420AD001A8E4
:10C7E00000902B00320039006846008AFFF770FF86
:10C7F00004004EE0387820423BD001F0F1F8694661
:10C80000C8806846C0882849884202D10325002094
:10C8100025E002AB012207216846C08801F031F90A
:10C82000050005D107216846C08801F0C5F905005B
:10C83000002D04D139006846008A7EDF0500002DF6
:10C8400002D1012001220BE007216846C08801F0D7
:10C850009DF9002802D0052800D0032501200022E0
:10C86000009001236846C188008AFFF743FD2C0031
:10C870000FE039006846008A7EDF0400621E9241A4
:10C88000D20F00200090012329006846008AFFF79C
:10C8900031FD002C04D168460179008AFFF7F8FCCD
:10C8A000200005B0F0BD0000FFFF000070B50400DF
:10C8B0000D00160000F01EFF012807D0022809D144
:10C8C000320029002000FFF76FFF70BD2900200013
:10C8D0007EDF70BD004870BD0230000030300020A7
:10C8E0003EB50500288811280AD0132812D0142834
:10C8F00018D019282BD01A2838D01E2816D037BDAA
:10C900002D1D28793D2801D12B4901E088214901BD
:10C91000002227E068460C21FFF7B0FCA888694692
:10C9200048803EE0281DFFF709FD37BD2D1D6846F4
:10C9300024A11CC91CC06846298841802979CA07DE
:10C94000D20F027129798A07D20F42712AE02D1D78
:10C950002979002903D12800FFF746FD37BD687902
:10C960008207920F2888FFF7A7FD37BD2D1D288865
:10C9700000F0D7FE002818D0104C6178288800F00D
:10C98000F7FE002804D100222178288800F0FDFE5F
:10C990006C462888608005202070288800F0C9FE39
:10C9A00020716846FFF76CFC37BD012204492888D6
:10C9B000FFF76AFD37BD00003D1000004C28002045
:10C9C0000610000001000000000000000000000050
:10C9D000010000D00120704780B501F04BFA01BD85
:10C9E00070B50500100000260022042904D011298A
:10C9F00004D000291FD102E0012200E00126C34C2F
:10CA000000280FD0A17B280000F0BFFE3200617B20
:10CA1000280000F0BAFE0022A17A280000F0B5FE3E
:10CA2000002204E0A17A280000F0AFFE3200617A13
:10CA3000280000F0AAFE70BD3EB504000D0014D021
:10CA4000112D12D068460C21FFF718FC684644806F
:10CA500001950D2D01D10B2104E0042D01D10A21F6
:10CA600000E009210170FFF7B7FF37BDFBB50600F5
:10CA70001700A64D0846297A014301D10520FEBDC5
:10CA800068460079002801D0002100E0290030002C
:10CA9000FFF70CFF0400002221003000FFF7A0FF89
:10CAA0006846007A002803D021003000FFF7C4FF59
:10CAB000297B200023D0042C15D0082C1FD00D2C4E
:10CAC0001DD0112C03D0964A944218D016E0684627
:10CAD0000279300000F059FE3A00E97A300000F0A7
:10CAE00054FE00240BE068460279300000F04DFE51
:10CAF0003A00E97A300000F048FE00E0032420000C
:10CB0000FEBD3EB50400814D00F0F4FD012816D1B4
:10CB1000200000F093FCB049884210D00122E97B4C
:10CB2000200000F032FE68460021002200230EC0E3
:10CB300068460C2101704480FFF74EFF04E000229C
:10CB4000E97B200000F021FE287A002808D0E97B4C
:10CB5000200000F00DFE002802D12A69290001E022
:10CB6000002200212000FFF723FD050001222900FB
:10CB70002000FFF735FF29002000FFF75DFF37BDDC
:10CB80003EB504002078002805D0401E07D0401E86
:10CB900007281AD937BD6088FFF7B3FF37BD0021DA
:10CBA000604A137A002B0AD01278D307DB0F25795D
:10CBB000AB4204D39307DB0F6279934200D2012189
:10CBC000012300226088FFF751FF68462178017039
:10CBD00061884180241D03CC6A46121D03C2684649
:10CBE000FFF7FAFE37BDF1B586B06846007E00F06B
:10CBF000DBFDFFF7EDFE002823D0684600F09EFD28
:10CC00000024484D1AE0684661004018878868464D
:10CC1000017E380000F0ACFD00280ED0E97A380023
:10CC200000F0A6FD0600297B380000F0A1FD0123DD
:10CC3000320001003800FFF719FF641C009884429D
:10CC4000E1D307B0F0BD70B586B0060000F0ACFDD2
:10CC5000FFF7BEFE002815D0684600F06FFD0024E7
:10CC60000DE068466100401885883100280000F01A
:10CC70007FFD002802D02800FFF743FF641C0098C6
:10CC80008442EED306B070BD10B5264C007806285D
:10CC900007D9C01F0BD1A07BFFF7D5FFA07AFFF704
:10CCA000A2FF607BFFF7CFFF607AFFF79CFF10BD0C
:10CCB00010B504002078182802D100F047FD20703C
:10CCC00010BD10B5174C20000930FFF7F1FF200010
:10CCD0000A30FFF7EDFF20000B30FFF7E9FF2000DF
:10CCE0000C30FFF7E5FF20000D30FFF7E1FF2000DB
:10CCF0000E30FFF7DDFF20000F30FFF7D9FFE07B9C
:10CD0000182801D1032010BD002010BD24280020C8
:10CD100080B5FFF7E5FD0348407AFFF764FF01BDEA
:10CD2000023000002428002030B5002832D00178DD
:10CD30008A0701D40A062DD44A06520F052A29DA99
:10CD4000F2220A40322A25D042788378934221D3B6
:10CD5000072A1FDB112B1DDAC278012394081C421D
:10CD600018D1007984081C4214D1D4081C4211D176
:10CD7000C4081C420ED1032403251540194205D1D5
:10CD8000002D07D1204205D1012030BD002DFBD15F
:10CD90002042F9D1002030BD38B505000F4C02D13A
:10CDA0000020207232BDFFF7BFFF002808D020000E
:10CDB00029000522FFF710FA01202072002032BD61
:10CDC000072032BD80B5097801224A400349C97B5A
:10CDD00000F0DBFC01BD0000FFFF00002428002064
:10CDE00080B500230A000021FFF740FE02BD30B4E9
:10CDF000012100220368001D002B0BD00468001DD8
:10CE00000C4202D04D466D1E64192260241D1B1F6A
:10CE1000F0D0FAE730BC7047010000D00120704725
:10CE200080B501F0B9F801BDFEB5070000249C48AB
:10CE300087422AD0380001F0E4FA05006E4607D098
:10CE40000B2809D0112805D09649884217D00BE04D
:10CE5000022002E0012412E003203070380000F0CC
:10CE6000EDFA7080B78007E009203070380000F0DC
:10CE7000E5FA7080B78002956846FFF7D1FF22007F
:10CE800089484178380000F080FCF7BDFEB5070006
:10CE9000002401F076FA050001206E4629000ED02C
:10CEA000042D0BD00C2D07D0112D03D07D4A9542B7
:10CEB00017D00BE0012414E0072000E008203070B8
:10CEC000B780380000F0BAFA708007E009203070AF
:10CED000380000F0B3FA7080B78002956846FFF71B
:10CEE0009FFF220070480178380000F04EFCF7BD2B
:10CEF00010B584B00400684661884180217800291B
:10CF000003D0022911D009D31FBD0170FFF788FF9C
:10CF1000608800F0EDFAFFF787FF1FBD0121017067
:10CF2000A1888180FFF77CFF1FBD207900280CD0ED
:10CF3000608800F0DDFA5A49884206D00122A549EE
:10CF4000897800F022FC00F03BF81FBD10B504000A
:10CF5000207801280DD16088FFF766FF608801F016
:10CF600090FA002805D001229A488178608800F064
:10CF70000CFC10BD0178072900D0704780B54088AF
:10CF8000FFF784FF01BD10B5924C00F0DFFB20706D
:10CF900000F0DCFB607000F0D9FBA07000F0D6FB65
:10CFA000E0702178182907D06178182904D0A17879
:10CFB000182901D0182801D1032010BD002010BD70
:10CFC00070B58AB03848807800F0EEFBFFF724FF98
:10CFD000002862D004A800F0B1FB00201BE009216A
:10CFE0006A46117101A98C800390200000F026FA96
:10CFF00001A9488001A8FFF713FF32002A48817871
:10D00000200000F0C2FB2A002748C178200000F071
:10D01000BCFB0098401C00900098049988423CD2C8
:10D0200004A800994900401884881F48817820008E
:10D0300000F09EFB0028ECD01B48C178200000F0D7
:10D0400097FB0028E5D101260025200001F028FAF1
:10D05000010016D006280DD008280BD01128CCD0FE
:10D06000104A9042C9D05C4A9042B8D12000FFF7E4
:10D07000DBFEC2E70026200000F0E0F901F02AFA0A
:10D08000BBE70125052069460871200000F0D6F9AC
:10D0900001A9488001A88480ADE70AB070BD0000F6
:10D0A000FFFF00000230000070320020F0B589B0B0
:10D0B0000400484F208850281DD0522802D0542800
:10D0C00004D026E0A088FFF7AFFE22E005AD0620E1
:10D0D0002870A08800F0B2F96880A088A8806888CD
:10D0E00001F0F8F90022B978A08800F04EFB05A8FD
:10D0F000FFF796FE0DE0A01D8179012909D1017984
:10D10000012906D140883549884202D1A088FFF71D
:10D11000BDFE787800F048FB0024FFF77DFE002874
:10D1200015D0684600F00AFB00250DE0684669004E
:10D13000401886887978300000F01AFB002802D069
:10D140003000FFF771FE6D1C00988542EED33878F1
:10D1500000F02AFBFFF760FE002814D0684600F0BC
:10D16000EDFA0DE06846610040188588397828009E
:10D1700000F0FEFA002802D02800FFF787FE641CAA
:10D1800000988442EED3FFF71BFF09B0F0BD30B525
:10D1900085B001F06DF9684600F0D0FA002411E086
:10D1A0006846610040188588280000F047F90C495E
:10D1B000884205D1012207488178280000F0E5FA6D
:10D1C000641CA4B200988442EAD3FFF7F9FE05B0CC
:10D1D00030BD000070320020013400000229000040
:10D1E000FFFF000010B5040000F010FF2000FFF763
:10D1F000ADFE10BD70B50024A04EBC4D29780C20AA
:10D2000060433018408800F0B3FA002801D1E0B242
:10D2100070BD641C082CF1D3FF2070BD10B5040054
:10D22000B2480178200000F0A3FA00280CD00020BA
:10D2300092490C2242438A185288A24201D1C0B2BC
:10D2400010BD401C0828F4D3FF2010BDF8B5040021
:10D250000E00FF27002E1ED0AD4DAC421BD0012288
:10D26000A2480178200000F090FA2000FFF7D6FFD6
:10D270000700FF2F02D1FFF7BDFF0700FF2F0AD0E5
:10D280007E480C217943401844800580001D310000
:10D290000722FEF7A1FF3800F2BD0021425C002A00
:10D2A00001D001207047491C1029F7D30020704796
:10D2B00080B5002805D0002903D002780B789A4267
:10D2C00001D0002002BD0622491C401C01F016F9C5
:10D2D000401E8041C00F02BD01000888102800D008
:10D2E000704770B58EB003A8091D2C22FEF788FF89
:10D2F000874E350003AC2079032826D001F075FA5B
:10D300002079002802D002280FD01ED26A4602A936
:10D31000072001F071FA002817D001991131201D62
:10D32000FFF7C6FF00280ED1F0E76A4602A90720E2
:10D3300001F062FA002808D00199491C201D00F074
:10D3400041F90028F1D068460589211D2088FFF7A2
:10D350007DFFB5420AD02900208800F0F4F8684625
:10D360002188418001210170FFF73CFF0EB070BDA4
:10D3700070B504000D00401CFFF78FFF00280ED091
:10D380001022691C601C01F0B9F8461EB641F60F68
:10D390001135290011342000FFF78AFF304370BD9A
:10D3A00030B587B00400207800282CD120790728D8
:10D3B00029D105AA0721608800F03CFB002822D172
:10D3C00001F013FA03AA6946072001F015FA0028B4
:10D3D00019D06088694609888842F3D00499069874
:10D3E000FFF7C6FF0028EDD001AD608800F080F89F
:10D3F0006880002028706088A88068460088E880DF
:10D4000001A8FFF7EFFE07B030BD10B5374C18206C
:10D410002070002019493E4A0C234343CB185A8000
:10D42000401C0828F8D300F091F92070182803D088
:10D43000201D71DF002800D0032010BD80B5FFF74C
:10D44000EDFEFF2804D00D490C225043085A02BDBE
:10D450002F4802BD10B50C00FFF7E0FE0100FF29C8
:10D460000AD02000054A0C2359435118091D0722F0
:10D47000FEF7B2FE002010BD052010BDC02E00201A
:10D4800038B504000D0000F045F8002803D02088CE
:10D490002988884201D0002032BD0822A91CA01C86
:10D4A00001F02CF8401E8041C00F32BD10B584B091
:10D4B000040001F09AF901AA6946072001F09CF9DD
:10D4C000002810D0029946312000FFF7D9FF00282C
:10D4D00006D102992A312000FFF7D2FF0028EAD0B6
:10D4E0006846008800E00A4804B010BD30320020D1
:10D4F0000021204A0C234B43D2181388984201D1B3
:10D5000050887047491C0829F3D301487047000030
:10D51000FFFF00000188002903D142189278002AF9
:10D5200001D001207047491C0829F6D3002070471C
:10D5300010B50C00FFF772FEFF2803D00D490C2236
:10D5400050430C5210BD80B5FFF7F2FF01BD38B556
:10D550000500FFF7CDFF0400280000F045FA0500A4
:10D5600005498C4204D0002D02D12000FFF7E0FFD6
:10D57000280032BDC02E0020FFFF0000F0B58DB0A6
:10D580000C001500002600216F46421AD27B7A5407
:10D59000491C1029F9D30D2138001030FEF76EFE1A
:10D5A0000020215C3A1AD177401C0328F9D3684641
:10D5B0004DDFB81B2F300078A855761C032EF8D30A
:10D5C0000DB0F0BD3EB504000D002078022801D05A
:10D5D00000203EBD0322611C02A8FEF7FDFD0322D0
:10D5E000211D6846FEF7F8FD01AA69462800FFF7ED
:10D5F000C5FF032201A902A800F080FF401E804160
:10D60000C00F3EBD70B588B005006D4C002628885F
:10D61000102804D011284CD01A284FD068E0607D23
:10D62000227D8243211D02A801F001FA01960EE03D
:10D63000009602A801994900401883881D22210004
:10D640001431201D01F0BFF90198401C0190019890
:10D6500002998842ECD36846A9880180217DC8439D
:10D66000C0B201F096F95749884219D06946098835
:10D67000400020188180012368460288210015316E
:10D68000201D01F099F90123684602882100143118
:10D69000201D01F091F9A87D022805D1012304E0A5
:10D6A000042001F0E7F923E00023AA8821001631C5
:10D6B0001BE00023AA882100153116E0287A000912
:10D6C000022801DB012300E00023AA882100173192
:10D6D000201D01F071F9287A0009032801DB0123DC
:10D6E00000E00023AA8821001831201D01F064F910
:10D6F00008B070BD70B506000024314D3200297DA0
:10D70000281D01F081F9002809D03200A97D281DCB
:10D7100001F07AF9002801D0022400E00124200061
:10D7200070BD80B5264B0200D97D181D01F06CF943
:10D7300002BD80B5224B0200197EF6E780B5204974
:10D740000A7DFFE7091D01F072F902BD00201C49A6
:10D750000A681300C340DB0704D40123834013434A
:10D760000B607047401CC0B21828F2DB18207047CD
:10D7700080B5020012480368CB40DB0703D541188F
:10D78000497E001DD2E7002002BD10B504000C4800
:10D790000368CB40DB0706D513002200411819317E
:10D7A000001D01F009F910BD05490A68C240D20701
:10D7B00002D50818407E7047002070470000000026
:10D7C000A8300020FFFF000082490180FF21817006
:10D7D0000174417CF8220A4042740021C16041601A
:10D7E000816070470A6800E0521C082A08D27A4912
:10D7F00014235343C9180B888342F5D1080070479E
:10D800000020704738B504000D00002001E00098AA
:10D81000401C009069462000FFF7E4FF002802D07A
:10D820008178A942F3D132BD38B50400002506E065
:10D83000207C4119C9B2694801F096F96D1CE06875
:10D840008542F5D32000FFF7BFFF31BD70B504005E
:10D85000002500BF04A62000A900715888476D1C50
:10D86000052DF8D370BD00003DDD0100A1D30100FE
:10D8700089CC0100B9C2010039E30100F0B585B0DF
:10D880000400002769460F7468461021FEF7F6FC75
:10D890006D46608868802079287121796088FFF75B
:10D8A000B1FF012604212278092A47D801A39B5CF5
:10D8B0009F4400BF0A0A5E2C2C62666A74840028AA
:10D8C0000BD0417C314208D0FFF7AEFF2F7020789B
:10D8D000012800D000262E722AE02E70A06821E0D8
:10D8E000002811D08268A3689A420DD1427C32424E
:10D8F0000AD0A54A1268521CA34B1A60427CFE2330
:10D9000013401943417419E002202870E068039025
:10D910000EE003200BE0297003E0052007E006205D
:10D920002870E068029003E06846067407202870BB
:10D930006846FFF78BFF01E0E068029092480068BC
:10D94000002826D000242448142161434618707C06
:10D95000410705D4800719D56846007C002815D0FA
:10D96000B178308800F05AF900280FD031886980EA
:10D97000B1782971042802D10820287002E0092119
:10D98000297002906846FFF761FF02E0641C082CD2
:10D99000D9D305B0F0BD3EB500250F4C1420684327
:10D9A0002018FFF711FF6D1C082DF7D350200290AF
:10D9B00008200190012000902300A033A0229200B3
:10D9C0002100B431A434200001F064F8002800D014
:10D9D00003203EBDFFFF000054280020F82800204F
:10D9E00080B500F0A9FF02BD38B504000025009500
:10D9F00069460DE08178200000F0C8F8002802D0C8
:10DA0000052800D003250098401C0090694620009E
:10DA1000FFF7E8FE0028EDD1002D09D1200000F02D
:10DA200099FF002804D0072801D1072500E003252D
:10DA3000280032BD80B5002300F0A0FE02BD817039
:10DA400042605021594389B2C91C89100180704736
:10DA500080B59BB2FFF7F3FF01BD8178012908D0A3
:10DA6000062906D0072902D0082904D070471421BE
:10DA700005E0012103E041688988093189080180B6
:10DA80007047B8B50FB483B0002B01D10E2078E0F9
:10DA90000191072901D0082909D1002A07D0092AB4
:10DAA00005D26846808900F060FF002801D1072078
:10DAB00067E000276846017C8089FFF7A3FE040029
:10DAC0008448009013D0E0680599884229D2002547
:10DAD00006E0207C4119C9B2009801F045F86D1CA0
:10DAE000EDB2E0688542F4D32000FFF76DFEFF2120
:10DAF0007948FFF787FE040022D06846808920809D
:10DB00006846007CA070207CFF281CD105990098F5
:10DB100000F0E3FF2074FF2814D12000FFF754FE2B
:10DB20000EE08142EFD20D46EDB2E0688542EAD2C6
:10DB3000207C4119C9B2009801F016F86D1CF3E77A
:10DB400011201EE001270598E060217C009800F07C
:10DB5000F3FF020001D1032013E0059B9BB268464E
:10DB6000017C0698FFF76BFF002F09D00198082869
:10DB700006D1069800888000801F06994968888031
:10DB8000002008B0B0BD00007432002038B5002479
:10DB9000FFF738FE050001D1052032BD6868002876
:10DBA00004D000F06EFE040000D003242800FFF72C
:10DBB0003BFE200032BD00007CB50E00072903D0DB
:10DBC000082901D0072076BD0025FFF71BFE0400C1
:10DBD00001D1052076BD606800281CD1217C3D481C
:10DBE00000F0AAFF020000BF48A003C86B4603C3B1
:10DBF000684686700DD0E3683100FFF729FF68465C
:10DC0000FFF72BFF211D684600F022FE0500092DBD
:10DC100001D1032076BD280076BD0000F0B583B0A9
:10DC200007000E00072E03D0082E01D00720FEBDEE
:10DC300038A003C86A4603C26846867031003800BF
:10DC4000FFF7E0FD040001D10520FEBD0125607C49
:10DC5000284201D00020FEBD217C1E4800F06CFF50
:10DC6000002801D10320FEBDE368020031006846B0
:10DC7000FFF7EEFE6846FFF7F0FE23000833626808
:10DC80006946380000F005FE144A1368667C0621D8
:10DC90003140062900D15B1E002802D1F921314014
:10DCA00010E0591C112807D10B00FD203040042141
:10DCB0000143617400200BE0042806D10B00FB2116
:10DCC000314002250D43657402E0072800D003208F
:10DCD0001360FEBDF8280020FFFF00007432002012
:10DCE00080B500F046FE02BD80B500F046FE02BDE4
:10DCF00080B513889B0000936B4600F03FFD02BD8A
:10DD000080B51300002200F0C4FD02BD0000000039
:10DD100000000000000000000000000038B5040012
:10DD2000002505E02000AA008918096988476D1CB4
:10DD30009849C8788542F5DB31BD0000F0B58BB05D
:10DD4000070014216846FEF799FA78886C46A0808F
:10DD5000FFF7CEFB6080072101208E4D00263A7828
:10DD6000092A00D983E002A39B5C5B009F4400BFAB
:10DD7000050E21353B43607F787A21703979217215
:10DD800066720396A17A0843A0726DE0217039791A
:10DD900021726672B9680391A17A0843A072A868DB
:10DDA000002861D0B96888425ED1AE60A088E88062
:10DDB00017E008202070387920726672B8680390E6
:10DDC000F8680490A86800284ED0B96888424BD102
:10DDD000AE60E868401EE86003E021703979217286
:10DDE0006072039640E008212170397921726072D7
:10DDF000B868049038E009202070A878002833D053
:10DE0000C248FFF76DFFC14988422DD10846FFF790
:10DE10006BFFBE49884227D1AE70142105A8FEF7DA
:10DE20002DFA05A80B210170B8498180418014E0CA
:10DE30000A202070B8680290A878002814D0AE702C
:10DE4000142105A8FEF71AFA05A80C210170AF49A4
:10DE500081804180B868079005A8FFF75FFF03E065
:10DE6000052000E0062020706846FFF757FF0BB042
:10DE7000F0BD0000F0B587B007000120009014212C
:10DE800001A8FEF7FBF901AC788860800720032128
:10DE9000022600253A78521E0B2A6ED801A39B5CFD
:10DEA0009F4400BFEC0C2C52687C8894A6B0B4D080
:10DEB000012020703879020000D00122012800D111
:10DEC0000125344801797888FFF75FFC2A000CE0CF
:10DED00026703879002800D00126267201222D48AC
:10DEE00001797888FFF751FC3A792A484179788896
:10DEF000FFF74BFC42E02170264841797888FFF714
:10DF000037FC002800D0012626720BE02148017959
:10DF10007888FFF72DFC00283AD1267025722DE075
:10DF200021702572B8792073B88821E02070B988F3
:10DF3000A1802072657228E008212170B988A18033
:10DF400020726572B86805901FE00620207078681E
:10DF5000039013E005200EE021700E484179788887
:10DF6000FFF706FC002800D00126267225737948A9
:10DF7000608103E00420207000E000957888FFF7BE
:10DF80005DFAA0800098002802D001A8FFF7C6FE25
:10DF900007B0F0BDEC31002070B586B0040014214C
:10DFA0006846FEF76BF960886D46A880FFF7A0FA17
:10DFB00068800720052100222378092B21D801A69B
:10DFC000F65CB744080812161A2226422C30287034
:10DFD0006A720820287214E00D2008E00E2006E086
:10DFE00028706A7229720CE00F2000E0102028705F
:10DFF00007E0297005E006202870A0680290A0883C
:10E0000068806846FFF78AFE06B070BD30B585B0FF
:10E0100004002078002802D0012804D019E0E0880C
:10E0200000F09EF815E001220B4841796088FFF767
:10E03000ACFB14216846FEF721F96D4660886880C4
:10E040006088FFF7FBF9A880002028706846FFF77A
:10E0500065FE05B030BD0000EC31002010B50400B5
:10E060003D480078002808D02000FFF735F920004F
:10E07000FEF74EFE2000FFF719F810BD38B500F08E
:10E080004EFB002829D1FFF786FC002825D1FEF79A
:10E0900018FE002821D1FEF76EFA00281DD1FEF7E8
:10E0A00072FF002819D100F067F9002815D1FFF799
:10E0B000ACF9002811D1284C1448E0800025A56057
:10E0C000182020716071FFF741FB2071182804D0DF
:10E0D000FFF73CFB6071182801D1032032BD657049
:10E0E00001202070002032BD1C490A78002A01D18D
:10E0F00008207047CA78032A01DB04207047930088
:10E10000CB181861521CCA7000207047FFFF000036
:10E1100080B512490978002901D1082002BDFEF717
:10E120003BFE02BD80B50D4A1278002A01D10820BD
:10E1300002BDFEF755FE02BD80B5FEF743FE01BDF0
:10E1400006480078002800D1704780B5FFF71FF817
:10E1500001BD000001110000EC310020EC31002075
:10E1600080B563490978002901D1082002BDFFF775
:10E17000EEF902BDFFB585B02D480078002801D129
:10E18000082050E02948FFF7ABFD04000027009766
:10E1900058A003C802AA03C26846039002AA062137
:10E1A0002000FFF7A5FD00260025ED43290C6A4657
:10E1B000D1809180072816D1052034E0009700987F
:10E1C000B04202D306466846C4800098A84202D2F4
:10E1D0000546684684802000FFF782FD040002AAFD
:10E1E0000621FFF785FD0028E9D00528E6D00F4875
:10E1F000844217D100200599002903D06946C988B7
:10E20000059A11800699002900D00E60079900290F
:10E2100003D069468988079A11800899002902D09D
:10E220000D6000E0032009B0F0BD0000FFFF00001A
:10E23000EC310020F0B587B007002D4C2078002885
:10E2400001D1082051E000BF2CA003C805AA03C2D9
:10E25000607800280DD10023002221000C31A01D80
:10E26000FFF788FF002801D0052802D10120607047
:10E2700002E06078002802D0A068002801D01125B3
:10E2800032E0E0680026E1888F421AD1002818D0D9
:10E29000002514216846FDF7F1FF6C460720207029
:10E2A0003800FFF725F96080A7800620207266728B
:10E2B0000396A07AFE210140A1726846FFF72EFD69
:10E2C00012E0401CE0602200083205A93800FFF788
:10E2D00017FD050008D0A660E068401EE060112D23
:10E2E00002D0042D00D00325280007B0F0BD0000A7
:10E2F000EC310020010000000000000001000600D9
:10E30000F83100201CB500BF78A003C86A4603C2DC
:10E310006B4C00226946208805E00800FFF7E0FC0E
:10E32000208000226946FFF7EBFC2188654A914274
:10E3300001D01128F1D113BD1FB5040020780128A8
:10E3400012D1207901280FD102AA01216088FFF79C
:10E3500071FB002808D16846022101706188418064
:10E3600001210171FEF7C4FD5548008855498842D6
:10E3700001D0FFF7C7FF1FBD524851490880002058
:10E380007047F1B582B068460089FFF757F807007B
:10E390004C48874201D14C48FEBD012600246B4603
:10E3A000B6B2320008213800FFF76BFB0500761C7F
:10E3B000002D22D101990320086003230A1D891D25
:10E3C00068460089AADF050005D108213800FFF75B
:10E3D00025FC05000FE00C2D01D1012402E0052DE4
:10E3E00000D1002508213800FFF7D0FB002800D01D
:10E3F0000325002CD2D12800FEBD072DFBD10C2512
:10E40000F9E7F1B582B068460089FFF717F80025F3
:10E410000026032401272B49884211D06A4608218F
:10E42000FFF708FB00280BD10198851D868804683A
:10E4300006E0002D01D1002E0DD00025002603247A
:10E4400023003200290068460089A9DF042804D18E
:10E450001120002F00D10B20FEBD082801D1002083
:10E46000F7E70B28F5D10027A007E2D50124E7E75D
:10E4700080B51448FFF734FC11490880FFF742FFCC
:10E4800001BD00B583B0FEF7D9FF6A460121FFF751
:10E49000D1FA002801D000200EBD019800780EBDF1
:10E4A00010B50300094C074A02E02088401C208078
:10E4B00021881800A7DF06498842F6D010BD000069
:10E4C00078320020FFFF0000023000007A32002086
:10E4D0000330000000B583B006A10CC969460CC129
:10E4E00000226946FFF70CFC07BD00000100010097
:10E4F00084110200010001008811020010B402E042
:10E50000401C491C521E002A09D00B7804789C42FA
:10E51000F6D002D20020C04302E0012000E000203B
:10E5200010BC704780B5FFF7A9F901BDC0210902F1
:10E53000884204DBAF49884201D0012070470020A7
:10E540007047C0210902884204DBAA49884201D0F1
:10E550000120704700207047072809D0012807D004
:10E56000082805D0052803D0062801D0042801D1A9
:10E570000120704700207047F0B589B0684600213F
:10E58000002206C09B4D280003E0200000F04DFB58
:10E59000200000F094FB0400AC4225D08020C00194
:10E5A000271A6A4606A9B8B2FDF725FC0A28ECD05E
:10E5B000A64D6878002817D101266E70B8B2FDF715
:10E5C000C5FB082801D12E700EE000280CD00021D8
:10E5D000697002AA092313705480FF2313710491F8
:10E5E000059002A8FFF79EFF09B0F0BD7CB50400BE
:10E5F0000D0016002800FFF7AFFF6846002100223B
:10E6000006C0C02000026B463200291889B22018CB
:10E6100080B2FDF7E1FB002800D0052076BDF0B503
:10E6200085B004006068401E8041C00F03908027C1
:10E63000FF0100256E462078012807D065D3032806
:10E6400025D003D305285BD03AD35EE0A089FFF73D
:10E650006DFF002804D1E089FFF773FF002854D034
:10E66000A089C0197080E089307160682178012923
:10E6700005D1002801D1002106E0032104E0002893
:10E6800001D1012100E004213170039015E0A0893F
:10E69000FFF74CFF002804D1E089FFF752FF002864
:10E6A00033D0A089C0197080E0893071606800287B
:10E6B00001D1022000E005203070A068029021E026
:10E6C000A089FFF733FF00281FD0E08900281CD164
:10E6D000A089C0197080E1893171FF2131716168B1
:10E6E000002905D10621317080B200F09EFA01E0C8
:10E6F0000720307055490D704D70FFF73DFF01E068
:10E70000082030706846FFF70DFF50480078002859
:10E7100003D04E480570FFF72FFF05B0F0BD10B5D0
:10E7200088B08848FDF726FA002801D0032023E0AE
:10E73000FDF732FA002801D004201DE000F02AFA8B
:10E7400068460021002206C00EE002A904A8FDF7D9
:10E750006EFA0298848804A8FDF789FA8020C00127
:10E76000201880B200F04DFA6A4604A97648FDF7F9
:10E770003AFB0028E9D0002008B010BDF0B585B004
:10E7800006000D0014001F00FF2E04DC2800FFF718
:10E79000E3FE002801D1072025E002AA290030006D
:10E7A000FFF724FF002805D1694602A8FDF73FFACC
:10E7B000002801D0052016E0A57000984088208030
:10E7C000002F0AD082003868824204D30199606821
:10E7D000FDF702FD03E0042005E00198606002A857
:10E7E000FDF745FA002005B0F0BD58480021002291
:10E7F00006C07047FFFF000070B586B005000E0030
:10E800001400524A02A98020C001281A80B2FDF7E4
:10E81000EAFA002805D1694602A8FDF708FA00289F
:10E8200001D000200FE0A57000984088208001985A
:10E830006060009880888021C9014018308002A85B
:10E84000FDF715FA012006B070BD00007C320020F3
:10E8500038B504000D00A078FFF77EFE002801D136
:10E86000072032BD21882800FDF720FA002807D0B4
:10E87000072802D0092803D001E0042032BD03207C
:10E8800032BD01B56846FDF72AFA002800D0032002
:10E8900002BD74B589B005000C001E00FF2D04DC1C
:10E8A000A078FFF759FE002801D1072042E06068F8
:10E8B0000090208869468880C021090205A86A184E
:10E8C0000280A27851184180694606910121018198
:10E8D00002AAA1782800FFF789FE05280DD1099822
:10E8E000002804D105A902A8FDF71CFA0CE009AA2A
:10E8F00005A902A8FDF719FA06E009A8FDF7EFF946
:10E9000005A902A8FDF718FA002806D007280ED09E
:10E9100008280AD00E2808D00BE0002E03D03100C2
:10E9200002A8FDF770FA002004E0112002E00420A4
:10E9300000E003200AB070BD80B5054800F061F921
:10E9400002BD00001FE6010007C000006832002081
:10E95000FFFF000080B5FF2801DD072002BD00F0A9
:10E9600055F9FFF709FE002002BD80B500F069F9F6
:10E9700002BD80B500F090F902BD80B500F09FF9AE
:10E9800002BDFEE701228A400240100000D00120B3
:10E99000704738B50500002421002800FFF7F2FF7A
:10E9A000002801D0200032BD641CA4B2082CF3DB87
:10E9B000004832BDFFFF000080B500931300012224
:10E9C00000F001F801BD002800D1704770B50029A2
:10E9D00019D0002A17D0002400256E00865B9E42C5
:10E9E0000ED10120A840049B02E086432E70641CD7
:10E9F000944208D20D19002B2E78F6D00643F5E785
:10EA00006D1C082DE9D370BD10B503000800002B64
:10EA10000BD000214C001C5B944203D189B2FFF75C
:10EA2000B1FF10BD491C0829F4D3002010BDF0B57A
:10EA300085B006000C00170000250095002C12D0B0
:10EA4000A9B2F8B2FFF79EFF002809D06800205A4B
:10EA50006946009A5200891888800098401C0090EE
:10EA60006D1C082DECD3300069461422FDF7C8FB5D
:10EA700005B0F0BD10B584B0040068460C21FDF768
:10EA8000FDFB02946A460021014800F023F91FBDF6
:10EA90000140000070B5140000281CD000291AD0D5
:10EAA000002B18D0059D069E2A007243944212D373
:10EAB000049AEC1DE408A2420DD3002D0BD0002EC9
:10EAC00009D0016043608560C660A9B2406800F06B
:10EAD00029F9002070BD072070BDBAB5070029D004
:10EAE0003868002826D07868002823D0FF25002425
:10EAF0000AE02900380000F037F86D1CEDB2A5429D
:10EB0000F7DBFF25641CE4B2B868844212D221000E
:10EB1000786800F010F9002809D0FF2D00D12500F9
:10EB2000601B401C00998842ECD12800B6BDFF2D27
:10EB3000E8D0E3E7FF20B6BD38B505000C00002D96
:10EB400010D0286800280DD0686800280AD0FF2C53
:10EB500008D000F035F9002804D02868E9684C4353
:10EB6000001932BD002032BD38B505000C00002D63
:10EB70000FD0286800280CD06868002809D0FF2C26
:10EB800007D000F01DF9002803D02100686800F0CC
:10EB9000E1F831BD38B54C4C40212000FDF76EFB4B
:10EBA00080256D002900200000F0BCF829002034E9
:10EBB000200000F0B7F831BDF8B506000800434C5E
:10EBC0002500310080277F00A14207D1390000F0E5
:10EBD000DDF80500BD4208D1250006E0B94204DA9F
:10EBE00000F0A9F8002800D035002800F2BD0A0086
:10EBF000FF2800DD704780B50100100000F0AAF882
:10EC000001BD80B53049FFF7D7FF02BD10B5040044
:10EC10002E48844207D02E492000FFF7CDFFA042A6
:10EC200001D1012010BD002010BD38B50500264CD3
:10EC30002100FFF7DCFF203421002800FFF7D7FF79
:10EC400031BD80B5FF2804DC01001F4800F0B8F892
:10EC500002BD002002BD80B5FF2804DC01001C4875
:10EC600000F0AEF802BD002002BD70B50C00174DDB
:10EC7000A84201D1002603E0461CB6B2FF2E09DCF3
:10EC80003100200000F09CF8002801D0300070BD59
:10EC9000761CF2E7280070BD38B50B4C210001E06E
:10ECA00021002800FFF7E1FF05000848854204D055
:10ECB0002800FFF7D0FF0028F2D1280032BD80B530
:10ECC0000349FFF7D2FF02BDF02F0020FFFF000035
:10ECD00010300020BFF34F8F034804490860BFF392
:10ECE0004F8F00BFFDE700BF0400FA050CED00E008
:10ECF00070B582B005000C00002000262978214262
:10ED00000ED169460870684600F06AF828782042FB
:10ED100002D104432C7001266846007800F076F892
:10ED2000300076BD002800D1704780B5C91DC910DC
:10ED3000FDF7A2FA01BD0A00002800D1704780B596
:10ED4000012153075B0F9940C9B2D2088018FFF721
:10ED5000CFFF02BD38B54A05120E01244907490FFD
:10ED60008C40E4B2002810D08518287820420CD0BE
:10ED7000002069460870684600F032F82878A04301
:10ED800028706846007800F041F831BD70B5060083
:10ED90000C00002E12D0002501E06D1CADB2A54282
:10EDA0000CDA01216807400F8140C9B2E810301821
:10EDB000FFF79EFF0028F0D0280070BD200070BD36
:10EDC000002807D0CA08825C4807400FC240D0071D
:10EDD000C00F704701207047EFF3108072B6704784
:10EDE00038B50400FFF7F8FF0121124A5368002BE1
:10EDF00007D151601049114B1D680D401560196015
:10EE000000212170002800D162B631BD10B5094C37
:10EE1000616800290BD0002809D1FFF7DDFF2168C8
:10EE2000074A116000216160002800D162B610BD60
:10EE30000000000048320020FC06FFBC80E100E03A
:10EE400000E100E00121C006C00E8140A64801603B
:10EE500070470121C006C00E8140A4480160704780
:10EE60000121C006C00E8140A1480160704710B565
:10EE70008207D30EFF249C40E2438907090E994084
:10EE8000030004D59B481B071B0F083B00E09A4872
:10EE90009B089B00C01803681A401143016010BD15
:10EEA000002811D095490968954A00BF00BF00BFEE
:10EEB00000BF00BF00BF00BF00BF914200D000BF35
:10EEC000401EF2D1BFF35F8F704738B580208002BB
:10EED0008C4908608C4880214902016401608B4C98
:10EEE000012525602F20FFF7DBFF6560884C00259A
:10EEF00025612F20FFF7D4FFA57231BD401A000213
:10EF0000000A7047F8B5824FFE68002E34D0002406
:10EF1000804800683969FFF7F1FF050030688542D5
:10EF200018D32D1A24183000F669017C00290FD05F
:10EF30000021017442698169FB69180006D0100044
:10EF40009847002804D0FFF795FD01E0080090479E
:10EF5000002EE3D1787A397A814206D1401C78724A
:10EF6000C0B2022801D100207872787A8000381867
:10EF700044611420FFF76DFFF1BDF8B5644A1378C2
:10EF8000D0680090002117E02500E469002C13D020
:10EF9000B442F9D1A54207D1FE69D660002E03D153
:10EFA000B54E30601161D0722068E469EC61002CCC
:10EFB00002D025682818206001205478A3421BD075
:10EFC000546818255D4364195B1C9578DBB2AB422D
:10EFD00000D100232578022D02D0032D05D0EBE7C8
:10EFE0006668D7683D002C00D0E7D0680028E3D0E1
:10EFF0000174C069D060F8E7D268009B9A4200D1E2
:10F000000020F2BDF1B582B0414CE06800900027CD
:10F01000012600E0E5600298002830D12078617870
:10F02000884259D06168182242438918401CA2784E
:10F03000C0B2904200D1002020704D6808780128AD
:10F04000ECD1287C0028E9D188686860C868A8608D
:10F050000869E8604869A861E07A002800D06F601C
:10F0600020696A68111A0902090ABE4B99420AD23C
:10F0700001001000FFF742FFA96840180CE00546A8
:10F08000E8690290ECE71100FFF738FFA9688842B1
:10F0900001D2081A00E0002028606F60AF602E7473
:10F0A000EF61E0680028B5D0026829688A4203D37E
:10F0B000511A0160E861ADE7020013688B4205D286
:10F0C000C91A1000D269002A02D0F6E75B1A136051
:10F0D0002960EA61C5619EE7E0680099884201D035
:10F0E0000120FEBD0020FEBD00E100E000E200E0E6
:10F0F00080E200E01CED00E000E400E04828002091
:10F100000024F40080E100E00813014004100140F5
:10F1100034310020041501407CB50025BC4800694D
:10F120000190BB490A7A1100B94B5B7A9A4210D020
:10F13000491CC9B2022900D10021B54A8B00D2185E
:10F14000546900190002000AB14A106101200090C0
:10F1500001E000240094AE480172FFF70EFF0600A4
:10F16000AB48C068009900291BD0002210E0E41AC7
:10F17000D21800230B600090C869CB68002B07D021
:10F18000019EB6183602360A4E608B60CD61009D36
:10F19000002805D001000B689C42E8D21A1B0A60C7
:10F1A00001269B49C8602800FFF72CFF002801D1E9
:10F1B000002E46D09648C068002840D000680090D5
:10F1C000944C206801909248056929000198FFF746
:10F1D00095FEC61C8E48807A002813D18E48802167
:10F1E0004902016401601120FFF73AFE1120FFF788
:10F1F00029FE0120894908602F20FFF751FE0120D8
:10F20000834988720098864200D20600A81900023D
:10F21000000AE06326680199FFF770FE0500019976
:10F220003000FFF76BFEC01C85420AD22068E06305
:10F230002F20FFF735FE1120FFF70BFE01E0FFF74F
:10F2400044FE00207249C87273BD7549487070470A
:10F2500010B573494A78531C8C78DBB2A34200D1B5
:10F2600000230C78A34201D1002010BD0370486830
:10F2700018214A43801810BD0810014070B582B0B3
:10F2800005000C0000200026694608706846FFF75C
:10F29000A7FD00A8401CFFF7DBFF002801D10426D2
:10F2A00005E00470456068464078FFF7CEFF684689
:10F2B0000078FFF7ABFD002E02D11420FFF7C9FD47
:10F2C000300076BD80B557480021016441648164F7
:10F2D000C16401604160FFF715FE01BD80B5FFF715
:10F2E0001BFF01BDF2B5070014001E00A00701D1ED
:10F2F000002C01D10720F2BDFFF7E7FD444DEE6180
:10F300000020288069460978A9706C60E86028812F
:10F310001420FFF7A5FD03211420FFF7A8FD1420FA
:10F32000FFF790FD3B4C676003211120FFF79FFD25
:10F33000206828610020F2BD394B5B68002B09D0A2
:10F34000130001D0002801D1072070470068037C1A
:10F35000002B01D0082070470374417442610020E3
:10F3600070470000FFFF7F00F4B582B005000C007D
:10F3700027484068002808D0002D06D0052C01D26F
:10F380000720FEBD6869002801D10820FEBD0020CD
:10F39000697C012901D1270000E000270026694689
:10F3A00008706846FFF71CFD00A8401CFFF750FFDF
:10F3B000002801D104260DE00121017045601549A6
:10F3C00009688160C46007610299416168464078BC
:10F3D000FFF73BFF68460078FFF718FD002E02D1CB
:10F3E0001420FFF736FD3000FEBD80B50C4949689A
:10F3F000002904D0002802D04169002901D1082049
:10F4000002BD002101740221FFF738FF02BD000098
:10F410003431002004150140041301400010014064
:10F4200034310020001101400870000A48700220A9
:10F4300070477CB504000D0028880930824201D253
:10F440000C2076BD684671DF00281FD1082029886E
:10F4500060542888401C28801B2180B221542888B1
:10F46000401C28806E460622711C80B22018FCF7D2
:10F47000B3FE2888801D28803278002A00D001221F
:10F4800080B222542888401C2880002076BD39B5DF
:10F4900081B00C000178012904D14078002801D105
:10F4A00007203EBD1588A81C834222D3012905D11F
:10F4B000019840782818801C83421AD3581B831E59
:10F4C00068460380694610882018801C7DDF00286C
:10F4D0002ED101980178082002290ED169460988A9
:10F4E0009BB28B4207D269460B8069460988FF2987
:10F4F0000CD30C203EBD0920F7E70129F3D1019977
:10F5000049789BB28B42EED90B00ECE7694609883B
:10F51000491C1388E1541188491C118089B2605438
:10F520001088401C1080694609884018108000200F
:10F530003EBDF7B584B000240C9D288802900026BB
:10F5400004E02888097840182880761C04980088F0
:10F55000864234DA01A804994968B20089180A88F9
:10F5600002804A8842800022694665DF002833D144
:10F5700068460078097E8842E7D1002C01D000203F
:10F5800000E0022029886A46928E6F463F78CF19A4
:10F59000381882421CDB002C09D1491C298068469E
:10F5A000007D89B258542888401C2880012428886E
:10F5B0001A18694601A865DF0028C2D00CE0002CAB
:10F5C00009D028880299401A401E80B2FF2801DD28
:10F5D0000C2001E05854002007B0F0BDFEB5060035
:10F5E0001700089D099C019400950222FFF7A1FFD6
:10F5F000002807D101940095029B102239003000A9
:10F60000FFF797FFFEBD7CB582B005000C001188A6
:10F61000881D834201D20C2014E028886A4610809D
:10F6200068460288062A0CDB1D4B1E4EB24201DBE7
:10F630009A4206D16888062803DBB04204DB984270
:10F6400008D0072004B070BD9A4203D06A461288E1
:10F650009042F6D30520605402980088401C02991D
:10F660000880122180B2215402980088401C02991F
:10F67000088080B221182888FFF7D6FE02990988F1
:10F6800008180299088080B221186888FFF7CCFE1C
:10F69000029909880818029908800020D2E7000022
:10F6A000FFFF0000810C000070B504000E00150083
:10F6B000A088801C29880A18921C934201D3FF2835
:10F6C00001D30C2070BD401C70542888401C288039
:10F6D000FF2180B231542888401C288080B2311824
:10F6E0002088FFF7A1FE298808182880A288002A10
:10F6F0000CD0A168002901D1072070BD80B230185C
:10F70000FCF76AFD2888A18840182880002070BD79
:10F71000F2B507001600B86A002838D0002409E0C6
:10F72000009B80B21818FCF757FD3088A988401854
:10F730003080641C380028300079E4B2844228D23A
:10F74000B86A0C2161434518A888801CFF2801D3A2
:10F750000C20F2BD401C0099328888543088401C2F
:10F7600030801621009A80B211543088401C3080BD
:10F77000009980B209182888FFF756FE31880818CA
:10F780003080AA88002AD4D0A9680029C8D10720CF
:10F79000F2BD0020F2BDFEB505000E0014000020F1
:10F7A00021886A46118120802D21695C002907D0BB
:10F7B0006846028921003000FFF73BFE002809D18E
:10F7C00069460F89A97800291FD02088001D87422B
:10F7D00001D20C20FEBD684679DF0028FAD1032053
:10F7E000218870542088401C2080192180B2315417
:10F7F0002088401C208080B2311868460088FFF7BE
:10F8000013FE2188081820800020EA780221002AAF
:10F8100013D02388D81C8742DBD3F1542088401CA6
:10F820002080012380B233542088401C208080B285
:10F8300032542088401C208000206A68002A15D09D
:10F84000002010562288D31C9F42C2D3B154218875
:10F85000491C21800A2289B272542188491C2180C6
:10F8600089B270542088401C2080002029890029FA
:10F870000CD06846008901900094330006220221D2
:10F8800028000830FFF7AAFE00284ED1298A002957
:10F890000CD06846008901900094330007220321B0
:10F8A00028001030FFF79AFE00283ED1298B00294E
:10F8B0000CD0684600890190009433001522142171
:10F8C00028001830FFF78AFE00282ED12F6A002F5B
:10F8D00008D068460389220031003800FFF793FE04
:10F8E000002822D16F6A002F08D0684603892200C1
:10F8F00031003800FFF7D8FE002816D12C21695CB2
:10F90000002908D068460389220031002800FFF74B
:10F91000FFFE002809D12978002906D0684603890E
:10F92000220031002800FFF7B2FDFEBD70B592B095
:10F930000D001F216A4651801180002400280CD040
:10F94000C178490701D4072022E0921C09A9FFF7DA
:10F9500022FF00281CD109AE02E0002669464C8037
:10F96000002D0BD0E8780028EDD16A4601A92800C7
:10F97000FFF711FF00280BD101AA02E00022684620
:10F98000048068460388DBB24188C9B2300072DF68
:10F9900012B070BDF0B59FB005A801218170B949C2
:10F9A0000180B94CA21C05A90120A0DF11256E46DB
:10F9B00035707570B078F921014002200843B070AD
:10F9C00068461C9017A800781821014317A80170F9
:10F9D00000271A9718971C971B9704A88178E7228D
:10F9E0000A408270057045708178F9220A4003212F
:10F9F0001143817003A801218170A44901801290F4
:10FA000004A8139012A8012101814781142181814A
:10FA1000231D12AA17A96088A2DF35707570684689
:10FA200010900BA800781A2101430BA801700E97C3
:10FA30000C9710970F9702A88178E7220A408270EE
:10FA4000057045708178F9220A40032111438170C5
:10FA500001A8012181708E490180069002A80790BB
:10FA600006A80121018147811421818106AA0BA9E1
:10FA70006088A2DF1FB0F0BD01780E2900D9704761
:10FA800080B501A2525C97440E7018223446607013
:10FA90005470605860706C008088FEF7CBFB1128B2
:10FAA0001BE08088FEF7C6FB112816E04189794AE1
:10FAB000914222D101214088FEF734FB0CE000BFC7
:10FAC0000EA10968009169464088FEF735FB01BD2B
:10FAD000FCF760F90E2810D008280ED006E00020B0
:10FAE00006E0032000F048FA00E08068002804D017
:10FAF000FEF7C0FF01BDFEF723FB01BD00000000C3
:10FB00000078002800D0704780B53B21B5480088B8
:10FB100076DF002801D0FEF7ADFF01BD80B5FEF70E
:10FB2000A9FF01BD80B5002805D0032814D102200B
:10FB300000F058FC0CE000F055FC002801D0FEF766
:10FB400099FF00F0C7FC002801D0FEF793FF3CDFCF
:10FB5000002801D0FEF78EFF01BD10B588B004006B
:10FB6000208802281DD010280CD0112806D03A2851
:10FB700013D0512819D055280FD038E0002000F0BC
:10FB800031FC30E0072000F02DFC002801D0FEF70A
:10FB900071FFA0889349088029E01321A08876DFAF
:10FBA00021E00021A08867DF1DE06846A11D10222A
:10FBB000FCF712FB68460078002818D06846007AE7
:10FBC000042803D0062801D0052810D104A86946CE
:10FBD0000978022900D001210170C12149008180EA
:10FBE00004A9A088A8DF002801D0FEF743FF08B0D1
:10FBF00010BD10B50400FDF705FD2000FEF72EFA3C
:10FC00002100214800F0B3FC200000F063FD20003B
:10FC100000F06AFC2000FFF7A0FF200000F092FA3D
:10FC200010BD10B50400FCF77FFA200000F0B4FA14
:10FC300010BD10B598B0382109A8FCF71FFB09A822
:10FC400002210170012484700621C170048266487B
:10FC50000E90202101A8FCF711FB01A8C47096208A
:10FC600040000590B4200690002000905F4B01AA50
:10FC7000002109A800F0DBF8002801D0FEF7FAFE09
:10FC800018B010BDF1FF00003C320020F3FF00006F
:10FC9000F2FF00000610000030B58FB0544C002376
:10FCA000220005210020FFF71DFB002801D0FEF7F0
:10FCB000E1FE00BF58A0006800900023482278347D
:10FCC0002100684600F0E3FD002801D0FEF7D2FED7
:10FCD0000AAA0121002000F020FE002801D0FEF732
:10FCE000C9FE0AA800F030FE002801D0FEF7C2FECF
:10FCF000404800F0F4FD002801D0FEF7BBFE3E486E
:10FD000000F0F5FD002801D0FEF7B4FEFEF7B6F9CD
:10FD1000002801D0FEF7AEFE052101A8FCF7AEFADF
:10FD200001A8312101700721417010218170032544
:10FD3000C17803220A43C270017903220A43027187
:10FD4000FEF7E6F9002801D0FEF794FE2B48FEF7F7
:10FD5000CBF9002801D0FEF78DFE1120694608700E
:10FD60000C2200BF28A168467CDF002801D0FEF7E6
:10FD700081FE01A80021002206C001A850210180B7
:10FD8000A021418000248480F031C1807ADF0028E6
:10FD900001D0FEF76FFEFFF74CFFFFF7FBFD1C21C4
:10FDA00003A8FCF76BFA0394A02080020490F020D3
:10FDB0000003059003A80573C481047410480890DB
:10FDC0001048099003A800F033FC002801D0FEF78A
:10FDD00051FE032000F0D0F8002801D0FEF74AFEC3
:10FDE00048DFF9E7502800204428002025FB0100C7
:10FDF0009C2C0020F3FB010023FC010079FA010098
:10FE000001FB01001DFB01004D6F646F6F3031304D
:10FE100030303038000000000100000753480179FD
:10FE2000002902D1007B002800D001207047F2B5E4
:10FE3000040011001E00002C01D0002901D10E2069
:10FE4000F2BD0120494A10760025D5764848202287
:10FE5000FCF7D6F945484662069844498862454809
:10FE600008840721B448FCF709FAB44E3821300061
:10FE7000FCF704FA20783070A078B070E078F07069
:10FE8000607870702000103003C83200103203C256
:10FE90002000083003C83200083203C220001830A6
:10FEA00003C83200183203C2A54801004031626A1B
:10FEB000002A11D071628860626A13880B80928870
:10FEC0008A80002204E0636A9B689B5C8354521C16
:10FED000736A9B889A42F6D3A26A002A1BD002005A
:10FEE00020324A6102004C32B262A26A93880B82CD
:10FEF00012888A81002206E0A36A9B689B5C8718AF
:10FF000020373B70521CB36A9B889A42F4D32C2250
:10FF1000A25C2C23F254226A002A07D00200583235
:10FF20003262226A53884B8312880A8361680029EF
:10FF300000D071600021CA00521A82185C320B4B4B
:10FF40001B688C001A51491C0829F4DB290141184F
:10FF50009431064A9268AB00D1506D1C082DF5DB38
:10FF600000993000FFF7E2FCF2BD0000F827002006
:10FF700054310020FFFF0000F0B587B00600914C1F
:10FF8000207E002801D10820D3E0E6766846FCF701
:10FF9000BCF801250098002819D107212000103055
:10FFA000FCF76CF9E07E884F7978002901D00128B0
:10FFB00006D0B97800290ED0012801D002280AD134
:10FFC000616A080005D025770820884703E0657638
:10FFD000AEE00020207700202118497C002911D1B3
:10FFE000401C0628F8D30020012E06D01BD3032E78
:10FFF0000FD009D3042E11D015E07978014203D037
:020000040002F8
:10000000012011E00120EFE7B978014201D0022080
:100010000AE0F878002801D0032005E038790028AC
:1000200001D0042000E00020E076616A08000ED0D4
:10003000E07E032801D0042809D13878627F0123AB
:100040005340184203D0A5770720884701E00020DD
:10005000A077182101A8FCF711F901AE002030703B
:100060003072E07E00285DD002280CD003D3042833
:1000700039D012D32FE0A5762000103002903570D1
:10008000002030612AE0A076200010300290357008
:10009000F8687082B868308220E038693082786908
:1000A00070823878617F01224A40104201D10320DA
:1000B00024E0FFF7B3FE0028F9D004940220307248
:1000C00004201E49C87000211C48FFF72FFC00289F
:1000D00001D10520A076E07E002824D001A873DF9E
:1000E000002820D025E0B8693082F869708238781D
:1000F000617F01224A40104202D10420A076EDE740
:10010000FFF78CFE0028F8D00494022030720420FF
:100110000A49C87000210948FFF708FC0028DAD115
:100120000620D7E7A076616A080001D0A07E884744
:10013000002007B0F0BD000008280020703000202B
:10014000882B002010B5214C0188102904D01129DA
:1001500008D01B290ED010BD817D01291BD18088BC
:10016000208410BD002161778088218C884212D1C3
:10017000012008E0007A00280DD1E07E401C052116
:1001800000F018FCC8B2FFF7F7FE002803D0A16A00
:100190000A0000D0884710BD801E012800D9704792
:1001A00010B50A4C607E00280AD000206076E07E00
:1001B000FFF7E2FE002803D0A16A0A0000D08847BA
:1001C00010BD0000F827002054310020F82700203F
:1001D000F1B584B000250020884EF169CA4303922E
:1001E0001146E02252040A40009271698A005118B7
:1001F00002916946097C0191814C80229203510051
:10020000019B172B17D802A7FF5C7F00BF4400BFDC
:100210000C14142B394C67787F887F88E19595956D
:100220009595C2C8D0D8E1E10399F02252040A4062
:100230006260A5603573D3E000986060A560684691
:10024000007C2168F0235B044B40134006D06260C1
:10025000A560022820D1E121C90034E0A2606560D8
:1002600002281ED12EE000986060A5602068F02171
:1002700049044140114023D06260A560C821890033
:1002800021E000986060A5602068F02149044140A9
:10029000114004D06260A560FA21090113E0A26058
:1002A0006560C82149000EE000986060A560206884
:1002B000F02149044140114002D06260A56001E094
:1002C000A2606560C8216846007C307375690800CB
:1002D000642100F072FB45432900002228E00098C9
:1002E0006060A5602068F02149044140114002D0BF
:1002F0006260A56001E0A2606560062030730CE0DA
:1003000000996160A560A2606560072167E02068D0
:100310000A00824362600140A1600022716907E027
:1003200020680A00824362600140A16000220299B5
:1003300024363000FFF718F852E030004430FFF761
:1003400054F81121019A891A1CD000281AD1802250
:100350001204F26102290ED300957769C820414347
:100360000800642100F029FB4743390000223000D7
:100370004430FEF7F9FFF169F02252040A40A2600E
:1003800065602DE0F169F02252040A406260A560C8
:10039000F56125E0F02149046160A56012211EE0AD
:1003A000E02149046160A560A2606560132116E048
:1003B000D02252046260A560A160656014210EE045
:1003C000C02149046160A5608908A16065601521AC
:1003D00005E0F0214904A16065606946097C31733C
:1003E00005B0F0BD80B50021064A127ED20702D5C5
:1003F000FFF7EEFE0100080002BD00005C2D0020AA
:10040000040500505C2D002030B503000020042BB3
:1004100016D2012A05D1012902D11A000D3200E0BD
:100420000022164C5D00EB18E318002906D00229C3
:1004300002D005D21A7030BD5A7030BD9A7030BDEE
:10044000072030BD70B500220D4B00BF0EA49500F3
:100450006459A4001B191C680500D540ED0701D59F
:10046000032500E00025074E26402C0434431C6081
:10047000521C042AE8D3002070BD00005C2D00202F
:1004800000070050FFFFFCFF1100000012000000F9
:10049000130000001400000080B50122022100209A
:1004A000FFF7B2FF002801D0072812D1072202214E
:1004B0000120FFF7A9FF002801D0072809D10A224F
:1004C00000210020FFF7A0FF002801D0072800D15D
:1004D000002002BD80B50320FFF7B4FF002801D043
:1004E000062800D1002002BD10B51D4C61680088AF
:1004F000102802D0112826D010BD00291FD10122BA
:100500000020FFF781FF002801D0072811D1072222
:1005100002210120FFF778FF002801D0072808D129
:10052000042202210020FFF76FFF002807D00728D0
:1005300005D0002803D021680A0000D088476068F1
:10054000401C606010BD491E616007D1FFF7A4FF29
:10055000002803D021680A0000D0884710BD0000A1
:10056000603200200321134A800011507047F8B513
:100570000A88102A02D0502A03D0F1BD8988018050
:10058000F1BD8F1D00240C4D8026B60378880B49E1
:10059000884204D11520FFF7E5FF2E606C60788853
:1005A0000749884204D11520FFF7DCFF6E602C60FC
:1005B000F1BD00000007005008050050F3FF0000E7
:1005C000F2FF0000408862490A88904204D34988BB
:1005D000814201D3012070470020704738B55D4C3F
:1005E000E08B5D49884222D0217F491C2177227B04
:1005F000C9B28A4208D3564975DF002817D0A169CD
:100600000A0014D0884731BD00252577217C0029B8
:1006100007D03B2176DF002803D0A1690A0000D073
:1006200088476169080002D068460570884731BD77
:1006300070B50600474C200031001C22FBF7E0FD9E
:10064000002565773168424E002911D0300008221C
:10065000FBF7C2FD30007ADF002808D13E48E08376
:1006600025773E4A002100BF3EA0FEF765FE70BD23
:1006700030007BDF0028F1D070BD38B50025354C47
:100680003748FFF79FFF00281AD1607F002805D068
:10069000616908001CD06A46157017E0207F0028A9
:1006A00001D1616800E0A168002220002030FEF73F
:1006B0005BFE00280CD0A1690A0009D0884707E03A
:1006C0006169080004D001206A46107068468847B6
:1006D000657731BD38B5010000251E4C20480A88D9
:1006E000102A06D0112A0FD0122A2AD0502A0FD051
:1006F00031BD8A88E28318310822FBF76DFD25772A
:10070000E089002823D120E01348E08325770DE01D
:10071000891D0888E289904219D14889022816D19A
:100720000C31080000F0A5F900280ED1200020307F
:10073000FEF75BFE00280AD0A1690A0007D08847AF
:1007400031BD08310822FBF747FDFFF796FF31BDA9
:1007500050320020B02F0020FFFF0000DD05020016
:1007600058320020D02F00200121C006C00E814049
:100770007A48016070470121C006C00E8140784868
:1007800001607047202804DA7649C140C807C00FCD
:1007900070470120704738B50400FFF7F3FF0028C9
:1007A00001D1714832BD032003212140CA0021003C
:1007B00005D56E4B25072D0F083DAD0801E06C4BAC
:1007C000A508AD005B59D3409A09104004280CD20B
:1007D00000280AD0022808D066484268002A06D1BC
:1007E0002000FFF7C1FF002032BD634832BD610920
:1007F0008900401801680122E306DB0E9A400A4393
:100800000260F0E780B5FEF765FA01BDBCB55B4C50
:100810002078002837D000250027E068002803D181
:10082000012501E0002F15D1607800282BD1684602
:1008300052DF052801D101270CE0002802D0FEF785
:1008400019F907E0009800F073F92169080001D058
:1008500000988847002D14D16078002813D1608853
:100860006946888001A9A06861DF052801D10125BA
:1008700007E0002802D0FEF7FDF802E0A068E1687A
:1008800088472F42CED0B3BD3C480078704770B542
:100890000600002901D0880701D0072070BD374C21
:1008A000A160628063602D480068C507ED0F02D02B
:1008B0000020FFF760FF3249300010DF060006D04D
:1008C000002D02D00020FFF74FFF300070BD012047
:1008D000207000F034F91620FFF75DFF70BD0100B5
:1008E00001D10E2070472549C860002070470100E3
:1008F00001D10E207047214908610020704780B562
:100900001E484068010005D08047002804D0FEF74B
:10091000B1F801BDFFF77AFF01BD70B504000D000D
:10092000160014213000FBF7A9FC012030800021C3
:100930003161317BFE220A40327335727472002CB1
:1009400000D0B072002070BD82B00E4900910099B5
:10095000019101A960DF009902B0704700E100E059
:1009600080E100E0FC06FFBC012000001CED00E07F
:1009700000E400E048320020022000001C32002089
:1009800005080200E81F0020F446002804D449426C
:1009900000F013F8404260474042002905D45FD080
:1009A00000F00BF8404249426047494200F005F828
:1009B0004942604703460B43E6D40022030A8B42B8
:1009C0000BD203098B4219D243088B422ED2411A13
:1009D00000D20146524110467047FF2209023FD023
:1009E00012068B4205D3121209028B4201D3121256
:1009F000090203098B4219D300E0090AC3098B429B
:100A000001D3CB01C01A524183098B4201D38B0120
:100A1000C01A524143098B4201D34B01C01A5241C3
:100A200003098B4201D30B01C01A5241C3088B4208
:100A300001D3CB00C01A524183088B4201D38B00F3
:100A4000C01A524143088B4201D34B00C01A524195
:100A5000884200D3401A5241CFD201461046704717
:100A600008B5C046C04608BD01784078000208437A
:100A7000704780B5FFF7F8FFC007C00F02BDFEE763
:100A800000218022D205115070478021C9050858E5
:100A9000002800D00120C0B2704738B5344C20780F
:100AA000002801D0852032BDA06060602061E06038
:100AB000032100F063F80125FFF7E6FE002801D1CD
:100AC0002C4805602570002032BD38B50400284D43
