:020000040001F9
:10B00000F8270020C54B0200E73702004339020051
:10B010000000000000000000000000000000000030
:10B020000000000000000000000000006B4702006C
:10B030000000000000000000934C02009F4C020042
:10B0400097410200D94D020057090200DB4D020072
:10B05000DD4D02000000000045480200DF4D020007
:10B06000E14D0200E34D0200E54D0200E74D020014
:10B07000E94D0200EB4D0200ED4D0200EF4D0200E4
:10B08000F14D020053E90100F34D0200F54D0200BD
:10B0900089E90100F74D020027010200F94D020085
:10B0A000FB4D0200FD4D020000000000000000000A
:10B0B0000000000000000000000000000000000090
:10B0C00000B5800701D1012000E00020C0B200BD22
:10B0D000A84909780143A74A11707047A549097822
:10B0E0008143A44A1170704700B5A2490978014212
:10B0F00001D0012000E00020C0B200BD38B504003E
:10B100000025082D0DD29C48042169434058002891
:10B1100005D02000984904226A43895888476D1C4D
:10B12000EFE731BD00B50278012A09D037D3032AF1
:10B1300012D008D3052A28D01ED3062A2CD02EE000
:10B1400000220A702BE001220A7002898A8182881B
:10B15000CA81C2688A6022E002220A7002898A815A
:10B160008288CA81C2688A60027C062A01D10122D3
:10B1700000E000220A7412E003220A70C2888A8169
:10B180000289CA81C2688A6009E004220A70C28802
:10B190008A810022CA8102E005220A70FFE700BD11
:10B1A00000B58188A04A914204D00088002801D0CF
:10B1B000012000E00020C0B200BD10B50400002C4A
:10B1C0000BD0B5480068844207D3B3484068A0421A
:10B1D00003D32000FFF774FF00E00020C0B210BDD1
:10B1E00070B505000C000026A6420AD20820704364
:10B1F0002858FFF765FF002801D1002002E0761CE7
:10B20000F2E7012070BD00B501000868A34A904232
:10B2100001D003200AE04868BF4A801A03D0401ECC
:10B2200003D1012002E0002000E0032000BD00B5B2
:10B2300001000020FF280AD8042242438A58002334
:10B24000DB439A4201D0002002E0401CF2E70120DB
:10B2500000BD00B5B14A80B210234343D218128911
:10B260008918AE4A80B210234343D21852898918F4
:10B2700089B2FF2901DC012000E00020C0B200BD3E
:10B2800030B502000A2000239BB2022B18DAA34C2F
:10B290009BB210255D43641964688C420ED29F4CAA
:10B2A0009BB210255D43641964688025ED00641924
:10B2B000A14203D200242000138001E05B1CE3E7DD
:10B2C00030BDF4B582B004000F008020C00020180B
:10B2D000009000250834022038800098844220D253
:10B2E00020680021C94388421BD026003000FFF7A8
:10B2F00057FF002802D10120050007E0A848006898
:10B30000B168884202D2B068A549086070880421FB
:10B31000414364180C3438887188C91C401838803F
:10B32000DBE70298002801D002980570F7BD020003
:10B3300013890800C01C181810815089401AC01EBB
:10B340005081704780B5002000900223954A9648AE
:10B350000168514801F074FA02BD10B582B00400D2
:10B36000002000900223A54A21004B4801F068FA12
:10B3700016BD0000C9340020EC320020F8B50600EC
:10B380000F00002469463000C01C08806846008811
:10B39000FE2801DB09202DE00025ADB2022D23DAC5
:10B3A0005E48ADB210216943405C00281AD168465E
:10B3B0000188280080B2FFF74CFF002812D001203E
:10B3C00004003D805548ADB21021694340184089C2
:10B3D0006946098840185149ADB210226A4389185C
:10B3E000488101E06D1CD8E7E4B2002C01D00020B8
:10B3F00000E00720F2BD10B4484A89B210234B4345
:10B40000D2185289121AD21E444B89B210244C43CE
:10B410001B195A8110BC704761480068401C604984
:10B4200008605F4800687047FFFF0000F8B504003F
:10B430000F003E68002E06D0350068880421414385
:10B4400076180C3607E03548A4B210216143401845
:10B450004068083006003148A4B21021614340180A
:10B4600040688021C9004018864213D2306800210C
:10B47000C94388420ED035002800FFF791FE00280E
:10B4800002D03E60012006E068880421414376181E
:10B490000C36E0E70020F2BDE81F0020DEC0ADDE84
:10B4A00038B504000D006068FFF787FE002814D04F
:10B4B00020899949098988420FD120686168896883
:10B4C00088420AD161682800FFF7DAFE002801D11E
:10B4D000012000E00020C0B21DE000202880288864
:10B4E000022817DA0020009069462888FFF79EFF9F
:10B4F00000280BD00099886822689042F4D1009807
:10B500006060854800892081012004E02888401C73
:10B510002880E4E7002032BDFE011EF10C3300203C
:10B52000F8B505000C0017001E000220FFF7DCFD37
:10B53000002801D1022032E0002F01D0002E01D1DD
:10B5400005202CE0B088022828DA7448B18810223F
:10B550004A43805C00281DD13100B088FFF766FFA8
:10B56000002815D03168002D03D088882A889042A1
:10B57000F2D1002C03D0088822889042ECD1886850
:10B58000386030687860644800893881002006E0BF
:10B5900000203060B088401CB080D3E70A20F2BDA4
:10B5A00088340020604D02003034002070B51C2427
:10B5B0000025C748C649096F1C22514346182A0076
:10B5C0002100300001F016FAC148406F00280CD06D
:10B5D000BF48006F401C042101F04FFABC480167CE
:10B5E000BB48406F401EBA494867B948406F0028C1
:10B5F00001D0012000E00020C0B270BD684D020003
:10B6000000B50168C14A914203D001680831016068
:10B6100001E0C849016000BD10B50400C548406C98
:10B62000002813D0C348C349096C0822514340186D
:10B630002060C048006C401C082101F01EFABD4883
:10B640000164BC48406C401EBA49486410BD00B556
:10B650000178022902D0017803290BD1B549096C80
:10B66000827D8918B34A1164B249496C827D891A76
:10B67000B04A516400BDF1B582B00C00170000253E
:10B680009348406F042843D20820001BA949496C05
:10B6900088423DD38E48406F8D49096F4018042180
:10B6A00001F0EBF900918A4800991C22514340189F
:10B6B00002991C2201F04CFA8548406F401C8449D5
:10B6C0004867002C22D09B48406C9A49096C40186E
:10B6D000082101F0D2F900919648009908225143BF
:10B6E000401801900026A6420BD20820704338185B
:10B6F00003C8019A03C2083A01A8FFF781FF761C2C
:10B70000F1E78C48406C00198A4948640120050023
:10B710002800C0B2FEBD0000983300200C3300208A
:10B72000F8B5002500240020694608700026B6B24E
:10B73000032E00DB96E0CB480068B6B28021C9003A
:10B74000714347183800FFF75EFD69464870684648
:10B750004078002838D0012856D0032800D07FE058
:10B760003800FFF764FD002826D0BF480068002895
:10B7700016D00220D249A4B2102262438854D04885
:10B78000A4B210216143401847600220CC49A4B202
:10B790001022624389180881CA484480641C07E06B
:10B7A000B14807600220B0498880012069460870CE
:10B7B00028000125054306E00320C149A4B2102258
:10B7C00062438854641C4BE00020BD49A4B210229F
:10B7D00062438854BA48A4B21021614340184760BC
:10B7E000B748A4B21021614342180E32B448A4B243
:10B7F00010216143411808313800FFF762FD28002D
:10B8000002250543641C2BE068460078002815D00B
:10B810000220AB49A4B210226243885492480068C7
:10B82000A749A4B210226243891848600220A449A3
:10B83000A4B21022624389180881641C8A480760F8
:10B840000022B9493800FFF73CFD8748808802286C
:10B8500001D1042000E00820290005000D43FFE786
:10B86000761C64E72800C0B2F2BD70B582B0040057
:10B870000E000020009001232200121D31007948A3
:10B8800000F0DEFF050002202074002D01D1002011
:10B8900000E00E2076BD70B582B004000D000020DF
:10B8A0000090012322000C32290008316D4800F07D
:10B8B000C7FF0600A07D002801D0032000E0012082
:10B8C0002074002E01D1002000E00E2076BD000083
:10B8D000D42D002070B582B004000D00002000902F
:10B8E0000123220008322900091D5E4800F0A8FF4C
:10B8F00006002078032801D1052000E006202074EE
:10B90000002E01D1002000E00E2076BD283000205E
:10B9100010B582B00400002000900123B44A210039
:10B92000504800F08DFFC0B2002801D1002000E097
:10B930000E2016BDF02F00207FB5040001A80C21B9
:10B9400001F080F8E0680190694601A8FFF7A8FDC2
:10B95000002811D0029EB088E080308820810298B3
:10B96000FFF7D6FF0500012055496A4612881023CB
:10B970005343C918887301E00A200500280004B069
:10B9800070BDF0B585B00400C04B01AA00212000B5
:10B99000801DFFF7C5FD0090009800280CD102988B
:10B9A000FFF7B6FF009001204549B84A928810235E
:10B9B0005343C918887307E008250026B34F3200A7
:10B9C0002900380001F016F8009805B0F0BD7CB5EC
:10B9D00004000E000020019001A8FFF71DFE0020CA
:10B9E00000900198838801980268A08A042141434D
:10B9F00071181C4800F024FF0500A08A019989886D
:10BA00004018A082A07D401EA075A07D002801D115
:10BA100001202074002D01D1002000E00E2076BD11
:10BA200000B528480089401C264908810020254986
:10BA30004880002023490873002080B202280FDAD2
:10BA40001F4980B210224243895C002901D10121A3
:10BA500000E000211B4A80B212189172401CECE7F2
:10BA600000BD0000E81F00203034002010B50100A8
:10BA70000020002292B2022A20DA124B92B29B18C6
:10BA80009B7A002B18D000230E4C92B2A418A372FC
:10BA90000B4B92B2102454431B199B89002B0BD1E2
:10BAA000074B92B2102454431B199B7B002B03D0ED
:10BAB0000A800122100001E0521CDBE7C0B210BD79
:10BAC0000C3300209833002080B50520B44908705D
:10BAD0000220B449888000230122B2480168B2489C
:10BAE00000F0FCFE02BD38B5AD484488AF48A4B2B2
:10BAF000102161434018808900280FD100230122C2
:10BB0000AA48A4B21021614340184168A64800F039
:10BB1000E5FE05000420A249087002E0FFF7D4FF0B
:10BB20000500280032BD00003434002070B582B01A
:10BB30009B4846689B4800689A49898804224A4382
:10BB400085187488E41C0320954908700020009033
:10BB500023009BB2924842682900934800F070FE8F
:10BB600076BD10B592498E484088FFF75FFC0028EB
:10BB700003D0FFF7DBFF040002E0FFF7B4FF04008F
:10BB8000200010BD80B5062085490870874884498B
:10BB9000498810224A4380184068FFF7DEFB02BD47
:10BBA00080B507207E49087000207D494860FFF776
:10BBB000C9FB02BD80B5AF48FFF758FF00280AD186
:10BBC000002077490870002075494880002074499A
:10BBD0004860BC4801E0FFF7C4FF02BD7048406800
:10BBE0004188C91C6F4A928852186E4B9A807047E0
:10BBF000BC4D020010B46B4800686C49684A52881A
:10BC000010235343C9184968664A11606749644A5A
:10BC1000528810235343C918486062498988634A8F
:10BC20005F4B5B8810245C431219118102215D4A2D
:10BC3000918010BC704780B559480078002809D021
:10BC4000C01E0DD0401E11D0401E012814D9801EE8
:10BC500016D019E0FFF7E4FE01205149087013E007
:10BC6000FFF7BCFF02204E4908700DE0FFF7C2FF4E
:10BC700006204B49087007E007204949087003E097
:10BC8000012047490870FFE701BD0000383400205B
:10BC9000F1B50F000F240098002804D00120FFF711
:10BCA0001DFA01207BE03879002805D0022835D024
:10BCB00008D3032840D06AE0FFF744FB04000120CA
:10BCC000387164E000250026B6B2022E1ADA374831
:10BCD000B6B210217143405C022811D13348B6B28C
:10BCE0001021714340184068FFF737FB0400002023
:10BCF0002E49B6B21022724388540120050001E09B
:10BD0000761CE1E7EDB2002D07D10220FFF7E0F944
:10BD10000120FFF7E3F96B4841E038E000230122FE
:10BD200020480168204800F0D9FD040002201D4988
:10BD30008880002038712AE01A480068FFF70DFB60
:10BD400004001748408817490968A64A80B21023A2
:10BD50004343D2185268134B1A60A24A80B2102390
:10BD60004343D21851600F4A92889E4B80B21025EF
:10BD700045435B191A8102220A4B9A800022994B93
:10BD800080B2102545435A5500223A71FFE7002C36
:10BD900004D00120FFF7A2F90E2000E00020F2BD40
:10BDA0009833002030340020E81F00200C3300209E
:10BDB0009C330020F0B583B006000C008948618AEE
:10BDC00010224A438718002E05D0E1883800FFF77B
:10BDD000AEFA01204CE07868398904224A43801881
:10BDE0000090207C002817D002281BD026D30428DE
:10BDF00004D01DD306282FD026D330E000207A4966
:10BE00004860A0697849086001A97748FFF748FBB6
:10BE1000002801D10A202BE000992000FFF725FD22
:10BE200005001EE000992000FFF735FD050018E031
:10BE300000992000FFF7CBFD050012E000992000DB
:10BE4000FFF748FD05000CE067484068FFF760FD1C
:10BE500005000620207404E01A48050001E00F20C8
:10BE60000500002D03D0E1883800FFF760FA2800B4
:10BE7000FEBD00009A33002070B505000C00002DB7
:10BE800001D001201CE02079002803D0022811D025
:10BE900007D312E02000FFF74FFD060002202071BB
:10BEA0000DE02000FFF76DFD06000A2E01D10548C8
:10BEB000060004E00348060001E00F200600300001
:10BEC00070BD00001D1D000038B50400002C01D01D
:10BED000012033E0A148007B002803D000209F49C7
:10BEE000087301E0FFF7A7FE9C48007801280AD0FC
:10BEF00002280CD003280ED0042810D0062812D017
:10BF0000072814D017E0FFF755FE050015E0FFF7EE
:10BF100028FE050011E0FFF709FE05000DE0FFF720
:10BF2000E2FD050009E0FFF72DFE050005E0FFF743
:10BF300037FE050001E00F200500280032BD70B576
:10BF400086B0040086488649096F1C225143451873
:10BF50002878401E08D0401E01280CD9801E0128D8
:10BF600010D9801E15D01AE02900E4B22000FFF796
:10BF70008FFE060015E02900E4B22000FFF71AFF4B
:10BF800006000EE02900E4B22000FFF775FF06006E
:10BF900007E0E4B22000FFF797FF060001E00F2062
:10BFA0000600002E1BD0B448864202D1002001902A
:10BFB00003E001962800FFF74AFB69462800FFF7D7
:10BFC000B1F86846FFF79AF8FFF7F0FA002803D0B7
:10BFD0000020FFF7B4FF02E00420FFF77FF806B06F
:10BFE00070BD00000C330020DC33002080B504203D
:10BFF000FFF77AF8002805D10420FFF769F8002040
:10C00000FFF79DFF01BD38B505000C002000C0B250
:10C01000FFF795FF31BDF8B58AB006000D00170097
:10C0200000206946488000240220FFF75DF80028C0
:10C0300001D1022078E0002D01D1052074E028888C
:10C04000A849884202D06888002801D104206BE00A
:10C0500029896868FFF7C4F8002801D1032063E04C
:10C06000002F16D100202989884207D2696808224A
:10C070004243891889886418401CF4E76946200007
:10C0800080B2FFF77BF901900198002806D0019853
:10C090004AE0388869460880788804000AA8007851
:10C0A00069460872002002A908746846008802A93F
:10C0B0004882288902A98875032002A98882FFF78F
:10C0C000ABF90590288802A90881688802A98880B0
:10C0D00002A8C4800AA80078032804D1042002A979
:10C0E0000874306808906846408802A948816A68E8
:10C0F000298902A8FFF7BFFA002807D168460188FE
:10C10000200080B2FFF777F908200DE0002E08D05C
:10C1100000207060059830600020B0720F480089E0
:10C120003081FFF763FF00200BB0F0BD10B50100B8
:10C13000924A1278082A02D10C2210000CE0904A90
:10C140008E4B1B7804246343D1508C4A1278521CC6
:10C150008A4B1A700022100010BD00009833002096
:10C16000D42D002010B58CB007A8142100F06AFC73
:10C170000220FEF7B9FF002804D007A8FEF7BEFF93
:10C1800000204DE00120FEF7AFFF002801D0002085
:10C1900046E00120FEF79CFF00F0E6FAFFF7C0FA48
:10C1A0000400E4B2002C01D10B2039E0E4B2062CEB
:10C1B0000AD10220FEF78CFF0120FEF78FFF07A8AF
:10C1C000FEF79CFF00202BE0012069460870E4B2D6
:10C1D000200001280CD003280AD0052814D00728F5
:10C1E00012D0092808D00A280AD00B2804D00FE062
:10C1F0000020694608710BE003206946087107E0DA
:10C2000002206946087103E0012069460871FFE7D2
:10C21000002200216846FFF72EFAFFF7E7FE002014
:10C220000CB010BD70B582B004000D00002C01D020
:10C23000002D01D105201EE069462000FFF730F9EE
:10C24000002817D0616886486A4612881023534335
:10C25000C0188089401C824A6B461B8810265E43AA
:10C2600092199081296060680C3068600120A0728A
:10C27000002000E00A2076BD1D1D000038B5040036
:10C28000002C01D105202BE069462000FFF708F9BA
:10C29000002822D072486946098810224A43801833
:10C2A0008089002816D0A07A002813D06C486946EF
:10C2B000098810224A4380188089401E68496A46CE
:10C2C000128810235343C91888810020A0720020CF
:10C2D000050004E00620050001E00A200500280012
:10C2E00032BD0000FFFF000070B582B004000D00F9
:10C2F0000220FEF7F9FE002801D1022010E0002CF8
:10C3000001D105200CE06946280080B2FFF736F81D
:10C310000600002E03D1684600882080658030002A
:10C3200076BD70B504000220FEF7DEFE002801D1C4
:10C33000022021E0002C01D105201DE020880328E7
:10C3400001DB042018E04648218810224A43861861
:10C3500070896188401AC01E00280AD4218860882C
:10C36000FFF749F8002020800020608000200500B1
:10C3700001E004200500280070BD0000CA34002040
:10C38000EC32002038B504000D0002230022290001
:10C390002000FFF740FE32BD70B504000E0015000E
:10C3A000002D01D1052005E002232A0031002000E4
:10C3B000FFF731FE70BD38B504000D00002C01D12F
:10C3C000052005E00323002229002000FFF723FEBB
:10C3D00032BD10B588B004000220FEF785FE0028AB
:10C3E00001D1022019E0A4B23448844201D10420D2
:10C3F00013E0052069460870012069460871684607
:10C40000C480002200216846FFF735F9002803D0D8
:10C41000FFF7ECFD002000E0082008B010BD00B5DB
:10C4200087B00220FEF760FE002801D1022015E04F
:10C43000062069460870002200216846FFF71BF9B4
:10C4400000280AD01E480078002802D001201C498C
:10C450000873FFF7CBFD002000E0082007B000BD07
:10C460000C33002033B581B015001C0023002A00D6
:10C4700002A901A8FFF754F83EBD31B50D00140024
:10C4800023002A0069460020FFF74AF832BD31B583
:10C490000D00140023002A0000216846FFF740F831
:10C4A00032BD00B50200002A01D0002901D10520CB
:10C4B00002E010680860002000BD0000FFFF0000DF
:10C4C0009833002000B5A54800680021C943884280
:10C4D00004D1A34800688021C900484300BDF2B5DB
:10C4E00084B00400102500266F4632002900380071
:10C4F00000F080FA207A012802D0022809D014E046
:10C5000000206946087020690290A08A69468881E7
:10C510000BE0012069460870A089E189401A69464C
:10C520000881A08969464881FFE7606801906846F4
:10C53000017C684622689268904705B0F0BD00B55E
:10C540000100002909D087480068814205D3B94815
:10C550000068814201D2012000E0002000BD38B512
:10C560000300988AD98A401AFF2804DC988AD98A5D
:10C57000401A020002E080204000020092B2D86817
:10C58000D98A04244C4301191869DC8A04256543BF
:10C59000401929DF32BD0100888928DF704700B5C6
:10C5A000A548406E401EA4494866A348406E002836
:10C5B00005D1A2480078FD210140A04801709E48A5
:10C5C000006E401C9C4908669B48006E042802D1FE
:10C5D00000209949086600BD38B597489649096E0C
:10C5E0001822514345189448406E002826D0287AD6
:10C5F000012802D0022805D009E02800FFF7AFFF8C
:10C60000040006E02800FFF7C6FF040001E009204F
:10C610000400112C0CD189480078FD210140874885
:10C62000017086480078042101438448017005E0C8
:10C63000002C03D009212800FFF751FF31BD80B540
:10C640007E4800780621084207D17C480078022104
:10C6500001437A480170FFF7BFFF01BD38B5040000
:10C6600000209D490870207A012802D002281BD0A2
:10C670002BE0A08AE18A401AFF2804DCA08AE18A24
:10C68000401A050002E0802040000500E08A4019C1
:10C69000E082E08AA18A884205D100212000FFF7CC
:10C6A0001EFFFFF77CFF10E0A089401CA081E089FD
:10C6B000401CE081E089218A884205D100212000C8
:10C6C000FFF70DFFFFF76BFFFFE731BD10B504006B
:10C6D00081480078401C804908707F480078042811
:10C6E00008DB00207C49087008212000FFF7F7FED6
:10C6F000FFF755FF10BDF1B54F48406E042801D13A
:10C70000002029E04C48006E4B49496E401804282F
:10C7100005D24948006E4849496E441805E046482C
:10C72000006E4549496E4418241F4348406E401C22
:10C7300041494866182500263F481821614347189B
:10C7400032002900380000F055F93B4818216143B8
:10C750004018009908600120F2BD0000141000107C
:10C760001400001010280020F0B583B09B489C49AD
:10C77000401A0009019099489949401A0400240977
:10C78000FFF7A0FE00902D480078C00701D50020DB
:10C790004EE00020019988420DD29249096810228A
:10C7A000424389180A68002A03D04A68002A00D048
:10C7B000641E401CEEE70020A04232D2894909687D
:10C7C000102242438918002203000025019EB54231
:10C7D00014D2844E366810276F43F6193768002F3D
:10C7E00002D07768002F07D1777BD2B2BA4203D24A
:10C7F000777B3A002F003B006D1CE7E7794D2D68F1
:10C80000DBB210265E43AD192900009D4D60009DEE
:10C810000E7B754F7E43AD190D6009680091401C79
:10C82000CAE706480078012101430448017000204E
:10C83000FEBD000014280020C42E0020CB340020B0
:10C84000F4B582B004000D001F00089E6748007810
:10C85000C00701D401203EE02000FFF770FE002851
:10C8600001D1022037E00298002801D0002D01D12B
:10C87000032030E00298800702D12800800701D011
:10C88000062028E02068854206D36068BFB20421F4
:10C8900079436918884201D205201CE0BFB2002FFD
:10C8A00001D1042017E06846FFF725FF002801D1D9
:10C8B000072010E00098466000980460012000996D
:10C8C000087202980099C8600098056100988782F4
:10C8D000FFF7B5FE0020FEBDCC340020F8B5040003
:10C8E0000D0016001F0041480078C00701D4012048
:10C8F00037E02000FFF723FE002801D1022030E0BE
:10C90000002D01D103202CE0A80501D0062028E04D
:10C910002068854207D36068B6B28021C9007143A0
:10C920006918884201D205201BE0B6B2002E01D161
:10C93000042016E06846FFF7DEFE002801D107203C
:10C940000FE0009847600098046002200099087288
:10C950002800800A0099888100980682FFF76FFE00
:10C960000020F2BD00B50100002901D1032003E041
:10C970001F48406E0860002000BD38B504001C4808
:10C980001B49096E18225143451818480078800742
:10C990000DD52000022802D0032804D01BE0280077
:10C9A000FFF75CFE17E02800FFF790FE13E00F484A
:10C9B000007840070FD50D480078FB2101400B4857
:10C9C00001700B48406E002805D00848007802210D
:10C9D000014306480170FFF7FFFD31BDF81F00203D
:10C9E000E81F00201028002000FCFFFFCB340020AF
:10C9F000C42E00201206130A1A43130C1A4300BF58
:10CA0000094205D0830705D00270401C491EF9D1A8
:10CA100070470000130030B414001500103902D321
:10CA200010393CC0FCD2490700D30CC000D504C06B
:10CA3000890002D30280801C002900D5027030BC1E
:10CA4000704700000022E5E7F446002804D449427C
:10CA500000F013F8404260474042002905D45FD0FF
:10CA600000F00BF8404249426047494200F005F8A7
:10CA70004942604703460B43E6D40022030A8B4237
:10CA80000BD203098B4219D243088B422ED2411A92
:10CA900000D20146524110467047FF2209023FD0A2
:10CAA00012068B4205D3121209028B4201D31212D5
:10CAB000090203098B4219D300E0090AC3098B421A
:10CAC00001D3CB01C01A524183098B4201D38B01A0
:10CAD000C01A524143098B4201D34B01C01A524143
:10CAE00003098B4201D30B01C01A5241C3088B4288
:10CAF00001D3CB00C01A524183088B4201D38B0073
:10CB0000C01A524143088B4201D34B00C01A524114
:10CB1000884200D3401A5241CFD201461046704796
:10CB200008B5C046C04608BD124207D08B0706D0E4
:10CB30000B78491C0370401C521EF7D870478307BE
:10CB400006D00B78491C0370401C521EF9D1704767
:10CB500070B4103A03D378C9103A78C0FBD25307A7
:10CB600001D318C918C001D508C908C0D20704D319
:10CB70000B880380891C801C002A01D50B78037068
:10CB800070BC704700B5A3B0012004A988709A4812
:10CB9000694608821FA899491022FFF7D9FF04A906
:10CBA000891C1FA863DF964A04A90120A0DF6846FC
:10CBB000007BF02101400120084369460873684664
:10CBC000007B0007000F102101436846017303A892
:10CBD0004078F02101400120084303A9487003A8D0
:10CBE00040780007000F1021014303A8417003A8FB
:10CBF0008078F92101400220084303A9887003A826
:10CC000013900EA80078102101430EA801700EA801
:10CC10000078082101430EA8017000201190002027
:10CC20000F90002013900020129001A88078F72127
:10CC3000014001A8817001A88078EF21014001A87E
:10CC4000817068460079F02101400120084369465F
:10CC50000871684600790007000F102101436846FB
:10CC6000017101A84078F02101400120084301A989
:10CC7000487001A840780007000F1021014301A867
:10CC8000417001A88078F92101400220084301A9E0
:10CC9000887001A880780121014301A881700120DA
:10CCA00006A988709C486946088306A81A9001A8BE
:10CCB0001B9001201AA9088100201AA9488114207C
:10CCC0001AA98881954B1AAA0EA995484088A2DF17
:10CCD0006846007AF0210140012008436946087245
:10CCE0006846007A0007000F102101436846017270
:10CCF00002A84078F02101400120084302A94870B1
:10CD000002A840780007000F1021014302A84170DB
:10CD100002A88078F92101400220084302A9887006
:10CD200002A80C906846007F1021014368460177F5
:10CD30006846007F082101436846017700200A9079
:10CD40000020089000200C9000200B90684680780E
:10CD5000F72101406846817068468078EF210140E4
:10CD60006846817068460078F02101400120084340
:10CD700069460870684600780007000F10210143DB
:10CD80006846017068464078F02101400120084360
:10CD900069464870684640780007000F102101433B
:10CDA0006846417068468078F921014002200843B6
:10CDB0006946887068468078012101436846817021
:10CDC000012005A9887057486946888205A81590F2
:10CDD00068461690012015A90881002015A94881F0
:10CDE000142015A988814D4B15AA07A94C484088E5
:10CDF000A2DF23B000BD0000FFFF0000E84C0200EE
:10CE0000EA33002070B5040000252078002803D004
:10CE1000022858D05BD35EE0924800F0C1FC9248F3
:10CE20000078002805D0022813D00AD3032818D090
:10CE30002FE08C480078F02802D101208A49087040
:10CE400027E08848007889490870022086490870E0
:10CE50001FE084480078A1490870032082490870C7
:10CE600017E09F4800789D49097888420BD27D4899
:10CE70000078A5499A4A1278885499480078401C4D
:10CE80009749087004E001200500002076490870E9
:10CE9000FFE7EDB2012D15D1002691480078F6B2DA
:10CEA000864206D29848F6B2805D00F097FC761C68
:10CEB000F3E700208A4908708848017889B29248CF
:10CEC00000F077FB07E0606800F0B8FC03E0606802
:10CED00000F0B4FCFFE770BD30B58BB004A8A449E6
:10CEE0001822FFF735FEA3480090802040000190F3
:10CEF000A148029080204000039003239F4A694686
:10CF000004A800F0E8FB04002500002D02D0280052
:10CF100000F094FC0BB030BDF1FF0000EC330020BA
:10CF2000E8330020F3FF000070B582B004002078E1
:10CF3000002818D0022824D022D3042841D02DD391
:10CF4000062854D045D308285AD058D30A2860D090
:10CF50005ED30C2868D064D30E286ED06CD3102812
:10CF60006FD06DD36EE0A08801F0BDF80500112DE3
:10CF700005D02E00002E02D0300000F05FFC61E0F2
:10CF800060E0A08801F0AFF80500112D05D02E005B
:10CF9000002E02D0300000F051FC53E06089784947
:10CFA00088420DD10121608800F0ADFF0500082DF9
:10CFB00005D02E00002E02D0300000F03FFCFFE72D
:10CFC00040E07048006800906946608800F0B0FF5B
:10CFD00038E0FFF724FA05000E2D07D0082D05D004
:10CFE0002E00002E02D0300000F028FC2AE0A068BD
:10CFF0000600002E02D0300000F020FC22E021E0EC
:10D0000000200600002E02D1002000F017FC19E0DD
:10D0100018E0A0680600002E02D0300000F00EFCE0
:10D0200010E000F08EFA0DE0A0680600002E02D09D
:10D03000300000F003FC05E004E000F082FF01E0B6
:10D0400000E0FFE773BD38B50023B54A0521002095
:10D0500001F09EFC04002500002D02D0280000F005
:10D06000EDFB31BDD6340020D7340020D834002069
:10D07000FEB5012069460870684600780007000F79
:10D0800010210143684601700C22A64968467CDFE6
:10D0900004002500002D02D0280000F0CFFB082658
:10D0A000002701AD3A0031002800FFF7A3FC502013
:10D0B00069468880A02001A94880002001A98880B5
:10D0C000C820400001A9C88001A87ADF040025001B
:10D0D000002D02D0280000F0B1FBF7BDD9340020AC
:10D0E000D534002070B50400207800280AD13B21F7
:10D0F000B148008876DF05002E00002E02D03000F7
:10D1000000F09CFB70BD00002C2F002010B5040027
:10D11000200000F093FB10BDF0B587B01C25002463
:10D120006E46220029003000FFF764FC00200090CA
:10D13000A02080020190F0200003029003206946A5
:10D14000087300206946C8810020694608749B481E
:10D1500005909B480690684601F020FD07003E00C0
:10D16000002E02D0300000F069FB07B0F0BD0000D7
:10D17000AC4C0200B42A0020B42B002005CE0100E4
:10D1800006100000C84D0200704738B5002002F0BC
:10D1900086F804002500002D02D0280000F04EFB88
:10D1A00002F048F904002500002D02D0280000F00C
:10D1B00045FB3CDF04002500002D02D0280000F0D4
:10D1C0003DFB31BD70B50500EDB2280000280CD044
:10D1D00003280DD1022002F062F804002600002E80
:10D1E00002D0300000F02AFB02E0FFF7CEFFFFE79D
:10D1F00070BD70B588B0050000242888022839D099
:10D20000102813D0112806D03A281DD051283CD020
:10D21000552824D069E0002002F041F804002600DF
:10D22000002E02D0300000F009FB5EE0072002F083
:10D2300036F804002600002E02D0300000F0FEFA7E
:10D24000A8885D49088050E01321A88876DF040093
:10D250002600002E02D0300000F0F0FA45E0132145
:10D26000A88876DF04002600002E02D0300000F0EF
:10D27000E5FA3AE00021A88867DF04002600002EC6
:10D2800002D0300000F0DAFA2FE068462900891D4C
:10D290001022FFF749FC68460078002824D0684631
:10D2A000007A042807D06846007A062803D068462A
:10D2B000007A052818D168460078022803D1022098
:10D2C0006946087402E0012069460874C1204000E4
:10D2D00004A9888004A9A888A8DF04002600002EDD
:10D2E00002D0300000F0AAFAFFE708B070BD10B518
:10D2F0000400200002F04CF9200000F06AFD21003B
:10D30000BB4802F088FA200001F01CFD200002F06A
:10D310009EF82000FFF76DFF200002F05DFD10BDBC
:10D320004C2E0020F84C020010B504002000FFF73E
:10D3300024FB200002F067FD10BD70B586B0AD483B
:10D340000068009000234822AB49684602F096FE30
:10D3500005002E00002E02D0300000F06FFA01AA66
:10D360000121002002F0FAFE04002600002E02D067
:10D37000300000F063FA01A802F00DFF0400250060
:10D38000002D02D0280000F059FA9C4802F0B2FEAD
:10D3900004002500002D02D0280000F04FFA984824
:10D3A00002F0B6FE04002500002D02D0280000F097
:10D3B00045FA06B070BD000028280020E5D0010025
:10D3C0000DD10100F1B582B000F024FD060034005B
:10D3D000002C02D0200000F031FA6846007A0028C4
:10D3E00008D000F0D8FD06003400002C02D0200048
:10D3F00000F024FA052500246F4622002900380099
:10D40000FFF7F8FA68460078012101436846017089
:10D4100068460078FD210140684601706846007842
:10D42000FB2101406846017068460078F721014001
:10D4300068460170684600788F210140302008431B
:10D4400069460870684600784006400E69460870D4
:10D450000720694648701020694688706846C07881
:10D46000012101436846C1706846C078022101432A
:10D470006846C17068460079012101436846017120
:10D48000684600790221014368460171684600F050
:10D490002CFD06003700002F02D0380000F0CEF936
:10D4A000584800F007FD06003400002C02D0200090
:10D4B00000F0C4F9F7BDF0B599B03820029000260D
:10D4C0000BAC320002992000FFF794FA02200BA95E
:10D4D000087001200BA9887006200BA9C8700120D4
:10D4E0000BA90882484810902025002403AF220091
:10D4F00029003800FFF77EFA012003A9C8709620A2
:10D50000400007900020C0430890002000903F4B4F
:10D5100003AA00210BA802F0B7FA019001980700B6
:10D52000002F02D0380000F089F919B0F0BD38B5ED
:10D5300048DF04002500002D02D0280000F07EF90D
:10D5400031BD38B5032002F08DFB04002500002D0D
:10D5500002D0280000F072F931BD70B5002004003F
:10D560002600002E02D0300000F068F9FFF76BFDB6
:10D57000FFF7B2FCFFF7E1FE2800C0B2FFF722FF81
:10D58000EDB2002DFFF774FDFFF795FFFFF7FAFAF4
:10D59000FFF7C2FDFFF7F8FD032002F063FB040074
:10D5A0002600002E02D0300000F048F9FFF7BFFF40
:10D5B000FCE7F2B584B00400102500266F46320067
:10D5C00029003800FFF716FA094880886946088064
:10D5D00001206946887000206946888004A802906E
:10D5E0000394694602480088A6DF05B0F0BD00003C
:10D5F000E8330020CC4D020038300020EFD201008B
:10D6000029D3010029CF010020280020C5D1010025
:10D610008168C068401A70477CB504000D0020780E
:10D6200000283FD002282ED054D2606801787A4872
:10D6300002F016FE0600002E08D001206946087090
:10D64000019668467549096888470BE07248FFF7FC
:10D65000DFFF002806D000206946087068466F4941
:10D66000096888476C48FFF7D3FF6B498988814276
:10D6700005D301226A496B4803F04AF802E0012011
:10D680006949087026E0022069460870E068019048
:10D6900001226349634803F03BF868465F49096823
:10D6A000884717E06149624802F0ECFD002804D188
:10D6B00001225E495B4802F067FF5D48FFF7A8FF63
:10D6C000002806D103206946087068465349096856
:10D6D0008847FFE773BDF4B588B004000E001F0053
:10D6E00008984E490860002E01D1072056E0726864
:10D6F00092B23168484802F099FD0500002D01D032
:10D7000028004BE0F26892B2B168494802F08EFD01
:10D710000500002D01D0280040E068464549202240
:10D72000FFF716FA60690690207C002803D10020DC
:10D730006946087502E00120694608756846077762
:10D74000607C002803D00E206946487502E0002066
:10D7500069464875E0680290A068039020680190CF
:10D7600060680090344A69462E4802F07DFE05004C
:10D77000002D01D0280011E000202B4908702068FE
:10D780000021C943884208D0264802F0FDFF01224B
:10D790002349244802F0BCFF00E0002009B0F0BD9E
:10D7A000F8B507002048057839001B4802F06AFDEB
:10D7B0000400EDB2002D0FD000201B49087001229B
:10D7C0001749184802F0A4FF0600009600980028A8
:10D7D00002D0009800F032F82000F2BD38B5040005
:10D7E0002100C9B2124802F03BFD0500002D10D106
:10D7F0000C4802F0E5FE00280BD10C490C4802F061
:10D8000041FD002805D101220849064802F0BCFE6E
:10D810000500280032BD0000783300206434002069
:10D82000BD34002008280020BE340020BC34002075
:10D8300088330020504C020019D6010010B584B086
:10D84000040068460C21FFF7FDF802946A460021A7
:10D85000014803F099F81FBD0140000038B50400ED
:10D86000002587480078854207DA20008549042290
:10D870006A43895888476D1CF3E731BDF0B591B014
:10D880000400012069460875142600256F462A0009
:10D8900031003800FFF7AEF8608869468880684636
:10D8A000808803F0B6FA694648802078002812D0B4
:10D8B000022846D021D3042870D063D3062800D193
:10D8C000A3E077D3082800D1C6E000D2C0E0092841
:10D8D00000D1C5E0C8E00720694608702079694694
:10D8E0000872002069464872002003906846807ADA
:10D8F0000121014368468172B9E00720694608703A
:10D90000207969460872002069464872A068039031
:10D910006846807A01210143684681725A4800684E
:10D9200000280DD058480068A168884208D100201E
:10D930005549086068468088544908800020039053
:10D9400095E0082069460870207969460872002031
:10D9500069464872A0680390E06804904A480068ED
:10D9600000280ED048480068A168884209D10020EC
:10D9700045490860C7480068401EC6490860002045
:10D98000039074E0072069460870207969460872A0
:10D990000120694648720020039068E0082069462B
:10D9A0000870207969460872012069464872A068AB
:10D9B00004905CE0092069460870B74800780028A8
:10D9C00022D0B64803F0A6FEB44988421CD1B34821
:10D9D00003F0A7FEB149884216D10020AE49087075
:10D9E000142600250BAF2A0031003800FFF702F89B
:10D9F0000B200BA90870A9480BA98880A7480BA980
:10DA000048800BA8FFF72AFF31E00A20694608701A
:10DA1000A0680290A0480078002818D000209E49F5
:10DA200008701426002506AF2A0031003800FEF7E2
:10DA3000E1FF0C2069460876984806A98880974837
:10DA400006A94880A068089006A8FFF707FF0EE027
:10DA50000020694608750AE005206946087006E05E
:10DA600006206946087002E000206946087568468D
:10DA7000007D002802D06846FFF7F0FE11B0F0BD2F
:10DA8000E2340020F433002090340020B43400202D
:10DA9000F0B587B0040001270120694608751420FD
:10DAA000069000256E462A0006993000FEF7A2FF78
:10DAB0006088694648802078012819D000D2D4E0D7
:10DAC000032839D01AD3052868D04FD3072800D1AE
:10DAD00085E077D3092800D1A1E000D28EE00B28A1
:10DAE00000D1A6E000D2A0E00C2800D1B9E0BCE053
:10DAF00000200700002069460875B9E0012069464A
:10DB000008702079002801D0012600E00026207945
:10DB1000012801D1012500E000253200D2B2BB4826
:10DB20000178608801F0E5FD2A00D2B2B84801789A
:10DB3000608801F0DEFD9BE00220694608702079D4
:10DB4000002803D001206946087202E002206946DD
:10DB500008720122AD480178608801F0CAFD22797F
:10DB6000AB480178608801F0C4FD81E0032069467C
:10DB70000870A7480178608801F0A6FD002803D04E
:10DB800001206946087202E0022069460872A07905
:10DB900069460873A0886946488169E09B48017816
:10DBA000608801F091FD002806D1022069460870C6
:10DBB00000206946087204E0002007000020694642
:10DBC000087555E003206946087000206946087210
:10DBD000A07969460873A0886946488148E0072013
:10DBE00069460870A08869468880072069460872DF
:10DBF0000020694648720020070039E00820694685
:10DC00000870A0886946888007206946087200204D
:10DC100069464872A06804900020070028E00620AA
:10DC2000694608706068029022E005206946087025
:10DC30001EE003206946087075480178608801F08D
:10DC400043FD002803D001206946087202E002204B
:10DC500069460872002069460873B44869464881DD
:10DC600006E004206946087002E000206946087555
:10DC7000FFB2002F04D0608803F04AF8694688801C
:10DC80006846007D002802D06846FFF7E7FD07B030
:10DC9000F0BD000094340020E1340020FFFF0000BC
:10DCA000F0B587B0040001251420059000266F46CA
:10DCB000320005993800FEF79DFE6088694688802D
:10DCC0006846808803F0A5F86946488020780028D7
:10DCD0000ED0022820D015D3042825D020D3062822
:10DCE00030D02BD3082834D030D3092835D03CE0AD
:10DCF0000720694608700020694648720820694676
:10DD0000087232E0072069460870002069464872B0
:10DD100008206946087228E00D206946087024E052
:10DD20000E206946087020E0072069460870002030
:10DD30006946487205206946087216E00F20694658
:10DD4000087012E01020694608700EE000200500FF
:10DD50000BE005206946087007E006206946087058
:10DD6000A0680290A08869464880EDB2002D02D0DC
:10DD70006846FFF773FD07B0F0BDF0B587B004004B
:10DD80002078002802D0012805D020E0E08800F0AB
:10DD9000F5F800901BE001221D480178608801F031
:10DDA000A8FC1426002501AF2A0031003800FEF738
:10DDB00021FE608801A94880608802F0A9FF01A9BE
:10DDC000888000206946087101A8FFF747FD07B069
:10DDD000F0BD10B504005F480078002808D020008E
:10DDE00002F0A6FE200003F037FF200004F054FAF2
:10DDF00010BD594859490880002059490860182029
:10DE0000024908701820024908707047E334002066
:10DE1000E434002010B504F079FC0400002C01D09B
:10DE2000032046E003F02EFA0400002C01D003206A
:10DE30003FE003F0E4FE0400002C01D0032038E0B2
:10DE400005F077F80400002C01D0032031E004F045
:10DE500063F90400002C01D003202AE005F04CFBFC
:10DE60000400002C01D0032023E002F033FF040063
:10DE7000002C01D003201CE0FFF7BBFF01F00EFCDB
:10DE80003849087037480078182801D1032010E07D
:10DE900001F004FC3449087033480078182801D197
:10DEA000032006E000203149087001203049087045
:10DEB000002010BD00B5010026480078002801D1DF
:10DEC000082011E02B480078032801DB04200BE038
:10DED0002948284A127804235A438150254800785B
:10DEE000401C244A1070002000BD38B504002048B2
:10DEF0000078002801D1082004E0200003F026FF6C
:10DF00000500280032BD70B504000E0018480078E6
:10DF1000002801D1082007E03100C9B2200080B2FA
:10DF200003F054FF0500280070BD0000011100003F
:10DF300038B505000C002100280080B203F020FF56
:10DF400031BD80B50A480078002801D004F0E0F91E
:10DF500001BD0000DF340020FFFF0000B4340020CA
:10DF600090340020E3340020E4340020E03400202A
:10DF7000DF340020E2340020F433002010B5040028
:10DF800090480078002801D1082003E0200080B2EA
:10DF900002F083FF10BD38B511480078002801D188
:10DFA00008201AE00120884908700E4803F0B2FBEF
:10DFB0000400A4B20B4884420ED0200080B2FFF7C8
:10DFC000DDFF0500002D01D0032006E0200080B217
:10DFD00003F0A0FB0400ECE7002032BD00000000CD
:10DFE000DF340020FFFF0000FFB585B075480078E2
:10DFF000002801D1082065E0744803F08BFB050080
:10E0000000200190724803C802AA03C2083A01A87E
:10E01000039002AA0621280080B203F089FB0400C5
:10E0200000270026F64369486946488067486946E4
:10E030000880072C01D1052044E0002C01D0052CDC
:10E040001ED1052C01D1002001900198B84203D3C4
:10E0500001980700684645800198B04203D20198B4
:10E06000060068460580280080B203F053FB0500D7
:10E0700002AA0621280080B203F05AFB0400DCE764
:10E08000ADB2524885421AD10020040005980028FC
:10E0900003D068464088059908800698002801D07A
:10E0A000069807600798002803D0684600880799FB
:10E0B00008800898002804D00898066001E0032032
:10E0C0000400200009B0F0BD80B5002300224149C2
:10E0D0004148FFF789FF002801D0052802D101211E
:10E0E0003E4A117001BDF0B589B004003548007892
:10E0F000002801D1082063E0394803C806AA03C2FA
:10E10000083A36480078002801D1FFF7DDFF334890
:10E110000078002803D033480068002802D011207E
:10E1200005004CE02C480088A4B284422BD1294839
:10E130000068002827D00020050014200090002649
:10E1400001AF320000993800FEF754FC0720694601
:10E150000871200080B202F05CFE01A9488001A88D
:10E160008480062001A90872002001A948720020BD
:10E17000049001A8807AFE21014001A8817201A8C3
:10E18000FFF76CFB1BE013480068401C1149086056
:10E19000144A06A9200080B203F0E2FA0500002D1F
:10E1A0000DD000200F4908600A480068401E094948
:10E1B0000860112D03D0042D01D003200500280094
:10E1C00009B0F0BDDF340020E1340020FFFF000083
:10E1D000984D020094340020B4340020E034002034
:10E1E000A04D0200903400200121C206D20E9140C1
:10E1F000A64A116070470121C206D20E9140C54A5D
:10E20000116070470121C206D20E9140C24A1160CE
:10E2100070470121C206D20E9140C04A116070477A
:10E22000F0B540B2002822D5994C40B20207120F37
:10E23000083A1500AD0804225543954A40B2030739
:10E240001B0F083B9B0804267343D258FF23860705
:10E25000B60F08277E43B3409A438B01DBB2860793
:10E26000B60F08277E43B340134363511CE0C44AF2
:10E2700040B203009B0804246343D258FF23840761
:10E28000A40F08256C43A3409A438B01DBB284079B
:10E29000A40F08256C43A3401343B94A40B20400BD
:10E2A000A40804256C431351F0BD00B5800701D1CB
:10E2B000012000E00020C0B200BD000000B5984978
:10E2C000002810D0AF4A126800BF00BF00BF00BFD7
:10E2D00000BF00BF00BF00BF8A4200D000BF401E89
:10E2E000F2D1BFF35F8F00BD10B50400A6480460F3
:10E2F00003211120FFF794FF10BD80B5802040025C
:10E30000A249086080204002A14908601120FFF75F
:10E3100080FF1120FFF768FF01209E4908602F2031
:10E32000FFF7CCFF0120BB49087001BD80B511206B
:10E33000FFF761FF8020400297490860802040027B
:10E34000964908600120B44908602F20FFF7B6FF06
:10E350000120B24908600020B14908602F20FFF772
:10E36000ADFF0020AB49087001BDC348006870478D
:10E37000401A0002000A7047C0490860704710B593
:10E38000BF490968002902D1BD4908602DE0BC4998
:10E3900009680968026891420DD3B949096809689A
:10E3A0000268891AB64A12681160B5490968C161E4
:10E3B000B349086019E004682300B14C24682100C7
:10E3C000AF4C24682200002A07D014689C4204D273
:10E3D00014681B1B1100D269F5E7002A02D01468EB
:10E3E000E41A14600360C261C86110BD30B5A44C6A
:10E3F000246821000B00002B04D0834202D01900B6
:10E40000DB69F8E7002B1ED0994211D19C4C24689F
:10E41000E4699B4D2C609A4C2468002C08D101249F
:10E420007E4D2C6000247E4D2C600124954D2C7077
:10E430001C682200DC69CC61CC692300002B02D06F
:10E440001C68A4181C6030BD80B51120FFF7DAFEEF
:10E4500001BD80B51420FFF7D5FE01BD70B50400E5
:10E46000C448006800280CD0A1696069C14A1268DC
:10E47000904705002E00002E02D03000FFF7DEF995
:10E4800002E0A0696169884770BD000000E100E01A
:10E490001CED00E0F8B57A480068002839D000206B
:10E4A0000600FFF762FF5E490968FFF761FF05009C
:10E4B000734800680400002C11D0206885420ED3F8
:10E4C00020682D1A206836182700E469387C002857
:10E4D000F1D0002038743800FFF7C0FFEBE7A64802
:10E4E0000078C949097888420BD1C7480078401C98
:10E4F000C5490870C4480078022802D10020C249EA
:10E500000870C248C0490978042251434650FFF7B9
:10E51000A0FFF1BD80E100E000E200E080E200E069
:10E520000024F40000B5010093480078B64A127840
:10E53000904220D090480078401C8F4A10708E483E
:10E540000078022802D100208B4A1070AF488A4A16
:10E55000127804235A4380580860314800680A68DA
:10E5600080182F4A10602E4800680002000A2C4ACA
:10E570001060012002E000200860002000BD0000C3
:10E5800000E400E024280020081501404413014065
:10E5900004130140001001404813014008130140DA
:10E5A00070B5C2480678364800680400BF48407815
:10E5B000F6B2864225D0BD484068F6B218217143B4
:10E5C0004518761CB9488078F6B2864201D1002001
:10E5D00006002878022802D0032804D010E06868DA
:10E5E000FFF704FFE2E726480068002807D0244828
:10E5F000006800210174C06921490860F3E7D5E78C
:10E60000D4E71F480068A04201D0012000E00020AC
:10E61000C0B270BDBA34002004100140081001409F
:10E620005C340020F0B50023154C2468002C22D067
:10E63000134E366834002668B04203D22668361A74
:10E64000266018E02668801B26689B190026266035
:10E650000B4E36683500E669094F3E60E668002ECD
:10E66000E2D0CE183602360A6660E668A660166802
:10E67000E6611560D8E7F0BD041501404015014082
:10E6800058340020BB340020F8B504003B48006833
:10E690000700002C05D185480078844949788842D4
:10E6A0005ED0002C03D02500E86904002BE07F48F1
:10E6B00040687E4909781822514340187B490978FF
:10E6C000491C7A4A117079490978784A92789142BE
:10E6D00002D10021754A117041680D0001780129AD
:10E6E00002D1297C002900D0D3E781686960C16824
:10E6F000A9600169E9604169A961C24909780029F5
:10E7000001D00021696068689D490968401A0002CB
:10E71000000A9C49884208D2994801686868FFF756
:10E7200027FEA968401828600EE0696894480068D0
:10E73000FFF71EFE0600A868864203D2A868801B69
:10E74000286001E000202860002068600020A860A8
:10E75000012028740020E8612800FFF710FE98E7E8
:10E7600006480068B84201D0012000E00020C0B295
:10E77000F2BD000060340020B8340020583400207E
:10E78000F1B582B0AF480068002839D0AD480068C4
:10E7900000680090FFF7E9FD060079480468210051
:10E7A0003000FFF7E5FD0500ED1CC64800780028A5
:10E7B00001D1FFF7A2FD0098854201D2009800E048
:10E7C000280024182402240A2000FFF7D5FDFFF7B3
:10E7D000CCFD019031002000FFF7CAFD0700310099
:10E7E0000198FFF7C5FDC01C87420BD2FFF7BDFDA6
:10E7F000FFF7C2FD2F20FFF761FDFFF725FE01E0C7
:10E80000FFF794FDF7BD0000B93400200834002064
:10E81000F0B583B000200090594800680500894891
:10E820000068060001A8FFF77DFE0700FFF7B8FEAD
:10E830000400FFB2002F06D06A4629000198FFF7B6
:10E84000F1FE012004000098FFF71EFF002801D010
:10E8500001200400E4B2002C02D03000FFF790FF4A
:10E86000002068490870F7BD97494870704730B577
:10E87000010095484078401C020093488078D2B24D
:10E88000824201D1002002008F480078D2B2824239
:10E8900001D1002009E00A708B4840688A4C6478F6
:10E8A00018256C4300190300180030BD0034002007
:10E8B000F7B504001F00002500206946087068466F
:10E8C00004F074FF00A8401CFFF7D1FF0600002EE3
:10E8D00002D1042005000EE0012030707460FFF7C3
:10E8E00044FDB0600198F06002983061776168463D
:10E8F0004078FFF7B9FF6846007804F05DFF002D0F
:10E9000001D1FFF7A6FD2800FEBDF8B504000F00F9
:10E910000025002069460870684604F047FF00A8FB
:10E92000401CFFF7A4FF0600002E02D104200500C2
:10E9300005E03770746068464078FFF795FF6846D9
:10E94000007804F039FF002D01D1FFF782FD280087
:10E95000F2BD80B500205D49086000205C49086078
:10E9600000205C49086000205B49086000205B498A
:10E97000086000205A490860FFF78CFD01BD0000C7
:10E980005C340020FFFF7F0080B5FFF741FF01BD31
:10E99000F8B505000C0016001F003000FFF785FCDD
:10E9A000002801D107202CE0002E01D1072028E00B
:10E9B000FFF7BCFC4B48076000204349087000206B
:10E9C00041494870404884703F48466000201D49D6
:10E9D0000860002044490870002044490870142051
:10E9E000FFF717FC03211420FFF71AFC1420FFF790
:10E9F000FBFB2800FFF778FCFFF7B7FC3C490860F9
:10EA00000020F2BDBB34002010B503002E48406842
:10EA1000002801D1082014E01000002801D10720AF
:10EA20000FE0002B01D107200BE01868007C0028C4
:10EA300001D0082005E01C68002020746174626128
:10EA4000002010BD58340020F8B506000F00150056
:10EA500000961D484068002801D108201AE0002EC9
:10EA600001D1082016E0052F01D2072012E00098FE
:10EA70004069002801D108200CE00098407C012862
:10EA800001D13C0000E000242B0022003900009856
:10EA9000FFF70EFFF2BD38B5040025000A484068B4
:10EAA000002801D108200CE0002C02D06869002861
:10EAB00001D1082005E00020287402212800FFF77A
:10EAC00024FF32BDBA340020003400204011014040
:10EAD00044110140481101404C1101400011014016
:10EAE0000411014060340020B8340020B934002003
:10EAF0005C34002000B501004888A14A1288904289
:10EB000006D39F4840884A88904201D3012000E004
:10EB1000002000BD38B50400864800888649884238
:10EB20003BD086480078401C844908709548007B9B
:10EB30008249097888420FD381497E48008875DF71
:10EB40000500002D29D08F488069002825D0280095
:10EB50008C498969884720E00020784908708948F5
:10EB6000007C00280ED03B217248008876DF05002B
:10EB7000002D07D083488069002803D028008149F0
:10EB8000896988477F484069002806D00020694687
:10EB9000087068467B494969884731BD38B504002B
:10EBA000784821001C22FDF7D3FF00207649087029
:10EBB000206800280BD0624821680822FDF7B4FFC6
:10EBC0005F487ADF0500002D08D0280011E05C487E
:10EBD0007BDF0500002D01D028000AE0564855498A
:10EBE0000880002055490870684A00216848FFF7EE
:10EBF0000BFF32BD30B583B06648FFF77BFF0028BE
:10EC00002CD16148007800280BD05E48406900286C
:10EC10002FD000206946087101A85A4949698847E0
:10EC200027E046480078002803D156484068050090
:10EC300002E054488068050000222900544800681A
:10EC4000FFF702FF0400002C13D04E488069002813
:10EC50000FD020004B49896988470AE0494840693C
:10EC6000002806D001206946087068464549496970
:10EC7000884700204449087037BD10B50400A088BB
:10EC80002C4908804348210018310822FDF74CFF29
:10EC900000202A4908703B48C089002801D1FFF7AD
:10ECA000A9FF10BD38B50400234822490880002080
:10ECB0002249087036480068FFF7EDFE0500002D78
:10ECC00007D030488069002803D028002D49896981
:10ECD000884731BD70B505002C00A41D2088294946
:10ECE000C98988421AD16089022817D120000C30C6
:10ECF00004F06FFD002802D0FFF77CFF0EE02448EF
:10ED00000068FFF7C8FE0600002E07D01D48806986
:10ED1000002803D030001B498969884770BD10B5B1
:10ED200004001C48210008310822FDF7FDFEFFF712
:10ED300061FF10BDAE340020FFFF0000C63400208C
:10ED40002034002010B504002088102806D0112897
:10ED500008D012280ED0502808D00FE02000FFF76E
:10ED60008CFF0BE02000FFF79DFF07E02000FFF77E
:10ED7000B1FF03E02000FFF7D2FFFFE710BD000066
:10ED8000203400202C330020C734002015EB010074
:10ED9000B04D020028340020F8B5050000260024FC
:10EDA000EDB2002D37D0022D41D040D3042D00D13B
:10EDB000BFE07DD3062D00D13DE100D2FBE0082D60
:10EDC00000D174E100D25FE10A2D00D19DE100D2B3
:10EDD00083E10C2D00D1D5E100D2ACE10E2D00D1A4
:10EDE000D9E100D2D7E1102D00D1D4E100D2D2E197
:10EDF000122D00D10FE200D2CDE1142D00D123E27B
:10EE000000D211E2162D00D13EE200D22CE2172DE5
:10EE100000D139E241E2D4480068D4498143D44862
:10EE200001600020D3490860D348057035E2CE4820
:10EE30000068D2498143CE4801600020CD49086076
:10EE4000CF480068C949414088040FD5802080011F
:10EE5000C74908600020C7490860EDB2022D02D101
:10EE6000E124E40010E0FA2424010DE08020800178
:10EE7000C04908600020BE490860EDB2022D01D1F2
:10EE8000C82401E0C8246400BB4805700022009239
:10EE9000D84801680F0020006421FDF7EEFD39001D
:10EEA0004143009AD4480068FFF7CEFD0600F4E124
:10EEB000AD480068B1498143AD4801600020AD49CB
:10EEC0000860AF480068A949414088040FD58020F8
:10EED0008001A74908600020A6490860EDB2032D13
:10EEE00002D1C824A40010E0FA2424010DE08020FF
:10EEF0008001A049086000209D490860EDB2032D03
:10EF000001D1C82401E0C82464009B480570002298
:10EF10000092B84801680F0020006421FDF7ADFDA4
:10EF200039004143009AB4480068FFF78DFD0600A0
:10EF3000B3E18D480068914981438D48016000200C
:10EF40008C4908608E4800688849414088040FD584
:10EF50008020800186490860002086490860EDB263
:10EF6000042D02D1FA24240111E0FA2424010EE038
:10EF7000802080017F49086000207D490860EDB253
:10EF8000042D02D1C824640001E0C82464007A483A
:10EF9000057000220092974801680F00200064214C
:10EFA000FDF76BFD39004143009A93480068FFF775
:10EFB0004BFD060071E16C480068704981436C4864
:10EFC000016000206B4908606D4800686749414056
:10EFD00088040ED5802080016549086000206549BD
:10EFE0000860EDB2052D01D1C82410E0FA242401F7
:10EFF0000DE0802080015F49086000205C490860C6
:10F00000EDB2052D01D1C82401E0C82464005A489E
:10F01000057000220092774801680F0020006421EB
:10F02000FDF72BFD39004143009A73480068FFF754
:10F030000BFD060031E14C480068504981434C48C3
:10F04000016000204B4908604D4800684749414035
:10F05000880407D580208001454908600020454983
:10F06000086006E080208001424908600020404995
:10F0700008604148057000225E4801685E480068EB
:10F08000FFF7E2FC060008E1374800683B4981438E
:10F0900037480160002037490860802080013549E9
:10F0A000086000203249086033480570F5E03449B3
:10F0B000096808008021C90181432D4A116080211F
:10F0C000C90108402B49086000224A4801684A48A3
:10F0D0000068FFF7B9FC0600DFE02949096808006D
:10F0E0008021C9018143224A11608021C901084061
:10F0F0002049086000223F480168052041433E48FE
:10F100000068FFF7A1FC0600C7E01D490968080078
:10F110008021C9018143164A11608021C90108403C
:10F120001449086000223348016833480068FFF73B
:10F130008BFC0600B1E01249096808008021C90172
:10F1400081430B4A11608021C901084009490860C8
:10F150000022284801680520414327480068FFF73E
:10F1600073FC060099E000BF7C34002000E0000141
:10F17000080500500C050050C834002000C00001F4
:10F180000405005078487949086000204B49086020
:10F190007748057081E077480068FFF77CFC06003F
:10F1A0001120EDB2401B0400002C27D0002E25D1E9
:10F1B0008020000242490860022C11D300220092F4
:10F1C0000C4801680F00C82060436421FDF755FC1E
:10F1D00039004143009A67480068FFF735FC060094
:10F1E00037480068604901406048016000203349A9
:10F1F00008600FE074340020B44D0200304800680D
:10F20000594901402D4801600020584908600020FC
:10F210002B49086041E054482849086000205349C0
:10F2200008605348057038E05348244908600020BE
:10F230004E490860802080014C49086000201F4929
:10F2400008604B48057028E04C481C4908600020C5
:10F25000464908608020C0014449086000201749E1
:10F2600008604348057018E04548144908600020CC
:10F270003E490860C020C0013C49086000200F4999
:10F2800008603B48057008E03748384908600020AE
:10F290000A49086036480570FFE73000F2BD38B50E
:10F2A0000400002537480078C00704D52000C0B20C
:10F2B000FFF772FD0500280032BD00000805005070
:10F2C0007C34002030B503000020042B23D2D2B2BE
:10F2D000012A06D1C9B2012902D11A000D3200E07B
:10F2E0000022C9B200290DD0022905D010D2264C27
:10F2F00003255D43625510E0234C03255D436419EB
:10F3000062700AE0204C03255D436419A27004E09A
:10F310000724200001E00724200030BD70B5010063
:10F32000002004281ED2194A194B042444431B59B7
:10F3300004246343D2580B00C340DB0701D50323E9
:10F3400000E000231400134A224014001A04224350
:10F350000E4C0F4D04264643AD59042675436251A9
:10F36000401CDEE7002070BD00E000010C050050ED
:10F37000C8340020B84D020000C0000100A0000108
:10F380000080000178340020D033002000070050B6
:10F39000D84C0200FFFFFCFF10B501220021002025
:10F3A000FFF790FF0400002C03D0072C01D02000B1
:10F3B00018E0072202210120FFF784FF0400002C3F
:10F3C00003D0072C01D020000CE0042202210020F1
:10F3D000FFF778FF0400002C03D0072C01D0200099
:10F3E00000E0002010BD10B5012202210020FFF72F
:10F3F00069FF0400002C03D0072C01D0200018E086
:10F40000072202210120FFF75DFF0400002C03D03A
:10F41000072C01D020000CE00A2200210020FFF779
:10F4200051FF0400002C03D0072C01D0200000E085
:10F43000002010BD80B50320FFF770FF01000029F8
:10F4400003D0062901D0080000E0002002BD38B535
:10F4500004002088102802D0112817D02DE017486A
:10F46000006800280CD1FFF797FF0500002D07D09A
:10F4700013480068002803D028001149096888470C
:10F480000E480068401C0D49086016E00B480068F3
:10F49000401E0A4908600948006800280CD1FFF79F
:10F4A000A2FF0500002D07D005480068002803D002
:10F4B0002800034909688847FFE731BD84340020EC
:10F4C0008034002038B504007048017DC843C0B2C4
:10F4D00004F0A1F90500ADB26D48854215D06B4826
:10F4E000ADB202216943401884800123220092B208
:10F4F00068498B4804F0A6F90123220092B26649BC
:10F50000874804F09FF9012000E0002032BD10B5CB
:10F5100082B004000020009023009BB21D225E49AF
:10F520007F4804F09EF913BD10B5040000232200AB
:10F5300092B258497A4804F085F910BD10B586B0EA
:10F540005248407D51490A7D8243D2B2744968468F
:10F5500004F0CEF900240098844208D268460221C3
:10F56000614340188088FFF7D2FF641CF3E706B0C0
:10F5700010BD74490968C1400800C007C00F70473A
:10F5800070490968012282400A436E490A60704747
:10F5900038B505002888102804D011281BD01A2857
:10F5A0001DD03AE0FFF7CAFFA888FFF78BFF0028BD
:10F5B00003D10420FEF742F90CE0A87D022801D116
:10F5C000012400E000242300DBB2AA885E495448ED
:10F5D00004F038F921E0A888FFF7A6FF1DE0287A9B
:10F5E000C0B20009C0B2022801DB012300E0002301
:10F5F000DBB2AA8855494A4804F024F9287AC0B2F7
:10F600000009C0B2032801DB012300E00023DBB2C4
:10F61000AA884F49424804F015F931BD38B50500B4
:10F6200000242A0092B21948017D3D4804F047F9B0
:10F6300000280CD02A0092B21448817D384804F08A
:10F640003EF9C0B2002801D0022400E001242000CD
:10F65000C0B232BD10B50400220092B20B48C17D89
:10F660002F4804F02CF910BD10B50400220092B20E
:10F670000648017E2A4804F022F910BD80B50349EE
:10F680000A7D274904F034F902BD0000B83100209A
:10F69000FFFF0000CD310020CC31002010B5002448
:10F6A000E4B2182C0EDA2000C0B2FFF762FF002887
:10F6B00006D12000C0B2FFF763FF2000C0B202E015
:10F6C000641CEDE7182010BD38B505000C002000C3
:10F6D000C0B2FFF74EFF002809D02A0092B21948A5
:10F6E000E4B20019417E0E4804F0E9F800E0002081
:10F6F00032BD70B506000D0014002800C0B2FFF73F
:10F7000038FF00280AD02300DBB2320092B20D4845
:10F71000EDB241191931024804F094F870BD0000AF
:10F72000BC31002010B504002000C0B2FFF721FF5B
:10F73000002804D00348E4B20019407E00E0002015
:10F7400010BD0000B8310020CE310020CF310020A4
:10F75000D0310020F1B40598069CC9B2D2B2550050
:10F760000D43DBB29E002E43C0B205023543E4B226
:10F7700027042F43334DAC46009E04256E43654657
:10F78000AF51F1BC70471CB504000020019000206F
:10F7900000900023012201212000FFF7DBFF13BDB1
:10F7A00030B583B005000C000020019003200090CC
:10F7B0002300DBB2002200212800FFF7CBFF37BD7A
:10F7C0008A880280704770B504000D002E00B61DB7
:10F7D00070881D49884210D1307BAA2809D1152094
:10F7E000FFF7D1FF00201949086000201849086080
:10F7F00003E000211520FFF7D3FF708815498842E8
:10F8000008D11520FFF7BFFF002011490860002034
:10F810000E49086070BD38B505000C00208810281E
:10F8200004D0112807D0502806D00AE02100280073
:10F83000FFF7C6FF05E004E021002800FFF7C3FF43
:10F84000FFE731BD00070050F1FF00000805005040
:10F850000C050050F2FF000000B585480079002833
:10F8600003D18348007B002801D0012000E0002064
:10F87000C0B200BD00B501000020062806D20A5C17
:10F88000002A01D0012002E0401CF6E7002000BD64
:10F8900000B5C0B2401C0521FDF7ECF80800C0B26D
:10F8A00000BD00B5817D012902D18188714A118096
:10F8B00000BD38B5040000206F490870A0886D496C
:10F8C000098888420DD1012000F0CCF90500002DF7
:10F8D00007D06A480068002803D0280067490968F3
:10F8E000884731BD38B50400207A002811D164481A
:10F8F0000078FFF7CDFFC0B200F0B4F90500002D8D
:10F9000007D05E480068002803D028005B490968DA
:10F91000884731BD80B56846FDF724F80098002877
:10F9200001D0012000E00020C0B202BD10B50400EB
:10F930005448FFF79FFF0100E4B2012C06D01DD30D
:10F94000032C0FD008D3042C12D017E0B74840780E
:10F95000084201D0012012E0B4488078084201D06A
:10F9600002200CE0B148C078002801D0032006E056
:10F97000AE480079002801D0042000E0002010BD2E
:10F9800001000120AA4A1070AA48486001200870AE
:10F9900000204882002008820020704701000220D9
:10F9A000A34A1070A3484860012008709F48C068AF
:10F9B00048829E48806808820020704738B504005D
:10F9C0009A48006920829948406960829748007887
:10F9D0002949097801224A40104217D0FFF73CFF1D
:10F9E000002813D02248E0600220207204209249AF
:10F9F000C8700021904804F01FFB0500002D01D0C5
:10FA0000280007E005208A49087002E003208849A1
:10FA10000870002032BD38B5040084488069208217
:10FA20008248C069608281480078134909780122C0
:10FA30004A40104217D0FFF70FFF002813D00C48A0
:10FA4000E0600220207204207B49C87000217A48BF
:10FA500004F0F2FA0500002D01D0280007E006208E
:10FA60007349087002E0042071490870002032BD1B
:10FA7000F8270020AC340020C4340020703400206B
:10FA8000C234002019340020FAB585B004001500F6
:10FA9000002C01D0002D01D10E20C4E001206749C7
:10FAA0000870002066490870604829002022FDF790
:10FAB0004FF80698634908600C98634908606348EA
:10FAC000634908800720039000200290594E029A53
:10FAD00003993000FCF78EFF382001900026564F26
:10FAE000320001993800FCF785FF207852490870F0
:10FAF000A07851498870E0784F49C87060784E49C5
:10FB000048702000103003C8524A03C2083A20004F
:10FB1000083003C8504A03C2083A2000183003C80E
:10FB20004E4A03C2083A606A00281CD0A6484249DF
:10FB30004862A648A4498860606A00883E49496ACC
:10FB40000880606A80883C49496A888000203A4978
:10FB5000496A8988884206D2616A8968095C9B4A39
:10FB60001154401CF3E7A06A002824D09848994912
:10FB7000886098483049886295482F49896A88602A
:10FB8000A06A80882C49896A8880A06A00882A49EE
:10FB9000896A088000202849896A8988884206D2B3
:10FBA000A16A8968095C8A4A1154401CF3E72C2039
:10FBB000205CA4490870206A00280CD0A2481E4985
:10FBC0000862206A40881C49096A4880206A0088C7
:10FBD0001949096A08806068002802D060681649DF
:10FBE0004860002008280ADA984907224243891809
:10FBF0001B4A126804234343D150401CF2E7002003
:10FC000008280ADA9249102242438918144A926855
:10FC100004234343D150401CF2E70599064804F001
:10FC20000BFA0090009807B0F0BD0000EC31002006
:10FC3000C13400201834002048310020BF34002097
:10FC4000C23400206C34002070340020FFFF00001C
:10FC5000AC340020583100205031002060310020A9
:10FC6000F8270020F0B587B004007A480078002813
:10FC700001D10820A5E078480470FFF74BFE00286A
:10FC800004D001207549087000209AE0072500265D
:10FC9000734F320029003800FCF7ACFE7148407801
:10FCA000002803D06C48007801280FD06D48807878
:10FCB000002803D068480078012807D06948807878
:10FCC000002812D06448007802280ED166480068E7
:10FCD000002807D00120654908700820624909689A
:10FCE000884702E00020614908702000C0B2FFF799
:10FCF0001DFE594908705C480068002817D0564816
:10FD00000078032803D05448007804280FD15548C0
:10FD100000785749097801224A40104207D0012053
:10FD200054490870072050490968884702E00020BC
:10FD3000504908701825002601AF3200290038000C
:10FD4000FCF758FE002069460871002001A90872DE
:10FD50004148007800281AD0022809D003D304288B
:10FD600010D00AD317E001A8FFF70AFE009012E0B6
:10FD700001A8FFF713FE00900DE001A8FFF71EFE9B
:10FD8000009008E001A8FFF746FE009003E0002085
:10FD900039490870FFE730480078002807D001A8EB
:10FDA00073DF00900098002801D0009809E02E48E9
:10FDB0000068002804D0304800782B49096888473B
:10FDC000002007B0F0BD0000B83300200C32002046
:10FDD0002C320020C433002010B5040020881028E5
:10FDE00004D0112806D01B2808D00BE02000FFF714
:10FDF00058FD07E02000FFF75CFD03E02000FFF75F
:10FE000071FDFFE710BD38B504002000801E0128F9
:10FE100016D812480078002811D000200F49087029
:10FE20000D480078FFF71EFF0500002D07D013488E
:10FE30000068002803D02800104909688847FFE7B8
:10FE400031BD000074310020683400208031002072
:10FE5000542D0020BF340020C2340020C0340020C4
:10FE600018340020EC3100206C340020C334002012
:10FE7000C4340020C5340020C13400207034002078
:10FE80000121C206D20E9140984A116070470121AB
:10FE9000C206D20E9140964A1160704700B540B23A
:10FEA000002812D5744940B20207120F083A92088E
:10FEB00004235A4389588007800F08225043C140C9
:10FEC000080080098007800F0FE0904940B20200CF
:10FED000920804235A4389588007800F0822504310
:10FEE000C140080080098007800F00BD00B5800771
:10FEF00001D1012000E00020C0B200BD00B501002A
:10FF000049B2202905DA914ACA401000C007C00F43
:10FF100000E0012000BD00B50100042901D300204C
:10FF200006E0002901D0022901D1002000E00120D3
:10FF300000BD10B50400200040B2FFF7DFFF00282D
:10FF400001D1834826E0200040B2FFF7A7FFFFF76A
:10FF5000E2FF002801D17F481CE07F48406800286C
:10FF600013D07D4864B2210049090422514340580E
:10FF70000121E206D20E91400143774864B222008B
:10FF8000520904235A43815003E0200040B2FFF796
:10FF900077FF002010BD554940B2020052090423EA
:10FFA0005A438958C006C00EC1400800C007C00FA0
:10FFB000704770B504000E0015002A0031002000C3
:10FFC00000F0E2FC70BD7CB57C48007800284DD084
:10FFD00000267B480068002801D1012400E00024AD
:10FFE000F6B2002E1CD17748007800283ED1684632
:10FFF00052DF0500052D02D10120060010E0002D82
:020000040002F8
:1000000003D02800FDF71AFC0AE0009804F0EEF88F
:100010006D480068002803D000986B49096888473C
:10002000E4B2002C1CD16748007800281ED1674834
:1000300000886946888001A96548006861DF05007D
:10004000052D02D1012004000AE0002D03D0280074
:10005000FDF7F4FB04E05E480068594909688847E9
:10006000F6B2002EBCD0E4B2002CB9D073BD534818
:1000700000787047000000001CED00E0FEB50600AF
:100080000C00002C01D107202FE02000FFF72EFFED
:10009000002801D1072028E04D4804606846808888
:1000A0004A49088002984B4908600020FFF773FF17
:1000B0000500EDB2002D02D00020FFF7E8FE464912
:1000C000300010DF0700002F07D0EDB2002D02D066
:1000D0000020FFF7D5FE380007E0012037490870FF
:1000E00004F08CF81620FFF724FFFEBD00E100E0CD
:1000F00080E100E000B501000800002801D10E20D9
:1001000002E02F480160002000BD000000E400E094
:1001100000B501000800002801D10E2002E02A48A5
:100120000160002000BD38B52A48006800280AD0C8
:1001300028480068804704002500002D02D02800D0
:10014000FDF77CFB01E0FFF73EFF31BDFC06FFBC85
:10015000012000000220000010340020F1B50C0046
:100160001500142600273A0031002800FCF742FC55
:100170000120288000202861287BFE21014029736E
:100180002C72684600786872687A002801D00120D5
:10019000A8720020F2BD00B583B002000F480090A5
:1001A0000098019001A9100060DF030001980099F8
:1001B000884200D1002B18000EBD0000E83400205A
:1001C000A4340020E9340020A8340020B6340020F4
:1001D000A03400209C340020B3FF0100E81F002061
:1001E0008168C068401A704710B40268C368848888
:1001F0002340D154C268521CC26010BC704730B456
:100200000368846889B2641885882C401B5D13706C
:1002100030BC704738B504000D002A0000212000D2
:10022000FFF7EDFFA068401CA06031BD00B50300E2
:10023000002901D10E2012E092B2002A05D092B21C
:10024000501E92B21040002801D0092007E019602A
:10025000501E9880002098600020D860002000BDCB
:1002600038B505000C002800FFF7BAFFA9888142C5
:1002700006D32100C9B22800FFF7B6FF002000E036
:10028000042032BD38B505000C002800FFF7A8FF98
:10029000002805D021002800FFF7BCFF002000E067
:1002A000052032BD002209B24250704700B509B2A4
:1002B0004058002801D0012000E00020C0B200BD5D
:1002C000C12292008150704700B5C122920080582F
:1002D0000140002901D0012000E00020C0B200BD93
:1002E000C22292008150704701009020C00008583F
:1002F0009022D200885070470421A022D200815061
:1003000070476F4BC1506F4BC2507047A123DB0049
:10031000C150A223DB00C2507047A321C90040583E
:10032000C0B27047C9B2974A815070470122C9B222
:100330004250704710B4C9B2D2B213000B439E4C66
:10034000035110BC70479D4A81507047010008005E
:10035000000B40B27047F1B40598069CC9B2D2B206
:1003600055000D43DBB29E002E43C0B2050235435B
:10037000E4B227042F43994DAC46009E04256E43FA
:100380006546AF51F1BC70471CB5040000200190D8
:10039000002000900023012201212000FFF7DBFF55
:1003A00013BD30B583B005000C0000200190032080
:1003B00000902300DBB2002200212800FFF7CBFFD2
:1003C00037BD01218140864A1160704738B505006C
:1003D0000C002068FFF7F5FF2068FFF7D5FF00212C
:1003E0006068FFF7DEFFA1692868FFF7ACFF227D98
:1003F000617D2868FFF79EFF626821682868FFF723
:1004000080FF207D01280ED10021A068FFF7C9FFE1
:10041000E068FFF7D6FFE068FFF7B6FFA268E16883
:100420002868FFF773FF31BD38B504000D008E2139
:1004300049002068FFF736FFA22149002068FFF736
:1004400031FF68492068FFF73BFF2068FFF77EFF18
:100450002900C9B240B203F04DFF31BD10B5040010
:100460002068FFF749FF10BDF8B504000E00170023
:10047000A64821791C2251434518E87E002801D066
:1004800008201BE031002000FFF7A0FF6F603069FB
:1004900028606868002803D0317F2000FFF7C4FF80
:1004A0002000FFF7DBFF0020E87500202876002001
:1004B000A8750120E8760020A8760020F2BD000093
:1004C0000C0500001405000070B504000D008E211D
:1004D00049002000FFF7E6FEA868A98A465CA88AC2
:1004E000401CA8823100C9B22000FFF71BFF70BD7D
:1004F00070B50400854821791C2251434518002617
:100500008E2149002068FFF7CDFE08212068FFF703
:100510000DFF29002068FFF7D7FF686800282FD15A
:10052000A88AA97D89B2884215D28E214900206807
:10053000FFF7BCFE002804D1A88A80214900884228
:10054000F3D1A88A802149008842E9D02900206897
:10055000FFF7BAFFE4E7A88A80214900884202D168
:100560000F2006000AE08E2149002068FFF79EFE5A
:100570000028F8D00C212068FFF7D8FE0020A875CD
:10058000300070BD1C050000F8B504000F00150018
:100590005E4821791C2251434618200000F010F8D3
:1005A000002801D0112006E0B575B7600020B082A8
:1005B0002000FFF79DFFF2BD6C0500002405000040
:1005C00000B5524900791C2250430818807D00284C
:1005D00001D0012000E00020C0B200BD00070050A3
:1005E000080500508000020010B504009221490067
:1005F0002068FFF757FE842149002068FFF752FE6C
:1006000000212068FFF792FE10BD70B504000D00B8
:10061000E87D002808D1842149002000FFF742FE30
:100620002000FFF77AFE0EE0842149002000FFF74A
:1006300039FE6E7E2000FFF770FEE968F6B288553D
:10064000687E401C687670BDFEB582B004002F48FD
:1006500021791C2251434518A87E6946097C014333
:10066000C9B2002902D12000FFF7BEFF6868002848
:1006700044D1A22149002068FFF714FE92214900CD
:100680002068FFF713FE0600842149002068FFF769
:100690000DFE69460870A22149002068FFF706FE9A
:1006A00007006846007838433043C0B20028E5D0E0
:1006B00038003043C0B2002807D129002068FFF776
:1006C000A4FF687EE97D8842D8D30020E875F6B2A1
:1006D000002E01D0032017E0FFB2002F01D00F2021
:1006E00012E0A87E002804D000212068FFF71EFE3B
:1006F00009E004212068FFF719FE04E08121890048
:100700002068FFF7DDFD002005B0F0BD4833002074
:10071000F4B506000F00934831791C225143451867
:1007200000246868002804D0812189003068FFF720
:10073000D7FDE87D00280ED0287E002809D0686803
:10074000002804D0812189003068FFF7B9FD11200D
:1007500019E001200400E4B2002C08D168460078BA
:10076000E875EF60002068760020287603E02F61AE
:100770006846007828762300DBB2684602783900A4
:100780003000FFF761FFF2BD10B504007548217914
:100790001C2251434018807E002809D12000FFF719
:1007A00023FF704821791C22514340180121817692
:1007B00010BD7FB504000D001600012069460870C9
:1007C00068460572019621686846626890477FBD59
:1007D00030B585B004000D000020694608706846F9
:1007E0000572A06801900020A075216868466268C3
:1007F000904705B030BDF0B585B005000C008021F4
:1008000089002800FFF760FD00282CD092214900C4
:100810002800FFF74BFD002825D092214900280031
:10082000FFF740FD812189002800FFF759FDA07ED8
:10083000002803D104212800FFF778FD0220694633
:1008400008702800FFF750FD0390E07D69460872AC
:10085000E06801900020E07500202076216868465D
:10086000626890473BE004212800FFF72DFD002837
:1008700035D0842149002800FFF718FD00282ED02C
:1008800021002800FFF7C1FEE07D617E884226D16D
:10089000207E002810D0E768667E207EE075206903
:1008A000E06000202076002060763A003100C9B276
:1008B0002000FFF77EFF12E0A07E002803D1042174
:1008C0002800FFF733FD812189002800FFF708FD8C
:1008D0000020E075E268617E2000FFF76AFF8E214C
:1008E00049002800FFF7E2FC002815D0A08AA17D6E
:1008F00089B2884204D221002800FFF7E5FD0BE011
:100900008E2149002800FFF7CDFCA07D002803D0F0
:10091000A17D2000FFF75CFFA22149002800FFF71E
:10092000C5FC002815D0A22149002800FFF7BAFC19
:10093000A07E002803D000212800FFF7F7FCE07D0F
:10094000002806D00020E075E268617E2000FFF7F5
:1009500030FF05B0F0BD80B502490348FFF74BFFFB
:1009600001BD0000483300200020004000B5BFF367
:100970004F8F034803490860BFF34F8F00BFFDE767
:100980000400FA050CED00E070B504000D0016003F
:10099000FFF7ECFF70BD30B4012100220368001D99
:1009A000002B0BD00468001D0C4202D04D466D1E7A
:1009B00064192260241D1B1FF0D0FAE730BC704779
:1009C00000B51820894908700020082807D28849F6
:1009D000884A0C234343D2185180401CF5E700BDE0
:1009E00038B504000025022D07D2200082490422D8
:1009F0006A43895888476D1CF5E731BD10B500245E
:100A0000082C0FD2794801787A480C22624380186A
:100A10004088FEF759FE002802D12000C0B202E053
:100A2000641CEDE7FF2010BD10B504006F4801788D
:100A3000200080B2FEF748FE00280ED000200828D3
:100A40000BD26C490C22424389184988A4B2A142B6
:100A500001D1C0B202E0401CF1E7FF2010BD70B52B
:100A600005000E00FF24002E2ED0ADB26048854256
:100A70002AD001225D480178280080B2FEF739FEB5
:100A8000280080B2FFF7D0FF0400E4B2FF2C02D1AF
:100A9000FFF7B4FF0400E4B2FF2C15D05548E4B2D0
:100AA0000C2161434018458051485249E4B20C2260
:100AB000624388524F48E4B20C2161434018001D44
:100AC00031000722FCF730F82000C0B270BD00B53D
