:1000000078080020010D0000570D0000C70D00000A
:1000100000000000000000000000000000000000E0
:10002000000000000000000000000000D30D0000F0
:100030000000000000000000ED0D0000EF0D0000CA
:10004000A9060000F10D0000F30D0000F50D000001
:10005000F70D000000000000FD020000F90D000097
:10006000FB0D0000FD0D0000FF0D0000010E000063
:10007000030E0000050E0000070E0000090E000030
:100080000B0E0000250900000D0E00000F0E0000F1
:10009000110E0000130E0000150E0000170E0000D8
:1000A000190E00001B0E0000000000000000000000
:1000B0000000000000000000000000000000000040
:1000C0007D494058012800D00020704700217A4A1D
:1000D0008150704752000A4399001143009A12025E
:1000E0000A43019909041143794A8000115070476D
:1000F000774A800010180268764B1340036002684C
:100100000904114301607047012181407248016078
:100110007047012181407148016070470021C94347
:100120006F4A1018017570476D4908181421405620
:1001300070476B4980000858704771B581B0002046
:10014000C0430425002A02D10424052500E0002430
:10015000644B00E0641CAC4211D2A6009E190096CC
:1001600036688642F6D1019D5D192C7500980160B4
:10017000002A03D10198191930310870200040B2CB
:1001800076BD58490022D2438300CA50042802DBBE
:10019000081830300270704770B5514C3520205C23
:1001A000002801D0082070BD002500263000FFF790
:1001B000B5FF761C202EF9DB2800FFF7E2FF6D1C4F
:1001C000052DF9DB0321062000F03CF9BE2040009C
:1001D000FFF77CFF8020000643490860012035348A
:1001E0002070002070BD41480078002800D0012018
:1001F0007047F0B583B006000D0000243848801920
:100200000027FF4314214156B94201D008243DE0A4
:10021000A978002909D10121C9430175687801280D
:1002200029D13000FFF770FF28E0012200213000C3
:10023000FFF783FFB8421CD069782A78234B8000EF
:100240001B1818682B4F07401F6018688446370238
:10025000F820400138401704C02292023A4002437D
:1002600009058020400301401143604601431960A5
:10027000D4E704240AE03000FFF74BFF0194009418
:100280000023012201213000FFF724FF2000FEBDE2
:1002900013490818142140561549800008180268AF
:1002A00003211143F82252010A43026000BF00BF3C
:1002B00000BF0160704700000060004080B5FFF79C
:1002C00033FF8006000E0C49401802BD1065004047
:1002D00000070050FFFFFCFF080500500C05005010
:1002E00004000020040000200463004039000020C6
:1002F00010650040FFE0ECFF00600040FEB5002408
:100300000294802676000125042730B2FFF7D8FE3C
:10031000002807D049480068284003D030B2FFF7D2
:10032000D5FE2C436D00361D7F1EEED1BE256D001F
:100330002800FFF7C5FE002809D02800FFF7C6FEF9
:1003400020008024240604433B48006802902007D4
:100350001AD001250020009025420FD0384800997E
:1003600089004018076806680098FFF7E2FE02005F
:1003700004D0B003810FF804C00E90476D000098C0
:10038000401C00900428E7D3002C4FD50026002005
:10039000C04301E0029030000024264934228A56EE
:1003A000D1B20B00C025AB4300930023DB439A423C
:1003B0003CD0009AD040C00738D50806800F019085
:1003C0000098FFF7B1FEFFF7B4FE070002D10198D5
:1003D00003282BD10125009885400198032800D1DE
:1003E0002E4313480099890040588003800F0299DA
:1003F000294002D0022819D101E0032816D1019921
:10040000032906D1022800D002210098FFF770FED0
:100410000124380003D00199C9B20098B847002CD4
:1004200004D00548006802998842B3D1F7BD0000A6
:100430000007005004000020100500500463004035
:100440001065004010B58207D30EFF249C40E243A4
:100450008907090E9940030005D50B4C03071B0FB4
:10046000083B9B0801E0094C83089B00E3181C68CB
:100470002240114319600121C006C00E814004488A
:1004800001600448016010BD1CED00E000E400E0E4
:1004900080E200E000E100E001218A07115070478E
:1004A00000218022D205115070478021C9050858CB
:1004B000002800D00120C0B270476D490968764A13
:1004C0000A408021490201438A4201D1012070473C
:1004D0000020704780B500F0A6F80C20FFF7DCFF85
:1004E0006E480068C003FBD400206D49887001BDD0
:1004F00080B50420FFF7D0FF0120FFF7DEFF0028C2
:10050000FAD16749487001BD38B5654C207800289C
:1005100001D0852032BD0025A56065602561E560BC
:100520000321FFF78FFF5F4805602020255401203D
:100530002070002032BD02680A600160704738B543
:100540000400574DA878002808D0002C02D00120C4
:1005500061688847002000F011F915E000F00EF9FD
:10056000002C04D0210028001030FFF7E4FFE868D9
:10057000002809D182204000FFF792FF022076492F
:1005800008600820FFF788FFE868401CE86035E055
:1005900080B5002000F0F2F86E48C168491EC160C5
:1005A000C068002801D1FFF795FF38E038B5040096
:1005B0003B4D6878002808D0002C02D000206168EC
:1005C0008847002000F0DAF815E000F0D7F8002C9A
:1005D00004D0210028000830FFF7ADFF686800282C
:1005E00009D180204000FFF75BFF01205A490860D5
:1005F0000020FFF751FF6868401C6860002000F091
:10060000C1F831BD80B5002000F0B8F82448416839
:10061000491E41604068002801D1FFF769FF0020B2
:1006200000F0B0F801BD10B5002000F0A7F81C4C98
:100630002020205C401E03D0401E01280FD911E06D
:100640001020434908601820FFF726FF00202021D2
:100650006054E169080005D00320884702E00420C7
:1006600020342070002000F08DF8002010BD000024
:100670000C04004038B50400364D01D1083506E0C1
:10068000103504E008682860200049688847296818
:100690000029F7D131BD000001000100180400401D
:1006A0003C00002018050040F8B50125294E2C0219
:1006B0002000FFF7FAFE002808D02000FFF7F0FE28
:1006C0002348056075700020FFF7D4FF02248227BD
:1006D0007F003800FFF7E9FE002808D03800FFF758
:1006E000DFFE1B4804600120B070FFF7C3FF0C372A
:1006F0003800FFF7DAFE002809D03800FFF7D0FEF7
:1007000010201349086030001430FFF74FFF3F1FDF
:100710003800FFF7CAFE002818D03800FFF7C0FEE7
:1007200008200B490860FFF76DFF00202021715C55
:10073000042900D0002520217054F169080005D05B
:10074000002D01D0032000E002208847F1BD000009
:10075000080300403C0000200403004072B6064835
:100760000168491C0160704703480168491E016027
:1007700000D162B6704700007000002080B5FFF71E
:10078000EDFF01BD80B5FFF7EFFF01BDC122920073
:1007900081507047C22292008150704702000800C9
:1007A000C1218900515808407047405870470022C5
:1007B00042507047012242507047D122920081502E
:1007C0007047D22292008150704770B504000E002D
:1007D000100027D0574D607980002818426060795A
:1007E00041000818285C00281ED1B178042020564A
:1007F000FFF728FE30882168A122D2008850607956
:1008000041000818281831794170607941000818B2
:100810002818F1788170012061794A0051186854D4
:10082000002070BD072070BD082070BD10B5040009
:1008300000212068FFF7BEFF0220FFE73D496279F3
:1008400053009A18885410BD38B504000D0080215B
:1008500049002068FFF7ABFF01212068FFF7ADFFDB
:10086000002D03D001212068FFF790FF31BDF5B5C1
:1008700081B080246402A0267600002588000090C4
:100880002C4F1FE021000198FFF788FF002816D0A9
:1008900031B20198FFF789FF002810D0210001989C
:1008A000FFF78FFF21000198FFF774FF31B2019825
:1008B000FFF77DFFE8B2391D009A89588847640028
:1008C000361D6D1C02988542DCD300983D1801212D
:1008D0000198FFF763FF00280ED0802464002100F8
:1008E0000198FFF762FF002806D021000198FFF76A
:1008F0005EFF04206968884702210198FFF74EFFD8
:1009000000280ED08224640021000198FFF74DFFDB
:10091000002806D021000198FFF749FF05206968EB
:100920008847F7BD80B5042200210348FFF79FFFE9
:1009300001BD00006800002000100140FA2189007C
:10094000484311D047490968474A00BF00BF00BF6C
:1009500000BF00BF00BF00BF00BF914200D000BF7A
:10096000401EF2D1BFF35F8F704703213F4A8000E2
:10097000115070477047000030B585B01520FFF763
:10098000F4FF00BF3FA003C802AA03C23BA4384A39
:1009900002A92000FFF719FF002801D000F078F825
:1009A00000212000FFF750FFFFF71DFC002805D1B4
:1009B000FFF7F2FB002801D000F06AF833A00068CE
:1009C000019001A91520FFF714FC002801D000F0C8
:1009D0005FF81520FFF75CFC1520FFF76FFC0500A2
:1009E00000F07AF8002801D000F052F8684600F0D4
:1009F0007DF8002801D000F04BF82A001D49684618
:100A0000007800F09CF8002801D000F041F868461A
:100A1000007800F0B2F8002801D000F039F820008A
:100A2000FFF704FF05B030BD10B5FFF76DFD0028DE
:100A300001D000F02DF8FFF79FFFFA24A400152045
:100A4000FFF793FF802080030B4908602000FFF729
:100A500075FF0020FFF773FD2000FFF76FFFFFF722
:100A600097FDECE7000000200024F4000007005090
:100A700075090000001101400805005000100140F8
:100A800011000400CB0C0300000000000300010073
:100A900010B584B0040068460C2100F0A7F8029459
:100AA0006A460021014800F0A3F81FBD0140000084
:100AB000F02109030140481E8041C00F704780B5F6
:100AC000012181400800FFF7F3FF02BD3749496863
:100AD000C140C807C00F704734480178002903D1CE
:100AE000012101700020704785207047F1B582B068
:100AF00004242F4D002601270020FFF73FFE012090
:100B0000B04000902800F04038400CD0F0B2FFF721
:100B1000DDFF002807D125484168009A0A4342605A
:100B20000298067000240020FFF72CFE002C04D051
:100B300000988543761C002DDED12000FEBD70B5E7
:100B400004000D001600002D01D0002E01D10E2052
:100B500070BD1748E040C00701D4072070BD2000D9
:100B6000FFF7B4FF002801D1082070BD1148E10053
:100B7000401805604660002070BD10B50400FFF706
:100B80009EFF002801D1072010BD0948E040C007A2
:100B900006D52000FFF79AFF002801D1082010BDDC
:100BA0000120A04004490860002010BD6000002022
:100BB000FFFF000010F5014004F50140130030B4C0
:100BC00014001500103902D310393CC0FCD249077B
:100BD00000D30CC000D504C0890002D30280801C61
:100BE000002900D5027030BC704700000022E5E704
:100BF000BFF34F8F034804490860BFF34F8F00BF16
:100C0000FDE700BF0400FA050CED00E010B5F02090
:100C10000F2228490B78012B1BD14B68134018D1A8
:100C20008B68034202D1CC6804400CD0F0241C40F5
:100C3000102C02D1CC68044005D00340302B08D1E1
:100C4000CB68034005D11C4B1C4C2360E30B1C4CB0
:100C500023600B78012B0CD14B68134009D18B68B2
:100C60000340402B05D1CB68034002D10123154C32
:100C700023600B78012B1BD14B681A4018D18A686E
:100C8000F0231340A02B02D1CB68034005D00240D3
:100C9000D02A0DD1C96808400AD10B480168012942
:100CA00004D00A49016001680129FCD1C0214161D9
:100CB00010BD0000E00F00F0DFFF07C0040500409A
:100CC000186C00400806004000EC064075930000D8
:100CD00030B401210268001D002A0FD00368C31838
:100CE000446808300C4202D04D466D1E64191D68E0
:100CF00025601B1D241D121FECD0F8E730BC704787
:100D00000321064802680A430260054802680A4354
:100D10000260044880470448004700002405004062
:100D2000540500400D0C0000E10D000030B401211D
:100D300000220368001D002B0BD00468001D0C422C
:100D400002D04D466D1E64192260241D1B1FF0D079
:100D5000FAE730BC7047FEE710B50749794418310F
:100D6000064C7C44163404E0081D0A68891888473C
:100D70000100A142F8D110BD0800000028000000C9
:100D8000ADFFFFFF70000000040000200000000025
:100D900041FFFFFF0400000084000000000000206D
:100DA000000000000120C046002801D0FFF7D4FF5A
:100DB0000020C046C046FFF737FE00F000F880B5BF
:100DC00000F002F801BDFEE70746384600F002F8E1
:100DD000FBE7FEE72021090326311820ABBEF9E727
:100DE000C046C046C046C046FFF7DCFFFEE7FEE750
:100DF000FEE7FEE7FEE7FEE7FEE7FEE7FEE7FEE7CB
:100E0000FEE7FEE7FEE7FEE7FEE7FEE7FEE7FEE7BA
:100E1000FEE7FEE7FEE7FEE7FEE7FEE70024F4005C
:0400000500000DE109
:00000001FF
