:10000000380800203907000037070000C307000048
:1000100000000000000000000000000000000000E0
:10002000000000000000000000000000CF070000FA
:100030000000000000000000E9070000EB070000DE
:100040003D060000ED070000EF070000F10700008B
:10005000F307000000000000F5070000F7070000AC
:10006000F9070000FB070000FD070000FF07000084
:100070000108000003080000050800000708000050
:1000800009080000950400000B0800000D0800009E
:10009000AD0400000F080000110800001308000064
:1000A0001508000017080000000000000000000014
:1000B0000000000000000000000000000000000040
:1000C0000121C006C00E81409A480160704701219D
:1000D000C006C00E81409848016070470121C006EB
:1000E000C00E81409548016070470000002811D083
:1000F00093490968934A00BF00BF00BF00BF00BF1B
:1001000000BF00BF00BF914200D000BF401EF2D12F
:10011000BFF35F8F704738B5802080028A4908603E
:100120008A488021490201640160894C01252560CB
:100130002F20FFF7DBFF6560864C002525612F200F
:10014000FFF7D4FFA57231BD401A0002000A7047C4
:10015000F8B5804FFE68002E34D000247E48006839
:100160003969FFF7F1FF05003068854218D32D1A71
:1001700024183000F669017C00290FD00021017499
:1001800042698169FB69180006D010009847002871
:1001900004D000F09BF901E008009047002EE3D165
:1001A000787A397A814206D1401C7872C0B202282E
:1001B00001D100207872787A8000381844611420C8
:1001C000FFF785FFF1BDF8B5624A1378D06800905B
:1001D000002117E02500E469002C13D0B442F9D1C6
:1001E000A54207D1FE69D660002E03D1A84E30602B
:1001F0001161D0722068E469EC61002C02D025689E
:100200002818206001205478A3421BD05468182578
:100210005D4364195B1C9578DBB2AB4200D10023CF
:100220002578022D02D0032D05D0EBE76668D7684C
:100230003D002C00D0E7D0680028E3D00174C069ED
:10024000D060F8E7D268009B9A4200D10020F2BD4E
:10025000F1B582B03F4CE06800900027012600E035
:10026000E5600298002830D120786178884259D022
:100270006168182242438918401CA278C0B290429B
:1002800000D1002020704D6808780128ECD1287C2E
:100290000028E9D188686860C868A8600869E860D3
:1002A0004869A861E07A002800D06F6020696A6818
:1002B000111A0902090A7F4B99420AD20100100063
:1002C000FFF742FFA96840180CE00546E869029074
:1002D000ECE71100FFF738FFA968884201D2081A3D
:1002E00000E0002028606F60AF602E74EF61E0686E
:1002F0000028B5D0026829688A4203D3511A0160E8
:10030000E861ADE7020013688B4205D2C91A1000FC
:10031000D269002A02D0F6E75B1A13602960EA610D
:10032000C5619EE7E0680099884201D00120FEBDCA
:100330000020FEBD00E100E000E200E080E200E01D
:10034000340000200024F40080E100E008130140A4
:100350000410014000000020041501407CB5002578
:1003600055480069019054490A7A1100524B5B7A52
:100370009A4210D0491CC9B2022900D100214E4A2C
:100380008B00D218546900190002000A4A4A106111
:100390000120009001E00024009447480172FFF71B
:1003A00012FF06004448C068009900291BD00022B3
:1003B00010E0E41AD21800230B600090C869CB68E3
:1003C000002B07D0019EB6183602360A4E608B60AD
:1003D000CD61009D002805D001000B689C42E8D249
:1003E0001A1B0A6001263449C8602800FFF730FF55
:1003F000002801D1002E46D02F48C068002840D0E8
:10040000006800902D4C206801902B480569290058
:100410000198FFF799FEC61C2748807A002813D15F
:10042000274880214902016401601120FFF756FE30
:100430001120FFF745FE0120224908602F20FFF719
:1004400055FE01201C4988720098864200D20600A1
:10045000A8190002000AE06326680199FFF774FEFC
:10046000050001993000FFF76FFEC01C85420AD2DB
:100470002068E0632F20FFF739FE1120FFF727FEE9
:1004800001E0FFF748FE00200B49C87273BD000071
:100490000810014080B50C4800210164416481646A
:1004A000C16401604160FFF753FE01BD80B5FFF7F5
:1004B00055FF01BDFFFF7F00000000200415014033
:1004C00004130140001001400011014010B584B038
:1004D000040068460C2100F021F802946A460021CD
:1004E000014800F01DF81FBD01400000130030B4AA
:1004F00014001500103902D310393CC0FCD2490752
:1005000000D30CC000D504C0890002D30280801C37
:10051000002900D5027030BC704700000022E5E7DA
:10052000BFF34F8F034804490860BFF34F8F00BFEC
:10053000FDE700BF0400FA050CED00E010B5F02067
:100540000F2228490B78012B1BD14B68134018D17F
:100550008B68034202D1CC6804400CD0F0241C40CC
:10056000102C02D1CC68044005D00340302B08D1B8
:10057000CB68034005D11C4B1C4C2360E30B1C4C87
:1005800023600B78012B0CD14B68134009D18B6889
:100590000340402B05D1CB68034002D10123154C09
:1005A00023600B78012B1BD14B681A4018D18A6845
:1005B000F0231340A02B02D1CB68034005D00240AA
:1005C000D02A0DD1C96808400AD10B480168012919
:1005D00004D00A49016001680129FCD1C0214161B0
:1005E00010BD0000E00F00F0DFFF07C00405004071
:1005F000186C00400806004000EC064075930000AF
:1006000000218022D205115070478021C905085869
:10061000002800D00120C0B2704738B50400194D41
:1006200001D1083506E0103504E008682860200094
:100630004968884729680029F7D131BDF8B50124F8
:10064000104D114F26023000FFF7DFFF002807D0C2
:100650003000FFF7D5FF3C606C700020FFF7DDFF36
:10066000361D3000FFF7D1FF002808D03000FFF71B
:10067000C7FF02203860AC700120FFF7CEFFF1BD4C
:10068000000000002000002008030040F0B5002119
:100690000120174ACA40024003D00322154B8C00A8
:1006A0001A51491C2029144A16A3F2D30021134CD5
:1006B00025685F5C0126BE40EF43374067603540E8
:1006C000A5600F4D16686F0100BF00BF00BF00BFDF
:1006D00000BF00BF00BF00BFBE4200D000BF6D1E04
:1006E000F2D1BFF35F8F491C0129DFDAE0E7000098
:1006F00000E0000100070050340000200405005015
:1007000020A10700000030B401210268001D002A6A
:100710000FD00368C318446808300C4202D04D461D
:100720006D1E64191D6825601B1D241D121FECD051
:10073000F8E730BC7047FEE70321064802680A4329
:100740000260054802680A43026004488047044882
:100750000047000024050040540500403D0500000E
:10076000DD07000010B5074979441831064C7C4478
:10077000163404E0081D0A68891888470100A14260
:10078000F8D110BD08000000180000007BFFFFFF3B
:10079000380000008400000000000020000000007D
:1007A0000120C046002801D0FFF7DCFF0020C04632
:1007B000C046FFF76BFF00F000F880B500F002F8CC
:1007C00001BDFEE70746384600F002F8FBE7FEE70A
:1007D0002021090326311820ABBEF9E7C046C046E8
:1007E000C046C046FFF7DCFFFEE7FEE7FEE7FEE798
:1007F000FEE7FEE7FEE7FEE7FEE7FEE7FEE7FEE7D1
:10080000FEE7FEE7FEE7FEE7FEE7FEE7FEE7FEE7C0
:10081000FEE7FEE7FEE7FEE7000000000000000044
:1008200000000000000000000000000000000000C8
:1008300000000000000000000000000000000000B8
:100840000000000000000000000000000024F40090
:04000005000007DD13
:00000001FF
