:020000040001F9
:10800000E0120020D5800100EF800100F180010026
:108010000000000000000000000000000000000060
:10802000000000000000000000000000F3800100DC
:108030000000000000000000F5800100F780010052
:10804000B5830100F9800100F1840100F98001008D
:10805000F98001000000000019820100F980010090
:10806000F9800100F9800100F9800100F980010028
:10807000F9800100F9800100F9800100F980010018
:10808000F980010009840100F9800100F9800100F4
:1080900029840100F980010031840100F980010088
:1080A000F9800100F98001000000000000000000DC
:1080B00000000000000000000000000000000000C0
:1080C0000348854600F06AF8004800473DB50100C6
:1080D000E01200200321094802680A4302600848B0
:1080E00002680A4302600748804707480047FEE7E6
:1080F000FEE7FEE7FEE7FEE7FEE70000240500409E
:108100005405004051840100C180010030B50B4688
:10811000014600202022012409E00D46D5409D4261
:1081200005D31D469540491B2546954040191546E7
:10813000521E002DF1DC30BD03460B439B0703D0DC
:1081400009E008C9121F08C0042AFAD203E00B781C
:10815000491C0370401C521EF9D27047D2B201E094
:108160000270401C491EFBD270470022F6E710B592
:1081700013460A4604461946FFF7F0FF204610BD95
:1081800030B504460020034600E05B1C934203D256
:10819000E05CCD5C401BF8D030BD0000064C0125F2
:1081A000064E05E02046E36807C82B439847103485
:1081B000B442F7D3FFF788FF20EA010040EA01004C
:1081C00070B58C180578401C6B075B0F01D10378E4
:1081D000401C2A1106D10278401C03E00678401C9E
:1081E0000E70491C5B1EF9D12B0705D40023521ECB
:1081F0000DD40B70491CFAE70378401CCB1A921C73
:1082000003E01D785B1C0D70491C521EF9D5A1427C
:10821000D8D3002070BD0000F0B50025FF2687B040
:10822000013601242F460395304603F091FC0028C7
:1082300007D04A484068204203D0304603F080FC13
:108240002543361D64007F1CB6B2042FECD3FF24F7
:108250007D34204603F07CFC002807D0204603F044
:108260006FFC600705433E48006903903D4C2807BA
:1082700015D001270026384628420CD03A48B200D3
:10828000111808690969C004C00E8903A258890F32
:10829000002A00D090477F00761C042EEBD3002DDF
:1082A00059DA00200290401E4FE0A11940310878B1
:1082B0008506AD0E42B2521C3BD00121A94000916F
:1082C000059A114235D080090190284601F0BAFA8A
:1082D000800020580490002804D0019800990328B9
:1082E00004D006E00198032823D10099029808439E
:1082F00002901E4AA80080180068039A8003800F2D
:10830000114202D0022802D013E0032811D10199B2
:10831000032907D102281CD00221284603F000FCC3
:108320007F1CFFB20498002803D0049A28460199C4
:108330009047761C042EB8D3002F0CD00848006953
:108340000399884207D00390029800273E46059083
:10835000ABE70321E1E707B0F0BD00000063004098
:1083600000050050D80800200065004000070050BC
:108370008307FF22DB0E9A408907090E99400028E7
:108380000BDA0007000F0838830808489B001B1809
:10839000D86990430843D8617047830804489B001C
:1083A0001B181868904308431860704700ED00E000
:1083B00000E400E0F8B5FF270137384603F030FA53
:1083C00001240F4D0F4E002808D0384603F030FA34
:1083D0000120A8607470002001F076FAFF270537AD
:1083E000384603F01DFA002808D0384603F020FA7A
:1083F0000220A860B470012001F066FAF8BD000008
:1084000000030040C408002010B5064900200860A1
:1084100048608860C860034940390860486005F0DA
:1084200035FF10BD4011014010B505F0A1FE10BD93
:1084300010B506484068002805D08047002801D0C4
:1084400000F044FA10BD02F01DFD10BD3001002007
:1084500010B502F065FD002805D01F491D48486091
:10846000C8131E4988611E48018CC9B201290BD16D
:10847000828C120708D1028D1206120F042A03D132
:10848000828D1206120F0AD0012921D1818C090791
:108490001ED1018D0906090F0A2904D007E0114AEF
:1084A00001219160F5E7828D1206120F05D00D298A
:1084B0000ED1808D0006000F0AD10B4801680129FA
:1084C00004D00A49016001680129FCD1C021416141
:1084D00010BD0000DFFF07C000050040006C004039
:1084E000C00F00F00006004000EC0640759300004D
:1084F00010B50249024805F024FF10BD20090020F4
:108500000020004030B47446641E2578641CAB42E1
:1085100000D21D46635D5B00E31830BC184702E0E3
:1085200008C8121F08C1002AFAD1704770470020FE
:1085300001E001C1121F002AFBD17047202804DA94
:10854000012181400348014201D0012070470020F1
:1085500070470000FC06FFBC10B500280CD00029B5
:108560000AD002780B789A4206D10622491C401C98
:10857000FFF706FE002801D0002010BD012010BD2D
:10858000F7B584B006460025178815802030029084
:10859000407B1446002806D03A462146059800F054
:1085A00003FE050009D1B078002823D0059886463F
:1085B0002088001DB84202D90C2007B0F0BD6846E3
:1085C00079DF0028F9D12188032072465054208891
:1085D0001921401C80B22080115420887146401C13
:1085E00080B2208041186846008805F03CFF218851
:1085F00040182080F078002817D0218803230A46ED
:10860000F356C91C0598B942D6D802218154218855
:108610000122491C89B2218042542188491C89B217
:10862000218043542088401C20807068002817D087
:1086300021880023C3560A46C91C0598B942BBD8F5
:108640000221815421880A22491C89B22180425486
:108650002188491C89B2218043542088401C2080F5
:10866000308900280AD00094304601970622022162
:108670000830059B05F050FF05009ED1308A002888
:108680000AD0009430460197072203211030059B41
:1086900005F042FF050090D1308B00280AD00094ED
:1086A00030460197152214211830059B05F034FF40
:1086B000050082D1306A002806D03B462246059943
:1086C00001F06AF90500D8D1706A002806D03B464F
:1086D0002246059902F0D8FF0500CED10298007B12
:1086E000002807D03B4622463046059905F0D8F9C8
:1086F0000500C2D13078002807D03B4622463046DC
:10870000059902F0F5FF0500B7D1284655E70000AE
:10871000174A0021535C002B01D0012203E0491CC1
:108720000629F7D300221349012806D002280BD0CE
:10873000032810D0042818D112E04878002803D06C
:10874000002A01D0012070478878002803D0002A31
:1087500001D002207047C878002801D0032070475C
:108760000879002801D004207047002070470000DD
:10877000450000208002002010B5012202210020C7
:1087800000F08CFE002801D0072812D10722022118
:10879000012000F083FE002801D0072809D1002124
:1087A0000A22084600F07AFE002801D0072800D1EE
:1087B000002010BDF0B50F468DB0002116466D4665
:1087C0000F24621A825C6A54491C1029F9D3284686
:1087D0000D211030FFF7C9FC0020221A395C521914
:1087E000401C11740328F8D368464DDF0020211A7D
:1087F0004919203109783154401C0328F7D30DB0B2
:10880000F0BD0000044842680121C9050B469343AE
:1088100083600A40C26070470005005070B50024B4
:10882000064D06E06968E000085C012103F08CF861
:10883000641C28788442F5D3002070BDD400002049
:10884000F8B515460C460646052A01D20720F8BDA4
:1088500003F04CF9002803D103F01AF90028F6D1EF
:10886000104900204E600C70C8608D6008610E4D8C
:108870000DE0E00069688019009181786A465170C6
:1088800000780A4A694603F0ABF80028DFD1204699
:10889000641EE4B20028ECD1054A0021024800F031
:1088A00021F8F8BDD400002004EA010075A80100F9
:1088B000359B0100BFF34F8F03490248C860BFF3E7
:1088C0004F8FFEE70400FA0500ED00E00EB5002131
:1088D000029000916A4601910148FFF7EBFF0EBD3F
:1088E00001400000094B5B68002B07D0002A07D02D
:1088F000002805D00068037C002B03D008207047B7
:10890000072070474174426100207047F800002042
:10891000FFB507469007002581B01E461446002883
:1089200025D1002C23D004F031FE3046114EF060EA
:108930003046103005704570029981704460756052
:10894000357001240C48757024050460032114203F
:10895000FFF70EFD09480460094CA76003211120B0
:10896000FFF706FD6068B060002005B0F0BD07208D
:10897000FBE70000E800002080E200E000E100E00A
:1089800000150140FEB51F4B5B68002B30D000285E
:108990002ED0052901D20720FEBD4369002B27D028
:1089A000437C012B26D0002702910446002569460E
:1089B00016460D70684600F03DF801A805F096FDDA
:1089C000002819D0012101700F4944604968816075
:1089D000029907614661C16068460A49007948709A
:1089E0006846007800F044F805F004FC2846FEBD17
:1089F0000820FEBD0F46D7E768460425007800F042
:108A000037F8F3E7F80000200015014010B50849D9
:108A1000496800290AD0002808D04169002905D0FA
:108A200000210174022105F00DFC10BD082010BDCD
:108A3000F800002030B5EFF3108172B6094A54688F
:108A40000123002C04D00370002900D162B630BD90
:108A50005360054B1D68054C254015601C600022C5
:108A60000270F1E70C01002080E100E0FC06FFBC91
:108A700008494A68002A0CD000280AD1EFF3108078
:108A800072B60A68044B1A6000224A60002800D1BE
:108A900062B670470C01002000E100E0F0B504462A
:108AA0008BB0008800F01CFB0590208802F058F97C
:108AB0000646A0680090657A684605741E4F2088B7
:108AC0000022397800F05CFB0598002831D06079ED
:108AD000400710D50721304603F000FC002813D0D2
:108AE000082269460A7422884A828E82069004A867
:108AF00001F010F908E02088B97800F02FFB002879
:108B000002D0304602F016F903216846017121882F
:108B1000C18060794007C10F68460172A0794007A3
:108B2000C10F6846417201788172C57201A801F0D7
:108B3000F1F80BB0F0BD0000B8000020F0B50C4615
:108B400093B01F216A4611800726002791800028D4
:108B500009D0C17849070DD502A9FFF711FD0028FA
:108B600009D102AD01E000251780002C0ED0E0787D
:108B7000002802D0304613B0F0BD01AA0AA9204651
:108B8000FFF7FEFC0028F6D10AAA02E068460022A0
:108B9000878068468088C3B268460088C1B228468C
:108BA00072DFE8E7FFB581B01E460A9F1346040056
:108BB00047D0002B45D0504D012028700020E87090
:108BC000202219464D48FFF7B7FA00206F61C043D5
:108BD0002E612881284607211830FFF7C6FA47483A
:108BE00038212030FFF7C1FA444821782030017045
:108BF000A1788170E178C170617841703F4A656900
:108C000023695563114613632031E368A268CB6082
:108C10008A603A49E369A269CB638A63616A002981
:108C20001AD0014638310246443241628A60636A92
:108C30001B880B80616A436A898899800021436A96
:108C400007E00E2005B0F0BD656AAD686D5C555457
:108C5000491C9D888D42F7D8A16A00291CD0274A5B
:108C6000903211460C398A608162A36A9B888B809E
:108C7000A16A836A098819800021836A04E0A56AD1
:108C8000AD686D5C5554491C9D888D42F7D82C21E8
:108C90000A5D1A4940310A73216A002909D0164930
:108CA0000A310162226A52884A80216A026A09886E
:108CB00011806168002900D04160104A0E490020EF
:108CC000AF322031C3001B1A85009B180C68401C72
:108CD00063510828F6DB094A0020E73203018500CA
:108CE0009B188C68401C63510828F7DB03480299E5
:108CF0002030FFF723FFA5E72C0000208002002092
:108D000010B50188134C102915D0112919D01B2931
:108D100010D1007A00280DD1E0780521401CFFF722
:108D2000F5F9084600F04EF8002803D061690029E3
:108D300000D0884710BD817D0129FBD1808820812A
:108D400010BD00216171808821898842F8D10120FD
:108D5000E8E700002C00002010B5022801D003280D
:108D60000ED1084C607800280AD000206070E078AE
:108D700000F028F8002803D06169002900D0884756
:108D800010BD00002C00002010B574DF0B4C01203A
:108D900060710B490620C87000210948FFF7CEFE1C
:108DA000002809D1E07800F00DF8002803D06169AF
:108DB000002900D08847002010BD00002C000020B2
:108DC000A0020020F1B53F4C88B0207800280AD0DE
:108DD0000898E07006A801F099FA06980125002885
:108DE00004D065706AE0082009B0F0BD354800275E
:108DF00007211830FFF7B9F9334E7078002802D0F8
:108E0000E078012807D0B07800280CD0E07801285D
:108E100001D0022807D12169002903D0257108203B
:108E2000884700E027710898FFF772FCE07021691D
:108E3000002909D0032801D0042805D13078002862
:108E400002D06079002811D0A77118216846FFF779
:108E50008CF9684607700772E1781A480B001830E1
:108E6000FFF750FB052E080F191D2000A5710720E4
:108E70008847EAE7A5700190684605704782078237
:108E800013E00221A170019068460570B18941820A
:108E90003189018209E0684604F04AFE02E0684632
:108EA00004F072FEE078002803D0684673DF0028E3
:108EB0009AD12169002901D0A0788847002093E742
:108EC000A770F6E72C0000208002002070B5054650
:108ED00001461C220E48FFF72FF90E4C0026267083
:108EE0002968002906D00822201DFFF725F9201D3A
:108EF0007ADF02E00748001D7BDF002807D1401E13
:108F000060806670044A00210448FFF7EBFC70BDE6
:108F1000480400205C00002071E4010070E90100B9
:108F2000F8B5214C0146028800261E48E589102A22
:108F300013D01E4F112A1FD0122A2BD0502A1AD11B
:108F4000881DC988A94216D14189022913D10C3044
:108F500000F06DF900280CD112E08A8804464280A6
:108F60001048082218310C30FFF7E6F86670002D23
:108F700001D100F059FDF8BD0021C9434180467080
:108F80003868FFF743FD0028F5D0A1690029F2D029
:108F90008847F8BD0348082208310C30FFF7CCF8A9
:108FA000E7E700005C0000204804002070E90100B1
:108FB00010B503490A7D091D04F0BDFB10BD00007A
:108FC00064040020034B10B50246D97D181D04F03F
:108FD0009FFB10BD64040020034B10B50246197EB0
:108FE000181D04F095FB10BD64040020F0B5044684
:108FF000028839488DB0014615310191102A09D0F7
:10900000112A4FD01A2A49D1217A090901294DD9AB
:1090100001234CE0027D417D05468A43011D07A8DE
:1090200004F089FB142207A902A8FFF785F800269F
:1090300029483746143008900AE0710002A8081841
:1090400083881D220097281D089904F021FB761CB7
:109050000298B042F1D8287DA688C043C0B204F07F
:109060003BFB1E49884216D04000401986800123F0
:109070003246281D019904F081FB01233246281D48
:10908000089904F07BFBA07D022809D00023124937
:10909000A28816311CE00420FFF718FC0DB0F0BDCB
:1090A0000123F4E70023A288001D12E000230A49EF
:1090B0000546A2881731001D04F060FB207A0009E4
:1090C000022801D9012300E000230349A2881831B6
:1090D000281D04F053FBE1E764040020FFFF0000BB
:1090E00070B50B4E05460024317D2A46301D04F034
:1090F0000FFB002809D0B17D2A46301D04F008FB83
:10910000002801D0022400E00124204670BD0000A8
:109110006404002010B50024204605F0DBF9002887
:1091200005D0641CE4B2182CF6D3182010BD0448F6
:1091300001220168A24011430160204610BD0000D9
:109140006404002010B5044605F0C4F9002802D0DC
:1091500001480019407E10BD6404002070B505462A
:109160000C46084605F0B6F9002806D003482A4602
:109170000119497E001D04F0CBFA70BD6404002083
:1091800070B5064615460C46084605F0A3F90028BA
:1091900007D004482B46011919313246001D04F04E
:1091A000EDFA70BD640400207CB5054608880C46C5
:1091B0000930904201D90C207CBD684671DF00283F
:1091C000FAD121880820685420881B21401C80B2D5
:1091D00020802954208800A9401C80B2208040199A
:1091E00006220131FEF7A8FF20886946801D80B263
:1091F00020800978002900D0012129542088401CB2
:10920000208000207CBD10B50446FFF7EFFE20460D
:1092100003F068FD2046FFF783FE204600F070F85B
:10922000204602F0C3FC2046FFF76AFD10BD4178DE
:10923000027808021043C007C00F704700B51748F6
:1092400087B00068059000234822154905A804F05E
:109250004BFF002801D0FFF739FB6A4601210020AF
:1092600004F02AFF002801D0FFF730FB684604F025
:1092700019FF002801D0FFF729FB0A4804F008FF76
:10928000002801D0FFF722FB074804F05FFF002809
:1092900001D0FFF71BFB07B000BD000030E9010063
:1092A000CC0100200792010061E101007CB5134E62
:1092B00000250C463060002918D06946002000F0D7
:1092C000B5F8002819D101A9012000F0AFF8002855
:1092D00013D1684601790020002901D0022004E062
:1092E00069460978002900D00B202070706800289A
:1092F00002D1FFF741FA054628467CBD2000002038
:1093000010B51C4C0188606810290DD011290AD1B4
:10931000401E606007D1FFF72FFA002803D02168B4
:10932000002900D0884710BD00281ED1002101224D
:10933000084600F0B3F8002801D0072811D1072211
:109340000221012000F0AAF8002801D0072808D146
:1093500004220221002000F0A1F8002805D00728EF
:1093600003D02168002900D088476068401C6060F5
:1093700010BD00002000002010B5032000F00CFA02
:10938000002801D0062800D1002010BDF8B50746FE
:109390000024234802E0641C042C1AD2A200825844
:1093A000BA42F8D1042C14D21D481E4E0C380029A4
:1093B00029D001290ED002290BD160002018801974
:1093C0004578002D05D018480169002901D02846AC
:1093D0008847F8BD61006118755C8E1971780029A5
:1093E0000CD011490A224968806851430E4A521C28
:1093F000FFF7C8FA002801D10B4847700A48B17836
:1094000014300155DDE78068FFF700FB0648610076
:10941000611814308919005D8D78A842D1D0F8BD4B
:1094200040E90100540200200800002004280CD26A
:10943000074A1269074B80001B5C0120984090434B
:1094400000D001200870002070470020FAE70000DB
:109450000005005040E90100014610B50D480429FF
:10946000008806D007290CD00A2901D104F0B6FBE8
:1094700010BD132176DF09E00028F9D0FFF726FAA6
:1094800010BD05498842FBD1FFF77EFC0828F3D1C7
:1094900010BD000000000020FFFF000070B5002399
:1094A000042811D2440004190D4D012A02D10129CA
:1094B0000DD0002246008019094E801900290CD0D9
:1094C000012906D0022906D00723184670BD0D30A9
:1094D000C2B22A55F9E74270F7E78270F5E700005B
:1094E0005402002010B5054A0146127A0020D20726
:1094F00002D0084600F054F810BD0000080000201B
:1095000070B50E46204905464E608D6000200A6108
:10951000A9071ED50024012211462046FFF7BEFFF1
:10952000641C042C02D20028F5D012E0002810D1CF
:10953000720804211548FFF783F9002809D1FFF7C5
:109540006DF9002805D11148114A00211438FFF7A0
:10955000C9F9E90706D00F220E4952058A60002397
:10956000CB608A6100280DD108480B4A00211C38C5
:10957000FFF7B8F9002805D10448084A0121183836
:10958000FFF7B0F970BD00000800002050E90100AD
:10959000D5970100000500508DAF0100058801003E
:1095A000FEB57A4D0722EB6892059A4302936B68E9
:1095B00000939C0006461B190020012101934905D8
:1095C0000746734C3300FEF79DFF180D15153747FE
:1095D00055677C887F8891DE9E9E9E9E9EC8CED1D8
:1095E000D8DEDE140F21029A49059143A160E7609D
:1095F0002F70FEBDA260E76060680F2252055040E8
:10960000800209D5A160E760022E02D1E120C000EE
:109610000AE07D20400107E0E160A760022E01D151
:10962000C82001E0FF2091302E706421FEF76EFD0E
:109630000099414300223FE0A260E76060680F228A
:1096400052055040800204D5A160E7601920400116
:10965000EAE7E160A760E3E7A260E76060680F22E5
:1096600052055040800202D5A160E760D1E7E16079
:10967000A760D7E7A260E76060680F2252055040FC
:10968000800202D5A160E76001E0E160A7602E7072
:109690000098410000220FE0A260E76060680F229E
:1096A00052055040800202D5A160E76001E0E16010
:1096B000A7602E700099002236480068FFF762F913
:1096C000FEBDA260E7601BE06168012080050246E4
:1096D0008A43A2600140E16010E0606801218905D1
:1096E0000A468243A2600840E060E3E76068012127
:1096F00089050A468243A2600840E0600199C9E7F3
:10970000E160A7602DE023484068FFF77FF9112151
:109710008A1B01D0002807D00F22E96852051140AA
:10972000A160E760EF60FEBD0121C905E960012A83
:109730000CD91046C82148436421FEF7E7FC69684C
:109740000022414313484068FFF71CF90F22E968E3
:1097500052051140E160A760FEBD0F214905A160DF
:10976000E7602E70FEBD07229205AAE70D2149058C
:10977000A160E76001218905C2E70321C905A16055
:10978000E7608910BCE70F214905B9E70800002010
:109790000005005034E90100F0B500210B4C0C4DE0
:1097A00003273F048A00A258920056193268012309
:1097B0008B40034000D00323BA431B0413433360A0
:1097C000491C0429EED30020F0BD000040E901004F
:1097D0000007005010B500780221FFF7D7FD10BD3B
:1097E0000022D243830004490428CA5002D3081837
:1097F0002030027770470000D8080020F0B500251F
:10980000ED43002A02D00023042601E004230826A9
:109810000B4C04E09F00E7597F1C04D05B1CB34253
:10982000F8D32846F0BD26185DB2203635709E006C
:10983000A151002AF5D1E11820310877F1E70000A5
:10984000D808002002490918202008567047000057
:10985000D8080020002807D00449814204D80449D0
:10986000814201D901207047002070474401002047
:1098700054010020044A0168914201D0083101E0FE
:109880000149383901607047380A002070B50D4D24
:1098900004460A462846AC4208D1FF24013421463A
:1098A000104603F0DDF9A0420AD070BDFF2CFCD8B1
:1098B0002146104603F0C6F9002801D0204670BDAD
:1098C000284670BDFFFF000070B5084C050009D0A8
:1098D00010342168002907D00868206049682846AC
:1098E0008847F6E70834F4E770BD0000C40800209C
:1098F000F8B52348416800293ED00E6821494C68DC
:1099000087688078E11B0D022D0AED1C002814D118
:1099100001201D4A000450601B4A403A50601B4918
:10992000400008601A4908601A49012008602F2089
:1099300001F084FF124901208870B54200D23546FB
:10994000E81900020F4B000A403318600D4A5168B5
:10995000001B091B0902090A0002C91C000A8142F6
:1099600009D9506818602F2001F068FF01200749CD
:10997000400480390860F8BD03F008FEF8BD00001F
:10998000E8000020001501404013014080E200E0A3
:1099900000E100E000100140F8B5064610881446CA
:1099A0008446801D0D46984201D90C20F8BD3288AE
:1099B0000720062AFAD31927FF01184BBA4201D90A
:1099C0009A42F3D171880629F0D3B94201D999425C
:1099D000ECD19A4203D0994201D08A42E6D80521BF
:1099E0006046295420881221401C80B220802954CE
:1099F0002088401C80B220804119308804F033FD5B
:109A00002188401880B220804119708804F02BFD15
:109A10002188401820800020F8BD0000FFFF0000D2
:109A200010B5FEF753FF10BDF8B5164801F06AFAFD
:109A3000144D00260C3D144C002807D06169002904
:109A40001CD001206A461070684616E0287800286D
:109A500005D06169002911D0684606700DE068786C
:109A600000280DD0A168094800220068FEF78AFF8F
:109A7000002803D0A169002900D088472E70F8BDC6
:109A80006168F0E7680000204804002070E90100E8
:109A9000F0B585B00C46002802D0012005B0F0BD1D
:109AA000207900270126002806D01F4D012820D04C
:109AB00002282CD00F20F1E702970397E06801906D
:109AC000694601A803F08CFC00280ED0029881881A
:109AD000E18000882081029803F0FCFC6946098837
:109AE0000A01124951188E7300E00A2002212171E7
:109AF000D4E70F4B6A460021A01D03F02FFC00287D
:109B000007D00B4908398F60CF600A28C6D1284694
:109B1000C4E7019803F0DEFC054989880A0103497E
:109B200051188E73F1E700001D1D0000480A002047
:109B30001C010020F8B500260124154D24E06968B9
:109B4000F00047183878214681402A690B461342B5
:109B500018D08A432A6101F091FF3A782146EB68D8
:109B6000914019400346934099420BD179780129DD
:109B700001D0012100E000217B684140002B01D091
:109B800010469847761CF6B228788642D7D3F8BD9F
:109B9000D400002010B50E4900230A784C78A24268
:109BA00012D0521CD2B20A70022A00D10B700A786D
:109BB000074B920018339A58026088681018000208
:109BC000000A8860012010BD0360002010BD000065
:109BD000E80000203EB5094D383538CD0093029598
:109BE00001946B46588099809A7105490022097842
:109BF000FFF7C6FA684600F08DF83EBDBCE90100EB
:109C0000B800002010B5047800222300FEF77AFC8B
:109C1000070605070D1D262C06000A7010BD01223F
:109C20000A7002898A81828814E002220A700289FD
:109C30008A818288CA81C2688A60007C062802D034
:109C40000020087410BD0120FBE703220A70C288BF
:109C50008A810289CA81C068886010BD04230B70A4
:109C6000C0888881CA8110BD0520087010BD000021
:109C700070B5064D06460024A0002958002901D0E1
:109C800030468847641C082CF6D370BD6809002054
:109C90000EB5002910D011290ED000220092029298
:109CA0006A46508001910D2907D0042907D0092068
:109CB0001070104600F03CF80EBD0B20F8E70A20AB
:109CC000F6E7000001490968084700007800002015
:109CD00070B5054D06460024A00029583046884737
:109CE000641C022CF8D370BD8CE90100F8B507465E
:109CF0000024064E064D04E0A0003158384688473F
:109D0000641CE8788442F7DBF8BD00007808002086
:109D1000A800002070B5054D06460024A000295873
:109D200030468847641C022CF8D370BDBCE90100A2
:109D3000014909680847000000EA01007FB50446B0
:109D4000406800280BD00020039020780026414D69
:109D50000300FEF7D7FB066D0606304E7B6D012033
:109D6000F2E7A08900F0DCF9002804D1E08903F0D3
:109D7000C9FB00285CD0A08900F0CCF901466846F8
:109D80004180E08903F0B8FB014668460171207804
:109D90000128606807D0002809D0042069460870AF
:109DA0006068039020E00028F8D00320F6E7012047
:109DB000F4E708463AE0A08900F0B2F9002804D19F
:109DC000E08903F09FFB002832D0A08900F0A2F9BF
:109DD00069464880E08903F08FFB69460871606836
:109DE000002804D005200870A0680290E1E7022056
:109DF000F9E7A08900F094F9002819D0E08900283B
:109E000016D1A08900F086F969464880E08903F000
:109E100073FBFF2069460871606800280FD0072097
:109E200008706E70AE7002F033FC684602F0EEFA15
:109E30006878002802D06E7002F02AFC7FBD0621EF
:109E400068460170408802F0B1FCEAE708206946E4
:109E50000870AEE79400002000B5104987B009787B
:109E6000890702D4022007B000BD0D49884201D104
:109E70000420F8E7052269460A7001220A71C880A9
:109E800000221146684601F01DFF002803D003F0B0
:109E900049FA0020E7E70820E5E700001401002068
:109EA000FFFF000000B50F4887B00078800702D49C
:109EB000022007B000BD0620694608700022114646
:109EC000684601F0FFFE002809D007480178002904
:109ED00001D00121017303F025FA0020E9E70820F1
:109EE000E7E7000014010020680A002000B58DB0EB
:109EF00014216846FEF739F91E480078810703D51A
:109F00006846FFF7B5FE32E0C00730D1012000F00F
:109F10002DF900F0A5F901F067FF00280ED0062802
:109F20000FD001216A4611750300FEF7EBFA0C19F8
:109F30001119111918191819131613190B200DB02E
:109F400000BD022000F012F9012000F0F5F8D7E77B
:109F5000002000E00320107602E00220FBE71176EB
:109F60000022114605A801F0ADFE03F0DBF9002048
:109F7000E5E700001401002038B5040014D069465C
:109F800003F02EFA002813D0684600880101094822
:109F900009188889002809D0A27A002A06D0401E14
:109FA00088810020A07238BD052038BD062038BD4C
:109FB0000A2038BD480A00201FB501A9684603F0F1
:109FC000CDF904B010BD07B513460A466946002016
:109FD00003F0C4F90EBD07B513460A4600216846D2
:109FE00003F0BCF90EBD002805D0002903D000689D
:109FF00008600020704705207047000038B50D4606
:10A00000040017D0002D15D0694603F0E9F90028A7
:10A0100012D06846008861680201084812189089C9
:10A02000401C9081296060680C3068600120A0723B
:10A03000002038BD052038BD0A2038BD480A002060
:10A0400010B5002804D00323002204F03FFB10BD0C
:10A05000052010BD10B50223002204F037FB10BD0F
:10A0600010B5002A03D0022304F030FB10BD0520F8
:10A0700010BD000010B5064A5178082906D08B00A3
:10A08000044C491CE0505170002010BD0C2010BD44
:10A09000140100206809002038B504460A480D461E
:10A0A0000078800701D4022038BD002C0AD0694610
:10A0B000284604F017FC0028F6D16946098821805B
:10A0C000658038BD052038BD1401002010B5044658
:10A0D0000E480078800701D4022010BD002C10D05B
:10A0E000218802290FD80A4A08018018428960880D
:10A0F000121AD21E07D404F0EBFB002020806080EF
:10A1000010BD052010BD042010BD0000140100206A
:10A11000480A002003218903401A80B270470000DA
:10A1200003218903401A0349884201D8012070475E
:10A1300000207047FE3F000002490A7882430A70FF
:10A14000704700001401002010B50446007818285C
:10A1500002D1FEF7DFFF207010BD10B50446007875
:10A16000182802D1FEF7D6FF207010BD02490A78E8
:10A1700002430A70704700001401002070B50646C3
:10A1800000200546042906D0112902D0002903D059
:10A1900070BD012500E001200E4C002A02460FD0C0
:10A1A00061793046FEF7ECFF2A4621793046FEF70A
:10A1B000E7FF002261783046FEF7E2FF002204E06C
:10A1C00061783046FEF7DCFF2A4621783046FEF7FC
:10A1D000D7FF70BDBC000020F8B506461C481F46DE
:10A1E000007815460C46C0070AD03046FFF732FB10
:10A1F000002807D0002C07D0A00507D00620F8BD06
:10A200000120F8BD0220F8BD0320F8BD3068A0424F
:10A2100004D8A80271680019884201D90520F8BD48
:10A22000002D11D0684602F0CFFF00280ED0009814
:10A230000221476006600172A101090C818105823B
:10A2400003F07EF80020F8BD0420F8BD0720F8BD1B
:10A250002C01002010B5084602F0D2FF10BD00000E
:10A26000F0B52648264C001B0309264819464069CC
:10A27000421C03D10120000740698002224A127863
:10A280009646D2070CD00020F0BD1D4C15012C19AC
:10A290002568002D03D06468002C00D0491E521C94
:10A2A0009A42F2D3002420E0E2B2002594462A46E6
:10A2B0000FE0134E1701BE193768002F02D07768E0
:10A2C000002F05D1767BAE4202D93546D6B2B446D0
:10A2D000521C9A42EDD362461501094AAA185060F1
:10A2E000157BAD02401B641C10608C42DCD3064819
:10A2F0007146012211430170C5E70000540100209E
:10A3000044010020001000102C010020002804D07F
:10A310000349496E01600020704703207047000028
:10A32000780A0020F8B507461E481E4600781546F4
:10A330000C46C0070ED03846FFF78CFA00280BD029
:10A34000002D0BD0002C09D028462043800707D0D1
:10A350000620F8BD0120F8BD0220F8BD0320F8BD9D
:10A360003868A04204D8B10078680919884201D23F
:10A370000520F8BD002E11D0684602F025FF002808
:10A380000ED0009806990760416001210172C560F6
:10A390000461868202F0D4FF0020F8BD0420F8BDDD
:10A3A0000720F8BD2C01002070B5174B0446186E2D
:10A3B000182148431549C0180A78950715D5022C6D
:10A3C00002D0032C1CD102E001F052FC18E04A78C4
:10A3D000521CD2B24A70032A12D900224A700821B4
:10A3E00003F0A0FA02F0DAFE0AE0500708D5FB20DD
:10A3F00002400A70586E002802D0022002430A7000
:10A4000002F05AFF70BD0000780A00202C010020E5
:10A4100070B5002801D0012070BD164C0025207BAE
:10A42000002801D0257301E000F09CF8207803009B
:10A43000FEF768F8081E05080B0E1E111A1E00F024
:10A440001BF870BD00F07EF870BD00F061F870BDC3
:10A4500000F038F870BD60880649000120394018C6
:10A46000406801F0A1FC70BD656001F0ABFC70BDFF
:10A470000F2070BD680A002070B5104900208A1CAA
:10A480000D460346203D0C18A67A002E08D0A37274
:10A4900004016419A689002E02D1A47B012C08D0E6
:10A4A000401C80B20228EED30B704B8004484B60F6
:10A4B00070BD108000F046F870BD0000680A0020F2
:10A4C0001D1D000010B50F4C60880101204620388A
:10A4D0000818818900290BD0052020700A48022124
:10A4E00081800168002301220848FFF775FE10BD36
:10A4F0004168002301220548FFF76EFE0421217008
:10A5000010BD0000680A0020240100204401002042
:10A5100038B50A4908480B68898842688900591883
:10A520005388032404700020DB1C00909BB2044875
:10A53000FFF7F8FE38BD0000680A00202401002063
:10A540004401002010B506494888091D02F098FF13
:10A55000002802D0FFF7DCFF10BDFFF7B3FF10BDEE
:10A56000680A0020F0B51D481D49077802460125FC
:10A5700002268C88203A3B00FDF7C4FF0805171718
:10A580001A212C2C16170189491C018100214180B8
:10A5900001730B01D35C002B08D000234418491C25
:10A5A00089B2A3720229F4D30570F0BD0123F5E747
:10A5B00042685288D21CA2188A800670F0BD458875
:10A5C0000B682D01AA1855680D60536014818E80A8
:10A5D000062100E007210170F0BD0000680A00209C
:10A5E00024010020F0B504460088384D8DB0502875
:10A5F0001DD0522802D0542826D103E0A08800F0B4
:10A600000BFF21E0062069460870A08800F0A8FB37
:10A6100069464880A2888A8000F056F9A088002206
:10A62000E978FEF7ADFD6846FFF74CFB0CE0207BB8
:10A63000012809D1A07A012806D12089244988421D
:10A6400002D1A08800F024FFA878FEF77BFD002847
:10A6500019D008A8FEF7ACFC142208A903A8FDF73E
:10A660006BFD002403AE0BE060008719B888A97861
:10A67000FEF774FD002802D0B88800F0CDFE641CFF
:10A680000398A042F0D86878FEF75CFD002819D046
:10A6900008A8FEF78DFC142208A903A8FDF74CFDBD
:10A6A000002403AE0BE060008719B8886978FEF7D4
:10A6B00055FD002802D0B88800F0EAFE641C03981B
:10A6C000A042F0D803F052F90DB0F0BD70000020A8
:10A6D000022900003EB5044640886946488020783B
:10A6E000002814D001281DD002280FD1207900287D
:10A6F0000CD0608800F068FA0E49884206D00E49F6
:10A700000122C978FEF73CFD03F030F93EBD002080
:10A7100008700846FFF7D6FA608800F055FA00F096
:10A720007BFE3EBD012168460170A1888180FFF754
:10A73000C9FA3EBDFFFF00007000002010B50446BE
:10A74000007801280DD1608800F066FE608800F076
:10A750007FF9002805D0034960880122C978FEF7F7
:10A760000FFD10BD7000002010B5104C00202070AF
:10A77000FEF7D0FC6070FEF7CDFCA070FEF7CAFCBF
:10A78000E070FEF7C7FC2071617818290BD0A17822
:10A79000182908D0E178182905D0182803D00120FD
:10A7A0002070002010BD032010BD000070000020AC
:10A7B000F0B585B000F0A0F86846FEF7F9FB00247C
:10A7C0006D460C4F0EE060004619B08800F0C8FAE4
:10A7D000B84205D10849B0880122C978FEF7D0FCFB
:10A7E000641CA4B20098A042EDD803F0BFF805B0F5
:10A7F000F0BD0000FFFF00007000002010B50178E0
:10A80000072902D1408800F043FE10BD10B5044670
:10A810000A4841782046FEF7A1FC00280CD00848E1
:10A8200000210C224A4312185288A24201D1C8B218
:10A8300010BD491C0829F4D3FF2010BD880000205A
:10A840009804002070B5094D094E00240C20604387
:10A85000401940887178FEF781FC002804D0641C00
:10A86000082CF3D3FF2070BDE0B270BD9804002027
:10A8700088000020F8B50746114E0125BD4030681C
:10A88000FEF7C4F8002806D10E4C20690146294283
:10A8900002D0A8432061F8BD384601F0EFF8002847
:10A8A000E06801D0284300E0A843E060206900226E
:10A8B00028432061A1683068FEF764F8F8BD000005
:10A8C00004EA0100D40000201CB5054A9168D26852
:10A8D000019200910022694601F060FC1CBD00005D
:10A8E00078E9010003480021C943818001210170FA
:10A8F000002070477C00002010B5044801F07AFB6E
:10A900000349888003F05EF810BD0000FFFF0000DF
:10A910007C000020F1B582B0029800F021FA0024FA
:10A920001649032501272646884209D06A46082190
:10A9300001F00AFC002803D1019886880568841D6F
:10A940002B46324621460298A9DF042804D0082865
:10A9500004D00B2807D002E0112000E00020002FD7
:10A9600000D10B20FEBD0027A80701D50125E7E790
:10A970003443F6D0002426460325E1E7FFFF00001C
:10A98000F1B582B0029800F0EBF907461B48874208
:10A9900001D11B48FEBD01252A466D1C0026ADB223
:10A9A0006B460821384601F0FFFB040002D0072C5B
:10A9B00021D021E0019903230B600A1D891D029813
:10A9C000AADF040004D00C2C08D0052C08D008E025
:10A9D0000821384601F082FC04460DE0012600E023
:10A9E00000240821384601F063FC002800D003242D
:10A9F000002ED1D100E00C242046FEBDFFFF000058
:10AA0000023000001FB504460078012813D12079D8
:10AA1000012810D1608802AA012101F095FB0028CD
:10AA200009D10221684601706188418001210171CC
:10AA300005490968884704480449083880888842DD
:10AA400001D002F0BFFF1FBD84000020FFFF000007
:10AA50001CB500F085F96A46012101F075FB00285C
:10AA600001D000201CBD019800781CBDF8B5074E30
:10AA7000074C084D0746324661883846A7DFA84292
:10AA800003D16088401C6080F5E7F8BDFFFF00003F
:10AA90007C000020033000008188054A914204D0E8
:10AAA0000088002801D00120704700207047000076
:10AAB000FFFF00003EB5044600780D46022815D180
:10AAC0000322611C6846FDF737FB0322211D02A803
:10AAD000FDF732FB01AA02A92846FDF76BFE03220F
:10AAE00001A96846FDF74CFB002801D000203EBDBF
:10AAF00001203EBD10B50C46FFF788FEFF280AD0A6
:10AB00000C214843054907224118091D2046FDF73D
:10AB100013FB002010BD052010BD0000980400208C
:10AB200070B5018890B0102949D1011D2C2202A8CE
:10AB3000FDF702FB6846234E007B344602AD032836
:10AB40002AD001F0D3FC6846007B00280ED00128F3
:10AB50000CD0022820D118E00E99281D1131FDF7E4
:10AB6000FBFC002802D06846048815E00DAA69465F
:10AB7000072001F091FC0028EED10DE00E99281D70
:10AB8000491CFFF797FF0028EDD10DAA6946072061
:10AB900001F082FC0028F1D168460089291D00F0EF
:10ABA000F7FDB4420BD068460089214600F086F8D4
:10ABB00068460189418001210170FFF789F810B0D2
:10ABC00070BD0000FFFF0000084A00210C234B432A
:10ABD000D35A834204D10C204143881840887047DF
:10ABE000491C0829F2D3024870470000980400204D
:10ABF000FFFF000010B50E4C182060700D4A0E4982
:10AC000000200C2343435B18401C5A800828F8D3CB
:10AC1000FEF780FA6070182804D00548C01C71DF68
:10AC2000002801D0032010BD01202070002010BD9D
:10AC300088000020FFFF00009804002070B5044643
:10AC40000D46401C00F090F9002810D01022691C1D
:10AC5000601CFDF795FA00280AD0002629462046F8
:10AC600011311130FDF778FC01463046084370BDC4
:10AC70000126F3E70188002903D142189278002ABF
:10AC800001D001207047491C0829F6D300207047E5
:10AC900010B50C460346FFF7EDFF00280BD01888CF
:10ACA0002188884206D10822A11C981CFDF768FA69
:10ACB000002801D0002010BD012010BD10B501F00A
:10ACC000D1FD10BD10B50446007888B0002826D10B
:10ACD0002079072823D1608801AA072101F034FADE
:10ACE00000281CD101F002FC1BE06946608809883D
:10ACF000884216D004990298FFF7A0FF002810D0D0
:10AD00006088FFF761FF01466846C1820021017536
:10AD1000618801830188418305A8FEF7D9FF08B047
:10AD200010BD03AA6946072001F0B6FB0028DCD15C
:10AD3000F5E7000070B50446FFF746FF05462046DC
:10AD400001F007FA054904468D4204D0002C02D1D7
:10AD5000284601F087FD204670BD0000FFFF00007F
:10AD600010B5FFF753FDFF2804D00C2148430249DA
:10AD7000085A10BD014810BD98040020FFFF0000D4
:10AD80003EB5044601F0B2FB10E001992046463181
:10AD9000FFF77EFF002806D1019920462A31FFF7F0
:10ADA00077FF002802D0684600893EBD6A4602A9A6
:10ADB000072001F071FB0028E7D101483EBD0000EB
:10ADC000FFFF0000F8B50F46002804D00120FFF770
:10ADD000B3F90120F8BD397900290AD00026254DA4
:10ADE00001290BD0244C022920681FD003293BD114
:10ADF00025E000F0E7FF0121397133E00020010177
:10AE0000695C02290BD0401C80B20228F7D30220D3
:10AE1000FFF7ACF90120FFF78FF91848F8BD0401DE
:10AE20006019406800F0C0FF2E551BE0014600236A
:10AE300001221348FFF7D0F90221A18011E000F0B0
:10AE4000B3FF0C492368203149880A010949511888
:10AE50004D6825604B60A3880B810221A1800549C4
:10AE60008E543E710028D9D00120FFF765F90E20DD
:10AE7000F8BD0000480A0020240100201D1D00002C
:10AE800044010020F8B51E4C2078002836D0E06838
:10AE9000002600280CD00025607800282ED16846B6
:10AEA00052DF052806D0002806D0FDF70FFD0BE085
:10AEB0000125F1E7012607E0009800F00FFD216968
:10AEC000002901D000988847002D13D16078002810
:10AED00014D1608869460880A06861DF052804D025
:10AEE000002804D0FDF7F2FC04E0012502E0E1684F
:10AEF000A0688847002ECFD0002DE5D0F8BD000017
:10AF000030010020418805480288914204D34088DE
:10AF1000814201D801207047002070476000002066
:10AF20001048018CC9B2012917D1818C090714D1AD
:10AF3000018D09060A0F03D1828D1206120F0ED061
:10AF4000090F012903D1828D1206120F07D00329A0
:10AF500003D1808D0006000F01D000207047012032
:10AF600070470000C00F00F00021425C002A01D0B1
:10AF700001207047491C1029F7D300207047800733
:10AF800001D00020704701207047000010B5044830
:10AF9000017AC90702D00078FEF702FB10BD00005D
:10AFA00008000020FFB5244D81B0287A1F460E46C8
:10AFB000084304D0039A002E04D0002104E00520A9
:10AFC00005B0F0BD1C491031019802F063FF044642
:10AFD000014600220198FFF7D1F8002F03D0214647
:10AFE0000198FEF755FE0D2C0DD006DC002C0AD082
:10AFF000042C16D0082C05D105E0112C05D00F48E3
:10B00000201800D003242046DAE73246E978019878
:10B01000FEF7B6F8A978039A0198FEF7B1F8002474
:10B02000F1E73246E9780198FEF7AAF8A978039A81
:10B030000198FEF7A5F8E6E7BC000020FECFFFFF71
:10B04000FEB517460C00064604D02078C00704D091
:10B05000012003E000217EDFFEBD02206946087169
:10B060003046FFF77DFE17490546884208D001A803
:10B0700000902B463A462146304600F025F806E07F
:10B0800020782146C007304603D000F081F80446FE
:10B090000BE07EDF044600200090002C08D0002248
:10B0A00001232946304602F007FC002C02D006E0BE
:10B0B0000122F5E768460179304602F023FC20467C
:10B0C000FEBD0000FFFF0000FFB585B000252E4645
:10B0D00001AA07210E9F089801F036F8040009D153
:10B0E000029D0298183540300079C607F60F01D04E
:10B0F000029D34350798204312D1002D10D0002E28
:10B1000005D128461230FFF7B5FD002808D02946A2
:10B110002A461231059885DF04460020387023E066
:10B12000002C01D0052C1FD106980078C0070DD047
:10B1300003AB01220721089801F036F804000AD178
:10B140000721089801F02EF9040004D1069905980A
:10B150007EDF040008D00721089801F0A9F8002834
:10B1600002D0052800D00324002000903878002861
:10B1700001D0012300E00023002C07D00022089911
:10B18000059802F099FB204609B0F0BD0122F6E7D0
:10B19000FEB50F46064600F0CBFF0546184885422F
:10B1A00020D001AB01220721284600F0FDFF04005A
:10B1B0000AD10721284601F0F5F8040004D13946E8
:10B1C00030467EDF040008D00721284601F070F8E1
:10B1D000002802D0052800D0032401200090002C74
:10B1E0000BD002E003240020009000220123294616
:10B1F000304602F061FB2046FEBD0122F6E700006A
:10B20000FFFF0000F7B5114D0F461646297800984C
:10B21000FDF7A4FF002812D00098FFF7A1FD044617
:10B220000B4884420BD069780098FDF797FF0028FF
:10B2300006D033463A462146009800F04DFEFEBD4A
:10B24000324639460098FEF7C5FCFEBDB800002026
:10B25000FFFF0000F1B586B00698FDF773FF0028E8
:10B2600021D06846FDF7A4FE00246E4618E0600079
:10B270008519A8880699FDF771FF00280FD00B4F9C
:10B28000A888B978FDF76AFF0590A888F978FDF7D6
:10B2900065FF0146A8880123059AFFF783FE641C19
:10B2A0000098A042E3D807B0F0BD0000BC00002029
:10B2B000F0B5284C2146103948688B6822788646BC
:10B2C0009C46CF78667836E0182353436168521C59
:10B2D000C918A378D2B2934200D100220B78022B76
:10B2E00002D0032B27D123E003464D68194603E023
:10B2F000A94204D00B46C96900291CD0F8E70029EF
:10B3000019D08B4208D1C069002805D1124F012500
:10B31000BD600025AC4601270D68C969D9610029C7
:10B3200009D00B685B190B6005E00174C06900E08F
:10B3300000210028F9D19642C6D10649624610394B
:10B340008A604860CF70704501D00120F0BD0020B8
:10B35000F0BD0000F800002000100140F8B52C4EB0
:10B36000044670680025009041E0002C02D0204681
:10B37000E46920E0264818231030017842684B43E6
:10B38000491CC9B2D21801708378994200D1057066
:10B390001178506801292CD1017C002929D19168AC
:10B3A0004160D16881601169C16051698161F17842
:10B3B000002900D045604368B268164F991A090207
:10B3C000090AB94202D28268891806E0D11A090234
:10B3D0008268090A8A4202D9511A016000E00560B8
:10B3E0004560012185600174C56102F00BFF002CEE
:10B3F000BBD107481030017840788142BAD17168DA
:10B400000098814201D00120F8BD0020F8BD000065
:10B41000E8000020FFFF7F00FEB504461948002623
:10B4200084422DD02046FFF775FA050012D00B2D6F
:10B4300014D0112D10D0144828181BD009216846AB
:10B4400001702046FFF78CFC0146684641808480ED
:10B4500002950DE0022102E001260BE0032168467F
:10B4600001702046FFF77CFC0146684641808480DD
:10B47000FEF728FC0548324681782046FDF780FE1D
:10B48000FEBD0000FFFF0000FECFFFFF70000020A8
:10B49000FEB504460026FFF773FA05460C281AD0BD
:10B4A00004DC002D13D0042D05D127E0112D10D080
:10B4B000134828181BD00921684601702046FFF761
:10B4C0004FFC014668464180848002950DE00121D1
:10B4D00002E001260BE007216846017084802046C7
:10B4E000FFF73EFC014668464180FEF7EBFB05484E
:10B4F000324641782046FDF743FEFEBD0821EBE7CA
:10B50000FECFFFFF70000020F8B5054600780C461E
:10B510000026204210D10020694608706846FDF7D9
:10B5200089FA28780146214202D120432870012659
:10B5300068460078FDF79CFA3046F8BD002398B0C5
:10B54000474A05211846FDF7E3F9002801D0FDF729
:10B55000BDF9444A44490320FDF7D2FF002801D039
:10B56000FDF7B4F969460020FDF7A0FE002801D0E0
:10B57000FDF7ACF968460078022869D000216846DA
:10B580000171FDF75BFE6846007901F07FF901204B
:10B5900001461031684601730A2234A103A87CDFFA
:10B5A000002801D0FDF792F900240094502168464C
:10B5B00001940180A0214180FF2184809131C180CC
:10B5C0007ADF002801D0FDF781F9382101A8FCF7C6
:10B5D000CCFD022168460171012585710621C171EA
:10B5E00085822548069020210FA8FCF7BEFD08A8FB
:10B5F000C577FF202D301390B420009414901F4B7A
:10B600000FAA002101A8FDF7CDFA002801D0FDF70F
:10B610005DF91C216846FCF7A8FD0520C0030190D8
:10B620000F20000402900094032168460173C48136
:10B63000047413480590134806906846FDF746FCCD
:10B64000002801D0FDF742F90320FDF7BBFB02E023
:10B65000012194E748DF0028FCD0FDF737F9F9E72E
:10B660005401002059940100CD0C0000596573204D
:10B6700057652043616E0000020000208BBB010073
:10B6800051BC0100219A010070B51446828805461C
:10B690000E46921C2088911C4118994201D8FE2A1E
:10B6A00001D90C2070BD521C32542088FF21401C4F
:10B6B00080B2208031542088401C80B220808119C3
:10B6C000288802F0D0FE2188401880B22080AA8805
:10B6D000002A09D0A968002908D08019FCF72CFDA0
:10B6E0002088A98840182080002070BD072070BDE8
:10B6F000F8B50F46017814460546012902D168784D
:10B70000002806D02088821C9A422DD8012902D018
:10B7100006E00720F8BD69784118891C994223D8B2
:10B72000181A801E86B2684606802188B81C081840
:10B7300069467DDF0028EDD12878022805D16946C9
:10B740000988B14201D809210AE00821012805D160
:10B750006878B04202D86A46108001E068460680E8
:10B7600068460088FE2801D90C20F8BD2288401CBC
:10B77000B8542088401C80B2208039542088694603
:10B78000401C20800988401820800020F8BD00005F
:10B79000F8B5FF240F46054600291FD0104EB542CC
:10B7A0001CD01048012241782846FDF7E9FC2846C4
:10B7B000FFF72CF80446FF2804D1FFF743F80446AE
:10B7C000FF280BD00C21484307490246401845800A
:10B7D0008E52001D07223946FCF7AEFC2046F8BD0C
:10B7E000FFFF0000880000209804002070B50B4D7A
:10B7F0000E46A84201D1002000E0401C84B209E0BE
:10B800002146304601F046FA002801D0204670BD9E
:10B81000641CA4B2FF2CF3D9284670BDFFFF0000C2
:10B820000121890740180068002800D001207047D6
:10B8300001220021920780180160704700280FD074
:10B840000849094A096800BF00BF00BF00BF00BF28
:10B8500000BF00BF00BF914200D000BF401EF2D128
:10B8600070470000280000200024F40010B50C4CA4
:10B870002078002801D0852010BD0020A0606060E5
:10B880002061E060032100F02FF802F059FC012153
:10B89000002801D1034881612170002010BD000003
:10B8A000C40800200005004038B500206946087033
:10B8B0006846FDF7BFF8084C2078002801D1FFF753
:10B8C000D5FFE068401CE0600120A0706846007869
:10B8D000FDF7CEF838BD0000C408002010B50028E0
:10B8E00001D1FDF7F1FF10BD8207D30EFF229A4070
:10B8F0008907090E10B5994000280BDA03071B0FC2
:10B90000083B9C080C4BA400E318DC6994430C43EF
:10B91000DC6107E08408094BA400E4182368934322
:10B920000B432360C106C90E01208840044908600A
:10B930000449086010BD000000ED00E000E400E0F4
:10B9400080E200E000E100E0F3B581B00F4601982D
:10B9500000F0E2FF012400281D4E019817D0FDF7EA
:10B9600071FF80192030007F8009032802D0012850
:10B970000BD005E01748006901998C40204204D0A3
:10B980000321019800F0CCF8FEBD0221F9E700F098
:10B99000CFFF0028F8D00198FDF754FF054681003D
:10B9A000C81D0D4AF93089180A6980B222430A611C
:10B9B00000F0C6F8002FE7D00198FDF743FF8000A4
:10B9C00030580028E0D00548AC404460FEBD00007F
:10B9D000D8080020000500500065004000630040CA
:10B9E000FEB515460E460446002700F08BFF0028E2
:10B9F00001D0082738E0F27829462046FDF7FEFE00
:10BA00000546401C2FD0B078002807D01748A10069
:10BA10000918086802229043086007E00021737843
:10BA2000204600910A46019100F068F8F07800285D
:10BA300010D00F48AA001018317802690D4B1A4037
:10BA40000261E206D20C8907890B0A4301690A43A5
:10BA5000026109E00848327840192030017F9201E4
:10BA60001143017700E004273846FEBD000700506F
:10BA700000650040FFE0FCFFD80800200349096989
:10BA8000C140C807C00F00D001207047000500501A
:10BA900070B5144D2879002801D0082070BD1149D7
:10BAA00000204039421E0B182033401CC0B21A70CF
:10BAB0002028F8D300242046FDF792FE641CE4B24F
:10BAC000082CF8D303210620FFF70EFFFF207D305E
:10BAD00000F036F801200449C007486001202871B1
:10BAE000002070BD18090020006300400248007962
:10BAF000002800D0012070471809002030B55200FE
:10BB00000A439900039C0A432102049D0A43290425
:10BB10000A43024980004018026030BD000700500F
:10BB2000820006481018026803231B049A4302602F
:10BB3000026809040A4302607047000000070050D1
:10BB40000249401800210160704700000060004079
:10BB5000034940180068012800D000207047000009
:10BB6000006000400921C901411808680860704759
:10BB70004058002800D0012070470322120280188C
:10BB80004068084000D00120704710B5002809D057
:10BB9000032806D10220FDF7A5FC002801D0FCF700
:10BBA00095FE10BD02F01AF810BD000010B5044655
:10BBB000008888B03A2821D009DC022824D0102837
:10BBC00011D011280DD10020FDF78CFC19E051286F
:10BBD0001ED0552805D1A088132176DF11E0FCF78F
:10BBE00075FE08B010BD0720FDF77CFC002801D0D1
:10BBF000FCF76CFE1549A0880880F2E7A0881321A5
:10BC000076DF0028EBD1ECE7A088002167DFF8E7BA
:10BC10001022A11D04A8FCF78FFA6846017C0029B8
:10BC2000DFD0007E042803D0062801D00528D8D113
:10BC3000022908D0012069460870FF2083308880DF
:10BC4000A088A8DFDDE70220F5E700000000002063
:10BC500010B50078002807D104483B21008876DF22
:10BC6000002801D0FCF732FE10BD000000000020CB
:10BC700010B5134A00215170017A012911D002290F
:10BC80000ED18189491C8181C189491C89B2C18138
:10BC9000028A914204D1002101F044FE01F07EFAB3
:10BCA00010BD838AC28A991AFF2901DC89B201E09A
:10BCB000FF210131511889B2C1829942EBD010BDE8
:10BCC0002C010020F7B51C4D0E4601466A6F00207E
:10BCD00082B0032A2DD82C4678340827636CBF1B0A
:10BCE000BB4226D8286F10188007800F1C225043B3
:10BCF0004019FCF721FA686F401C6867002E17D0C6
:10BD0000216C606C40184007800E001900230090E1
:10BD100009E00498D9000A18009806CA06C06846C7
:10BD2000FDF7A8FD5B1CB342F3D3606C801960641F
:10BD3000012005B0F0BD0000880900200389CA1C5D
:10BD40009A1802814289511AC91E41817047000028
:10BD5000F7B50D460121890247180446002608342C
:10BD600002202880BC4217D22068401C14D02046F4
:10BD7000FEF792FE00280DD00A48A1684268914261
:10BD800000D94160608881000C1929880C3408189A
:10BD9000C01CE6E70126F5E70298002800D00670EF
:10BDA000FEBD00001401002008B5002100910146ED
:10BDB0000223024A0248FEF7B5FA08BD18EA01005C
:10BDC0004401002008B500200090044802230168C7
:10BDD000034A0448FEF7A6FA08BD0000240100202B
:10BDE00010EA010044010020F8B50025354F2C462B
:10BDF0002E4600953448B102006840180168B942E7
:10BE000005D1324A4168891830D001290CD000216F
:10BE10008A0082580346521C36D003202C49220146
:10BE20008854641CA4B21BE0009900290CD0284B54
:10BE3000022221015A54274A1368254A89180222EE
:10BE40004B60641C0A81A4B2224900220860091DCB
:10BE5000FFF77EFF1F488088022831D00820054365
:10BE6000761CB6B2032EC5D3E8B2F8BD184900233C
:10BE700022018B5451180A4648600E320831FFF7F0
:10BE800067FF02200543CCE7491CFF29C0D91149AF
:10BE90000A68002A0CD00E4A02212301D1549A18B4
:10BEA00050600B48118120304480641CA4B204E02F
:10BEB00002200B6088800120009001200543CFE71D
:10BEC0000420CCE7DEC0ADDE4401002002FEE10E1E
:10BED000480A00202401002070B5194D0E46044682
:10BEE0002C3523CD86B002950090019168464480A0
:10BEF00082808371134D2046A978FDF72FF9002821
:10BF000003D03046FEF716FF0FE00721304600F061
:10BF1000CFF9002809D0052807D1092269460A73FC
:10BF2000CC81049003A8FDF7F5FE00222978204675
:10BF3000FDF726F96846FDF7EDFE06B070BD00007E
:10BF4000BCE90100B8000020F0B585B00746FDF758
:10BF5000F9F8002814D06846FDF72AF800246D4649
:10BF60000BE060004619B0883946FDF7F7F8002865
:10BF700002D0B08802F02EF8641C0098A042F0D8DD
:10BF800005B0F0BD70B5054D06460024A000295847
:10BF900030468847641C052CF8D370BD98E9010031
:10BFA0003EB50F4D002414206043401902F068FB99
:10BFB000641C082CF7D30821502001910A49012460
:10BFC000C2000290074B0094881800F0ECFC002897
:10BFD00001D003203EBD0348447000203EBD000058
:10BFE00098070020A00000200805002010B500F0F0
:10BFF0004BFA10BD10B500F04BFA10BDF0B500259E
:10C0000085B00095019502950395044641886846E0
:10C010004180217901712E462179608802F00AFB66
:10C0200022780421404F1300FCF76CFA0A0606360A
:10C030001C1C383E43484B4D00280DD0417CC9079D
:10C040000AD002F02FFB684606702078012800D045
:10C050000020694608722AE0012069460870A0683D
:10C06000029024E000280ED08268A3689A420AD188
:10C07000427CD30707D07B6852085B1C52000A43FE
:10C080007B6042741FE0022069460870E0680390FC
:10C090000DE0FFF777FF16E0032006E06846017029
:10C0A000E06802906846F4E7052069460870084693
:10C0B000EFE7062069460870E068D1E70125072010
:10C0C000F3E7E06802907868002824D0174E002437
:10C0D000142027464743B819417C4A0703D48907EF
:10C0E000C90F29421CD08178F05B00F0F7F80028D6
:10C0F00016D014214C43325B69464A80B9198A78BC
:10C1000069460A71042808D009216A461170029014
:10C110006846FFF737FF05B0F0BD08200870F7E765
:10C12000641C082CD4D3F6E7A00000209807002058
:10C1300010B500F071FA10BD08B513889B0000938C
:10C140006B4600F0DBF908BD10B5002300F0D6F90E
:10C1500010BD38B50546002420460AE081782846FF
:10C1600000F0A6F8002802D0052800D0032400988B
:10C17000401C00906946284602F06EFA0028EDD176
:10C18000002C07D1284600F04FFA002802D00728DB
:10C1900002D00324204638BD0724FBE710B5134620
:10C1A000002200F0E3F910BDFFB581B004981546F8
:10C1B0000E46002804D0072E05D0082E19D102E023
:10C1C0000E2005B0F0BD002D13D0082D11D8019818
:10C1D00000F035FA00280CD000200090314601987C
:10C1E00002F028FA040026D0E068A84212D2002704
:10C1F00009E00720E5E7207CC019C1B22A4800F019
:10C200000BFC7F1CFFB2E068B842F4D8204602F075
:10C2100037FA10E0A84217D9EFB207E0207CC01926
:10C22000C1B2214800F0F8FB7F1CFFB2E068B842C1
:10C23000F4D8002C08D1FF211C48019F02F0FAF924
:10C24000040005D00780A670207CFF2802D00AE0F9
:10C250001120B6E72946144800F076FB2074FF2829
:10C2600013D001200090E560217C0F4800F0BDFB59
:10C2700002000ED0ABB23146049800F071FA00987B
:10C2800000280FD0082E06D00CE0204602F0F8F966
:10C29000DEE7032095E70498049900884968800048
:10C2A000801F888000208CE788070020FFFF0000A7
:10C2B00070B5002402F0BEF905000CD068680028B3
:10C2C00004D000F0D8F9040000D00324284602F07E
:10C2D000E9F9204670BD052070BD00007CB50D4613
:10C2E0000646072903D0082D01D007207CBD002079
:10C2F00000900190684685702946304602F09AF910
:10C30000040004D0607CC00703D000207CBD052061
:10C310007CBD217C214800F068FB020025D0294625
:10C320006846E36800F0AFF9684602F071F9234609
:10C33000083369463046626800F018F90246607CAE
:10C340001749430704D5830702D54B685B1E4B6032
:10C35000FB25FD23002A0AD0112A0DD0042A14D06F
:10C36000072A00D0032210467CBD03207CBD01219A
:10C370000843284018400EE04A68521C4A600421D5
:10C380000843184060740022EDE74B6828405B1CAE
:10C390004B60022108436074E5E700008807002035
:10C3A000A00000207CB50D46072903D0082D01D040
:10C3B00007207CBD002602F03DF9040003D0606830
:10C3C000002802D01BE005207CBD217C0E4800F037
:10C3D0000CFB024600200090019068468570002A00
:10C3E0000FD02946E36800F04EF9684602F010F9D4
:10C3F000211D684600F027F90646092801D030467D
:10C400007CBD03207CBD000088070020014909682D
:10C410000847000094E9010070B588B01748FDF79F
:10C4200029FE002802D0032008B070BDFDF75EFD94
:10C43000002801D00420F7E700F0E8F90020104CB4
:10C440000290E61F03900DE0694604A8FDF7D6FDB3
:10C4500000988088801B85B204A8FDF78DFD2846D2
:10C4600000F088F902AA04A92046FDF7ACFD0028D7
:10C47000EAD00449012008700020D5E73D9D010065
:10C4800007C000009400002010B500F09DF910BD19
:10C4900010B500F0A1F910BD70B50546032080036A
:10C4A00086B014460E46281880B20F4A6946FDF73A
:10C4B0008AFD002805D103A96846FDF79FFD0028E5
:10C4C00002D0002006B070BDA5700398408820807F
:10C4D0000498606003988088FDF71CFE30806846F1
:10C4E000FDF74AFD0120EDE79800002002480021F9
:10C4F000416081607047000094000020F0B587B073
:10C500001D46144607460E46FF280CD8084600F084
:10C5100017F9002807D003AA3146384600F0F8F88A
:10C52000002809D102E0072007B0F0BD01A903A847
:10C53000FDF764FD002801D00520F5E7A6700198FD
:10C54000002D408820800AD082002868904204D8BC
:10C5500002996068FBF7F0FD03E00420E4E702982D
:10C56000606003A8FDF708FD0020DDE77FB588B017
:10C570001D460C460646FF2831D8A07800F0E0F8AA
:10C5800000282CD060680690208869468883304651
:10C5900000F076F969460880A078032189034018E5
:10C5A0006946488006A8019001200881A17803AA65
:10C5B000304600F0ADF8052813D00AA8FDF786FD37
:10C5C000694603A8FDF73CFD002818D0072820D0B5
:10C5D00008281CD00E281AD003200CB070BD0720EC
:10C5E000FBE70A98002805D00AAA694603A8FDF7C8
:10C5F00037FDE9E7694603A8FDF72CFDE4E7002DC8
:10C6000003D0294603A8FDF7EEFC0020E5E7112042
:10C61000E3E70420E1E7000010B5024800F0AAF8C3
:10C6200010BD0000FFFF000010B5FF2801D9072052
:10C6300010BD00F0A7F800F02BF8002010BD10B5D9
:10C6400000F0F8F810BD70B504460D46807800F093
:10C6500077F800280BD021882846FDF71DFD00281B
:10C6600004D0072805D0092800D0032070BD07207A
:10C6700070BD042070BD01B56846FDF727FD002898
:10C6800000D0032008BD10B59BB200F069F810BDC2
:10C69000F0B589B000261C4F04963846059600F088
:10C6A00093F80446194D06E0204600F07FF8204636
:10C6B00000F08AF80446BC4222D000F0E1F804AA57
:10C6C00006A9FDF788FC0A28EED0A878002817D123
:10C6D0000320800301272018AF7080B2FDF7BCFB58
:10C6E00008280FD000280BD0AE70092269460A70C6
:10C6F0004C80FF220A71039002966846FFF786FE7F
:10C7000009B0F0BD6F70FBE7FFFF00009400002050
:10C710007CB5054616460C46084600F011F8002088
:10C7200003210090890301906818611880B289B2D2
:10C730006B463246FDF740FC002800D005207CBD4A
:10C7400007280BD0012809D0082807D0052805D0D4
:10C75000062803D0042801D000207047012070472C
:10C7600010B5502463439BB28170DB1C9908426072
:10C77000018010BD10B50249FDF788F810BD00001A
:10C780003808002010B504460648844207D0064900
:10C790002046FDF77BF8A04201D1012010BD00200A
:10C7A00010BD0000FFFF00005808002010B504462F
:10C7B000044900F0E1FE03492046203100F0DCFE90
:10C7C00010BD00003808002010B50249FFF70EF830
:10C7D00010BD00005808002070B50A49FFF706F8A0
:10C7E0000446094D08E000F031F8002807D005495B
:10C7F0002046FEF7FBFF0446AC42F4D170BD204654
:10C8000070BD000038080020FFFF000010B5084888
:10C810004021FBF7AAFCFF2401342146044800F024
:10C8200009FA03482146203000F004FA10BD000048
:10C830003808002010B5FF2804D80146024800F04F
:10C8400029FA10BD002010BD3808002010B5FF28BF
:10C8500004D80146024800F01DFA10BD002010BDAA
:10C860005808002010B50C46FDF7D0FFFF2803D074
:10C870000C21484301490C5210BD000098040020CF
:10C8800003218903401880B2704700001CB504469C
:10C8900000F08EF9002801D0FCF718F8002C05D024
:10C8A00000F094FB002801D0FCF710F80020009065
:10C8B0000190684600780122104381210840303001
:10C8C0004106490E684601700721417010218170B0
:10C8D000C178022311431943C170017911431943EF
:10C8E000017100F0A9FB002801D0FBF7EFFF04481D
:10C8F00000F08AFB002801D0FBF7E8FF1CBD000018
:10C9000065CA01000349081820214156C817401C78
:10C9100070470000D808002004490818202141561B
:10C92000042901DB0120704700207047D80800204F
:10C930000449081820214156042901D201207047DA
:10C9400000207047D8080020F8B50F46060028D010
:10C950003068002825D07068002822D0FF240025E8
:10C960001CE02946706800F06DF9002808D0FF2C03
:10C9700000D12C46281B401CB8420DD12046F8BDE2
:10C98000FF2C06D108E02146304600F045F8641C33
:10C99000E4B2AC42F7D3FF246D1CEDB2B068A842FC
:10C9A000DFD8FF20F8BDF8B50400069E089D079863
:10C9B00019D0002917D0002B15D007466F43974296
:10C9C00011D8C21DD208B2420DD800280BD0002DBC
:10C9D00009D0E56063602160A06081B2184600F074
:10C9E00029F90020F8BD0720F8BD70B504000D46F8
:10C9F00010D0206800280DD0606800280AD0FF2DD4
:10CA000008D000F047F9002804D0E06821686843A6
:10CA1000081870BD002070BD70B504000D460FD021
:10CA2000206800280CD06068002809D0FF2D07D0AE
:10CA300000F030F9002803D02946606800F036F98C
:10CA400070BD10B501F0E8F810BD000010B5044A43
:10CA50001278002A02D001F015F910BD082010BD8F
:10CA6000A800002008B501780B00FBF74BFD0F096B
:10CA70001209131E2532122C12322E3212341200D9
:10CA8000808800F0EBF9112803D0002801D0FBF7D3
:10CA90001DFF08BD4189114A8918FAD1408801213A
:10CAA000FFF7D4FF0828F0D108BD0021009140888D
:10CAB0006946FFF7C6FF08BDFDF7F4F90E28FAD066
:10CAC0000828F8D0E1E70020E1E70320FCF77AF935
:10CAD000DBE78068D9E700F0A3F808BDFAEFFFFFB5
:10CAE00070B586B0044614216846FBF73EFB6088AB
:10CAF00069468880FEF768F86946488026780020F5
:10CB00000822072105253300FBF7FCFC0A06060B6B
:10CB10000D0F1416281A1D256B46197058721A72BB
:10CB200019E00D2009E00E2007E06A4611705072EE
:10CB3000157210E00F2000E01020694608700AE02E
:10CB40006846057007E0062168460170A0680290FB
:10CB5000A188684641806846FDF7C8F806B070BDF8
:10CB600010B50446007886B000281AD0012816D1E6
:10CB70000E49608801224979FCF702FB14216846BE
:10CB8000FBF7F3FA6088694648806088FEF7E8F8AA
:10CB900069468880002008706846FDF7A7F806B04F
:10CBA00010BDE08800F04EF9F9E70000A800002071
:10CBB00070B5FFF731FC00282ED1FFF7F1F90028FE
:10CBC0002AD101F037F8002826D101F045F90028D4
:10CBD00022D1FDF7C9FD00281ED1FDF783FE0028F4
:10CBE0001AD1FEF707F8002816D10C4C401EE08041
:10CBF00000251820A56020716071FCF78BFA207168
:10CC0000182809D0FCF786FA6071182804D06570DE
:10CC100001202070002070BD032070BDA8000020FE
:10CC200010B503480078002801D0FDF7C1FD10BD04
:10CC3000A800002010B5002803D0C91DC908FBF7C3
:10CC400094FA10BD10B5002809D04B075B0F0122E4
:10CC50009A40C908D2B208181146FEF755FC10BD1B
:10CC6000F8B50D46060013D0002401270EE0610739
:10CC7000490F38468840C1B2E0088019FEF744FCED
:10CC8000002801D02046F8BD641CA4B2AC42EED30B
:10CC90002846F8BD002807D0CA08805C4A07520F12
:10CCA00001219140084000D001207047F8B50446AA
:10CCB0004805050E4907490F01208840C6B2002CDF
:10CCC0000ED0605D30420BD0002168460170FBF74A
:10CCD000B1FE605DB043605568460078FBF7C8FE62
:10CCE000F8BD000010B5044606480078002808D0BA
:10CCF0002046FDF715FF204600F084FF2046FDF793
:10CD000071FC10BDA8000020F0B58BB004461421C2
:10CD10006846FBF72AFA608869468880FDF754FF69
:10CD20006946488027780120082207210026434DC4
:10CD30003B00FBF7E7FB0A060E20353B435F80789C
:10CD40007A806A4611702179117256720396907238
:10CD50006EE06A461170217911725672A1680391D2
:10CD60009072A868002863D0A168814260D1AE604B
:10CD70009088E88012E0684602702179017246725C
:10CD8000A0680390E0680490A868002850D0A168CB
:10CD900081424DD1AE60E868401EE860039647E0EE
:10CDA0006A461170217911725072F7E769460A706C
:10CDB00022790A724872A068049039E00920694615
:10CDC0000870A878002833D01D4C2046FFF712F9D0
:10CDD000A0422DD12046FFF709F9A04228D1AE701C
:10CDE000142105A8FBF7C1F90B21684601750483DE
:10CDF000C48214E00A2069460870A0680290A878EE
:10CE0000002815D0AE70142105A8FBF7AEF90C2050
:10CE1000694608750A480883C882A068079005A873
:10CE2000FCF764FF04E0052000E006206946087076
:10CE30006846FCF75BFF0BB0F0BD0000A8000020C7
:10CE4000FFFF000010B504490978002902D0FDF762
:10CE500071FF10BD082010BDA8000020F0B52D4CBA
:10CE60000646207887B0002808D02B498868C96812
:10CE7000069105906078002803D00FE0082007B0E5
:10CE8000F0BD244900230C311A46881F00F046F8F3
:10CE9000002801D0052801D1012060706078A168C8
:10CEA000401E084301D0112531E0E088002786426A
:10CEB00019D1E068002816D0002514216846FBF738
:10CEC00054F90721684601703046FDF77DFE0146A2
:10CED00068464180868006210172477203978772F7
:10CEE000FCF704FF13E0E0680A4A401CE0600832E7
:10CEF00005A93046FFF752F9050008D0A760E068A1
:10CF0000401EE060112D02D0042D00D003252846DC
:10CF1000B5E70000A8000020ACE90100FFB52848F3
:10CF200085B00078002816D0264E3046FFF762F80C
:10CF3000009000200390244801AA0068019003A8F3
:10CF4000029006210098FFF7F7F800256C1E37467F
:10CF5000072803D016E0082009B0F0BD0520FBE744
:10CF600000200390A84201D3009F0546A04201D2B1
:10CF7000009E04460098FFF73DF801AA06210090A4
:10CF8000FFF7DAF8002817D00528E9D00D490098F6
:10CF9000884213D105990020002900D00F800699FE
:10CFA000002900D00D600799002900D00E80089953
:10CFB0000029D1D00C60CFE70398D3E70320CBE75B
:10CFC000A8000020FFFF0000ACE9010070B50C488C
:10CFD0000178002904D001210A4D8170284608E01B
:10CFE000082070BDFFF72EFF002801D0032070BD80
:10CFF0002046FEF7FFFF0446A842F3D1002070BD93
:10D00000A8000020FFFF000010B5094A1178002990
:10D0100004D0D178032903D3042010BD082010BD0B
:10D020008B00044C491CE050D170002010BD000062
:10D03000A80000207808002010B5044909780029CC
:10D0400002D000F041FE10BD082010BDA800002055
:10D05000F0B585B00446012614216846FBF785F833
:10D060006088694648804B4F2078002539797A7965
:10D070000300FBF747FA0D828D081C30424C5159D2
:10D08000646A6C7E820001206A4610702079002854
:10D0900001D0012200E00022012806D0002560888E
:10D0A000FCF76EF860882A4611E00125F7E70220B8
:10D0B0006A4610702079002801D0012000E002208B
:10D0C000107260880122FCF75BF822796088797918
:10D0D000FCF756F852E00320694608706088114654
:10D0E000FCF73CF8002801D0012100E0022168464D
:10D0F0000172A1790173A18839E06088FCF72EF8EC
:10D10000002845D10220694608700D7236E00321DF
:10D11000684601700572ECE7072069460870A2882E
:10D120008A8008724D7230E0082168460170A1883B
:10D130008180072101724572A068049025E00620D5
:10D14000694608706068029018E0052012E003202C
:10D150006946087060881146FCF700F8002801D085
:10D16000012100E00221684601720B4905734181EB
:10D1700004E004206946087000E000266088FDF79E
:10D18000EFFD69468880002E02D06846FCF7AEFDB0
:10D1900005B0F0BDA8000020011100000848416E54
:10D1A000491E416604D10749FD230A781A400A70D6
:10D1B000016E491C0166042901D1002101667047F6
:10D1C000780A00202C01002070B50C490446486EF6
:10D1D000042810D00A6E1218042A00D3121F401C13
:10D1E000486618204243551801462846FAF7BDFF05
:10D1F0000120256070BD002070BD0000780A00206D
:10D20000F0B52B4C1C22216F85B051430D192978A4
:10D21000284E00270B00FBF775F907190509090DC2
:10D220000D1119002946FDF7CDFD09E0294601F051
:10D23000D9FA05E02946FCF72BFC01E0FDF7E8F8F8
:10D2400000282FD0B04202D1019710E00F200190AA
:10D250002878022801D0032809D11548AA7D783002
:10D26000016C89180164AA7D416C891A4164694680
:10D270002846FCF7C7FC6846FCF7FAFC206F1C2127
:10D2800048430019FAF771FF606F00280CD0216F36
:10D29000491C8907890F2167401E606704D0002060
:10D2A000FFF7AEFF05B0F0BD0420FCF745FFF9E73E
:10D2B000880900201D1D000010B518481822016EB5
:10D2C00051430C18406E00281FD0207A012802D04C
:10D2D000022816D10FE0A18AE08A091AFF2901DC91
:10D2E0008AB201E0FF220132E16880002369091857
:10D2F000181829DF01E0A08928DF112806D00028AE
:10D3000003D00921204600F00DFB10BD0449FD2289
:10D310000878104004221043087010BD780A0020DD
:10D320002C01002010B505480078400705D40420E2
:10D33000FCF71CFF0020FFF763FF10BD1401002065
:10D3400010B5054801784A07920F04D10222114313
:10D350000170FFF7B1FF10BD2C010020F8B50746A2
:10D360001D481C46007815460E46800701D4022051
:10D37000F8BD002D01D0002C28D10520F8BD0101F9
:10D380001648405C00281ED116E02068002F03D00C
:10D3900081883A8891420FD1002E03D001883288CB
:10D3A000914209D180682860206868600B4820306D
:10D3B000008928810020F8BDA088214600F060F88F
:10D3C0000028E2D12060A088401CA080A08802280C
:10D3D000D5D30A20F8BD000014010020480A00201F
:10D3E000F8B505464068244F00260C46002828D092
:10D3F00022490A68824224D84968814221D3FDF734
:10D40000BEFD00281DD028893989884219D1696854
:10D4100028688A68904214D13A460020203A0125B3
:10D42000AD0203019B185B688B4204D25B198B42EF
:10D4300001D9208011E0401C80B20228F1D30020E5
:10D44000F8BD268000960AE0009829688068884226
:10D4500005D100986860388928810120F8BD2088AE
:10D46000694600F00DF80028EED12088401C80B2FB
:10D4700020800228E6D3E2E7680A00204401002069
:10D48000F8B50E460A68124900014518002A04D072
:10D490005088800084180C3401E06C68083401273F
:10D4A000BF026868C019A0420FD92068401C0CD088
:10D4B0002046FDF7F1FA002802D001203460F8BDC3
:10D4C0006088800004190C34EBE70020F8BD0000F0
:10D4D000480A002008B50021009101460123044AB2
:10D4E0000448FCF71FFF002800D00E2008BD0000F4
:10D4F0000CEA01004401002003218903401AC0B254
:10D500007047000003218903401A0349884201D86B
:10D510000120704700207047FE3F000038B50446E8
:10D5200013480025436C002B08D0026CD500521C18
:10D5300052072D18520F5B1E4364026400200090B6
:10D54000A08AAB88800041180A482A68FCF7EAFEE6
:10D55000A18AAA888918A182A17D491E0906090EFF
:10D56000A17501D101212174002800D00E2038BD01
:10D57000000A00204401002010B50A46FF2803D805
:10D5800001461046FFF792FB10BD000070B5012464
:10D590000B49600408600B49401088600949403914
:10D5A0008860094D6C602F20FEF748F9AC60074D8C
:10D5B00000242F20AC60FEF741F9AC7070BD000074
:10D5C00080E100E04013014000100140E80000202D
:10D5D00030B5FF220523CD7D002409321B02C3187C
:10D5E000002D8450986905D04B7ECA68D054487E7F
:10D5F000401C487630BD1FB501246B461C70197263
:10D60000019206C8684690471FBD000010B5044649
:10D61000FAF794FF00280CD0A007C00E002C0ADAFD
:10D620002107090F08398908144A89008918C9692E
:10D6300006E0134810BDA108124A8900891809683C
:10D64000C1400806800F042811D200280FD00228FC
:10D650000DD00D494B68E206D20E01209040002B00
:10D6600008D0620992008B5803438B5004E00448B1
:10D67000401C10BD05490860002010BD00ED00E011
:10D680000120000000E400E00C01002000E100E0C7
:10D6900070B5049D002819D0002917D0002A15D094
:10D6A00000246600865B9E4211D100200123A34026
:10D6B0000AE0002D03D00C1826781E4302E00C1857
:10D6C00026789E432670401C9042F2D370BD641CA5
:10D6D000082CE6D370BD000070B505460024214635
:10D6E000284600F00DF8002801D0204670BD641CCB
:10D6F000A4B2082CF3D3014870BD0000FFFF000066
:10D7000001228A40024201D0012070470020704768
:10D7100010B50C4603000CD000204100595A91422C
:10D7200004D181B22046FFF7EBFF10BD401C082852
:10D73000F3D3002010BDF7B5002086B017460D4684
:10D740000090002913D000246E46A1B23846FFF79E
:10D75000D7FF002808D0009960004900285A89198D
:10D7600088800098401C0090641C082CEDD3142283
:10D7700069460698FAF7E0FC09B0F0BD08B50093D9
:10D7800013460122FFF784FF08BD0000F0B50546EF
:10D7900087B00C3000270090FDF7F2FA0646264CC1
:10D7A00028886946C880A64203D12888FDF7D8FAA0
:10D7B0000646A64213D004AA07213046FEF7C4FC51
:10D7C00000280CD1059C3434207CC00706D12046AB
:10D7D00012300099FDF75CFA002800D0274600239C
:10D7E00028881A46394686DF002808D009216A466B
:10D7F0001171029001A8FCF78DFA07B0F0BD00246A
:10D80000002F0BD02888002100F07CF80094012222
:10D8100028880023314600F04FF8EEE706216846DD
:10D82000017106490181847201A8FCF773FA009422
:10D83000002328881A46EDE7FFFF000006100000CD
:10D84000002835D00278910701D4D1092FD1510693
:10D85000490F04292BD8930703D5032901D1D109F6
:10D8600025D041788378994221D807291FD3102BDE
:10D870001DD8C1784B071AD40079430717D40B077A
:10D8800015D4030713D4D20702D0CA0709D010E079
:10D89000CA070CD189070AD4C10708D1800706D46A
:10D8A00007E0890705D4C10703D1800701D4002010
:10D8B0007047012070470000FFB581B0104D1F4632
:10D8C000164629780A9C0198FBF75AFC002E11D0C5
:10D8D0003A4669780198FBF753FC2246A9780198EB
:10D8E000FBF74EFC002C03D002990198FDF7E6F9F6
:10D8F00005B0F0BD002CFBD00298FDF71BFAF7E74E
:10D90000B80000203EB5064C6D4608341CCC1CC542
:10D910006A46508011716846FCF7FCF93EBD000074
:10D92000BCE901001FB5002200920192029203920D
:10D93000037A012B02D0022B11D106E06B461A703C
:10D9400002690292828A9A8109E001236A46137071
:10D950008289C389D31A6A461381838953814268B5
:10D96000019200688268684690471FBDF0B5144D6B
:10D970008BB0E878FBF7E6FB00281FD005A8FBF783
:10D9800017FB142205A96846FAF7D6FB00246F4658
:10D9900011E06000C619B088E978FBF7DFFB0028CA
:10D9A00008D0B0882979FBF7D9FB002802D1B088CC
:10D9B00000F02AF8641C0098A042EAD80BB0F0BD31
:10D9C000700000207CB50D490D4C03C901910090F9
:10D9D00000226946A088FEF7E1FB0A4D07E00846F1
:10D9E000FEF708FBA08000226946FEF7D7FBA1885E
:10D9F000A94201D01128F2D17CBD000078E90100D4
:10DA00007C000020FFFF0000FEB506460125002433
:10DA1000FDF72CF811281AD006DC002823D00628A0
:10DA20002DD0082806D12AE01A4941180FD01A4AE9
:10DA300089182BD0092269460A708E8002903046E0
:10DA4000FDF78EF9694648806846FCF73BF92A469F
:10DA5000124D3046E978FBF793FB22462979304690
:10DA6000FBF78EFBFEBD05216846017001243046A0
:10DA7000FDF776F90146684641808680E5E7002596
:10DA80003046FDF76DF9FCF71FFFE0E73046FDF784
:10DA9000C3FCDCE7FECFFFFF01FCFFFF70000020AE
:10DAA000FFB50746806A81B0144600283DD00025A6
:10DAB00038462030009033E00C20B96A68430E18D5
:10DAC000B088801CFE2802D90C2005B0F0BD228849
:10DAD0000299401C885420881622401C80B2208065
