:020000040001F9
:10B00000F8270020892F02004F0802007B10020061
:10B010000000000000000000000000000000000030
:10B02000000000000000000000000000872E020069
:10B0300000000000000000006B30020083300200BE
:10B040003D2302008D3002008F2D02008F30020060
:10B050009130020000000000D92802009330020065
:10B060009530020097300200993002009B300200B8
:10B070009D3002009F300200A1300200A330020088
:10B08000A5300200BDF20100A7300200A930020085
:10B09000D5F20100AB300200B7F50100AD3002007F
:10B0A000AF300200B13002000000000000000000DC
:10B0B0000000000000000000000000000000000090
:10B0C0008107890F481E8041C00F7047B0490A7838
:10B0D000104308707047AE490A7882430A7070477F
:10B0E0000100AB4800780140080000D00120704703
:10B0F00038B504000025A748A90040184168080099
:10B1000001D0200088476D1C082DF4D331BD818803
:10B11000A14A914204D00088002802D0012000E01A
:10B120000020C0B27047BCB582B00F008021C900BA
:10B130004118009100240830050002200DE0B448B9
:10B140008169AA68914200D21100816168888100FA
:10B150006D180C353988C01C081838800098854255
:10B160000BD228680021C943884206D02800FFF787
:10B17000CEFF0028E3D10124E8E70298002800D0A0
:10B180000470BFBD02001389C81C181810815089B3
:10B19000401AC01E5081704780B5002000900223E5
:10B1A00001A29B48016909E0DEC0ADDEFF011EF18E
:10B1B00080B500210091022302A20100954800F011
:10B1C0001DFF02BDDEC0ADDEFE011EF170B5C21C6A
:10B1D00092B2FE2A01DB092070BD002000238E4CB4
:10B1E0001D0164192578002D0BD1268995196689D2
:10B1F000AD19ADB2FF2D04DC0B8061898918618126
:10B2000070BD5B1C9BB2022BE9DB072070BD824A3C
:10B21000090151184A89101AC01E4881704770B53B
:10B220000C0021687C4A000110184568002903D0F1
:10B23000488880000E1805E02E00083603E070886C
:10B24000800036180C368020C000281886420CD2A8
:10B2500030680021C943884207D03000FFF757FF0C
:10B260000028ECD02660012070BD002070BDF8B52C
:10B2700004000E0060680025654F002826D0654A4E
:10B280001368984222D3526882421FD3FFF718FFF7
:10B2900000281BD020893989884217D1606821682D
:10B2A0008268914212D100215B4A0B01D218526888
:10B2B000824204D28023DB00D218904204D3491C7E
:10B2C00089B20229F0DB1AE0318010E03580009568
:10B2D00069463088FFF7A3FF00280AD000988068ED
:10B2E00021688842F4D1009860603889208101206B
:10B2F000F2BD3088401C308080B20228E7DB00209D
:10B30000F2BDF8B505000C0017001E000220FFF783
:10B31000E7FE002801D10220F2BD002F01D0002E4F
:10B3200005D10520F2BD3060B088401CB080B088E7
:10B3300002281FDA38490001085C0028F4D13100E6
:10B34000B088FFF76CFF0028EDD03068002D03D0E7
:10B3500082882B889A42F2D1002C03D0028823885D
:10B360009A42ECD181683960786029480089388137
:10B370000020F2BD0A20F2BD0268A54B1900383149
:10B380008A4202D0083202607047036070470000B2
:10B390002E360020A8340020FFFF0000F4B582B054
:10B3A00002000D00002600209A4F796F04292DD24B
:10B3B000974C0821491B636C994227D3786F396FEA
:10B3C00040188007800F1C214843381811001C22A8
:10B3D00000F016FF786F401C7867002D15D0606C68
:10B3E000216C40184007800E201800900298F10050
:10B3F000401803C8009A03C26846FFF7BDFF761CD9
:10B40000AE42F3D3606C401960640120FEBD0000C1
:10B410004C350020E81F002074340020FEB50020C9
:10B42000019000246946887008804A4E0027FF4337
:10B4300049480068098889024018611C89B2029154
:10B44000754922018918022502689E4B9A4225D12E
:10B4500042689D4BD21A02D0521E0BD01EE00A70D9
:10B4600048600A000E320831FFF75DFE019805437F
:10B47000019526E06A469278002A04D00D70326960
:10B480004A600D81029C3061002231001431FFF7C7
:10B490004AFEB08A022820D104201FE00022930037
:10B4A000C358BB420BD1521CFF2AF8D93269002A7B
:10B4B00009D00D7048600D817480029C08E0032063
:10B4C0000870029C0DE03061B582012069468870E9
:10B4D000019801210143019103E0082001990843EB
:10B4E000019068460088401C6946088068460088CC
:10B4F00003289DDB0198C0B2FEBD000080B500218D
:10B500000091012304A20100134800F077FD0028F8
:10B5100000D00E2002BD00000000FFFF10B50D4C52
:10B5200060883D49000109180B488A89002A07D123
:10B5300000230122496800F0A7FD0421217010BDFD
:10B54000052121700221A18200230122216900F03E
:10B550009BFD10BD4C350020E81F002080B5A5489C
:10B5600042685388DB1C03210170002100919BB2CB
:10B570000169808A8000091820E680B59D48011D78
:10B580004088FFF74CFE002802D0FFF7E7FF02BD1E
:10B59000FFF7C4FF02BD30B5012202231E499548C2
:10B5A0000478002C09D0E41E18D0641E1ED0641E3E
:10B5B000012C27D9A41E28D030BD03895B1C038130
:10B5C0000023438003731C010D5D6C1EA441E40F36
:10B5D000C518AC725B1C022BF5DB16E0818A426851
:10B5E0005288D21C89188182037030BD0269448858
:10B5F000240109194C6804614A60828A0A818382A5
:10B60000062100E00721017030BD027030BD00004E
:10B6100084320020F830002074340020F8B5020095
:10B620000D000F20002A04D00120FFF754FD012057
:10B63000F2BD02276F4E00242979002905D0022986
:10B6400020D007D3032925D034E0FFF7A5FD012141
:10B6500029712FE00020B34902018D1829780229B1
:10B6600004D16868FFF7A4FD2C7023E0401C80B271
:10B670000228F0DB0220FFF729FD0120FFF72BFD58
:10B68000A948F2BD002301223169A84800F0FCFC62
:10B69000B7820EE03069FFF78BFD72883169A14BEC
:10B6A00012019A18536833615160B18A1181B782CF
:10B6B00014702C71002803D00120FFF70CFD0E2020
:10B6C000F2BD0000DEC0ADDEFE011EF1F0B583B0BC
:10B6D00002000C009348618A090141180191002A77
:10B6E00005D0E1880198FFF74DFD0120FEBD4968B6
:10B6F000019A128992008D1801260627217C0629BD
:10B7000070D801A2525C97441EAA3A6006C8D600BF
:10B710000021C162A169816269462830FFF7A7FD57
:10B72000002801D10A20FEBD002000900123221D27
:10B7300029007E4800F062FC02212174002812D109
:10B74000002554E000200090012322000C3208352F
:10B750002900764800F052FCA17D002900D0032684
:10B7600026740028ECD00E253DE00027B548416C3A
:10B77000002908D0026CD300C718521C5207520F80
:10B780000264491E416400200090BB883A68A08A88
:10B7900080002918654800F031FCA18ABA88891810
:10B7A000A182A17D491EA175090600D12674002839
:10B7B000D9D1C5E700200090012322000832291DBD
:10B7C0005A4800F01BFC2178032900D10527277473
:10B7D000EDE7C06AFFF792FE0500277403D106E08B
:10B7E000514D00E00F25E1880198FFF7CBFC2800C0
:10B7F000FEBD00004C350020F0B585B00D000028DE
:10B8000001D0012040E0474C474E0127287900280D
:10B8100003D0022835D01DD335E001A80C2100F05B
:10B8200033FDE8680190694601A8FFF720FD002874
:10B830000CD002988188E98001882981FFF75EFE9B
:10B8400069460988090161188F7300E00A20022106
:10B85000297119E02300203301AA0021A81DFFF758
:10B8600050FD002807D10298FFF748FEA18C09017E
:10B8700061188F7303E020340021002206C40A28D7
:10B8800002D1300000E00F2005B0F0BD38B500282F
:10B8900001D0012032BD264C0025207B002801D09C
:10B8A000257301E0FFF777FE1E482178491E06291F
:10B8B00036D801A2525C974406363C4266485A008C
:10B8C00000216218937A002B08D095720A01821821
:10B8D0009389002B02D1927B002A08D1491C89B29E
:10B8E0000229EEDB2570658065600F4832BD6180FE
:10B8F000FFF743FE32BDFFF731FE32BDFFF70EFE0C
:10B9000032BD062121706188090140184068FFF7A7
:10B910004FFC32BD072020706560FFF73DFC32BD53
:10B920000F2032BD743400201D1D0000E81F0020D0
:10B930004C350020F0B585B0954C216F1C22514349
:10B9400066183178491E08D0491E012910D9891E70
:10B95000012911D9891E13D015E03100FFF75EFED1
:10B9600000286DD000218B4A90420ED101911BE03E
:10B970003100FFF7ABFEF3E73100FFF73DFFEFE7E4
:10B98000FFF784FFECE70F20ECE701903078022806
:10B9900001D0032808D12B48026CB37DD218026471
:10B9A000426CB37DD21A4264012203256846337883
:10B9B0005B1E052B29D801A7FF5CBF444A3A1E1421
:10B9C0000804052120E004220270F2888281C181EE
:10B9D0001BE00570F1888181318911E00223037039
:10B9E00033898381B388C381F3680293337C062B48
:10B9F00000D10121017408E0027031898181B18890
:10BA0000C181F068029000E001706846FFF770FBAA
:10BA10001C21206F1C225043201800F033FC606F63
:10BA2000002806D0216F491C0D402567401E606725
:10BA300003D10420FFF74FFB02E00020FFF77AFF5D
:10BA400005B0F0BD8432002080B50420FFF748FB2C
:10BA5000002805D10420FFF739FB0020FFF76AFF1B
:10BA600001BD80B50800FFF765FF01BDFDB58AB0D7
:10BA70000D00002700240220FFF732FB002801D12F
:10BA8000022075E0002D01D1052071E02888A4492D
:10BA9000884202D06888002801D1042068E0288903
:10BAA000029068680190002600E0761C02988642A9
:10BAB00008D20198F1004058FFF702FB0028F4D1AA
:10BAC000032055E00B98002811D106E06968C200F8
:10BAD000891889886418A4B2401C29898842F5D342
:10BAE00069462000FFF772FB002805D040E000887F
:10BAF000694608800B98448803A80CA9097801704E
:10BB000007746946098841822989817503218182E8
:10BB10009F4EB169491CB1610691298801816988EC
:10BB20008180C4800CA90978032904D104210174FF
:10BB30000A990968099147816A682989FFF72EFCEB
:10BB4000002806D1684601882000FFF760FB082026
:10BB50000EE00A98002808D0476006980A99086005
:10BB60000A98877230890A990881FFF76DFF0020D3
:10BB70000DB0F0BD97490A78082A01D10C20704712
:10BB80009300CB185860521C0A70002070470000C8
:10BB9000F83000201D1D000000B58DB0684614214E
:10BBA00000F072FB0220FFF79BFA002817D101205A
:10BBB000FFF796FA002837D10120FFF787FA00F047
:10BBC000CBF9FFF72BFC002801D10B202DE0062834
:10BBD00009D10220FFF77AFA0120FFF77CFA6846C4
:10BBE000FFF786FA20E005A901220A7001280CD08F
:10BBF00003280AD005280FD007280DD0092806D021
:10BC00000A2806D00B2802D007E0002002E003201B
:10BC100000E00220087100E00A710022002105A85E
:10BC2000FFF7BCFBFFF710FF00200DB000BD38B5DB
:10BC300004000D00002C01D0002D01D1052032BDE3
:10BC40006946FFF714FB00280FD0606873496A4605
:10BC50001288120189188A89521C8A8128600C3046
:10BC600068600120A072002032BD0A2032BD10B5EC
:10BC700082B0040001D1052016BD6946FFF7F7FA2E
:10BC8000002811D065486946098809014018818952
:10BC9000002907D0A27A002A04D0491E8181002001
:10BCA000A07216BD062016BD0A2016BD38B50400C8
:10BCB0000D000220FFF714FA002801D1022032BD46
:10BCC000002C01D1052032BD69462800FFF77EFA1D
:10BCD000002803D1694609882180658032BD10B5EE
:10BCE00004000220FFF7FCF9002801D1022010BD5A
:10BCF000002C01D1052010BD218803290DDA6088B0
:10BD0000464B0A019A185289121AD21E05D4FFF71F
:10BD10007EFA00202080608010BD042010BD00004D
:10BD2000FFFF000080B502230CE080B5002A01D19E
:10BD3000052002BD022306E080B5002801D10520C0
:10BD400002BD03230022FFF791FE02BD10B588B0AB
:10BD500004000220FFF7C4F9002801D1022015E0F9
:10BD60002F48844201D1042010E06846052101706B
:10BD700001210171C48000220021FFF70FFB002880
:10BD800003D0FFF761FE002000E0082008B010BDDE
:10BD90004C35002000B587B00220FFF7A1F900283C
:10BDA00001D1022014E0062069460870002200211B
:10BDB0006846FFF7F3FA002809D01A4801780029ED
:10BDC00001D001210173FFF73FFE002000E00820B1
:10BDD00007B000BDA834002003B581B002A901A8B6
:10BDE000FFF78FFA0EBD01B513000A006946002067
:10BDF000FFF787FA02BD01B513000A00002168466B
:10BE0000FFF77FFA02BD002801D0002901D10520EB
:10BE100070470068086000207047000074340020FC
:10BE2000FFFF00004C3500207FB50200684600236C
:10BE300000240025002678C06846137A012B02D022
:10BE4000022B06D00DE0047013690293938A83815C
:10BE500007E0012303709389D4891B1B0381938915
:10BE600043815068019068461268926890477FBD90
:10BE7000002808D0AA494A68904204D389688842B9
:10BE800001D20120704700207047A648416E491E2C
:10BE9000416604D1A2490A78FD2313400B70016E5C
:10BEA000491C042900D100210166704738B59D481E
:10BEB000016E182251434318406E002826D0187A8C
:10BEC000012802D002280FD01CE0D88A9C8AE832D0
:10BED000251A954200DA221A800092B2D968091810
:10BEE0001C69201829DF01E0988928DF112807D173
:10BEF0008B480178FD220A4004211143017031BDB5
:10BF0000002803D009211800FFF78EFF31BD8448B7
:10BF100001780622114200D0704780B502220A4300
:10BF20000270FFF7C3FF01BD38B50400A448416E9D
:10BF3000042901D1002032BD026E5218042A00D318
:10BF4000121F491C416618214A438518280000F039
:10BF500099F92560012032BDFCB59A489A49401AEA
:10BF600001090191994800680022D243904202D110
:10BF70009748006880026A4A1278D2073CD40022AF
:10BF8000674B5B6800930AE0009B14011B191C6857
:10BF9000002C03D05B68002B00D0491E521C019B73
:10BFA0009A42F1D300221BE0009E1F01F619376868
:10BFB000002F02D07768002F04D1767BB44201D2E3
:10BFC00034001D005B1C019EB342EDD3009B2D0687
:10BFD0002C0D1B1958601C7BA402001B1860521CFE
:10BFE0008A4203D2002415000023ECE74C48007875
:10BFF000012101434A4801700020F6BDF8B5040054
:10C000000D0017001E0046480078C00701D401202B
:10C01000F2BD2000FFF72CFF002801D10220F2BD65
:10C02000002F01D0002D01D10320F2BD03200742D3
:10C0300001D1054201D00620F2BD2068854204D31B
:10C040006068B1006918884201D20520F2BD002E57
:10C0500001D10420F2BD6846FFF766FF002801D138
:10C060000720F2BD069800994860009804600120FE
:10C07000009908720098C760009805610098868250
:10C08000FFF745FF0020F2BDF2B582B004001500B5
:10C090001F0023480078C00701D40120FEBD200006
:10C0A000FFF7E6FE002801D10220FEBD029800281D
:10C0B00001D10320FEBD800501D00620FEBD029EF9
:10C0C0002068864204D36068AA02B118884201D26F
:10C0D0000520FEBD002D01D10420FEBD6846FFF7FE
:10C0E00023FF002801D10720FEBD0098476000987B
:10C0F0000460022000990872B00A009988810098B3
:10C100000582FFF704FF0020FEBD002801D10320B7
:10C1100070472B49496E0160002070470000000005
:10C12000142C00207031002038B50100244B186E0B
:10C13000182250431818274A147802252C4232D06E
:10C140000023022902D0032920D036E05370017A5F
:10C1500001290CD0022930D18189491C8181C189F2
:10C16000491CC181028A89B2914226D10CE0C18A60
:10C17000828AEB01541A9C4201DA531A9BB2C91805
:10C18000C18289B2914218D1002107E05178491C3F
:10C190005170C9B2042910DB53700821FFF744FE27
:10C1A000FFF773FE09E0600707D5FB202040107001
:10C1B000596E002901D005431570FFF777FE31BD98
:10C1C00070310020F81F0020E81F0020141000101C
:10C1D00014000010142C0020124207D08B0706D048
:10C1E0000B78491C0370401C521EF7D87047830718
:10C1F00006D00B78491C0370401C521EF9D17047C1
:10C2000070B4103A03D378C9103A78C0FBD2530700
:10C2100001D318C918C001D508C908C0D20704D372
:10C220000B880380891C801C002A01D50B780370C1
:10C2300070BC7047094205D083070BD00270401CC8
:10C24000491EF9D1704700001206130A1A43130C55
:10C250001A4300BF130030B414001500103902D384
:10C2600010393CC0FCD2490700D30CC000D504C033
:10C27000890002D30280801C002900D5027030BCE6
:10C28000704700000022D5E70022E3E781B000BF3D
:10C2900005A31B6800936B46188068468170C270C6
:10C2A000009801B070470000000000003EB5030098
:10C2B000BB2040001818898801801B1DD9880029DF
:10C2C00014D001216C4621726A460024002530C238
:10C2D0006A461180548002A90191D9880088A4DFA0
:10C2E000002803D019680A0000D0884737BD30B550
:10C2F00085B004000D0010004189022916D1216883
:10C30000002913D00C3000F076FD002801D0022067
:10C3100000E00320694608706846001D29880180F6
:10C3200069884180694620002268904705B030BD89
:10C330000368002B00D1704730B585B06B460424EC
:10C340001C706C46241D1588258055886580CA8917
:10C350001A810A8A5A81123103916946026890470C
:10C3600005B030BD38B51400002200E0521C857CB9
:10C37000D2B2AA4207D20A2555434519AD8AA9422D
:10C38000F4D1012120E0002200E0521C7825455D17
:10C39000D2B2AA4208D20A25554345197A352D88CA
:10C3A000A942F2D102210FE0002200E0521CDE235C
:10C3B000C35CD2B29A4212D20A235343C318E03369
:10C3C0001B889942F2D10321C148FFF75FFF00901B
:10C3D00068460188218041886180012032BD0020AB
:10C3E00032BD70B586B004000E00B51D298800224C
:10C3F000B7204000205A81420ED16889012861D1BE
:10C40000206800285ED0287B002802D0012859D15E
:10C4100013E06846027112E06089814214D1688994
:10C4200001284FD1206800284CD0287B002803D059
:10C43000012847D1062000E005206946087101A9BE
:10C440002000226890473DE0A248A9235B00E35A00
:10C4500099420AD0A7235B00E35A99420CD01130CD
:10C46000B1235B00E35A994201D1002116E0AF23CA
:10C470005B00E35A994205D10021FFF707FF0090C6
:10C480001BE0521CA37CD2B29A4210D20A2353431F
:10C49000E3181B8B9942F4D101211A30FFF7F6FE05
:10C4A00000902A0069462000FFF721FF0AE06A4653
:10C4B0002000FFF757FF002804D06A463100200013
:10C4C000FFF736FF06B070BD30B587B005000C0031
:10C4D000A01D0178012913D16A4641882800FFF781
:10C4E00041FF00280CD02868002809D007206946A1
:10C4F000087100980290059401A928002A689047C5
:10C5000007B030BD80B50A88102A06D0112A07D09E
:10C51000502A0AD0512A0BD001BDFFF7C7FE01BD3A
:10C52000BB49BB225200815201BDFFF75AFF01BD3A
:10C53000FFF7CAFF01BDF0B58FB004000D001C214C
:10C5400008A8FFF7A1FE08A800780621014308A863
:10C550000170002609960B960C960D960E960127F3
:10C5600002A88770AB49018003216846FFF78CFE63
:10C570002878694608706878487068468178E222B1
:10C580000A40022111438170142103A8FFF77CFEA9
:10C5900069460F7102A803906846049003A80781BA
:10C5A0004681878101A8079023000A3362E2FDB526
:10C5B00090B00F000125189E3878000928420FD04E
:10C5C000032102A8FFF760FE02A811210170317853
:10C5D00002AA51708178F9220A4002211143817028
:10C5E0001C2109A8FFF750FE387809A9087000241B
:10C5F0000A940C940D9438780009284201D002A8BE
:10C6000000E000200E900F9401A98D70304869461B
:10C61000888003216846FFF737FE70786946087006
:10C62000B07848706F46B878F9210140022008437D
:10C63000B8701999002900D00821E722024011435F
:10C6400001200843B870142103A8FFF71DFE01A8BC
:10C6500003906846049003A98C6011A80088888123
:10C6600007941A9B03AA09A910980089A2DF002841
:10C670002CD101A88570DC48694688800321684672
:10C68000FFF702FE707869460870B0784870B87895
:10C69000E221014002200843B870142103A8FFF7EB
:10C6A000F3FD01A8039068460490129908A800F0D1
:10C6B000A8FB03A9088103A844810089888108A8F0
:10C6C00007901A9A08321A980088A3DF13B0F0BDB9
:10C6D0004D2A0000222A0000F1B594B00C001C2164
:10C6E00009A8FFF7D1FD09A800780221014309A894
:10C6F000017000250A950C950D950E950F9501205A
:10C7000001A98870B9486946888003216846FFF707
:10C71000BBFD2C20205C694608702D20205C4870F1
:10C720006E46B078E321014003200843B070142125
:10C7300004A8FFF7A9FD01A8049068460590200011
:10C740002030808804A908814D8120002030808815
:10C750008881206A08901498A2214900401803900B
:10C76000034604AA09A914980089A2DF00284CD125
:10C77000200020308079002806D0200020308068FA
:10C78000002801D1072040E0002700E07F1C2000A6
:10C7900020308079874237DA012001A988709448D7
:10C7A0006946888003216846FFF76EFD21203070BE
:10C7B0007570B078E221014002200843B07010AAE1
:10C7C00002A9200020308068BB00C01865DF002867
:10C7D0001BD1142104A8FFF757FD01A80490684657
:10C7E0000590007A04A9088104AA5581888110A8BF
:10C7F00008901498A6214900421804A903980088BB
:10C80000A3DF0028C2D000E0002015B0F0BD00007A
:10C81000FFFF00004E2A0000F3B58FB014001D008A
:10C82000032101A8FFF730FD01A81121017029782B
:10C8300001AA517002268178F9220A40022111438F
:10C8400081701C2103A8FFF71FFD6846007B0221B1
:10C850000143684601730027A878000701D008202B
:10C8600000E000206946097BF7220A4010431021AE
:10C8700001436846017304970697079701A808903B
:10C88000099702A80121817010A90988018003215C
:10C890006846FFF7F9FC687869460870A878487020
:10C8A00068468178E2220A401643867014210AA85D
:10C8B000FFF7EAFC02A80A9068460B900AA8876076
:10C8C00084810E97169B0AAA03A90F980089A2DFFC
:10C8D00011B0F0BDF0B58FB004000D001C2107A809
:10C8E000FFF7D2FC6846007F0E21014368460177BE
:10C8F000002608960A960B960C960D96012701A81D
:10C9000087703C49018003216846FFF7BDFC462043
:10C91000285C6946087047352878487068468178F1
:10C92000E2220A40022111438170142102A8FFF77C
:10C93000ABFC01A802906846039002A8866087813C
:10C940000696AB204000231802AA07A994E0F0B590
:10C950008FB005000C001C2108A8FFF795FC0227EA
:10C9600008A800780221014308A801700026099652
:10C970000B960C960D960E9602A8012181701E4909
:10C98000018003216846FFF77FFC3420205C694664
:10C9900008703520205C487068468178E2220A40A1
:10C9A000174387703034218801A80170090A41704B
:10C9B000A1788170E178C170142103A8FFF764FCAD
:10C9C00002A803906846049003A8042101814681CF
:10C9D0000189818101A80790B32040002B1803AA88
:10C9E00008A9288949E00000082900004B2A000016
:10C9F00007290000322A00004A2A0000F0B58FB053
:10CA000004000D001C2108A8FFF73EFC08A80078D0
:10CA10000421014308A80170002609960B960C9684
:10CA20000D960E96012702A88770B5490180032153
:10CA30006846FFF729FC28786946087068784870CE
:10CA400068468178E2220A400221114381706946DA
:10CA50000E71142103A8FFF717FC02A80390684683
:10CA6000049003A807814681878101A80790B72019
:10CA70004000231803AA08A92089A2DF0FB0F0BD47
:10CA8000F0B585B006000D00A87A002839D0E86816
:10CA9000002836D0002401E0641CE4B2A87A844265
:10CAA0002FDAE868E1004718012103A8FFF7ECFB43
:10CAB0006846007B0221014368460173B87900078C
:10CAC000000F00D001206946097BF7220A40C00010
:10CAD000104310210143684601730A206043301857
:10CAE00014300290F879C107C90F0191381D0090E8
:10CAF000BB1C3A8803A93000FFF759FD0028CBD0B2
:10CB000000E0002005B0F0BDF0B585B006000D00D6
:10CB1000287C00282AD06869002827D0002401E05A
:10CB2000641CE4B2287C844220DA6869E10047187A
:10CB3000012103A8FFF7A8FB6846007B0E210143F3
:10CB4000684601730A20604330187A300290F87901
:10CB5000C107C90F0191381D0090BB1C3A8803A979
:10CB60003000FFF724FD0028DAD000E0002005B0F7
:10CB7000F0BDF0B585B006000D00287E00282AD053
:10CB8000E869002827D0002401E0641CE4B2287E74
:10CB9000844220DAE869E1004718012103A8FFF781
:10CBA00073FB6846007B0A210143684601730A2033
:10CBB00060433018E0300290F879C107C90F019145
:10CBC000381D0090BB1C3A8803A93000FFF7EFFC2A
:10CBD0000028DAD000E0002005B0F0BD30B583B009
:10CBE00005000C00A07A0B2805DA207C0B2802DA5D
:10CBF000207E0B2801DB07203EBD2068286060688E
:10CC00006860A07AA874207C78216854207EDE2198
:10CC1000685472489831685201A8012181707049A6
:10CC200001802A00083201A90120A0DF002866D176
:10CC300000236A4600E05B1C3620205CDBB28342A6
:10CC400007D2A06B5900415A2889A1DF0028F2D0F1
:10CC50003EBD207A002802D1607A002806D021004B
:10CC60003C312800FFF767FC002848D1210028004C
:10CC7000FFF706FF002842D121002800FFF744FFFC
:10CC800000283CD121002800FFF773FF002836D18F
:10CC900021002800FFF720FD002830D1207A00284D
:10CCA00012D0A72040002818009023004333082208
:10CCB0004C492800FFF7B0FD002820D121002800B2
:10CCC000FFF708FE00281AD1607A00280CD0AF20A8
:10CCD00040002818009023004033082242492800D1
:10CCE000FFF79AFD00280AD121002800FFF72FFE48
:10CCF000002804D13E3421002800FFF77FFE3EBD0E
:10CD00004C2A0000F0B585B0847CA14226D2BB2419
:10CD1000640004192588314EB5421DD06D462A8025
:10CD200001AD00260027C0C5C0C501AD0A2671436C
:10CD30004018808A28800120A870AF806846039040
:10CD4000049301A92088A6DF002808D16946098834
:10CD5000914204D00C2002E0082000E0072005B03A
:10CD6000F0BDF0B587B0AF2464000419208B1B4DD3
:10CD7000A8422ED00C9DE81C6E4630806846008884
:10CD8000092824DA05A8017042708370002D04D0B0
:10CD90002A000D99C01CFFF71FFA01A800210022EC
:10CDA000002300278EC001A8218801800121817005
:10CDB00082806846039005A8049001A9208BA6DF15
:10CDC000002807D169460988ED1CA94202D00C2031
:10CDD00000E0082007B0F0BD00000000FFFF0000E9
:10CDE00012180000222A0000332A0000017840783F
:10CDF00000020843704780B5FFF7F8FFC007C00F77
:10CE000002BD0A780270497841700220704738B537
:10CE100005000C00200000F003F828806C6031BD94
:10CE2000010000E0491C0A78002AFBD1081A70476B
:10CE3000F8B59D4C9D4F3A001021201DFFF704FAD4
:10CE400008266661380000F091FE0025656106E065
:10CE50004A00A2189080491C616100F087FE616958
:10CE6000B84203D03200561E002AF1D1201D00F036
:10CE70004CFE002801D000F0A9FF6169201D00F0E0
:10CE800065FE062803D0002801D000F09FFF257022
:10CE9000032001F059F8002801D000F097FFF1BD00
:10CEA0000000000010B582B0040020780E284FD892
:10CEB00001A1095C8F4400BF10981A4C5E708898DD
:10CEC0007E98888288989400A08800F017FF112827
:10CED0002FE0A08800F012FF112803D0002801D015
:10CEE00000F074FF207A012832D16F484169082987
:10CEF0002ED200224B00C3189A80491C41610121A7
:10CF0000017013BD60896A49884221D1012160887E
:10CF100000F0E4FD0CE000BF0EA000680090694640
:10CF2000608800F0E5FD13BDFEF734FF0E280FD03A
:10CF300008280DD005E0002005E0FFF779FF13BDBC
:10CF4000A068002804D000F041FF13BD00F0D4FD1C
:10CF500013BD00000000000080B500F037FF01BDE8
:10CF600080B500F033FF01BD10B5B04C2100D220D8
:10CF70004000201801F075F9C1B2C6204000201809
:10CF800001F09BFA002809D0082807D0B849884248
:10CF900004D0B849884201D000F018FF10BD70B528
:10CFA00098B018216846FFF76FF90324684604809B
:10CFB00001268670C6702125057145718571048131
:10CFC00002218172C672057345738573068284746B
:10CFD000C674057545758575482106A8FFF754F98F
:10CFE000A5480690A5480790002106AA117256721E
:10CFF00094726846D060117451611176D1618820B5
:10D0000090848A4891239B00C3181362FF239B1CC2
:10D010001386322691553323D45436241155916307
:10D020002C23D5542D2411553423D5543524115592
:10D030004023D5544123D5544223D5543C23D554C1
:10D040003D23D5543E23D1543F32157006A91430E8
:10D05000FFF7C4FD002801D000F0B8FE18B070BD85
:10D0600080B500F0B3FE01BD80B5002001F0E2FB09
:10D07000002801D000F0AAFE01F0B6FC002801D083
:10D0800000F0A4FE3CDF002801D000F09FFE01BDAF
:10D0900066480978052902D0062902D07047012187
:10D0A00000E0002101747047E82B0020FFFF000022
:10D0B00006100000082800D9704700B5C5B001A1CE
:10D0C000095C8F443008900C10141C446C0005203F
:10D0D00004E0022002E0042000E0032001F0AAFBAB
:10D0E00035E0032001F0A6FB002801D000F06EFE21
:10D0F00001F090F82BE0002001F09CFB002801D00B
:10D1000000F064FEFFF7B0FF25E0082001900090DA
:10D110006B4616AA01A936A800F001FD002801D02F
:10D1200000F054FE009B16AA019936A801F044F8BD
:10D130000DE002A9002000F053FD05280BD00028C7
:10D1400001D000F043FE02A8113001F022F80028BF
:10D1500001D000F03BFE45B000BD30B589B0040001
:10D16000A04D2088022839D0102808D0112810D0CE
:10D170003A282FD0512835D055282BD054E00720FD
:10D1800001F058FB002801D000F020FEA088688044
:10D190004AE0002001F04EFB002801D000F016FE0E
:10D1A00091486880287800283ED06969281D00F0E1
:10D1B000ACFC002801D000F009FE6969281D00F0D0
:10D1C000C5FC062803D0002801D000F0FFFD002098
:10D1D000287029E01321A08876DF21E000216888EB
:10D1E00067DF1DE06846A11D1022FEF7F5FF6846C7
:10D1F0000078002818D06846007A042803D0062852
:10D2000001D0052810D104A869460978022900D068
:10D2100001210170C1214900818004A9A088A8DFF3
:10D22000002801D000F0D2FD09B030BDF827002061
:10D2300038B5040001F04EFC200000F0EBFB2000AC
:10D2400001F0DCFB2000FFF788FF200000F062FF08
:10D25000200001F0A9FD654D210028001430FFF7E2
:10D2600051F92100C6204000281801F039F831BDDD
:10D27000043000000134000091D0010059CF0100BA
:10D2800010B50400FEF750FF200000F06DFF10BD48
:10D2900010B598B0382109A8FEF7F6FF09A80221B9
:10D2A0000170012484700521C170048250480E90E1
:10D2B000202101A8FEF7E8FF01A8047044700021B6
:10D2C000817003910491C470282105911E2106915B
:10D2D0000471C82000010790B420089045480090D0
:10D2E000454B01AA002109A800F089FD002801D0C2
:10D2F00000F06CFD18B010BD1CB53C4C237C002B1D
:10D3000010D0FF23FF2800DBFF20FF2900DA0B00ED
:10D310000021019100915BB242B214342000FFF76A
:10D3200020FD16E0354B984200DB1800994200DBE7
:10D3300019006A4610700B010005000F1843507069
:10D34000081190706B460322012114342000FFF76E
:10D35000D9FC002809D0082807D02949884204D0E0
:10D360002849884201D000F031FD13BD80B501008D
:10D370001C4842880420C043030C04290FD007290D
:10D3800011D00A2908D00D2918D00E291AD00F293A
:10D390001CD010291FD001BDFFF766FE01BD13216F
:10D3A000100076DF03E09A421BD100F033FF08281B
:10D3B00017D0002815D000F009FD01BD9A4210D009
:10D3C00000210CE09A420CD0010007E09A4208D0FC
:10D3D0000021052003E09A4203D005210020FFF739
:10D3E0008BFF01BDE82B0020FFFF0000F827002085
:10D3F000202C002061CF0100B5D00100FF0F0000FC
:10D400000430000001340000F0B5A1B0994C9A4BF3
:10D41000E620400022180521002001F05FFF0028CF
:10D4200001D000F0D3FC954A012100BFA7A001F074
:10D430007FFF002801D000F0C9FC914A91490320E8
:10D4400001F008FA002801D000F0C0FC03A9002078
:10D4500001F00FFB002801D000F0B8FC0026684660
:10D46000007B022801D1012500E0002598A000687A
:10D470000290854B4822B3208000211802A802F0B8
:10D4800062F8002801D000F0A1FC04AA01210020CC
:10D4900002F09FF8002801D000F098FC04A802F0E8
:10D4A000AFF8002801D000F091FC784802F073F842
:10D4B000002801D000F08AFC754802F074F80028BA
:10D4C00001D000F083FCC520800022180A2108202A
:10D4D00002F0BFF8002801D000F078FC00F0AAFAB2
:10D4E000002801D000F072FC002D05D000F08BFB6D
:10D4F000002801D000F06AFC05216846FEF7C4FE52
:10D500006846312101700721417010218170C17876
:10D5100003220A43C270017903220A43027100F018
:10D52000D3FA002801D000F051FC5A4800F0B8FAB4
:10D53000002801D000F04AFC1120694608720C2234
:10D5400059A102A87CDF002801D000F03FFC52481E
:10D5500078DF002801D000F039FC68460021002265
:10D5600006C06846062101800C214180142181807B
:10D5700096214900C1807ADF002801D000F026FC06
:10D58000FFF786FE68460221017044494180444904
:10D5900081800121C180402110A8FEF775FE00BFE7
:10D5A00045A110A8FFF733FC68461E90212710A85C
:10D5B0003C2147543D30067010A802F00EF90028B7
:10D5C00001D000F003FC142104A8FEF75DFE0496D0
:10D5D00004A80121017106966425057347738773BA
:10D5E000C673077404A9C6204000201800F043FF4A
:10D5F000002801D000F0EAFBFFF7D1FC51202060A9
:10D6000065600120A06020732100D2204000201816
:10D6100000F01CFE1C2109A8FEF736FE0996A0208A
:10D6200080020A90F02000030B9009A803210173E7
:10D63000C68106740E961B480F9009A801F062FB84
:10D64000002801D000F0C2FB002280214902D62030
:10D650004000201801F084FE002801D000F0B6FB45
:10D66000FFF7E6FB02F04EF848DF0028FAD000F0A2
:10D67000ADFBF7E7F82700206F2F020069CF01000C
:10D680006DD30100CD0C0000EF2F020031D201005C
:10D6900081D20100A5CE0100C203000015190000CF
:10D6A000EEEE000061D001004E6F726469635F4D61
:10D6B0006F757365000000004E6F72646963536597
:10D6C0006D69636F6E647563746F7200A4290020C6
:10D6D0000100000738B50400002505E02000AA007D
:10D6E0008918096988476D1C9849C8788542F5DB17
:10D6F00031BD0000F0B58BB0070014216846FEF77D
:10D70000C3FD78886C46A08002F0CEFA60800721C5
:10D7100001208E4D00263A78092A00D983E002A321
:10D720009B5C5B009F4400BF050E21353B43607F3F
:10D73000787A21703979217266720396A17A08434A
:10D74000A0726DE02170397921726672B968039117
:10D75000A17A0843A072A868002861D0B9688842FD
:10D760005ED1AE60A088E88017E00820207038798C
:10D7700020726672B8680390F8680490A868002860
:10D780004ED0B96888424BD1AE60E868401EE86070
:10D7900003E02170397921726072039640E008211C
:10D7A0002170397921726072B868049038E00920DC
:10D7B0002070A878002833D0C24802F01BFEC1496F
:10D7C00088422DD1084602F019FEBE49884227D171
:10D7D000AE70142105A8FEF757FD05A80B210170B6
:10D7E000B8498180418014E00A202070B868029016
:10D7F000A878002814D0AE70142105A8FEF744FDC7
:10D8000005A80C210170AF4981804180B86807905C
:10D8100005A8FFF75FFF03E0052000E00620207069
:10D820006846FFF757FF0BB0F0BD0000F0B587B0BA
:10D83000070001200090142101A8FEF725FD01AC8E
:10D840007888608007200321022600253A78521E3E
:10D850000B2A6ED801A39B5C9F4400BFEC0C2C529A
:10D86000687C8894A6B0B4D001202070387902007A
:10D8700000D00122012800D101253448017978889F
:10D8800001F0EBF92A000CE026703879002800D06E
:10D890000126267201222D480179788801F0DDF9F0
:10D8A0003A792A484179788801F0D7F942E0217025
:10D8B00026484179788801F0C3F9002800D0012674
:10D8C00026720BE021480179788801F0B9F9002827
:10D8D0003AD1267025722DE021702572B879207317
:10D8E000B88821E02070B988A1802072657228E094
:10D8F00008212170B988A18020726572B8680590EE
:10D900001FE0062020707868039013E005200EE0E9
:10D9100021700E484179788801F092F9002800D0F2
:10D920000126267225738F48608103E00420207051
:10D9300000E00095788802F05DF9A080009800284A
:10D9400002D001A8FFF7C6FE07B0F0BD8435002065
:10D9500070B586B0040014216846FEF795FC608817
:10D960006D46A88002F0A0F96880072005210022FA
:10D970002378092B21D801A6F65CB74408081216B3
:10D980001A2226422C3028706A720820287214E06D
:10D990000D2008E00E2006E028706A7229720CE063
:10D9A0000F2000E01020287007E0297005E0062015
:10D9B0002870A0680290A08868806846FFF78AFEF9
:10D9C00006B070BD30B585B004002078002802D0C4
:10D9D000012804D019E0E08800F00BF915E00122DD
:10D9E0000B484179608801F038F914216846FEF748
:10D9F0004BFC6D4660886880608802F0FBF8A88068
:10DA0000002028706846FFF765FE05B030BD0000B5
:10DA10008435002010B5040053480078002808D051
:10DA2000200002F035F8200002F0A2FE200003F0F2
:10DA300059F810BD38B503F0EEF9002829D102F0ED
:10DA400034FB002825D102F06CFE002821D103F020
:10DA500090FC00281DD102F0B2FF002819D103F07C
:10DA6000EFFE002815D102F0ACF8002811D13E4C91
:10DA70001448E0800025A56018202071607101F035
:10DA8000CDF82071182804D001F0C8F8607118286A
:10DA900001D1032032BD657001202070002032BD0D
:10DAA00038490A78002A01D108207047CA78032A29
:10DAB00001DB042070479300CB181861521CCA7018
:10DAC00000207047FFFF000080B52E49097800292B
:10DAD00001D1082002BD02F08FFE02BD80B5294AA7
:10DAE0001278002A01D1082002BD02F0A9FE02BD71
:10DAF00080B502F097FE01BD22480078002800D1D1
:10DB0000704780B503F05FF801BD80B51D4A1278FB
:10DB1000002A01D1082002BD02F07BF902BD10B538
:10DB2000184C2478002C01D1082010BD002802D107
:10DB3000002A06D001E0002903D0002A03D0002BE0
:10DB400001D10E2010BD02F04CF910BD80B50D4A78
:10DB50001278002A01D1082002BD0620C04602BD6D
:10DB600000000000011100008435002080B5054947
:10DB70000978002901D15F4802BD02F03BFC02BDDB
:10DB800000000000843500207CB51D005A4B1B7836
:10DB9000002B01D1082076BD002A01D0002D01D133
:10DBA0000E2076BD2B885C1E6610B60F3419A410AB
:10DBB000A400241D9C4201D0072076BD6B460024A2
:10DBC000002650C36C462B88DB1C9B102380A17061
:10DBD00001926A4602F016FC21888900298076BDF0
:10DBE00080B550226B461A800A000721FFF7CCFF50
:10DBF00002BD80B570490978002901D1082002BD15
:10DC000002F081F802BD38B53B480178002901D106
:10DC1000082032BD01218170364C200000E0280030
:10DC200002F0E8FB0500A54205D0FFF7E2FF00285F
:10DC3000F5D0032032BD002032BD0000FFB585B015
:10DC40002D480078002801D1082050E0294802F032
:10DC5000D1FB04000027009758A003C802AA03C202
:10DC60006846039002AA0621200002F0CBFB0026A2
:10DC70000025ED43290C6A46D1809180072816D1F2
:10DC8000052034E000970098B04202D3064668466B
:10DC9000C4800098A84202D20546684684802000CD
:10DCA00002F0A8FB040002AA062102F0ABFB002848
:10DCB000E9D00528E6D00F48844217D10020059905
:10DCC000002903D06946C988059A11800699002960
:10DCD00000D00E600799002903D069468988079A09
:10DCE00011800899002902D00D6000E0032009B0DE
:10DCF000F0BD0000FFFF000084350020F0B587B0C4
:10DD000007002D4C2078002801D1082051E000BFE9
:10DD10002CA003C805AA03C2607800280DD10023F7
:10DD2000002221000C31A01DFFF788FF002801D040
:10DD3000052802D10120607002E06078002802D03E
:10DD4000A068002801D0112532E0E0680026E188B3
:10DD50008F421AD1002818D0002514216846FEF7FA
:10DD600093FA6C4607202070380001F09DFF608018
:10DD7000A7800620207266720396A07AFE210140D9
:10DD8000A1726846FFF7A6FC12E0401CE06022008A
:10DD9000083205A9380002F03DFB050008D0A66056
:10DDA000E068401EE060112D02D0042D00D0032554
:10DDB000280007B0F0BD00008435002001000000FD
:10DDC00000000000010006009035002010B584B06E
:10DDD000040068460C21FEF757FA02946A460021B7
:10DDE000014803F0EFFD1FBD0140000053480179D9
:10DDF000002902D1007B002800D001207047F2B535
:10DE0000040011001E00002C01D0002901D10E20B9
:10DE1000F2BD0120494A10760025D57648482022D7
:10DE2000FEF7EEF94548466206984449886245483F
:10DE300008840721B448FEF727FAB44E3821300091
:10DE4000FEF722FA20783070A078B070E078F07099
:10DE5000607870702000103003C83200103203C2A6
:10DE60002000083003C83200083203C220001830F6
:10DE700003C83200183203C2A54801004031626A6B
:10DE8000002A11D071628860626A13880B809288C0
:10DE90008A80002204E0636A9B689B5C8354521C66
:10DEA000736A9B889A42F6D3A26A002A1BD00200AA
:10DEB00020324A6102004C32B262A26A93880B821D
:10DEC00012888A81002206E0A36A9B689B5C8718FF
:10DED00020373B70521CB36A9B889A42F4D32C22A1
:10DEE000A25C2C23F254226A002A07D00200583286
:10DEF0003262226A53884B8312880A836168002940
:10DF000000D071600021CA00521A82185C320B4B9B
:10DF10001B688C001A51491C0829F4DB290141189F
:10DF20009431064A9268AB00D1506D1C082DF5DB88
:10DF30000099300003F0D6FFF2BD0000BC2B00209A
:10DF4000EC340020FFFF0000F0B587B00600994CCC
:10DF5000207E002801D10820D3E0E6766846FEF74F
:10DF6000D4F801250098002819D10721200010308D
:10DF7000FEF78AF9E07EA64F7978002901D00128C2
:10DF800006D0B97800290ED0012801D002280AD184
:10DF9000616A080005D025770820884703E0657688
:10DFA000AEE00020207700202118497C002911D103
:10DFB000401C0628F8D30020012E06D01BD3032EC8
:10DFC0000FD009D3042E11D015E07978014203D087
:10DFD000012011E00120EFE7B978014201D00220D1
:10DFE0000AE0F878002801D0032005E038790028FD
:10DFF00001D0042000E00020E076616A08000ED025
:10E00000E07E032801D0042809D13878627F0123FB
:10E010005340184203D0A5770720884701E000202D
:10E02000A077182101A8FEF72FF901AE002030706B
:10E030003072E07E00285DD002280CD003D3042883
:10E0400039D012D32FE0A576200010300290357021
:10E05000002030612AE0A076200010300290357058
:10E06000F8687082B868308220E038693082786958
:10E0700070823878617F01224A40104201D103202A
:10E0800024E0FFF7B3FE0028F9D004940220307298
:10E0900004201E49C87000211C4803F023FF0028FB
:10E0A00001D10520A076E07E002824D001A873DFEE
:10E0B000002820D025E0B8693082F869708238786D
:10E0C000617F01224A40104202D10420A076EDE790
:10E0D000FFF78CFE0028F8D0049402203072042050
:10E0E0000A49C8700021094803F0FCFE0028DAD173
:10E0F0000620D7E7A076616A080001D0A07E884795
:10E10000002007B0F0BD0000CC2B0020D43300204D
:10E11000602F002010B54B4C0188102904D0112924
:10E1200008D01B290ED010BD817D01291BD180880C
:10E13000208410BD002161778088218C884212D113
:10E14000012008E0007A00280DD1E07E401C052166
:10E1500003F012FFC8B2FFF7F7FE002803D0A16A50
:10E160000A0000D0884710BD801E012800D97047E2
:10E1700010B5344C607E00280AD000206076E07E26
:10E18000FFF7E2FE002803D0A16A0A0000D088470A
:10E1900010BD80B501002B48027F002A01D1082064
:10E1A00002BD0022027707221030FEF715F800208A
:10E1B00002BD0000BC2B0020F7B51C00214DA87F3C
:10E1C000002801D10820FEBD0026AE7701982871F5
:10E1D0002C7300270AE02868B90040580099FA001B
:10E1E000D21B89180722FDF7F7FF7F1C0198874291
:10E1F000F1D309E0A868B1004058029932018918AA
:10E200001022FDF7E9FF761CA642F3D30020FEBDE5
:10E21000EC34002010B574DF0A4C012060770A4806
:10E220000621C170002103F05DFE002809D1E07EC7
:10E23000FFF78AFE002803D0A16A0A0000D08847B1
:10E24000002010BDBC2B0020D43300200A7B002A04
:10E2500002D04968002201E00968012202710160D0
:10E26000704710B504002079002803D0200000F08A
:10E2700006F802E0200000F010F8206810BD10B58C
:10E280004A6889680368D41AA14202D25918016009
:10E2900010BD02600021017110BD10B58A680968C7
:10E2A00003685C1AA24202D2991A016010BD016093
:10E2B0000121017110BD30B4012100220368001D4D
:10E2C000002B0BD00468001D0C4202D04D466D1E81
:10E2D00064192260241D1B1FF0D0FAE730BC704780
:10E2E00010B582B004000800002C27D0002825D0EB
:10E2F0000188102904D0112904D0502905D013BD5C
:10E30000808800E08B48608213BD217D002915D0F4
:10E31000801D01886289914210D1418902290DD165
:10E32000216800290AD00C30FEF765FD401E8041AF
:10E33000C00F6946087020002268904713BDF0B5F1
:10E3400091B004000E00207D00280FD0032103A807
:10E35000FDF79AFF03A811210170717B03AA517088
:10E360008178F9220A400221114381701C2109A8F9
:10E37000FDF78AFF09A800780221014309A801706E
:10E380000025207D002800D0102009A90978EF225F
:10E390000A40104309A908700A950C950D95207D37
:10E3A000002800D003A80E900F95012001A98870C5
:10E3B00061486946888003216846FDF765FFB07BA8
:10E3C00069460870F07B48706F46B878E2210140DA
:10E3D00002200843B870307B69468872142104A873
:10E3E000FDF752FF01A8049068460590012004A99A
:10E3F00008814D81888102A8801C0890A31D04AA71
:10E4000009A9A088A2DF002833D1B06800282ED047
:10E41000012001A98870494869468880032168461F
:10E42000FDF732FF307C694608707D70B878E221D4
:10E43000014002200843B870B16802A8FEF7E1FC71
:10E440000600142104A8FDF71FFF01A804906846E8
:10E45000059004A806814581868102A808902200C3
:10E460000E3204A9E088A3DF002801D001E0E58195
:10E47000002011B0F0BD10B582B003000C00002BDD
:10E4800001D0002C01D10E2016BD2068186029484B
:10E49000588220791875FF20187468460121817010
:10E4A000274901801A1D69460120A0DF002803D1F9
:10E4B00021001800FFF743FF16BDF2B586B0030038
:10E4C00001D10E2034E000206946097E1A7C914279
:10E4D0002ED069460022002414C101246D462C80F0
:10E4E000688006A801906A46D988588AA4DF002867
:10E4F0001ED16846007E1874588A0E49884216D08C
:10E50000187D002813D002A8002100220026002731
:10E51000C6C002A8D9880180847069888180684655
:10E5200004900198059002A9588AA6DF00E008200F
:10E5300007B0F0BDFFFF0000192A00000829000005
:10E540000F180000042809D2AE4A1268D343BF4A0C
:10E5500080001058C340D807C00F00E000200870AA
:10E5600000207047F1B500200025AC4A8300D35845
:10E570006C462478A34202D0401C0428F6D3042819
:10E580002FD2B34C42001218A6182718002917D012
:10E5900002291ED01ED23578707800280DD02200B6
:10E5A0000D3261690A2041432000643000F0D8FE3A
:10E5B000002802D1684600786073B078387409E0AA
:10E5C0002000643000F00DFFB578387CA84208D1F7
:10E5D00000E07578002D04D0216A080001D02800E1
:10E5E0008847F1BD80B502210078FFF7BBFF01BD70
:10E5F000F1B584B000250020954EF169CA4303921D
:10E600001146E02252040A40009271698A005118B2
:10E6100002916946097C0191AF4C8022920351001E
:10E62000019B172B17D802A7FF5C7F00BF4400BFD8
:10E630000C14142B394C67787F887F88E195959569
:10E640009595C2C8D0D8E1E10399F02252040A405E
:10E650006260A5603573D3E000986060A56068468D
:10E66000007C2168F0235B044B40134006D06260BD
:10E67000A560022820D1E121C90034E0A2606560D4
:10E6800002281ED12EE000986060A5602068F0216D
:10E6900049044140114023D06260A560C82189002F
:10E6A00021E000986060A5602068F02149044140A5
:10E6B000114004D06260A560FA21090113E0A26054
:10E6C0006560C82149000EE000986060A560206880
:10E6D000F02149044140114002D06260A56001E090
:10E6E000A2606560C8216846007C307375690800C7
:10E6F000642103F044FC45432900002228E00098EF
:10E700006060A5602068F02149044140114002D0BA
:10E710006260A56001E0A2606560062030730CE0D5
:10E7200000996160A560A2606560072167E02068CC
:10E730000A00824362600140A1600022716907E023
:10E7400020680A00824362600140A16000220299B1
:10E750002436300000F004FE52E03000443000F077
:10E7600040FE1121019A891A1CD000281AD180225A
:10E770001204F26102290ED300957769C820414343
:10E780000800642103F0FBFB4743390000223000FE
:10E79000443000F0E5FDF169F02252040A40A26025
:10E7A00065602DE0F169F02252040A406260A560C4
:10E7B000F56125E0F02149046160A56012211EE0A9
:10E7C000E02149046160A560A2606560132116E044
:10E7D000D02252046260A560A160656014210EE041
:10E7E000C02149046160A5608908A16065601521A8
:10E7F00005E0F0214904A16065606946097C317338
:10E8000005B0F0BD100500503448017EC90700D4A2
:10E81000704780B5007BFFF7EBFE01BD7CE901008E
:10E820002D4801688022120413008B4343600A4084
:10E830008260704780B50021284A127ED20702D537
:10E84000FFF7D6FE0100080002BD00007CE90100D0
:10E8500074300020F8B505000F00002600201F4985
:10E860004F618D610A62A9071DD500240122012193
:10E87000200000F035F8641C042C01D20028F5D0EB
:10E88000002804D17A08042140A003F025FC0028C8
:10E8900001D103F055FC002805D12E4A002100BF0C
:10E8A00035A000F045FDE90705D52B49F0225204BB
:10E8B0000A604E600A61002805D1284A002100BF85
:10E8C0002BA000F035FD002805D1254A012100BF0D
:10E8D00028A000F02DFDF2BD04050050743000208A
:10E8E00030B503000020042B16D2012A05D10129DE
:10E8F00002D11A000D3200E000221A4C5D00EB1824
:10E90000E318002906D0022902D005D21A7030BDC2
:10E910005A7030BD9A7030BD072030BD70B50022EE
:10E92000114B00BF15A495006459A4001B191C6865
:10E930000500D540ED0701D5032500E000250B4E6D
:10E9400026402C0434431C60521C042AE8D30020C7
:10E9500070BD0000E5E501000805005009E8010070
:10E9600021E801007430002000070050FFFFFCFF89
:10E9700098300020B8300020D8300020110000006E
:10E98000120000001300000014000000110003003A
:10E9900065E501001200030065E5010013000300B6
:10E9A00065E501001400030065E5010080B5012262
:10E9B00002210020FFF794FF002801D0072812D180
:10E9C000072202210120FFF78BFF002801D0072832
:10E9D00009D10A2200210020FFF782FF002801D080
:10E9E000072800D1002002BD80B50320FFF796FF65
:10E9F000002801D0062800D1002002BD10B5344CFB
:10EA000061680088102802D0112826D010BD002986
:10EA10001FD101220020FFF763FF002801D0072843
:10EA200011D1072202210120FFF75AFF002801D04F
:10EA3000072808D1042202210020FFF751FF0028F7
:10EA400007D0072805D0002803D021680A0000D08D
:10EA500088476068401C606010BD491E616007D136
:10EA6000FFF7A4FF002803D021680A0000D08847E0
:10EA700010BDF8B50F0000260025154C2060002FB2
:10EA80001DD000A9491C0020FFF75CFD002814D10F
:10EA900069460120FFF756FD00280ED16846007830
:10EAA000002801D0022004E068464078002802D007
:10EAB0000B20387003E03E7001E0050005D160686E
:10EAC000002802D1FFF772FF05002800F2BD000008
:10EAD0001036002070B588B005006D4C00262888DF
:10EAE000102804D011284CD01A284FD068E0607D3F
:10EAF000227D8243211D02A803F091FB01960EE0C6
:10EB0000009602A801994900401883881D2221001F
:10EB10001431201D03F04FFB0198401C0190019817
:10EB200002998842ECD36846A9880180217DC843B8
:10EB3000C0B203F026FB5749884219D069460988BC
:10EB40004000201881800123684602882100153189
:10EB5000201D03F029FB012368460288210014319F
:10EB6000201D03F021FBA87D022805D1012304E02C
:10EB70000420FFF72BF923E00023AA882100163197
:10EB80001BE00023AA882100153116E0287A00092D
:10EB9000022801DB012300E00023AA8821001731AD
:10EBA000201D03F001FB287A0009032801DB012363
:10EBB00000E00023AA8821001831201D03F0F4FA98
:10EBC00008B070BD70B506000024314D3200297DBB
:10EBD000281D03F011FB002809D03200A97D281D53
:10EBE00003F00AFB002801D0022400E001242000E9
:10EBF00070BD80B5264B0200D97D181D03F0FCFACC
:10EC000002BD80B5224B0200197EF6E780B520498F
:10EC10000A7DFFE7091D03F002FB02BD00201C492D
:10EC20000A681300C340DB0704D401238340134365
:10EC30000B607047401CC0B21828F2DB18207047E8
:10EC400080B5020012480368CB40DB0703D54118AA
:10EC5000497E001DD2E7002002BD10B504000C481B
:10EC60000368CB40DB0706D5130022004118193199
:10EC7000001D03F099FA10BD05490A68C240D20789
:10EC800002D50818407E7047002070470000000041
:10EC900040340020FFFF0000408862490A8890420B
:10ECA00004D34988814201D3012070470020704776
:10ECB00038B55D4CE08B5D49884222D0217F491CEC
:10ECC0002177227BC9B28A4208D3564975DF0028D2
:10ECD00017D0A1690A0014D0884731BD00252577D7
:10ECE000217C002907D03B2176DF002803D0A169D1
:10ECF0000A0000D088476169080002D068460570A4
:10ED0000884731BD70B50600474C200031001C22F9
:10ED1000FDF776FA002565773168424E002911D05B
:10ED200030000822FDF758FA30007ADF002808D1B9
:10ED30003E48E08325773E4A002100BF3EA000F018
:10ED4000F7FA70BD30007BDF0028F1D070BD38B518
:10ED50000025354C3748FFF79FFF00281AD1607F08
:10ED6000002805D0616908001CD06A46157017E0BC
:10ED7000207F002801D1616800E0A1680022200006
:10ED8000203000F0EDFA00280CD0A1690A0009D06B
:10ED9000884707E06169080004D001206A461070C6
:10EDA00068468847657731BD38B5010000251E4C9F
:10EDB00020480A88102A06D0112A0FD0122A2AD0F9
:10EDC000502A0FD031BD8A88E28318310822FDF71E
:10EDD00003FA2577E089002823D120E01348E08357
:10EDE00025770DE0891D0888E289904219D148896C
:10EDF000022816D10C310800FDF7FDFF00280ED1C6
:10EE00002000203000F0EDFA00280AD0A1690A00A5
:10EE100007D0884731BD08310822FDF7DDF9FFF73B
:10EE200096FF31BD0036002014330020FFFF0000A4
:10EE3000B1EC010008360020343300200121C00667
:10EE4000C00E8140A648016070470121C006C00E77
:10EE50008140A448016070470121C006C00E814076
:10EE6000A1480160704710B58207D30EFF249C4073
:10EE7000E2438907090E9940030004D59B481B070C
:10EE80001B0F083B00E09A489B089B00C0180368D2
:10EE90001A401143016010BD002811D0954909683E
:10EEA000954A00BF00BF00BF00BF00BF00BF00BF4A
:10EEB00000BF914200D000BF401EF2D1BFF35F8F70
:10EEC000704738B5802080028C4908608C488021CA
:10EED0004902016401608B4C012525602F20FFF75A
:10EEE000DBFF6560884C002525612F20FFF7D4FFEC
:10EEF000A57231BD401A0002000A7047F8B5824F72
:10EF0000FE68002E34D00024804800683969FFF77D
:10EF1000F1FF05003068854218D32D1A24183000FF
:10EF2000F669017C00290FD00021017442698169D2
:10EF3000FB69180006D010009847002804D0FEF79F
:10EF400045FF01E008009047002EE3D1787A397A36
:10EF5000814206D1401C7872C0B2022801D1002043
:10EF60007872787A8000381844611420FFF76DFFBA
:10EF7000F1BDF8B5644A1378D0680090002117E01D
:10EF80002500E469002C13D0B442F9D1A54207D181
:10EF9000FE69D660002E03D1B54E30601161D0728B
:10EFA0002068E469EC61002C02D0256828182060F4
:10EFB00001205478A3421BD0546818255D4364197E
:10EFC0005B1C9578DBB2AB4200D100232578022D83
:10EFD00002D0032D05D0EBE76668D7683D002C0012
:10EFE000D0E7D0680028E3D00174C069D060F8E7AA
:10EFF000D268009B9A4200D10020F2BDF1B582B0E8
:10F00000414CE06800900027012600E0E56002988E
:10F01000002830D120786178884259D06168182260
:10F0200042438918401CA278C0B2904200D100200F
:10F0300020704D6808780128ECD1287C0028E9D19F
:10F0400088686860C868A8600869E8604869A8615D
:10F05000E07A002800D06F6020696A68111A0902FE
:10F06000090ABE4B99420AD201001000FFF742FF85
:10F07000A96840180CE00546E8690290ECE7110029
:10F08000FFF738FFA968884201D2081A00E0002083
:10F0900028606F60AF602E74EF61E0680028B5D023
:10F0A000026829688A4203D3511A0160E861ADE71A
:10F0B000020013688B4205D2C91A1000D269002AD7
:10F0C00002D0F6E75B1A13602960EA61C5619EE72A
:10F0D000E0680099884201D00120FEBD0020FEBDFD
:10F0E00000E100E000E200E080E200E01CED00E072
:10F0F00000E400E0242C00200024F40080E100E083
:10F100000813014004100140CC34002004150140D4
:10F110007CB50025BC4800690190BB490A7A110002
:10F12000B94B5B7A9A4210D0491CC9B2022900D16E
:10F130000021B54A8B00D218546900190002000A58
:10F14000B14A10610120009001E000240094AE4813
:10F150000172FFF70EFF0600AB48C0680099002956
:10F160001BD0002210E0E41AD21800230B6000909C
:10F17000C869CB68002B07D0019EB6183602360A44
:10F180004E608B60CD61009D002805D001000B68AA
:10F190009C42E8D21A1B0A6001269B49C8602800DD
:10F1A000FFF72CFF002801D1002E46D09648C068FA
:10F1B000002840D000680090944C2068019092484C
:10F1C000056929000198FFF795FEC61C8E48807AD4
:10F1D000002813D18E48802149020164016011206A
:10F1E000FFF73AFE1120FFF729FE01208949086048
:10F1F0002F20FFF751FE0120834988720098864234
:10F2000000D20600A8190002000AE06326680199EE
:10F21000FFF770FE050001993000FFF76BFEC01C80
:10F2200085420AD22068E0632F20FFF735FE1120C7
:10F23000FFF70BFE01E0FFF744FE00207249C872A1
:10F2400073BD75494870704710B573494A78531CAF
:10F250008C78DBB2A34200D100230C78A34201D109
:10F26000002010BD0370486818214A43801810BD63
:10F270000810014070B582B005000C000020002687
:10F2800069460870684602F0F1FF00A8401CFFF7CD
:10F29000DBFF002801D1042605E0047045606846C4
:10F2A0004078FFF7CEFF6846007802F0F5FF002EA9
:10F2B00002D11420FFF7C9FD300076BD80B5574854
:10F2C0000021016441648164C16401604160FFF711
:10F2D00015FE01BD80B5FFF71BFF01BDF2B50700AC
:10F2E00014001E00A00701D1002C01D10720F2BD9F
:10F2F000FFF7E7FD444DEE6100202880694609785C
:10F30000A9706C60E86028811420FFF7A5FD032137
:10F310001420FFF7A8FD1420FFF790FD3B4C676019
:10F3200003211120FFF79FFD206828610020F2BD16
:10F33000394B5B68002B09D0130001D0002801D1A4
:10F34000072070470068037C002B01D0082070471D
:10F35000037441744261002070470000FFFF7F008A
:10F36000F4B582B005000C0027484068002808D09A
:10F37000002D06D0052C01D20720FEBD68690028AB
:10F3800001D10820FEBD0020697C012901D12700A0
:10F3900000E00027002669460870684602F066FF14
:10F3A00000A8401CFFF750FF002801D104260DE003
:10F3B000012101704560154909688160C4600761D9
:10F3C0000299416168464078FFF73BFF6846007844
:10F3D00002F062FF002E02D11420FFF736FD30004C
:10F3E000FEBD80B50C494968002904D0002802D030
:10F3F0004169002901D1082002BD002101740221C8
:10F40000FFF738FF02BD0000CC3400200415014096
:10F410000413014000100140CC34002000110140D1
:10F420000121C006C00E81407A4801607047012169
:10F43000C006C00E8140784801607047202804DA79
:10F440007649C140C807C00F70470120704738B5E2
:10F450000400FFF7F3FF002801D1714832BD0320FB
:10F4600003212140CA00210005D56E4B25072D0F31
:10F47000083DAD0801E06C4BA508AD005B59D340D9
:10F480009A09104004280CD200280AD0022808D07B
:10F4900066484268002A06D12000FFF7C1FF00201D
:10F4A00032BD634832BD61098900401801680122FC
:10F4B000E306DB0E9A400A430260F0E780B502F0F3
:10F4C00081FA01BDBCB55B4C2078002837D00025FF
:10F4D0000027E068002803D1012501E0002F15D1A5
:10F4E000607800282BD1684652DF052801D101271A
:10F4F0000CE0002802D0FEF769FC07E0009802F05B
:10F500003FFF2169080001D000988847002D14D1E1
:10F510006078002813D160886946888001A9A068B6
:10F5200061DF052801D1012507E0002802D0FEF7A0
:10F530004DFC02E0A068E16888472F42CED0B3BD01
:10F540003C480078704770B50600002901D0880754
:10F5500001D0072070BD374CA160628063602D48E8
:10F560000068C507ED0F02D00020FFF760FF3249A9
:10F57000300010DF060006D0002D02D00020FFF77B
:10F580004FFF300070BD0120207002F000FF1620F8
:10F59000FFF75DFF70BD010001D10E2070472549C6
:10F5A000C86000207047010001D10E20704721493A
:10F5B00008610020704780B51E484068010005D0F2
:10F5C0008047002804D0FEF701FC01BDFFF77AFF59
:10F5D00001BD70B504000D00160014213000FCF7C9
:10F5E00053FE0120308000213161317BFE220A4030
:10F5F000327335727472002C00D0B072002070BD6E
:10F6000082B00E4900910099019101A960DF009933
:10F6100002B0704700E100E080E100E0FC06FFBCC2
:10F62000012000001CED00E000E400E0F8350020BF
:10F6300002200000C8350020BDF40100E81F0020B2
:10F640003C4A9288904201D2401C00E00020C0B2A7
:10F65000704710B593070DD1364B9A604C1CE404EB
:10F66000240C1219DA6000225A701A70588099809E
:10F67000002010BD072010BDF5B583B00D002D4C46
:10F680006088A8423BD32C4F0197002669460E7034
:10F69000684602F0EBFD2078694648706078FFF715
:10F6A000CFFF69464978884205D06078019060783C
:10F6B000FFF7C6FF60706846007802F0EDFD019824
:10F6C000B8421AD0C700A068C01904990160039914
:10F6D00000290FD0002D0DD02A00E0688446019B40
:10F6E000608843436046C018FCF776FDA068C019E7
:10F6F000858000E08680002002E0042000E00920F0
:10F7000005B0F0BD38B50B4C0EE02078A168C20002
:10F710008A189188E36865886843181812689047CA
:10F720002078FFF78DFF2070207861788142ECD13E
:10F7300031BD0000DC350020FFFF00000870000A2A
:10F74000487002207047F3B58FB014001D000846C2
:10F75000002801D1FEF73AFB002C02D10020FEF771
:10F7600035FB1C2107A8FCF78FFD02266846007FA9
:10F770000221014368460177002708970A970B97F3
:10F780000C970D9701A8012181706946898F01802E
:10F7900003216846FCF778FD287869460870687888
:10F7A000487068468178E2220A4016438670142128
:10F7B00002A8FCF769FD01A802906846039002A820
:10F7C00004814781848110980690169B02AA07A99C
:10F7D00067480088A2DF11B0F0BDF0B585B0040025
:10F7E00001A80121817063490180614D2A0001A9AE
:10F7F0000120A0DF002843D12288002A09D0281D3B
:10F80000009023003C3361685B48FFF79CFF0028B1
:10F8100036D12289002A0AD028000C30009023001B
:10F820003C33E1685548FFF78EFF002828D1228A33
:10F83000002A0AD028001430009023003C3361696C
:10F840004F48FFF780FF00281AD1228B002A0AD0E8
:10F8500028001C30009023003C33E1694948FFF741
:10F8600072FF00280CD1228C002A0AD028002430F4
:10F87000009023003C33616A4348FFF764FF00288F
:10F8800074D1228D002A0AD028002C300090230049
:10F890003C33E16A3D48FFF756FF002866D1236BF1
:10F8A000002B27D002AA03CB083B107003CB083BE8
:10F8B0000004000E507003CB083B000C907003CB8B
:10F8C000083B000ED07003CB083B11719868507153
:10F8D0009868000A90719868000CD0712800343044
:10F8E000009023003C33082202A92948FFF72BFF90
:10F8F00000283BD1616B00290BD028003C300090E0
:10F9000023003C330A7909682248FFF71CFF0028CE
:10F910002CD1A76B002F28D002AE38783070711C24
:10F920007888FFF70BFF401CC0B200903118B888F0
:10F93000FFF704FF00990818C0B200903118F8884A
:10F94000FFF7FCFE00990818C0B2072802D000207B
:10F95000FEF73CFA443500953C342300072202A907
:10F960000D48FFF7F0FE002800D1002005B0F0BDE3
:10F97000383200200A180000292A0000242A00003A
:10F98000252A0000272A0000262A0000282A000035
:10F99000232A00002A2A0000502A000010B5040083
:10F9A000FEF710F8200000F0EDFF10BD70B5002448
:10F9B000A04EBC4D29780C20604330184088FFF7DA
:10F9C0003FF9002801D1E0B270BD641C082CF1D3CE
:10F9D000FF2070BD10B50400B24801782000FFF789
:10F9E0002FF900280CD0002092490C2242438A189B
:10F9F0005288A24201D1C0B210BD401C0828F4D3E5
:10FA0000FF2010BDF8B504000E00FF27002E1ED009
:10FA1000AD4DAC421BD00122A24801782000FFF777
:10FA20001CF92000FFF7D6FF0700FF2F02D1FFF7D8
:10FA3000BDFF0700FF2F0AD07E480C2179434018F4
:10FA400044800580001D31000722FCF7C5FB38000B
:10FA5000F2BD0021425C002A01D001207047491C00
:10FA60001029F7D30020704780B5002805D0002961
:10FA700003D002780B789A4201D0002002BD062202
:10FA8000491C401C02F0A2FC401E8041C00F02BD78
:10FA900001000888102800D0704770B58EB003A808
:10FAA000091D2C22FCF7ACFB874E350003AC2079F6
:10FAB000032826D001F015FA2079002802D0022868
:10FAC0000FD01ED26A4602A9072001F011FA0028C1
:10FAD00017D001991131201DFFF7C6FF00280ED164
:10FAE000F0E76A4602A9072001F002FA002808D0D0
:10FAF0000199491C201D00F0D1F90028F1D0684679
:10FB00000589211D2088FFF77DFFB5420AD0290015
:10FB1000208800F0F4F868462188418001210170B6
:10FB2000FFF73CFF0EB070BD70B504000D00401C27
:10FB3000FFF78FFF00280ED01022691C601C02F016
:10FB400045FC461EB641F60F113529001134200040
:10FB5000FFF78AFF304370BD30B587B004002078CE
:10FB600000282CD12079072829D105AA07216088EF
:10FB700000F0EAFA002822D101F0B3F903AA69469D
:10FB8000072001F0B5F9002819D060886946098876
:10FB90008842F3D004990698FFF7C6FF0028EDD0FD
:10FBA00001AD608800F080F86880002028706088CF
:10FBB000A88068460088E88001A8FFF7EFFE07B03C
:10FBC00030BD10B5374C18202070002019493E4A2E
:10FBD0000C234343CB185A80401C0828F8D3FFF766
:10FBE0001DF82070182803D0201D71DF002800D0D8
:10FBF000032010BD80B5FFF7EDFEFF2804D00D49AE
:10FC00000C225043085A02BD2F4802BD10B50C000B
:10FC1000FFF7E0FE0100FF290AD02000054A0C236F
:10FC200059435118091D0722FCF7D6FA002010BDD0
:10FC3000052010BDD831002038B504000D0000F0BB
:10FC400045F8002803D020882988884201D0002068
:10FC500032BD0822A91CA01C02F0B8FB401E804146
:10FC6000C00F32BD10B584B0040001F03AF901AA0A
:10FC70006946072001F03CF9002810D0029946316E
:10FC80002000FFF7D9FF002806D102992A31200071
:10FC9000FFF7D2FF0028EAD06846008800E00A4853
:10FCA00004B010BDEC3500200021664A0C234B4304
:10FCB000D2181388984201D150887047491C0829EE
:10FCC000F3D3014870470000FFFF000001880029BE
:10FCD00003D142189278002A01D001207047491CB4
:10FCE0000829F6D30020704710B50C00FFF772FE0C
:10FCF000FF2803D053490C2250430C5210BD80B54D
:10FD0000FFF7F2FF01BD38B50500FFF7CDFF040096
:10FD1000280000F0F3F905004B498C4204D0002D77
:10FD200002D12000FFF7E0FF280032BDF7B59AB0FE
:10FD30001F005020029000240194009401201C997F
:10FD4000002903D0002F01D001903C60239E22990E
:10FD5000002903D0002E01D00090346003A80021B8
:10FD6000002206C0049005AD1CE0019800280BD0CD
:10FD70000722290011311C98E3001B1BC018FCF757
:10FD80002BFA3868401C38600098002809D01022EF
:10FD9000691C22982301C018FCF71EFA3068401C29
:10FDA0003060641C1B98844218D2502105A8FCF7CF
:10FDB0006BFA02AB03AA1A996000085A072101F0F6
:10FDC00059F8052801D0072801D1052007E0687CF3
:10FDD0000028CAD00128C8D01C4800E000201DB06F
:10FDE000F0BD7CB51A4C2578002902D00E68AE42D1
:10FDF00004D3002B04D01E68AE4201D2042076BD8D
:10FE0000019300920B0002002900201DFFF78EFFD6
:10FE100076BDF8B503000E4C201D002200250026FB
:10FE20000027E4C0002B01D0002902D1002020705F
:10FE3000F2BD21704A001900201DFCF7CDF9002009
:10FE4000F2BD0000D8310020FFFF000002320000A8
:10FE5000A0350020F0B58DB00C0015000026002163
:10FE60006F46421AD27B7A54491C1029F9D30D21CE
:10FE700038001030FCF708FA0020215C3A1AD177DC
:10FE8000401C0328F9D368464DDFB81B2F3000789B
:10FE9000A855761C032EF8D30DB0F0BD3EB5040076
:10FEA0000D002078022801D000203EBD0322611CF5
:10FEB00002A8FCF791F90322211D6846FCF78CF992
:10FEC00001AA69462800FFF7C5FF032201A902A87D
:10FED00002F07CFA401E8041C00F3EBD8249018085
:10FEE000FF2181700174417CF8220A404274002194
:10FEF000C1604160816070470A6800E0521C082AB6
:10FF000008D27A4914235343C9180B888342F5D188
:10FF1000080070470020704738B504000D0000202D
:10FF200001E00098401C009069462000FFF7E4FFC4
:10FF3000002802D08178A942F3D132BD38B504003F
:10FF4000002506E0207C4119C9B2694802F0BCFADC
:10FF50006D1CE0688542F5D32000FFF7BFFF31BD7F
:10FF600070B50400002500BF04A62000A900715848
:10FF700088476D1C052DF8D370BD0000F5D6010033
:10FF800059FB0100E9060200B51002000118020049
:10FF9000F0B585B00400002769460F74684610214B
:10FFA000FCF772F96D4660886880207928712179A4
:10FFB0006088FFF7B1FF012604212278092A47D87B
:10FFC00001A39B5C9F4400BF0A0A5E2C2C62666AF8
:10FFD000748400280BD0417C314208D0FFF7AEFF7B
:10FFE0002F702078012800D000262E722AE02E7073
:10FFF000A06821E0002811D08268A3689A420DD140
:020000040002F8
:10000000427C32420AD0A54A1268521CA34B1A60A5
:10001000427CFE2313401943417419E002202870EA
:10002000E06803900EE003200BE0297003E0052058
:1000300007E006202870E068029003E06846067436
:10004000072028706846FFF78BFF01E0E068029008
:1000500092480068002826D00024244814216143D7
:100060004618707C410705D4800719D56846007C86
:10007000002815D0B178308800F05AF900280FD048
:1000800031886980B1782971042802D1082028704C
:1000900002E00921297002906846FFF761FF02E043
:1000A000641C082CD9D305B0F0BD3EB500250F4C1B
:1000B000142068432018FFF711FF6D1C082DF7D39B
:1000C0005020029008200190012000902300A033CE
:1000D000A02292002100B431A434200002F08AF959
:1000E000002800D003203EBDFFFF00002C2C002084
:1000F000D02C002080B500F09BFF02BD38B5040075
:100100000025009569460DE08178200000F0C8F8D0
:10011000002802D0052800D003250098401C00903C
:1001200069462000FFF7E8FE0028EDD1002D09D137
:10013000200000F08BFF002804D0072801D10725FC
:1001400000E00325280032BD80B5002300F092FEB8
:1001500002BD817042605021594389B2C91C891087
:100160000180704780B59BB2FFF7F3FF01BD817836
:10017000012908D0062906D0072902D0082904D071
:100180007047142105E0012103E0416889880931A5
:10019000890801807047B8B50FB483B0002B01D136
:1001A0000E2078E00191072901D0082909D1002A01
:1001B00007D0092A05D26846808900F052FF00283E
:1001C00001D1072067E000276846017C8089FFF79E
:1001D000A3FE04008448009013D0E068059988428B
:1001E00029D2002506E0207C4119C9B2009802F00E
:1001F0006BF96D1CEDB2E0688542F4D32000FFF787
:100200006DFEFF217948FFF787FE040022D0684683
:10021000808920806846007CA070207CFF281CD14B
:100220000599009802F009F92074FF2814D12000E4
:10023000FFF754FE0EE08142EFD20D46EDB2E068CA
:100240008542EAD2207C4119C9B2009802F03CF9FB
:100250006D1CF3E711201EE001270598E060217C6A
:10026000009802F019F9020001D1032013E0059B68
:100270009BB26846017C0698FFF76BFF002F09D000
:100280000198082806D1069800888000801F0699EA
:1002900049688880002008B0B0BD000024360020E6
:1002A00038B50024FFF738FE050001D1052032BD26
:1002B0006868002804D000F060FE040000D0032429
:1002C0002800FFF73BFE200032BD00007CB50E0089
:1002D000072903D0082901D0072076BD0025FFF7A4
:1002E0001BFE040001D1052076BD606800281CD1EA
:1002F000217C3D4802F0D0F8020000BF48A003C8AE
:100300006B4603C3684686700DD0E3683100FFF783
:1003100029FF6846FFF72BFF211D684600F014FEF9
:100320000500092D01D1032076BD280076BD00000F
:10033000F0B583B007000E00072E03D0082E01D0C1
:100340000720FEBD38A003C86A4603C2684686700F
:1003500031003800FFF7E0FD040001D10520FEBDAB
:100360000125607C284201D00020FEBD217C1E4872
:1003700002F092F8002801D10320FEBDE3680200DC
:1003800031006846FFF7EEFE6846FFF7F0FE2300F7
:10039000083362686946380000F0F7FD144A1368B4
:1003A000667C06213140062900D15B1E002802D15F
:1003B000F921314010E0591C112807D10B00FD2014
:1003C000304004210143617400200BE0042806D171
:1003D0000B00FB21314002250D43657402E0072824
:1003E00000D003201360FEBDD02C0020FFFF0000D2
:1003F0002436002080B500F038FE02BD80B500F044
:1004000038FE02BD80B513889B0000936B4600F058
:1004100031FD02BD80B51300002200F0B6FD02BD23
:1004200000000000000000000000000000000000CC
:10043000010000D00120704780B5FDF7F7F901BD3C
:1004400070B50500100000260022042904D01129EF
:1004500004D000291FD102E0012200E00126C34C94
:1004600000280FD0A17B2800FEF7F7FB3200617B4C
:100470002800FEF7F2FB0022A17A2800FEF7EDFB30
:10048000002204E0A17A2800FEF7E7FB3200617A3F
:100490002800FEF7E2FB70BD3EB504000D0014D04D
:1004A000112D12D068460C21FBF7EEFE6846448001
:1004B00001950D2D01D10B2104E0042D01D10A215C
:1004C00000E009210170FFF7B7FF37BDFBB506005B
:1004D0001700A64D0846297A014301D10520FEBD2B
:1004E00068460079002801D0002100E02900300092
:1004F00001F0DAF80400002221003000FFF7A0FF2D
:100500006846007A002803D021003000FFF7C4FFBE
:10051000297B200023D0042C15D0082C1FD00D2CB3
:100520001DD0112C03D0964A944218D016E068468C
:1005300002793000FEF791FB3A00E97A3000FEF7CD
:100540008CFB00240BE0684602793000FEF785FB47
:100550003A00E97A3000FEF780FB00E00324200037
:10056000FEBD3EB50400814DFEF72CFB012816D1DF
:100570002000FFF73FFBB049884210D00122E97B01
:100580002000FEF76AFB68460021002200230EC00F
:1005900068460C2101704480FFF74EFF04E0002202
:1005A000E97B2000FEF759FB287A002808D0E97B78
:1005B0002000FEF745FB002802D12A69290001E04E
:1005C00000220021200000F0F1FE05000122290098
:1005D0002000FFF735FF29002000FFF75DFF37BD42
:1005E0003EB504002078002805D0401E07D0401EEC
:1005F00007281AD937BD6088FFF7B3FF37BD002140
:10060000604A137A002B0AD01278D307DB0F2579C2
:10061000AB4204D39307DB0F6279934200D20121EE
:10062000012300226088FFF751FF6846217801709E
:1006300061884180241D03CC6A46121D03C26846AE
:10064000FFF7FAFE37BDF1B586B06846007EFEF7CB
:1006500013FBFFF7EDFE002823D06846FEF7D6FA1D
:100660000024484D1AE068466100401887886846B3
:10067000017E3800FEF7E4FA00280ED0E97A38004F
:10068000FEF7DEFA0600297B3800FEF7D9FA0123CF
:10069000320001003800FFF719FF641C0098844203
:1006A000E1D307B0F0BD70B586B00600FEF7E4FAFE
:1006B000FFF7BEFE002815D06846FEF7A7FA002413
:1006C0000DE0684661004018858831002800FEF77B
:1006D000B7FA002802D02800FFF743FF641C0098F7
:1006E0008442EED306B070BD10B5264C00780628C3
:1006F00007D9C01F0BD1A07BFFF7D5FFA07AFFF76A
:10070000A2FF607BFFF7CFFF607AFFF79CFF10BD71
:1007100010B504002078182802D1FEF77FFA207067
:1007200010BD10B5174C20000930FFF7F1FF200075
:100730000A30FFF7EDFF20000B30FFF7E9FF200044
:100740000C30FFF7E5FF20000D30FFF7E1FF200040
:100750000E30FFF7DDFF20000F30FFF7D9FFE07B01
:10076000182801D1032010BD002010BD002C00204E
:1007700080B500F0B3FF0348407AFFF764FF01BD86
:1007800002300000002C002030B5002832D0017863
:100790008A0701D40A062DD44A06520F052A29DAFF
:1007A000F2220A40322A25D042788378934221D31C
:1007B000072A1FDB112B1DDAC278012394081C4283
:1007C00018D1007984081C4214D1D4081C4211D1DC
:1007D000C4081C420ED1032403251540194205D13B
:1007E000002D07D1204205D1012030BD002DFBD1C5
:1007F0002042F9D1002030BD38B505000F4C02D1A0
:100800000020207232BDFFF7BFFF002808D0200073
:1008100029000522FBF7E0FC01202072002032BDF8
:10082000072032BD80B5097801224A400349C97BBF
:10083000FEF713FA01BD0000FFFF0000002C0020AE
:1008400080B500230A000021FFF740FE02BDFEE74D
:10085000010000D00120704780B5FDF779F801BD97
:10086000FEB5070000249C4887422AD0380001F0DA
:100870002CF805006E4607D00B2809D0112805D0AA
:100880009649884217D00BE0022002E0012412E0D2
:10089000032030703800FFF7ADF97080B78007E0B3
:1008A000092030703800FFF7A5F97080B7800295F5
:1008B0006846FFF7D1FF2200894841783800FEF7EB
:1008C000CCF9F7BDFEB50700002400F0BEFF05001F
:1008D00001206E4629000ED0042D0BD00C2D07D020
:1008E000112D03D07D4A954217D00BE0012414E06E
:1008F000072000E008203070B7803800FFF77AF951
:10090000708007E0092030703800FFF773F97080BD
:10091000B78002956846FFF79FFF22007048017874
:100920003800FEF79AF9F7BD10B584B004006846A8
:10093000618841802178002903D0022911D009D390
:100940001FBD0170FFF788FF6088FFF7ADF9FFF763
:1009500087FF1FBD01210170A1888180FFF77CFF07
:100960001FBD207900280CD06088FFF79DF95A49F7
:10097000884206D00122A5498978FEF76EF900F079
:100980003BF81FBD10B50400207801280DD1608808
:10099000FFF766FF608800F0D8FF002805D001222D
:1009A0009A4881786088FEF758F910BD01780729C8
:1009B00000D0704780B54088FFF784FF01BD10B5B7
:1009C000924CFEF72BF92070FEF728F96070FEF7C5
:1009D00025F9A070FEF722F9E0702178182907D0D8
:1009E0006178182904D0A178182901D0182801D1DC
:1009F000032010BD002010BD70B58AB03848807843
:100A0000FEF73AF9FFF724FF002862D004A8FEF7AA
:100A1000FDF800201BE009216A46117101A98C80B4
:100A200003902000FFF7E6F801A9488001A8FFF72E
:100A300013FF32002A4881782000FEF70EF92A00C1
:100A40002748C1782000FEF708F90098401C009064
:100A50000098049988423CD204A8009949004018A3
:100A600084881F4881782000FEF7EAF80028ECD03F
:100A70001B48C1782000FEF7E3F80028E5D10126E5
:100A80000025200000F070FF010016D006280DD0D0
:100A900008280BD01128CCD0104A9042C9D05C4A0B
:100AA0009042B8D12000FFF7DBFEC2E7002620000D
:100AB000FFF7A0F800F072FFBBE7012505206946AB
:100AC00008712000FFF796F801A9488001A88480EA
