:020000040001F9
:10B00000B8300020FDFE010043C8010047CD01001B
:10B010000000000000000000000000000000000030
:10B020000000000000000000000000002BFE0100F6
:10B030000000000000000000C7FF01001300020034
:10B04000B9FC010015000200BFDA01001700020080
:10B050001900020000000000E9E801001B000200E6
:10B060001D0002001F000200210002002300020058
:10B070002500020027000200290002002B00020028
:10B080002D000200E1D201002F0002003100020079
:10B09000F9D2010033000200C7FA010035000200B6
:10B0A000370002003900020000000000000000002C
:10B0B0000000000000000000000000000000000090
:10B0C000F1B5A4B00E0014001D004A487844FF30CA
:10B0D000253003C822AA03C2049600200D9001E087
:10B0E0000198241800206946488022AB0022D243F0
:10B0F000210000A8801C01F044F90190012805DA24
:10B100002078411E8941C943C90F01916846408892
:10B110002528019E00D1761E012E0EDB27003978EE
:10B120000498249A90470490002800D1F4E20D98E6
:10B13000401C0D907F1C761EF1D168464088252862
:10B1400007D100200790089009900A900B900C906E
:10B1500008E0684640880028C2D10D98DEE2010070
:10B1600001200843641C21782029F8D023290ED01F
:10B170002B2904D02D2907D030290BD00DE0010058
:10B180000220084380B2EDE701000420F9E7010046
:10B190000820F6E701001020F3E72A290FD12968DB
:10B1A00029600A68091D29600F92002A05D55142BD
:10B1B0000F9101000420084380B2641C12E00021BA
:10B1C0000F910AE00F9A7B4B9A4205D093009A1890
:10B1D0005200511830390F91641C21780A00303A1E
:10B1E0000A2AEFD321782E2906D00021C9430E91D7
:10B1F00021E000BF344D0000641C21782A2907D1CA
:10B20000296829600A68091D29600E92641C12E0F1
:10B2100000210E910AE00E9A664B9A4205D09300E7
:10B220009A185200511830390E91641C21780A0086
:10B23000303A0A2AEFD302A9088726783100044859
:10B2400078440C3001F0ABF8002803D0641C02E015
:10B25000E04C0000002602A83A30067002A83A30FE
:10B260000078682804D12178682901D1622005E09E
:10B270006C2807D120786C2804D1712002A93A31BA
:10B280000870641C12A806902678641C30002538CB
:10B290002AD01C3800D1D6E0001F022800D8D2E006
:10B2A000133800D1F6E0093800D1CCE0801E00D17F
:10B2B0005EE1401E00D132E1401E022800D8C2E00B
:10B2C000001F00D12BE1401F00D18DE0401E00D1B6
:10B2D000E0E0401E2FD0C01E0BD0801E00D1D9E070
:10B2E000C01E00D1D6E066E101200790252012A9FA
:10B2F0009FE002A83A3000786C282868286016D0B1
:10B300000668001D286005960E9F002F03D53000AB
:10B3100001F04FF809E03A000021300001F051F847
:10B32000002801D0801B00E0380008904FE102683F
:10B33000001D286038E1286828600268001D286028
:10B340000020C0430021104002AA03C212A80590A9
:10B35000069B3C2602A803C8002904D1002802D17C
:10B360000E9A002A14D0761E01960207120F303270
:10B37000D2B23A2A00DB27329A5500090A07104355
:10B38000090901D1002803D0059A9F19BA42EAD3CE
:10B390003C20801B0890991905910E9988420DDA7E
:10B3A000081A0A9002A8008F0349014002A80187E9
:10B3B0000DE100BFFFFFFF7FEFFF0000002900D479
:10B3C00005E102A93831097814220A40102A00D078
:10B3D000FDE00F99079A891A0A9A891A0E1A012E06
:10B3E00000DAF4E00A96F2E002A83A300078622827
:10B3F00019D0682806D06A280CD06C281BD0712878
:10B4000008D018E0286828600168001D28600D98A1
:10B410000880DCE0286828600268001D28600D981C
:10B42000C11703C2D3E0286828600168001D2860A6
:10B430000D980870CBE0286828600168001D28601E
:10B440000D980860C3E02A68D21D072082432A6055
:10B4500003CA2A6002AA03C2002903D5012007906B
:10B460002D200CE002A8008F810703D50120079052
:10B470002B2004E0C00704D501200790202012A94A
:10B48000087012A8079940180590310002A800F032
:10B49000AFFB9CE002A83A3002786C2A0BD0712AEC
:10B4A00001D06A2A07D12B68DB1D072083432B605C
:10B4B00003CB2B6005E0296829600868091D296015
:10B4C000002102AB03C3682A03D102A803C880B2DB
:10B4D0000BE0622A03D102A803C8C0B205E0742AB7
:10B4E00001D07A2A04D102A803C8002102AA03C20B
:10B4F00002A838300078000731D502A803C8002917
:10B5000001D100282BD020203043782827D13020AB
:10B5100012A908700220079012A846701FE02900A7
:10B5200002A83A30007800F0FBF802AA03C202A891
:10B53000002904DA0798411C07912D210DE0008FA6
:10B54000810704D50798411C07912B2105E0C0070E
:10B5500005D50798411C0791202112AA115412A861
:10B56000079940180590310002A800F0A7FA2EE0D4
:10B5700002A83A3000786C2809D00120079028688A
:10B5800028600168001D286012A801701FE028686B
:10B5900028600168001D286068468180002001A99C
:10B5A0004880C0430E9001AA02A9249800F0ECF84C
:10B5B00000280CD5B0E001200790252012A90870C2
:10B5C000002E04D00798411C079112A90E540F9821
:10B5D0000799401A0A99401A0899401A0B99401A7B
:10B5E0000999401A0C99401A019002A83830007845
:10B5F000400711D4202069460870002609E0012385
:10B600006A4602A9249800F0A4FE002800D083E036
:10B61000761C01988642F2DB079F12AE0BE0317870
:10B620000498249A90470490002875D00D98401CE7
:10B630000D90761C7F1E002FF1D1302069460870D6
:10B640000A9F002608E001236A4602A9249800F018
:10B6500080FE002860D1761CBE42F4DB089F059E68
:10B660000BE031780498249A90470490002853D036
:10B670000D98401C0D90761C7F1E002FF1D13020BC
:10B68000694608700B9F002608E001236A4602A95C
:10B69000249800F05EFE00283ED1761CBE42F4DB0A
:10B6A000099F0598089946180BE031780498249A68
:10B6B0009047049000282FD00D98401C0D90761CC8
:10B6C0007F1E002FF1D13020694608700C9F0026A4
:10B6D00008E001236A4602A9249800F03AFE0028F7
:10B6E0001AD1761CBE42F4DB02A83830007840073D
:10B6F00000D4F7E4202069460870002600E0761C9C
:10B700000198864200DBEDE401236A4602A92498F1
:10B7100000F01FFE0028F2D00020C04325B0F0BD8D
:10B720000A00622822D0682819D06A2808D06C281C
:10B7300023D0712804D074281FD07A2808D01CE0A8
:10B740001368DB1D07208343136003CB136070472E
:10B75000116811600868091D1160002170471168A7
:10B7600011600868091D116000B20BE011681160DA
:10B770000868091D116040B204E011681160086892
:10B78000091D1160C1177047F4B598B007000C008F
:10B79000206B002800D50E48029000F01EFE616B61
:10B7A0000818049009487844223003C806AA03C246
:10B7B0003820205C400702D4049841280AD208A807
:10B7C000039040200490002613E000BF6C47000067
:10B7D000FFFFFF7F00F006FE03900028F3D100205A
:10B7E000C04369E11898801C189002980099401A8B
:10B7F00002900298012800DAD1E006AA1898018880
:10B8000001A8401C00F04AFE0090002800D5DAE0B4
:10B8100018980088002804D10098401E009000D598
:10B82000D1E002980099884200DAB8E06069049992
:10B83000009A8218914200D3A0E066634142206AD8
:10B84000081AA169401A616A401AE169401AA16A9E
:10B85000401A05903820205C400711D4202069460A
:10B860000871002509E0012301AA2100380000F039
:10B8700070FD002800D0A6E06D1C05988542F2DB23
:10B880006669039D0BE02978A068B847A06000288E
:10B8900000D198E0E06A401CE0626D1C761E002E2C
:10B8A000F1D1302069460871266A002509E001239C
:10B8B00001AA2100380000F04CFD002800D082E0F1
:10B8C0006D1CB542F3DBA669E5680AE02978A0683B
:10B8D000B847A060002876D0E06A401CE0626D1C8A
:10B8E000761E002EF2D1302069460871666A002566
:10B8F00008E0012301AA2100380000F02AFD0028F9
:10B9000061D16D1CB542F4DBE669E068A1694518B8
:10B910000AE02978A068B847A060002853D0E06A00
:10B92000401CE0626D1C761E002EF2D1302069466C
:10B930000871A66A002508E0012301AA2100380049
:10B9400000F007FD00283ED16D1CB542F4DB382025
:10B95000205C400710D5202069460871002508E0CA
:10B96000012301AA2100380000F0F3FC00282AD1AD
:10B970006D1C05988542F3DB00266661009A01A9DB
:10B98000491C03986369C01800F094FD6069009930
:10B990004018606118980088002800D022E7606B8A
:10B9A0006169401A216A401AA169401A616A401A05
:10B9B000E169401AA16A401A02903820205C4007D1
:10B9C00011D400250CE00026F6436EE02021A0688B
:10B9D000B847A0600028F6D0E06A401CE0626D1C09
:10B9E00002988542F2DB6369039A2100380000F077
:10B9F000B0FC0028E7D1206A0090002509E0302142
:10BA0000A068B847A0600028DDD0E06A401CE06272
:10BA10006D1C00988542F2DBA369E26821003800C2
:10BA200000F097FC0028CED1606A0090002509E064
:10BA30003021A068B847A0600028C4D0E06A401C4C
:10BA4000E0626D1C00988542F2DBE369E068A16961
:10BA500042182100380000F07CFC0028B3D1A06A15
:10BA60000090002509E03021A068B847A0600028B8
:10BA7000A9D0E06A401CE0626D1C00988542F2DBB0
:10BA80003820205C40070ED5002509E02021A06861
:10BA9000B847A060002896D0E06A401CE0626D1CA8
:10BAA00002988542F2DB66616663039808A98842C2
:10BAB00001D000F02DFD300019B0F0BDF3B583B01A
:10BAC000006900906846027C6F2A01D1082406E0D4
:10BAD00020211143782901D00A2400E010243C25BC
:10BAE000039803C806000F00642A01D0692A07D111
:10BAF000002905DA00200021801BB94106000F0053
:10BB0000002F12D1002E10D10398006B00280CD109
:10BB1000082C3CD1039838300078000737D53B25F6
:10BB2000302000993B31087031E06D1E01953000E6
:10BB300039002200E31700F02FFD3032D2B23A2A4A
:10BB400003DB6846007C51381218009842553000DB
:10BB500039002200E31700F01FFD06000F0001D19D
:10BB6000002E05D00398C068009949198842DCD39B
:10BB7000082C0CD1039838300078000707D50098BE
:10BB8000405D302803D06D1E3020009948553C2080
:10BB9000401B0399886100994919039AD160039960
:10BBA000096B884209DA081A039908620398008F22
:10BBB0000E4901400398018715E0002913D5039928
:10BBC0003831097814220A40102A0CD10399496BA4
:10BBD000039A5269891A039A126A891A0D1A012D59
:10BBE00001DB0398056205B0F0BD0000EFFF000027
:10BBF000F3B591B006AD03C802AA03C212A800783B
:10BC000020210143009161290BD01198006B00287D
:10BC100001D5062003E004D1672902D10120119942
:10BC20000863119841684800400DAA4A904225D106
:10BC3000080310D11198006800280CD10320119935
:10BC4000886112A8007861381A2842D323487844C2
:10BC50008A3000900BE003201199886112A80078C7
:10BC600061381A2831D31E4878447430009003227A
:10BC700000991198C06800F01DFCF1E1012817DA65
:10BC8000119800F0BEFC012812DB00270026009866
:10BC9000612832D11198C06830210170401C411CCC
:10BCA000119AD16012A9097861291FD178211EE06B
:10BCB00011994968884A0A4088491143119A51608C
:10BCC0008749461A0027FF43E1E7064878441430C5
:10BCD000CCE7054878441030BBE700BF7042000055
:10BCE000644200005C420000604200005821017084
:10BCF00011984069801C11994861002F03D10024DC
:10BD000068468780A2E10098612800D09FE01198E2
:10BD1000046B002C01D5212400E0641C24B2601CBB
:10BD20000090119803C804AA03C202A803C8002205
:10BD3000002300F088FC04A803C802D28022120667
:10BD4000514002AA03C2301F6946888000270F763F
:10BD500006AE761C00E0F61D0098012830DB02A834
:10BD600003C80022002300F087FC29D21C2102A86E
:10BD700000F0B0FC02A803C800F03AFD05000098EE
:10BD8000C01F009001280ADB280000F05BFD0200C4
:10BD90000B0002A803C800F0CCFD02AA03C2F61DE6
:10BDA000072004E0761E2907090F31702D11012D9F
:10BDB00001DB401EF6D5401ECDD4761E3770FAE763
:10BDC00006A8401C311A06AD6D1CA14200DA0C0019
:10BDD00024B2200032D4884205DA06A9091849782D
:10BDE000082900DB0F2706A9091801E0641E491E77
:10BDF000401E0A78BA42F9D00F2F04D106A90918BB
:10BE00004A78521C4A70002806D506AD641C019879
:10BE100000B2001D6946888024B2601E0ED4291825
:10BE20000A783032D2B23A2A03DB12AB1B783A3BA3
:10BE3000D2180A70401E491E0028F1D51198006BD7
:10BE4000002800D402E1601E11990863FEE002A8F8
:10BE500003C80022002300F0F6FB06D202A803C8A4
:10BE600080221206514002AA03C236B27D487043B6
:10BE70007D4900F0EBFD694688800720019909B2F1
:10BE8000421A00207949012A20DB049202AA30CA12
:10BE900000260F000498C00707D532003B002000A1
:10BEA000290000F02DFE04000D00049840100490BD
:10BEB0003000390032003B0000F022FE06000F0087
:10BEC00004980028E6D102A830C028E05442002699
:10BED000674F18E0FF070000FFFF0F800000E03F02
:10BEE000FE030000E00707D504A803C832003B00AA
:10BEF00000F006FE06000F00641004A803C804AAA0
:10BF00000CCA00F0FDFD04AA03C2002CEAD102A86D
:10BF100003C832003B0000F0B5FE02AA03C200983D
:10BF2000662803D1019800B20A3000E0062011997A
:10BF3000096B08180490142801DB132004903020AA
:10BF40006946087606AC641C049801283ADB02A80E
:10BF500003C800F05FFC05000834042628000A210D
:10BF600000F077FD0F0028000A2100F072FD0500A7
:10BF7000641E303727700A2100F06BFD0F00280087
:10BF80000A2100F066FD0500641E30372770761E1A
:10BF9000E4D108340498083804900128D4DB02A8BE
:10BFA00003C800F037FC00F057FC02000B0002A8A9
:10BFB00003C800F0BEFC00222E4B00F0A1FD02AA37
:10BFC00003C2C4E706A8401C201A06AD6D1C6A46D1
:10BFD00005E0401E019909B2491E91806D1C297827
:10BFE0003029F6D00099662903D1019909B2491C7C
:10BFF00004E0652901D1012100E00021119A126BB2
:10C00000541824B2A04200DA040024B221001DD446
:10C01000814204DA685C352801DB392000E03020F9
:10C020006A1800E0641E521E491E13788342F9D03C
:10C03000392802D1685C401C6854002906D56D1E61
:10C04000641C019800B2401C69468880019800B2C7
:10C05000009023B22A0012A80178119800F00CF881
:10C0600013B0F0BD97750000A086010000002440C9
:10C070000000F03F84D79741F3B589B015001C004C
:10C0800000F07BFE0190406A0078694608720998CA
:10C09000076B012C01DA0124ADA50AA80178202044
:10C0A0000843109E662801D1761C18E0672800D04E
:10C0B0009FE036B20321C9438E4200DA9DE0BE42C2
:10C0C00000DB9AE0761C099838300078000702D42B
:10C0D000BC4200DA270036B2BF1B00D50027099802
:10C0E000C06800900998806900990918019136B2DA
:10C0F000012E2CDA401C3021019A1170012F04DA34
:10C10000099938310978090704D56946097A009AEE
:10C110001154401C099988617042874200DA7E42BE
:10C1200036B2704209994862BF19A74200DA3C0052
:10C1300024B20998C461220029000098099B9B69D8
:10C14000C01800F0B7F9381B09998862E1E0B442E1
:10C1500020DA22002900019800F0ACF909998969D8
:10C160000919099A9161301B099A5062012F04DA6A
:10C17000099838300078000709D56846007A099A8E
:10C18000D26850540998C069401C0999C86109983F
:10C190008762BEE032002900019800F08BF909980F
:10C1A00080698019A41B012F04DA099938310978B4
:10C1B000090705D56946097A099AD2681154401CC5
:10C1C0000999886124B2A74200DA3C0024B2220017
:10C1D000A9190998C068099B9B69C01800F06AF901
:10C1E00009988069001909998861381B0999486282
:10C1F0008FE0612914D1702015E0BC4205DA09995D
:10C2000038310978090700D427007F1E00D50027A0
:10C210000AA80078672801D1652004E0452002E0E3
:10C22000412902D150200AA9087009988169481C47
:10C23000099AD26800922A78009B5A54691C012FEF
:10C2400007DA099A38321278120702D409998861FC
:10C250001BE06A46127A009B1A54401C099A9061AE
:10C26000012F12DB641E24B2A74200DA3C0024B284
:10C270002200009B181800F01DF909988069001928
:10C2800009998861381B099948620998C068099919
:10C29000896945180AA8007828706D1C36B23000EC
:10C2A00003D42B2028706D1C03E02D2129706D1CF8
:10C2B0004642002405AF08E00A2203A800F078FDFA
:10C2C00004983870039E641C7F1C31B20129F3DA94
:10C2D000022C08DA0AA8007820210143652902D13E
:10C2E000302028706D1C002C09D1302028706D1C66
:10C2F00007E0641E05A8005D303028706D1C012C1D
:10C30000F7DA0998C068099989694018281A0999C3
:10C31000C86109983830007814210140102914D1DF
:10C32000099840690999896940180999496A40182A
:10C330000999C96940180999896A40180999496B8E
:10C34000884202DA081A099908620BB0F0BD0000B1
:10C35000300079B50E0014001D00002005E0F06AE1
:10C36000401CF0620020641C6D1E002D08D0217856
:10C37000B068009A9047B0600028F0D10020C04318
:10C3800076BDF8B504000F0015001E0000F020FD7A
:10C3900033002A003900200000F02EFDF2BDC9B2A2
:10C3A00000E0401C02788A4202D0002AF9D1002025
:10C3B0007047010000E0491C0A78002AFBD1081AE6
:10C3C0007047C9B201E0401C521E002A03D0037816
:10C3D0008B42F8D170470020704780B500F0F8FC20
:10C3E000012002BD70B505002C000F3407208443E6
:10C3F000C046C046A54233D2082C04D2082402E02D
:10C40000083000F085F82448026811000CD1011DA5
:10C410000A68002A20D01368A34212D2111DF7E740
:10C420001D68A5420DD2191D0B68002BF8D11268AA
:10C43000011D00E0191D0B6893420DD01D68A54237
:10C44000F8D300290CD00D682A681300083BA342DA
:10C450000AD26A680A600FE000F0ECFC0028CFD135
:10C46000C046C046002070BD2B190B606E685E6030
:10C47000121B0B681A602C600968002904D04A68F6
:10C48000002A01D0091D00E000210160C046C0461D
:10C490000835280070BD0000AC28002070B50400ED
:10C4A0000D00160000F094FC32002900200000F07E
:10C4B00099FC70BD124207D08B0706D00B78491C3F
:10C4C0000370401C521EF7D87047830706D00B78C4
:10C4D000491C0370401C521EF9D1704770B4103AC9
:10C4E00003D378C9103A78C0FBD2530701D318C9D7
:10C4F00018C001D508C908C0D20704D30B8803802F
:10C50000891C801C002A01D50B78037070BC704711
:10C51000002800D1704738B5083804002068082882
:10C5200036D3400734D1C046C0461A484168002976
:10C5300001D08C4203D26160446019E019004B685D
:10C54000002B01D0A342F9D30B68CD18AC421DD308
:10C55000A54204D122689A180A600C0008E04A68D3
:10C56000002A03D02368E3189A420FD362604C601C
:10C57000616800290AD02268A3188B4206D10023E3
:10C58000036008681018206048686060C046C046B4
:10C5900031BD0000AC280020124224D0994228D995
:10C5A00070B500251B4202D00C00002109E00024D8
:10C5B000012649186441944200D3A41A7641F8D365
:10C5C0003100012601E0764109D2001864416D4135
:10C5D000A41A9D41F7D2A4185D41B619F5D33000D5
:10C5E00022002B0070BD1B42D8D108B5C046C04602
:10C5F00008BD01D19042D3D202000B0000210020DF
:10C60000704730B401004B68802212061A400120A6
:10C610001B031B0B4B600BD10B68002B08D10DE0EB
:10C620000B686400DD0F25434D605B000B60401E0E
:10C630004C68E302F4D523031B0B4B604B681A4391
:10C640004A6030BC704730B4012464054D00EC42B0
:10C650000BD85D00EC4208D80C001C436400044376
:10C66000144304D2994200D1904230BC7047FCD0B0
:10C670008B42FAD18242F8E730B4012464054D00C0
:10C68000EC420BD85D00EC4208D80C001C4364005F
:10C690000443144304D28B4200D1824230BC704721
:10C6A000FCD09942FAD19042F8E730B4012100223F
:10C6B0000368001D002B0BD00468001D0C4202D043
:10C6C0004D466D1E64192260241D1B1FF0D0FAE731
:10C6D00030BC704770B504000D0060684000400D2C
:10C6E0003F4EB04207D16068000302D120680028A5
:10C6F00016D0022070BD002804D12000FFF781FF72
:10C7000001286BDA012D0DDB311A8D420AD36068E6
:10C71000002802D50020334901E00020310503C480
:10C72000012070BD4142A942616806DA2E4A0A40E2
:10C73000281800051043606047E08022120611406F
:10C7400062681203120B80235B0313436360401E75
:10C750002D1800202A003532352A02D3616020606E
:10C7600070BD00221E23DB439D4204DA203522687F
:10C77000636823606060684211D0521E9241D243C8
:10C78000D20F20231B1A25689D402A432568C540E7
:10C7900066689E402E4326606368C340636060689D
:10C7A000084360601148824206D28020000682421F
:10C7B0000ED12078C0070BD52068401C206020686F
:10C7C000002805D16068401C60600020C04370BD37
:10C7D00060688842F9D120680028F6D1002070BD39
:10C7E000FF0700000000F0FFFFFF0F800100008046
:10C7F000F4464A1805D200F00FF801D5801740081A
:10C80000604700F009F80121C907884200D90800F3
:10C81000404260474A1812D2400DC9020843012124
:10C82000C9070843520D40210901521A521C06D46F
:10C8300052421F3201D4D0407047C01770470020C9
:10C840007047FEE7010009D5F446404200F006F8C3
:10C850000122D20711436047010000BF42221201AA
:10C86000D21E004207D002D4521E0018FCD5C10AC5
:10C8700040051205891870478B4200D1824205D9C4
:10C880008446100062468C4619006346DF184C1837
:10C89000640D7F0D3AD0661C760537D0E61B352E29
:10C8A00034DCDB022B43DB0A0C0DC9022943C9121D
:10C8B000202E0DDB1700203E06D01F00F741F3406D
:10C8C0005F400026012A7741C01871410DD217E060
:10C8D0001700F741F2405740F3415A40B340F3404C
:10C8E0005A400026801859410AD3A21C52050FD085
:10C8F000C207012F724117004008CB0718434908AF
:10C90000641C24054208AF4170416141F0BC70478E
:10C91000641C21050020F9E76B4010E06B40ABE799
:10C92000F742F3D1E943F1E72442EFD1002000219F
:10C93000ECE7F0B40125ED070F005F40EED40C00EA
:10C94000871A9C4105D2C01BA141D219634169409D
:10C950006B40AE0ADF184C18F442E1D2640D7F0D33
:10C96000E2D0E61B362ED1DCDB022B43DB0AA446E9
:10C970000C0DC9022943C90A012E28DC04D1D607AF
:10C980005208DF073A435B08EF0A7642904199412B
:10C9900014D039423BD1B61940414941761C394245
:10C9A00004D1761C001849413942FAD0B943674690
:10C9B000B74208D9A41B24052143A7E70042EAD1C6
:10C9C0003642E8D1A2E7E40AE10700209EE7202EE4
:10C9D0000BDD203E1F00F340F7415F40012A00229B
:10C9E00057417E42984191410BE01700F741F240D8
:10C9F0005740F3415A40B340F3405A407E42904181
:10CA000099410A0303D2641EB619404149410027E7
:10CA1000641E24054208AE4178416141F0BC704774
:10CA2000F446002804D4494200F013F8404260471D
:10CA30004042002905D45FD000F00BF84042494243
:10CA40006047494200F005F84942604703460B43FE
:10CA5000E6D40022030A8B420BD203098B4219D27F
:10CA600043088B422ED2411A00D201465241104651
:10CA70007047FF2209023FD012068B4205D31212E3
:10CA800009028B4201D31212090203098B4219D306
:10CA900000E0090AC3098B4201D3CB01C01A5241FD
:10CAA00083098B4201D38B01C01A524143098B4247
:10CAB00001D34B01C01A524103098B4201D30B0130
:10CAC000C01A5241C3088B4201D3CB00C01A524155
:10CAD00083088B4201D38B00C01A524143088B421A
:10CAE00001D34B00C01A5241884200D3401A524130
:10CAF000CFD201461046704708B5C046C04608BDB3
:10CB0000F0B50E005E400125ED072E40B446AE0A9A
:10CB1000DF184C18F44208D2F7420ED2640D01D04F
:10CB20007F0D12D100206146F0BD05D1F74201D83A
:10CB30007F0D05D10020C143F0BDFBD1640DF9D0BC
:10CB40000020C143490549088FE0E419C902DB020E
:10CB500029432B43DB0A460DC00231438E4630B4D5
:10CB600087B295B27D432E0CADB2140C7C43A41950
:10CB7000260C240425439CB27C43A419190C794348
:10CB8000270CC919A4B20F043C43090C000C97B23E
:10CB900047432E0CBE193543ADB2170C4743360C34
:10CBA000BF19A6B2BF193E043543240C3E0C3619FA
:10CBB0009FB24743BF19BCB23E0C89191F0C4743B3
:10CBC0007F183E043443390C704680B297B2474315
:10CBD0002E0CBE193543ADB2170C4743360CBF19A6
:10CBE000A6B2BF193E043543240C3E0C36199FB241
:10CBF0004743BF19BCB23E0C89191F0C47437F182D
:10CC00003E043443390C77463F0C90B278432E0CE7
:10CC100080190604ADB22E43050CA0B22D18120CDB
:10CC20007A435019020C80B2240CA4189AB27A43A9
:10CC3000121914042043120C89181B0C7B43C918C9
:10CC400030BCEF0A394203D1B61940414941641E54
:10CC50006F12BF0DE41B0BDBFF19BC4211DA240578
:10CC600000274208AE417841614166463143F0BD3C
:10CC7000641C05D1401C6141CF0201D34908F4E78F
:10CC800050E75DE7F0B40E005E400125ED072E4051
:10CC9000B446AE0ADF184C18F4423BD2F74241D2F8
:10CCA000640D43D07F0D38D0E41BC902DB02294359
:10CCB0002B43CF0ADB0A0600B61A9F4104D2641E3A
:10CCC000B6197F41B6185F416812800D241800180C
:10CCD000844222DAE80C0021B6197F41B61A9F413E
:10CCE00002D2B6185F413F1C40414941F4D3241C95
:10CCF00021DD2405B6197F41B61A9F4105D337437C
:10CD0000C60737430026012F704161416646314313
:10CD1000F0BC7047FCD1F74205D20020C143490561
:10CD20004908F3E704D00020C143F1E77F0DFAD0B2
:10CD300000206146ECE72442FAD1401C61410F0318
:10CD4000F6D30020E2E7FEE780B51248C046C046B1
:10CD500011A1016041608160C16001614161816137
:10CD60000EA242628162C162016341630CA28263CE
:10CD70000DA2C2630164416401BD10B50548C046FF
:10CD8000C04604002068002801D1FFF7DDFF200025
:10CD900010BD0000E81F0020000000002E00000071
:10CDA00066616C73650000007472756500000000B8
:10CDB0007CB504000E00150030002900FFF746FE88
:10CDC00000904543701B0190684603C803C476BDBC
:10CDD00080B50348C046C046806902BD000000001F
:10CDE00078200020002804D10EA003C803C2002030
:10CDF0007047017001207047002904D10BA003C8BF
:10CE000003C300207047002A02D10120C0437047AD
:10CE1000002801D00A7802800978481E8041C0436A
:10CE2000C00F70470000000000000000000000007C
:10CE30000000000007490868002801D00020704762
:10CE4000054807229043086004499143091A01608C
:10CE5000704700BFB4280020BF300020B832002047
:10CE60000121C006C00E8140A64801607047012123
:10CE7000C006C00E8140A448016070470121C00671
:10CE8000C00E8140A1480160704710B58207D30EE3
:10CE9000FF249C40E2438907090E9940030004D512
:10CEA0009B481B071B0F083B00E09A489B089B0010
:10CEB000C01803681A401143016010BD002811D04A
:10CEC00095490968954A00BF00BF00BF00BF00BF79
:10CED00000BF00BF00BF914200D000BF401EF2D192
:10CEE000BFF35F8F704738B5802080028C4908609F
:10CEF0008C4880214902016401608B4C012525602A
:10CF00002F20FFF7DBFF6560884C002525612F206F
:10CF1000FFF7D4FFA57231BD401A0002000A704726
:10CF2000F8B5824FFE68002E34D000248048006897
:10CF30003969FFF7F1FF05003068854218D32D1AD3
:10CF400024183000F669017C00290FD000210174FB
:10CF500042698169FB69180006D0100098470028D3
:10CF600004D000F06FFA01E008009047002EE3D1F2
:10CF7000787A397A814206D1401C7872C0B2022890
:10CF800001D100207872787A80003818446114202A
:10CF9000FFF76DFFF1BDF8B5644A1378D0680090D3
:10CFA000002117E02500E469002C13D0B442F9D128
:10CFB000A54207D1FE69D660002E03D1B54E306080
:10CFC0001161D0722068E469EC61002C02D0256800
:10CFD0002818206001205478A3421BD054681825DB
:10CFE0005D4364195B1C9578DBB2AB4200D1002332
:10CFF0002578022D02D0032D05D0EBE76668D768AF
:10D000003D002C00D0E7D0680028E3D00174C0694F
:10D01000D060F8E7D268009B9A4200D10020F2BDB0
:10D02000F1B582B0414CE06800900027012600E095
:10D03000E5600298002830D120786178884259D084
:10D040006168182242438918401CA278C0B29042FD
:10D0500000D1002020704D6808780128ECD1287C90
:10D060000028E9D188686860C868A8600869E86035
:10D070004869A861E07A002800D06F6020696A687A
:10D08000111A0902090ABE4B99420AD20100100086
:10D09000FFF742FFA96840180CE00546E8690290D6
:10D0A000ECE71100FFF738FFA968884201D2081A9F
:10D0B00000E0002028606F60AF602E74EF61E068D0
:10D0C0000028B5D0026829688A4203D3511A01604A
:10D0D000E861ADE7020013688B4205D2C91A10005F
:10D0E000D269002A02D0F6E75B1A13602960EA6170
:10D0F000C5619EE7E0680099884201D00120FEBD2D
:10D100000020FEBD00E100E000E200E080E200E07F
:10D110001CED00E000E400E0882100200024F40081
:10D1200080E100E00813014004100140C8270020FE
:10D13000041501407CB50025BC4800690190BB493D
:10D140000A7A1100B94B5B7A9A4210D0491CC9B2D5
:10D15000022900D10021B54A8B00D2185469001968
:10D160000002000AB14A10610120009001E0002491
:10D170000094AE480172FFF70EFF0600AB48C0688E
:10D18000009900291BD0002210E0E41AD2180023D5
:10D190000B600090C869CB68002B07D0019EB618C1
:10D1A0003602360A4E608B60CD61009D002805D0A6
:10D1B00001000B689C42E8D21A1B0A6001269B49B9
:10D1C000C8602800FFF72CFF002801D1002E46D0B0
:10D1D0009648C068002840D000680090944C2068B1
:10D1E00001909248056929000198FFF795FEC61C39
:10D1F0008E48807A002813D18E488021490201642C
:10D2000001601120FFF73AFE1120FFF729FE0120EF
:10D21000894908602F20FFF751FE01208349887259
:10D220000098864200D20600A8190002000AE063B6
:10D2300026680199FFF770FE050001993000FFF79D
:10D240006BFEC01C85420AD22068E0632F20FFF7E6
:10D2500035FE1120FFF70BFE01E0FFF744FE002032
:10D260007249C87273BD75494870704710B57349EB
:10D270004A78531C8C78DBB2A34200D100230C788F
:10D28000A34201D1002010BD0370486818214A4311
:10D29000801810BD0810014070B582B005000C0068
:10D2A0000020002669460870684600F0DFF800A8F4
:10D2B000401CFFF7DBFF002801D1042605E00470C5
:10D2C000456068464078FFF7CEFF6846007800F07A
:10D2D000E3F8002E02D11420FFF7C9FD300076BD1F
:10D2E00080B557480021016441648164C1640160D4
:10D2F0004160FFF715FE01BD80B5FFF71BFF01BDC3
:10D30000F2B5070014001E00A00701D1002C01D1C6
:10D310000720F2BDFFF7E7FD444DEE6100202880B5
:10D3200069460978A9706C60E86028811420FFF7CD
:10D33000A5FD03211420FFF7A8FD1420FFF790FDA1
:10D340003B4C676003211120FFF79FFD2068286197
:10D350000020F2BD394B5B68002B09D0130001D0CF
:10D36000002801D1072070470068037C002B01D002
:10D370000820704703744174426100207047000028
:10D38000FFFF7F00F4B582B005000C00274840681D
:10D39000002808D0002D06D0052C01D20720FEBDA4
:10D3A0006869002801D10820FEBD0020697C0129A0
:10D3B00001D1270000E00027002669460870684672
:10D3C00000F054F800A8401CFFF750FF002801D1DE
:10D3D00004260DE00121017045601549096881604E
:10D3E000C46007610299416168464078FFF73BFFDE
:10D3F0006846007800F050F8002E02D11420FFF7A4
:10D4000036FD3000FEBD80B50C494968002904D0C6
:10D41000002802D04169002901D1082002BD002165
:10D4200001740221FFF738FF02BD0000C827002069
:10D43000041501400413014000100140C8270020DA
:10D440000011014010B584B0040068460C2100F0C2
:10D4500057F802946A460021014800F053F81FBDB6
:10D4600001400000EFF3108072B6704738B5040039
:10D47000FFF7F8FF0121124A5368002B07D15160D2
:10D480001049114B1D680D40156019600021217075
:10D49000002800D162B631BD10B5094C6168002981
:10D4A0000BD0002809D1FFF7DDFF2168074A116082
:10D4B00000216160002800D162B610BD00000000AC
:10D4C0008C280020FC06FFBC80E100E000E100E0C9
:10D4D000130030B414001500103902D310393CC0C9
:10D4E000FCD2490700D30CC000D504C0890002D388
:10D4F0000280801C002900D5027030BC70470000FB
:10D500000022E5E7BFF34F8F034804490860BFF3EB
:10D510004F8F00BFFDE700BF0400FA050CED00E0EF
:10D520000022425070474058002808E0C122920073
:10D5300081507047C122920080580140080000D0FD
:10D540000120C0B27047C2229200815070479021E2
:10D55000C90041180868086070478B4B01E0A1239F
:10D56000DB00C018016082607047A321C9004058E9
:10D57000C0B2704701224250704700030016704746
:10D5800052000A4399001143009A12020A4301997A
:10D59000090411437D4A80001150704700B583B0E3
:10D5A000002101910091002301220121FFF7E8FFF2
:10D5B00007BD00B583B00022019200920B0000214C
:10D5C000FFF7DEFF07BD0121814071480160704710
:10D5D00038B505000C002068FFF7F5FF2068FFF75D
:10D5E000DDFF00216068FFF7E4FFA0692968A94A10
:10D5F0008850607D217D01432868483281506268EF
:10D6000021682868FFF7A9FF207D01280ED100219D
:10D61000A068FFF7CEFFE068FFF7D5FFE068FFF7EF
:10D62000BDFFA268E1682868FFF799FF31BDF8B532
:10D6300004000E001700B54821791C2251434518FB
:10D64000E87E002801D00820F2BD31002000FFF75D
:10D65000BFFF6F60306928606868002814D0367F8B
:10D660008E2149002068FFF75BFFA2214900206856
:10D67000FFF756FFB0492068FFF758FF2068FFF713
:10D680007CFF310000F026FA04202168A022D2009D
:10D6900088500020E8752876A8750121E976A876DB
:10D6A000F2BD38B504000D008E214900FFF738FFA8
:10D6B000A868A98A405CA98A491CA982AD49605022
:10D6C00031BDF2B582B006001700904C30791C21B4
:10D6D00048432518300000F04BF8002801D01120F5
:10D6E000FEBDAF750298A8600020A88230791C2189
:10D6F00048432418002000908E277F0039003068AE
:10D70000FFF70EFF08213068FFF734FF2100306873
:10D71000FFF7C7FF6068002828D180256D000FE063
:10D7200039003068FFF7FFFE002802D1A08AA84226
:10D73000F6D1A08AA84203D021003068FFF7B1FFDC
:10D74000A08AA17D8842EBD3A08AA84202D10F20F3
:10D75000009009E039003068FFF7E5FE0028F9D0B5
:10D760000C213068FFF706FF0020A0750098FEBD71
:10D77000664900791C2250430818807D002800D09B
:10D7800001207047000000000C0500000007005059
:10D790000805005010B50400922149002068FFF7E9
:10D7A000BFFE842149002068FFF7BAFE0021E3E0B4
:10D7B00070B504000D0084214900E87D002806D1E1
:10D7C0002000FFF7ADFE2000FFF7CFFE70BD200068
:10D7D000FFF7A6FE6E7E2000FFF7C7FEE9688855BA
:10D7E000687E401C687670BDF1B54848009909799B
:10D7F0001C2251434718B87E034302D10098FFF71B
:10D80000C9FF00980068796800293DD1A22149002C
:10D81000FFF786FE9221490000980068FFF783FE1B
:10D8200006008421490000980068FFF77CFE040090
:10D83000A221490000980068FFF775FE050020430B
:10D8400031000143E6D02900314308D13900009866
:10D850000068FFF7ADFF787EF97D8842DAD30020BB
:10D86000F875002E01D00320F2BD002D01D00F204D
:10D87000F2BD00980068B97E002901D0002100E0C7
:10D880000421FFF777FE03E081218900FFF74EFEB8
:10D890000020F2BD24050000F7B51C480099097965
:10D8A0001C2251434418002600258127BF006068D0
:10D8B000002804D0390000980068FFF744FEE07D9E
:10D8C000002813D0207E002809D06068002804D0EA
:10D8D000390000980068FFF729FE1120FEBD0125E0
:10D8E000019820616846007A207606E06846007A52
:10D8F000E0750198E060667626762B006846027A2D
:10D9000001990098FFF770FFFEBD00004828002035
:10D9100038B504006D4D20791C2148432818807EBD
:10D92000002808D12000FFF735FF20791C2148434B
:10D9300028180121817631BD800002001FB5030047
:10D940006846012404700172019219685A68904770
:10D950001FBD00B585B0020000206B46187019721B
:10D96000916801919075116868465268904705B0BA
:10D9700000BD00001C0500002068FFF7FBFD10BD86
:10D98000F0B585B005000C00002780218900FFF765
:10D99000D1FD002829D09226760031002800FFF71B
:10D9A000C2FD002821D031002800FFF7B9FD8121F8
:10D9B00089002800FFF7C7FDA07E002803D10421BD
:10D9C0002800FFF7D7FD6E46022030702800FFF7D1
:10D9D000BEFD0390E07D3072E0680190E775277628
:10D9E000216868466268904731E004212800FFF70B
:10D9F000A1FD00282BD0842149002800FFF793FDCA
:10DA0000002824D021002800FFF7D2FEE07D617EAF
:10DA100088421CD1207E002807D0E268617EE07534
:10DA20002069E060277667760EE0A07E002803D1AB
:10DA300004212800FFF79EFD812189002800FFF7BF
:10DA400082FDE775E268617E2000FFF777FF8E2692
:10DA5000760031002800FFF766FD002812D0A08A6A
:10DA6000A17D884204D221002800FFF71AFE09E0B8
:10DA700031002800FFF754FDA17D002902D02000CD
:10DA8000FFF767FF283631002800FFF74CFD00281C
:10DA900013D031002800FFF743FDA07E002803D0FB
:10DAA00000212800FFF766FDE07D002805D0E7751E
:10DAB000E268617E2000FFF741FF05B0F0BD80B550
:10DAC00002490348FFF75CFF01BD00004828002021
:10DAD0000020004010B58207D30EFF249C40E24393
:10DAE0008907090E9940030005D50B4C03071B0F4E
:10DAF000083B9B0801E0094C83089B00E3181C6865
:10DB00002240114319600121C006C00E8140044823
:10DB100001600448016010BD1CED00E000E400E07D
:10DB200080E200E000E100E00870000A4870022096
:10DB300070477CB504000D0028880930824201D26C
:10DB40000C2076BD684671DF00281FD10820298887
:10DB500060542888401C28801B2180B221542888CA
:10DB6000401C28806E460622711C80B22018FEF7E9
:10DB7000A1FC2888801D28803278002A00D001224C
:10DB800080B222542888401C2880002076BD39B5F8
:10DB900081B00C000178012904D14078002801D11E
:10DBA00007203EBD1588A81C834222D3012905D138
:10DBB000019840782818801C83421AD3581B831E72
:10DBC00068460380694610882018801C7DDF002885
:10DBD0002ED101980178082002290ED169460988C2
:10DBE0009BB28B4207D269460B8069460988FF29A0
:10DBF0000CD30C203EBD0920F7E70129F3D1019990
:10DC000049789BB28B42EED90B00ECE76946098854
:10DC1000491C1388E1541188491C118089B2605451
:10DC20001088401C10806946098840181080002028
:10DC30003EBDF7B584B000240C9D288802900026D4
:10DC400004E02888097840182880761C0498008809
:10DC5000864234DA01A804994968B20089180A8812
:10DC600002804A8842800022694665DF002833D15D
:10DC700068460078097E8842E7D1002C01D0002058
:10DC800000E0022029886A46928E6F463F78CF19BD
:10DC9000381882421CDB002C09D1491C29806846B7
:10DCA000007D89B258542888401C28800124288887
:10DCB0001A18694601A865DF0028C2D00CE0002CC4
:10DCC00009D028880299401A401E80B2FF2801DD41
:10DCD0000C2001E05854002007B0F0BDFEB506004E
:10DCE0001700089D099C019400950222FFF7A1FFEF
:10DCF000002807D101940095029B102239003000C2
:10DD0000FFF797FFFEBD7CB582B005000C001188BF
:10DD1000881D834201D20C2014E028886A461080B6
:10DD200068460288062A0CDB1D4B1E4EB24201DB00
:10DD30009A4206D16888062803DBB04204DB984289
:10DD400008D0072004B070BD9A4203D06A461288FA
:10DD50009042F6D30520605402980088401C029936
:10DD60000880122180B2215402980088401C029938
:10DD7000088080B221182888FFF7D6FE029909880A
:10DD800008180299088080B221186888FFF7CCFE35
:10DD9000029909880818029908800020D2E700003B
:10DDA000FFFF0000810C000070B504000E0015009C
:10DDB000A088801C29880A18921C934201D3FF284E
:10DDC00001D30C2070BD401C70542888401C288052
:10DDD000FF2180B231542888401C288080B231183D
:10DDE0002088FFF7A1FE298808182880A288002A29
:10DDF0000CD0A168002901D1072070BD80B2301875
:10DE0000FEF758FB2888A18840182880002070BDA4
:10DE1000F2B507001600B86A002838D0002409E0DF
:10DE2000009B80B21818FEF745FB3088A98840187F
:10DE30003080641C380028300079E4B2844228D253
:10DE4000B86A0C2161434518A888801CFF2801D3BB
:10DE50000C20F2BD401C0099328888543088401C48
:10DE600030801621009A80B211543088401C3080D6
:10DE7000009980B209182888FFF756FE31880818E3
:10DE80003080AA88002AD4D0A9680029C8D10720E8
:10DE9000F2BD0020F2BDFEB505000E00140000200A
:10DEA00021886A46118120802D21695C002907D0D4
:10DEB0006846028921003000FFF73BFE002809D1A7
:10DEC00069460F89A97800291FD02088001D874244
:10DED00001D20C20FEBD684679DF0028FAD103206C
:10DEE000218870542088401C2080192180B2315430
:10DEF0002088401C208080B2311868460088FFF7D7
:10DF000013FE2188081820800020EA780221002AC8
:10DF100013D02388D81C8742DBD3F1542088401CBF
:10DF20002080012380B233542088401C208080B29E
:10DF300032542088401C208000206A68002A15D0B6
:10DF4000002010562288D31C9F42C2D3B15421888E
:10DF5000491C21800A2289B272542188491C2180DF
:10DF600089B270542088401C208000202989002913
:10DF70000CD06846008901900094330006220221EB
:10DF800028000830FFF7AAFE00284ED1298A002970
:10DF90000CD06846008901900094330007220321C9
:10DFA00028001030FFF79AFE00283ED1298B002967
:10DFB0000CD068460089019000943300152214218A
:10DFC00028001830FFF78AFE00282ED12F6A002F74
:10DFD00008D068460389220031003800FFF793FE1D
:10DFE000002822D16F6A002F08D0684603892200DA
:10DFF00031003800FFF7D8FE002816D12C21695CCB
:10E00000002908D068460389220031002800FFF764
:10E01000FFFE002809D12978002906D06846038927
:10E02000220031002800FFF7B2FDFEBD70B592B0AE
:10E030000D001F216A4651801180002400280CD059
:10E04000C178490701D4072022E0921C09A9FFF7F3
:10E0500022FF00281CD109AE02E0002669464C8050
:10E06000002D0BD0E8780028EDD16A4601A92800E0
:10E07000FFF711FF00280BD101AA02E00022684639
:10E08000048068460388DBB24188C9B2300072DF81
:10E0900012B070BD042809D2AE4A1268D343BF4AF9
:10E0A00080001058C340D807C00F00E0002008705F
:10E0B00000207047F1B500200025AC4A8300D358FA
:10E0C0006C462478A34202D0401C0428F6D30428CE
:10E0D0002FD2B34C42001218A6182718002917D0C7
:10E0E00002291ED01ED23578707800280DD022006B
:10E0F0000D3261690A20414320006430FFF742F984
:10E10000002802D1684600786073B078387409E05E
:10E1100020006430FFF777F9B578387CA84208D141
:10E1200000E07578002D04D0216A080001D0280095
:10E130008847F1BD80B502210078FFF7BBFF01BD24
:10E14000F1B584B000250020954EF169CA430392D1
:10E150001146E02252040A40009271698A00511867
:10E1600002916946097C0191AF4C802292035100D3
:10E17000019B172B17D802A7FF5C7F00BF4400BF8D
:10E180000C14142B394C67787F887F88E19595951E
:10E190009595C2C8D0D8E1E10399F02252040A4013
:10E1A0006260A5603573D3E000986060A560684642
:10E1B000007C2168F0235B044B40134006D0626072
:10E1C000A560022820D1E121C90034E0A260656089
:10E1D00002281ED12EE000986060A5602068F02122
:10E1E00049044140114023D06260A560C8218900E4
:10E1F00021E000986060A5602068F021490441405A
:10E20000114004D06260A560FA21090113E0A26008
:10E210006560C82149000EE000986060A560206834
:10E22000F02149044140114002D06260A56001E044
:10E23000A2606560C8216846007C3073756908007B
:10E240006421FEF706FC45432900002228E00098DF
:10E250006060A5602068F02149044140114002D06F
:10E260006260A56001E0A2606560062030730CE08A
:10E2700000996160A560A2606560072167E0206881
:10E280000A00824362600140A1600022716907E0D8
:10E2900020680A00824362600140A1600022029966
:10E2A00024363000FFF76EF852E030004430FFF7BC
:10E2B000AAF81121019A891A1CD000281AD18022AB
:10E2C0001204F26102290ED300957769C8204143F8
:10E2D00008006421FEF7BDFB4743390000223000EF
:10E2E0004430FFF74FF8F169F02252040A40A2606F
:10E2F00065602DE0F169F02252040A406260A56079
:10E30000F56125E0F02149046160A56012211EE05D
:10E31000E02149046160A560A2606560132116E0F8
:10E32000D02252046260A560A160656014210EE0F5
:10E33000C02149046160A5608908A160656015215C
:10E3400005E0F0214904A16065606946097C3173EC
:10E3500005B0F0BD100500503448017EC90700D457
:10E36000704780B5007BFFF7EBFE01BDCCE40100F8
:10E370002D4801688022120413008B4343600A4039
:10E380008260704780B50021284A127ED20702D5EC
:10E39000FFF7D6FE0100080002BD0000CCE401003A
:10E3A00098250020F8B505000F00002600201F4921
:10E3B0004F618D610A62A9071DD500240122012148
:10E3C000200000F035F8641C042C01D20028F5D0A0
:10E3D000002804D17A08042140A000F0E5F80028C4
:10E3E00001D100F015F9002805D12E4A002100BF07
:10E3F00035A0FEF7AFFFE90705D52B49F0225204FF
:10E400000A604E600A61002805D1284A002100BF39
:10E410002BA0FEF79FFF002805D1254A012100BF50
:10E4200028A0FEF797FFF2BD0405005098250020B4
:10E4300030B503000020042B16D2012A05D1012992
:10E4400002D11A000D3200E000221A4C5D00EB18D8
:10E45000E318002906D0022902D005D21A7030BD77
:10E460005A7030BD9A7030BD072030BD70B50022A3
:10E47000114B00BF15A495006459A4001B191C681A
:10E480000500D540ED0701D5032500E000250B4E22
:10E4900026402C0434431C60521C042AE8D300207C
:10E4A00070BD000035E101000805005059E301008E
:10E4B00071E301009825002000070050FFFFFCFFDA
:10E4C000BC250020DC250020FC25002011000000D8
:10E4D00012000000130000001400000011000300EF
:10E4E000B5E0010012000300B5E0010013000300D5
:10E4F000B5E0010014000300B5E00100D0B5002430
:10E500004B4F09E00020484001214140736818004A
:10E5100001D010009847641C3878E4B284421BD2C2
:10E520007868E1004618317801208840396908424E
:10E53000F1D081433961307800F0CCF901003278B4
:10E54000F868012393400340080090408342E2D1E1
:10E5500070780128D6D1D6E7D0BDF8B507000125DF
:10E56000BD40334C20001430FEF74DFF00281AD177
:10E570002069EE43284214D1380000F0ABF9E1687D
:10E58000002801D0294301E00E403100E1602069FC
:10E59000054325610022A16814342000FEF7F2FE35
:10E5A000F1BD06402661F1BDF8B506000C0015006E
:10E5B000052D01D20720F2BD00F0E8F8002803D1B4
:10E5C00000F0BDF8002822D119484660047085602B
:10E5D0000021C1600161174D19A72000441E0028C9
:10E5E0000FD0E4B2E00030183968009181786A46B3
:10E5F00051702A006946007800F0D6F80028ECD067
:10E60000F2BD0D4A002100BF0CA0FEF7A3FEF2BD33
:10E6100038B50024064D06E001216868E200805C00
:10E6200000F012F9641C28788442F5D3002032BD32
:10E63000942700205BE50100FDE40100A8270020ED
:10E640000300000054494058012800D000207047C2
:10E650000021514A8150704752000A4399001143EA
:10E66000009A12020A430199090411434B4A80009F
:10E6700011507047494A800010180268484B1340F7
:10E680000360026809041143016070474549081896
:10E690002021405604288041C00F70474149081886
:10E6A00020214056042801DB0120704700207047DC
:10E6B0003C49081820214056C043C00F7047002134
:10E6C000C943384A1018203001707047354908187E
:10E6D000202140567047334980000858704771B573
:10E6E00081B00020C0430425002A02D1042408255B
:10E6F00000E00024534B00E0641CAC4212D2A600A0
:10E700009E19009636688642F6D1019D5D19203526
:10E710002C7000980160002A03D1019819193C312E
:10E720000870200040B276BD46490022D2438300E3
:10E73000CA50042802DB08183C300270704770B5DC
:10E74000184C4420205C002801D0082070BD002512
:10E7500000263000FFF7B3FF761C202EF9DB2800DF
:10E76000FFF7E2FF6D1C082DF9DB03210620FFF700
:10E77000B1F9BE204000FFF76BFF8020000653492F
:10E780000860012044342070002070BD504800789B
:10E79000002800D0012070470060004000070050B2
:10E7A000FFFFFCFFD4260020F0B583B007000E0069
:10E7B00015000024FFF77CFF002801D008243FE06B
:10E7C000F27829003800FFF78AFF05000020C043D7
:10E7D000854234D0B078002807D04248B9004018AC
:10E7E000016802229143016007E001900090737874
:10E7F000002200213800FFF72FFF3078F178002940
:10E8000013D03749AA0089180A688B4B13400B6054
:10E810000A683B02F8256D011D400004C0239B02DD
:10E8200003402B4313430B600AE084494A193C32EE
:10E8300012788001104349193C31087000E004242B
:10E840002000FEBDD4260020F8B504000F000125ED
:10E85000FFF724FF002817D02000FFF737FF774984
:10E8600008183C2140560006800F0221032804D1DD
:10E8700073480068E040054000E0012800D0032113
:10E880002000FFF7F7FEF1BD2000FFF7FFFE002894
:10E890001BD02000FFF71AFF06001148B1004018F6
:10E8A000016829430160B0002902401800B2FFF757
:10E8B000CFFE002F09D02000FFF708FFFFF70BFF66
:10E8C000002802D0B5405F480560F1BD04630040F8
:10E8D000182700205A490968C140C807C00F70476F
:10E8E0001065004000070050F0B585B00020009092
:10E8F0000290802464000125042620B2FFF7A2FEC6
:10E90000002809D04F480068284005D020B2FFF702
:10E910009FFE0098284300906D00241D761EECD1C8
:10E92000BE2464002000FFF78DFE00280AD02000DE
:10E93000FFF78EFE009880210906014300914048B0
:10E94000006802900098000717D001250024009865
:10E9500028400ED03C48A1004018076806682000F7
:10E96000FFF7B9FE020004D0B003810FF804C00E17
:10E9700090476D00641C042CE9D30098002858D5FA
:10E9800000200390C04301E0029003980490002609
:10E9900000242A48001940214156C8B20200C02371
:10E9A0009A4300920022D243914238D00499009AAF
:10E9B000D140C90733D50006800F01900098FFF7BA
:10E9C00085FEFFF788FE070002D10198032826D1B3
:10E9D0000125009885400198032802D10398284317
:10E9E00003901A480099890040588003800F0299CB
:10E9F000294002D0022812D101E003280FD1019949
:10EA0000032906D1022800D002210098FFF732FE28
:10EA1000761C380003D00199C9B20098B847641C2D
:10EA2000042CB6D3360604D0054800680299884203
:10EA3000AAD105B0F0BD0000FFE0FCFFD426002005
:10EA400010050050046300401065004000070050AE
:10EA500070B50C001500002605E0A05D00F0DEFAA0
:10EA60000028FAD1761CAE42F7D30D2000F0D6FA7A
:10EA70000028FAD10A2000F0D1FA0028FAD170BD9E
:10EA80000078002800D0704780B53B218948008875
:10EA900076DF12E080B5FEF7D5FC01BD80B5002021
:10EAA000FFF770FC002801D0FEF7CCFC00F00AFB59
:10EAB000002801D0FEF7C6FC3CDF002801D0FEF79D
:10EAC000C1FC01BD80B5002809D0032809D102206E
:10EAD000FFF758FC002804D0FEF7B4FC01BDFFF797
:10EAE000DDFF01BD30B589B00400724D2888218852
:10EAF00002292FD010290CD0112913D013291BD093
:10EB00003A2923D0512929D052291AD055291DD06C
:10EB100046E00720FFF736FC002801D0FEF792FC04
:10EB2000A08807E00020FFF72DFC002801D0FEF7A9
:10EB300089FCBB48288033E00023002285217FDF49
:10EB40002AE0002300220021A9DF25E01321A0886C
:10EB500076DF21E00021A08867DF1DE06846A11D67
:10EB60001022FDF7A7FC68460078002818D06846F8
:10EB7000007A042803D0062801D0052810D104A863
:10EB800069460978022900D001210170C12149009C
:10EB9000818004A9A088A8DF002801D0FEF752FCDC
:10EBA00009B030BD10B5040000F08AFB21009D487B
:10EBB00000F054FC2000FFF795FF200000F076FEE7
:10EBC000200000F089FA10BD80B53A490A8804286F
:10EBD00006D0072808D00A2811D1FFF75FFF01BD32
:10EBE0001321100076DF04E08D48824207D100F047
:10EBF0008BFE082803D0002801D0FEF723FC01BDBE
:10EC000010B50178002903D002291FD01ED310BDF2
:10EC1000854C20782018001D00F0E7F92278521C5E
:10EC20002270D2B2A118C9780A2901D0142A10DBA7
:10EC3000211D2000183000F073FC082803D00028A4
:10EC400001D0FEF7FFFB0020207010BD4068FEF7EA
:10EC5000F9FB10BD10B5A6B0382117A8FEF750FC7F
:10EC600017A802210170002181700521C17038218F
:10EC700009A8FEF745FC012409A804826B480E9000
:10EC8000202101A8FEF73CFC01A8C470402005909B
:10EC9000B420069000200090654B01AA09A917A88E
:10ECA00000F079FC002801D0FEF7CCFB26B010BDA7
:10ECB000000000008C21002030B59BB05A4C00238E
:10ECC0009F208000221805210020FEF719FB002854
:10ECD00001D0FEF7B7FB14A860A11822FDF7FEFBD8
:10ECE00020007C300490802040000590BE21490027
:10ECF00061180691079003234E4A04A914A800F056
:10ED00001FF9002801D0FEF79DFB4B4A4B49032019
:10ED1000FFF748FB002801D0FEF794FB03A9002071
:10ED200000F015FA002801D0FEF78CFB55A0006812
:10ED300000900023482221003431684600F093FE01
:10ED4000002801D0FEF77EFB0FAA0121002000F071
:10ED5000C8FE002801D0FEF775FB0FA800F0D8FE12
:10ED6000002801D0FEF76EFB354800F0A4FE002815
:10ED700001D0FEF767FB1120694608700B2200BF27
:10ED800033A168467CDF002801D0FEF75BFB01A8B9
:10ED90000021002206C001A8102101803C214180F1
:10EDA00000258580C8214900C1807ADF002801D074
:10EDB000FEF748FB68460560224800906946183413
:10EDC000200000F07BFB002801D0FEF73BFBFFF7A3
:10EDD00041FF1C2108A8FEF793FB0895A0208002A4
:10EDE0000990F02000030A9008A803210173C5814F
:10EDF000057415480D9015480E9008A800F00EFAFD
:10EE0000002801D0FEF71EFB1AA000F0A1FE03208F
:10EE100000F066FC002801D0FEF714FB48DFF9E79C
:10EE2000FFFF0000A8210020902100208421002065
:10EE3000C5EA010001EC0100C9EB0100CD0C0000A6
:10EE4000A5EB010051EA010081EA010095EA010009
:10EE50004E6F726469635F55415254000B000000AD
:10EE600009000000080000000A0000000000000087
:10EE700000E0D7010D0A5541525420537461727459
:10EE8000210D0A00010000078168C068401A704720
:10EE90007CB5734C0178002935D0022927D04DD29A
:10EEA00040680178201D00F09BFE6569012600285E
:10EEB00003D069460E70019007E0201DFFF7E4FFC4
:10EEC000002804D00020694608706846A847201D25
:10EED000FFF7DAFF2189814207D30122210019318E
:10EEE0001C342000FEF7D8FC73BD267073BD6A4643
:10EEF0001170C068019001222100193120001C30DE
:10EF0000FEF7CAFC17E0210018312000243000F081
:10EF100077FE002806D101222100183120001C3084
:10EF2000FEF7CFFB20002430FFF7AEFF002805D10D
:10EF300003206946087068466169884773BD000010
:10EF4000F0B589B006000D001F00454C6261002D30
:10EF500001D1072047E06A6892B22968201D00F0BD
:10EF60002AFE00283FD1EA6892B2A9682000243026
:10EF700000F021FE002836D1684600BF3AA12022C9
:10EF8000FDF7ACFA70690690307C002800D00120B3
:10EF9000694608750F770025707C002800D00E2088
:10EFA0004875F0680290B06803903068019070680E
:10EFB00000902C4A20001C30FEF739FB002812D1AB
:10EFC000257030680021C94388420BD020001C30D6
:10EFD000FEF79EFC0122210019311C342000FEF7AF
:10EFE0005BFC00E0002009B0F0BD70B51C4C25783A
:10EFF0000100201D00F004FE0600002D0CD00020B2
:10F0000020700122210019311C342000FEF744FC3D
:10F01000002801D0FEF716FA300070BD38B5104C4C
:10F0200001002000243000F0DBFD050015D1200098
:10F030001C30FEF79DFB00280FD121001831200065
:10F04000243000F0DDFD002807D101222100183115
:10F050001C342000FEF735FB0500280032BD0000FF
:10F060002421002091EE0100FFFFFFFFFFFFFFFFC3
:10F07000FFFFFFFFFFFFFFFF000000000000000098
:10F0800000E0D7010300000080B50122022100202A
:10F09000FFF7CEF9002801D0072812D1072202215C
:10F0A0000120FFF7C5F9002801D0072809D10A225D
:10F0B00000210020FFF7BCF9002801D0072800D16B
:10F0C000002002BD80B50320FFF7D0F9002801D051
:10F0D000062800D1002002BD10B5344C61680088BC
:10F0E000102802D0112826D010BD00291FD10122DE
:10F0F0000020FFF79DF9002801D0072811D1072231
:10F1000002210120FFF794F9002801D0072808D137
:10F11000042202210020FFF78BF9002807D00728DE
:10F1200005D0002803D021680A0000D08847606815
:10F13000401C606010BD491E616007D1FFF7A4FF4D
:10F14000002803D021680A0000D0884710BDF8B518
:10F150000F0000260025154C2060002F1DD000A9AF
:10F16000491C0020FEF796FF002814D169460120B3
:10F17000FEF790FF00280ED168460078002801D0E5
:10F18000022004E068464078002802D00B20387046
:10F1900003E03E7001E0050005D16068002802D15F
:10F1A000FFF772FF05002800F2BD0000A428002030
:10F1B000408862490A88904204D34988814201D339
:10F1C000012070470020704738B55D4CE08B5D49E9
:10F1D000884222D0217F491C2177227BC9B28A42F2
:10F1E00008D3564975DF002817D0A1690A0014D04A
:10F1F000884731BD00252577217C002907D03B2198
:10F2000076DF002803D0A1690A0000D08847616931
:10F21000080002D068460570884731BD70B5060009
:10F22000474C200031001C22FDF758F90025657776
:10F230003168424E002911D030000822FDF73AF91A
:10F2400030007ADF002808D13E48E08325773E4A27
:10F25000002100BF3EA0FEF77DF870BD30007BDFCF
:10F260000028F1D070BD38B50025354C3748FFF780
:10F270009FFF00281AD1607F002805D0616908002F
:10F280001CD06A46157017E0207F002801D1616804
:10F2900000E0A168002220002030FEF773F800286B
:10F2A0000CD0A1690A0009D0884707E0616908000D
:10F2B00004D001206A46107068468847657731BDE2
:10F2C00038B5010000251E4C20480A88102A06D0B7
:10F2D000112A0FD0122A2AD0502A0FD031BD8A8885
:10F2E000E28318310822FDF7E5F82577E089002848
:10F2F00023D120E01348E08325770DE0891D08889D
:10F30000E289904219D14889022816D10C310800AF
:10F3100000F08AFC00280ED120002030FEF773F8A0
:10F3200000280AD0A1690A0007D0884731BD0831FA
:10F330000822FDF7BFF8FFF796FF31BD94280020A3
:10F340001C270020FFFF0000C9F101009C280020BD
:10F350003C270020F0B58FB00400032101A8FEF780
:10F36000CFF8112501A8057045708178F9220A406F
:10F370000221114381701C2108A8FEF7C1F808A8DA
:10F3800000781021014308A80170002609960B9609
:10F390000C9601A80D900E9602A821788170032783
:10F3A000032101806846FEF7ABF86846057045709A
:10F3B0008178E3220A4017438770142103A8FEF7DF
:10F3C0009FF802A803906846049003A801210181D8
:10F3D00046811421818123000C3303AA08A9608887
:10F3E000A2DF0FB0F0BD30B58FB004001C2107A81C
:10F3F000FEF786F86846007F0C21014368460177D6
:10F40000002508950A950B950C950D9501A8217876
:10F4100081700221018003216846FEF771F81120F6
:10F420006946087048708878E32202400320104340
:10F430008870142102A8FEF763F801A802906846BC
:10F44000039002A801210181458114218181231D9E
:10F4500002AA07A96088A2DF0FB030BD10B5040072
:10F460000800002C29D0002827D00188102904D0BA
:10F47000112904D0502905D010BD808800E03C48F7
:10F48000A08210BD801D0188228A91420AD1428942
:10F49000022A07D10C3000F0C7FB002800D0012061
:10F4A000A07510BDA288914207D1A369190004D0AC
:10F4B00042890C3001002000984710BD30B585B05E
:10F4C00004000D0001A800BF2AA11022FDF706F8D4
:10F4D000002C01D0002D01D10E201FE02448A08275
:10F4E0002868A0610020A075210001A863DF002822
:10F4F00014D168462178817001210180A21C6946DF
:10F500000120A0DF002809D129002000FFF722FFF9
:10F51000002803D129002000FFF765FF05B030BDAA
:10F5200074B585B0002801D10E201FE0828A104BEF
:10F530009A4202D0827D002A01D1082016E06A4654
:10F54000928A152A01DB072010E06A460023002476
:10F550000025002678C26A4683891380039105A995
:10F560000291012191706946808AA6DF06B070BDC4
:10F57000FFFF00009ECADC240EE5A9E093F3A3B5CB
:10F580000000406E53480179002902D1007B002819
:10F5900000D001207047F2B5040011001E00002CBD
:10F5A00001D0002901D10E20F2BD0120494A107678
:10F5B0000025D57648482022FCF790FF4548466252
:10F5C000069844498862454808840721B448FDF7F5
:10F5D00097FFB44E38213000FDF792FF207830704D
:10F5E000A078B070E078F070607870702000103013
:10F5F00003C83200103203C22000083003C83200B2
:10F60000083203C22000183003C83200183203C287
:10F61000A54801004031626A002A11D071628860F9
:10F62000626A13880B8092888A80002204E0636AF1
:10F630009B689B5C8354521C736A9B889A42F6D3E6
:10F64000A26A002A1BD0020020324A6102004C321A
:10F65000B262A26A93880B8212888A81002206E035
:10F66000A36A9B689B5C871820373B70521CB36A67
:10F670009B889A42F4D32C22A25C2C23F254226A57
:10F68000002A07D0020058323262226A53884B8324
:10F6900012880A836168002900D071600021CA00C5
:10F6A000521A82185C320B4B1B688C001A51491C91
:10F6B0000829F4DB290141189431064A9268AB000D
:10F6C000D1506D1C082DF5DB00993000FEF7AEFC23
:10F6D000F2BD000058210020E8270020FFFF0000B5
:10F6E000F0B587B00600864C207E002801D10820A6
:10F6F000D3E0E676684600F09DFA012500980028E0
:10F7000019D1072120001030FDF7FAFEE07E7D4F71
:10F710007978002901D0012806D0B97800290ED0C7
:10F72000012801D002280AD1616A080005D0257796
:10F730000820884703E06576AEE0002020770020AF
:10F740002118497C002911D1401C0628F8D300203B
:10F75000012E06D01BD3032E0FD009D3042E11D0B7
:10F7600015E07978014203D0012011E00120EFE794
:10F77000B978014201D002200AE0F878002801D0CF
:10F78000032005E03879002801D0042000E00020A3
:10F79000E076616A08000ED0E07E032801D00428DC
:10F7A00009D13878627F01235340184203D0A577EE
:10F7B0000720884701E00020A077182101A8FDF765
:10F7C0009FFE01AE002030703072E07E00285DD0D8
:10F7D00002280CD003D3042839D012D32FE0A57609
:10F7E0002000103002903570002030612AE0A076B1
:10F7F0002000103002903570F8687082B86830824E
:10F8000020E038693082786970823878617F01221F
:10F810004A40104201D1032024E0FFF7B3FE002844
:10F82000F9D004940220307204201E49C8700021CF
:10F830001C48FEF7FBFB002801D10520A076E07EE6
:10F84000002824D001A873DF002820D025E0B86963
:10F850003082F86970823878617F01224A40104214
:10F8600002D10420A076EDE7FFF78CFE0028F8D047
:10F8700004940220307204200A49C870002109480B
:10F88000FEF7D4FB0028DAD10620D7E7A076616A1C
:10F89000080001D0A07E8847002007B0F0BD00001E
:10F8A000682100205C2700208424002010B5224C11
:10F8B0000188102904D0112908D01B290ED010BDB1
:10F8C000817D01291BD18088208410BD00216177B2
:10F8D0008088218C884212D1012008E0007A00281B
:10F8E0000DD1E07E401C0521FDF7B0F8C8B2FFF74E
:10F8F000F7FE002803D0A16A0A0000D0884710BD97
:10F9000058210020E827002010B574DF0A4C0120A0
:10F9100060770A480621C1700021FEF787FB0028A6
:10F9200009D1E07EFFF7DCFE002803D0A16A0A00BF
:10F9300000D08847002010BD582100205C270020FF
:10F940000121C006C00E8140764801607047012148
:10F95000C006C00E8140744801607047202804DA58
:10F960007249C140C807C00F70470120704738B5C1
:10F970000400FFF7F3FF002801D16D4832BD0320DA
:10F9800003212140CA00210005D56A4B25072D0F10
:10F99000083DAD0801E0684BA508AD005B59D340B8
:10F9A0009A09104004280CD200280AD0022808D056
:10F9B00062484268002A06D12000FFF7C1FF0020FC
:10F9C00032BD5F4832BD61098900401801680122DB
:10F9D000E306DB0E9A400A430260F0E780B5FDF7CC
:10F9E00091FD01BDBCB5574C2078002837D00025CB
:10F9F0000027E068002803D1012501E0002F15D180
:10FA0000607800282BD1684652DF052801D10127F4
:10FA10000CE0002802D0FDF715FD07E0009800F08B
:10FA20006DF92169080001D000988847002D14D194
:10FA30006078002813D160886946888001A9A06891
:10FA400061DF052801D1012507E0002802D0FDF77C
:10FA5000F9FC02E0A068E16888472F42CED0B3BD30
:10FA600038480078704770B50600002901D0880733
:10FA700001D0072070BD334CA160628063602948CB
:10FA80000068C507ED0F02D00020FFF760FF2E4988
:10FA9000300010DF060006D0002D02D00020FFF756
:10FAA0004FFF300070BD0120207000F02EF91620AD
:10FAB000FFF75DFF70BD010001D10E2070472149A5
:10FAC000C8600020704780B51E484068010005D01E
:10FAD0008047002804D0FDF7B5FC01BDFFF782FF89
:10FAE00001BD70B504000D00160014213000FDF7B3
:10FAF00007FD0120308000213161317BFE220A4068
:10FB0000327335727472002C00D0B072002070BD58
:10FB100082B00E4900910099019101A960DF00991E
:10FB200002B0704700E100E080E100E0FC06FFBCAD
:10FB3000012000001CED00E000E400E08C28002023
:10FB40000220000078280020DDF90100E81F0020D5
:10FB50000EB400B582B003A900916B4602000121EA
:10FB6000034878440A30FBF7ABFA029906B008471D
:10FB7000630400008168C068401A704710B50268CD
:10FB8000C36884882340D154C168491CC16010BD3A
:10FB900010B503688468611880880140585C107053
:10FBA00010BD10B504000A000021FFF7F1FFA068A6
:10FBB000401CA06010BD10B5002901D10E2010BD61
:10FBC000002A03D0531E14001C4001D0092010BD90
:10FBD0000160511E818000218160C160002010BD44
:10FBE00038B505000C00FFF7C5FFA988814205D391
:10FBF00021002800FFF7C2FF002032BD042032BDE3
:10FC000038B505000C00FFF7B5FF002805D021002E
:10FC10002800FFF7C6FF002032BD052032BD017865
:10FC2000407800020843704780B5FFF7F8FFC0072F
:10FC3000C00F02BD002801D1032070470249496E60
:10FC400001600020704700001C2600200021802257
:10FC5000D205115070478021C9050858002800D0EE
:10FC60000120C0B2704738B5344C2078002801D04C
:10FC7000852032BDA06060602061E0600321FDF757
:10FC800029FF0125FFF7ECFE002801D12C48056073
:10FC90002570002032BD38B50400284D01D108354B
:10FCA00006E0103504E008682860200049688847AD
:10FCB00029680029F7D131BDF8B501241F4D214F26
:10FCC00026023000FFF7C7FF002807D03000FFF7FB
:10FCD000BDFF3C606C700020FFF7DDFF361D30007B
:10FCE000FFF7B9FF002808D03000FFF7AFFF022070
:10FCF0003860AC700120FFF7CEFFF1BD002800D0C6
:10FD0000704780B5FFF7C7FF01BD10B582B0002076
:10FD1000694608706846FDF7A9FB084C2078002862
:10FD200001D1FFF7A0FFE068401CE0600120A07057
:10FD300068460078FDF7B0FB13BD00006428002082
:10FD40001805004008030040816807E00268116858
:10FD500051185368CB18C36008320260C2689142E0
:10FD6000F4D04A1C826008787047F0B587B0010073
:10FD70000831029102685208D200891803910025C7
:10FD80000495059501684908C9004418083440687D
:10FD90006946C307DB0F4B704008C0002018019074
:10FDA000002735E002A8FFF7CFFF46B20AE002982D
:10FDB000016840180490029949684018059002981B
:10FDC00008300290049805998842F0D0411C0491B3
:10FDD000007869460870BD4210D10198844201D173
:10FDE00000F01EF8256868464078002801D0484693
:10FDF0002D1860682F180834BD42EED06846007890
:10FE000028706D1C002E08D5761CE4D1BD42C9D1E6
:10FE100001988442C6D107B0F0BD761ED2D5F5E771
:10FE200080B5012000F002F801BDFEE720210903A2
:10FE300026311820ABBEF9E710B5F0200F22284973
:10FE40000B78012B1BD14B68134018D18B680342F0
:10FE500002D1CC6804400CD0F0241C40102C02D1FC
:10FE6000CC68044005D00340302B08D1CB68034058
:10FE700005D11C4B1C4C2360E30B1C4C23600B78FE
:10FE8000012B0CD14B68134009D18B680340402BE8
:10FE900005D1CB68034002D10123154C23600B78B8
:10FEA000012B1BD14B681A4018D18A68F0231340EC
:10FEB000A02B02D1CB68034005D00240D02A0DD13F
:10FEC000C96808400AD10B480168012904D00A49D1
:10FED000016001680129FCD1C021416110BD000011
:10FEE000E00F00F0DFFF07C004050040186C004081
:10FEF0000806004000EC0640759300000321064808
:10FF000002680A430260054802680A430260044826
:10FF10008047044800470000240500405405004085
:10FF200039FE010007000200000000000000000090
:10FF3000686A6C747A4C0000000000000000000049
:10FF40006E616E004E414E00696E6600494E46007D
:10FF500010B5074979441831064C7C44163404E046
:10FF6000081D0A68891888470100A142F8D110BD10
:10FF7000080000003000000033C7FFFF2807000022
:10FF80009021002000000000E3FDFFFF02000000C0
:10FF900002000000A60000004E000000E81F002044
:10FFA000A60100000120C046002801D0FFF7D0FFC5
:10FFB0000020C046C046FEF77FFE00F000F880B586
:10FFC00000F002F801BDFEE707463846FFF72EFFB6
:10FFD000FBE738B505000C00200000F005F8A04252
:10FFE00000D00025280032BD80B5024900F004F899
:10FFF00002BD00BFE420002010B50400C0B2FFF72E
:020000040002F8
:100000000DF8200010BDC046C046C046C046FFF7F0
:10001000C9FFFEE7FEE7FEE7FEE7FEE7FEE7FEE7D5
:10002000FEE7FEE7FEE7FEE7FEE7FEE7FEE7FEE7A8
:10003000FEE7FEE7FEE7FEE7FEE7E400F8FFDC0090
:10004000FAFF8100D1001F0204010184260020D4A0
:1000500026002084260020842600208426002021DB
:1000600021002008210020C30002200040EC0003F2
:1000700008280020FC000328280020E000090100D7
:0800800002000024F400FFFF60
:0400000500020007EE
:00000001FF
