:020000040001F9
:10B00000F82700209D23020063EA0100F7140200E4
:10B010000000000000000000000000000000000030
:10B02000000000000000000000000000CB22020031
:10B0300000000000000000005B24020073240200F6
:10B04000D11A02007D240200D32102007F240200D5
:10B050008124020000000000051E0200832402007B
:10B060008524020087240200892402008B24020028
:10B070008D2402008F2402009124020093240200F8
:10B0800095240200810B02009724020099240200FB
:10B09000990B02009B2402002F1202009D24020043
:10B0A0009F240200A1240200000000000000000014
:10B0B0000000000000000000000000000000000090
:10B0C0008107890F481E8041C00F7047B0490A7838
:10B0D000104308707047AE490A7882430A7070477F
:10B0E0000100AB4800780140080000D00120704703
:10B0F00038B504000025A748A90040184168080099
:10B1000001D0200088476D1C082DF4D331BD818803
:10B11000A14A914204D00088002802D0012000E01A
:10B120000020C0B27047BCB582B00F008021C900BA
:10B130004118009100240830050002200DE0B448B9
:10B140008169AA68914200D21100816168888100FA
:10B150006D180C353988C01C081838800098854255
:10B160000BD228680021C943884206D02800FFF787
:10B17000CEFF0028E3D10124E8E70298002800D0A0
:10B180000470BFBD02001389C81C181810815089B3
:10B19000401AC01E5081704780B5002000900223E5
:10B1A00001A29B48016909E0DEC0ADDEFF011EF18E
:10B1B00080B500210091022302A20100954800F011
:10B1C0001DFF02BDDEC0ADDEFE011EF170B5C21C6A
:10B1D00092B2FE2A01DB092070BD002000238E4CB4
:10B1E0001D0164192578002D0BD1268995196689D2
:10B1F000AD19ADB2FF2D04DC0B8061898918618126
:10B2000070BD5B1C9BB2022BE9DB072070BD824A3C
:10B21000090151184A89101AC01E4881704770B53B
:10B220000C0021687C4A000110184568002903D0F1
:10B23000488880000E1805E02E00083603E070886C
:10B24000800036180C368020C000281886420CD2A8
:10B2500030680021C943884207D03000FFF757FF0C
:10B260000028ECD02660012070BD002070BDF8B52C
:10B2700004000E0060680025654F002826D0654A4E
:10B280001368984222D3526882421FD3FFF718FFF7
:10B2900000281BD020893989884217D1606821682D
:10B2A0008268914212D100215B4A0B01D218526888
:10B2B000824204D28023DB00D218904204D3491C7E
:10B2C00089B20229F0DB1AE0318010E03580009568
:10B2D00069463088FFF7A3FF00280AD000988068ED
:10B2E00021688842F4D1009860603889208101206B
:10B2F000F2BD3088401C308080B20228E7DB00209D
:10B30000F2BDF8B505000C0017001E000220FFF783
:10B31000E7FE002801D10220F2BD002F01D0002E4F
:10B3200005D10520F2BD3060B088401CB080B088E7
:10B3300002281FDA38490001085C0028F4D13100E6
:10B34000B088FFF76CFF0028EDD03068002D03D0E7
:10B3500082882B889A42F2D1002C03D0028823885D
:10B360009A42ECD181683960786029480089388137
:10B370000020F2BD0A20F2BD0268A54B1900383149
:10B380008A4202D0083202607047036070470000B2
:10B390008E37002024360020FFFF0000F4B582B075
:10B3A00002000D00002600209A4F796F04292DD24B
:10B3B000974C0821491B636C994227D3786F396FEA
:10B3C00040188007800F1C214843381811001C22A8
:10B3D00000F016FF786F401C7867002D15D0606C68
:10B3E000216C40184007800E201800900298F10050
:10B3F000401803C8009A03C26846FFF7BDFF761CD9
:10B40000AE42F3D3606C401960640120FEBD0000C1
:10B41000C8360020E81F0020C8350020FEB50020F7
:10B42000019000246946887008804A4E0027FF4337
:10B4300049480068098889024018611C89B2029154
:10B44000754922018918022502689E4B9A4225D12E
:10B4500042689D4BD21A02D0521E0BD01EE00A70D9
:10B4600048600A000E320831FFF75DFE019805437F
:10B47000019526E06A469278002A04D00D70326960
:10B480004A600D81029C3061002231001431FFF7C7
:10B490004AFEB08A022820D104201FE00022930037
:10B4A000C358BB420BD1521CFF2AF8D93269002A7B
:10B4B00009D00D7048600D817480029C08E0032063
:10B4C0000870029C0DE03061B582012069468870E9
:10B4D000019801210143019103E0082001990843EB
:10B4E000019068460088401C6946088068460088CC
:10B4F00003289DDB0198C0B2FEBD000080B500218D
:10B500000091012304A20100134800F077FD0028F8
:10B5100000D00E2002BD00000000FFFF10B50D4C52
:10B5200060883D49000109180B488A89002A07D123
:10B5300000230122496800F0A7FD0421217010BDFD
:10B54000052121700221A18200230122216900F03E
:10B550009BFD10BDC8360020E81F002080B5A5481F
:10B5600042685388DB1C03210170002100919BB2CB
:10B570000169808A8000091820E680B59D48011D78
:10B580004088FFF74CFE002802D0FFF7E7FF02BD1E
:10B59000FFF7C4FF02BD30B5012202231E499548C2
:10B5A0000478002C09D0E41E18D0641E1ED0641E3E
:10B5B000012C27D9A41E28D030BD03895B1C038130
:10B5C0000023438003731C010D5D6C1EA441E40F36
:10B5D000C518AC725B1C022BF5DB16E0818A426851
:10B5E0005288D21C89188182037030BD0269448858
:10B5F000240109194C6804614A60828A0A818382A5
:10B60000062100E00721017030BD027030BD00004E
:10B61000D833002028320020C8350020F8B50200B9
:10B620000D000F20002A04D00120FFF754FD012057
:10B63000F2BD02276F4E00242979002905D0022986
:10B6400020D007D3032925D034E0FFF7A5FD012141
:10B6500029712FE00020B34902018D1829780229B1
:10B6600004D16868FFF7A4FD2C7023E0401C80B271
:10B670000228F0DB0220FFF729FD0120FFF72BFD58
:10B68000A948F2BD002301223169A84800F0FCFC62
:10B69000B7820EE03069FFF78BFD72883169A14BEC
:10B6A00012019A18536833615160B18A1181B782CF
:10B6B00014702C71002803D00120FFF70CFD0E2020
:10B6C000F2BD0000DEC0ADDEFE011EF1F0B583B0BC
:10B6D00002000C009348618A090141180191002A77
:10B6E00005D0E1880198FFF74DFD0120FEBD4968B6
:10B6F000019A128992008D1801260627217C0629BD
:10B7000070D801A2525C97441EAA3A6006C8D600BF
:10B710000021C162A169816269462830FFF7A7FD57
:10B72000002801D10A20FEBD002000900123221D27
:10B7300029007E4800F062FC02212174002812D109
:10B74000002554E000200090012322000C3208352F
:10B750002900764800F052FCA17D002900D0032684
:10B7600026740028ECD00E253DE00027B548416C3A
:10B77000002908D0026CD300C718521C5207520F80
:10B780000264491E416400200090BB883A68A08A88
:10B7900080002918654800F031FCA18ABA88891810
:10B7A000A182A17D491EA175090600D12674002839
:10B7B000D9D1C5E700200090012322000832291DBD
:10B7C0005A4800F01BFC2178032900D10527277473
:10B7D000EDE7C06AFFF792FE0500277403D106E08B
:10B7E000514D00E00F25E1880198FFF7CBFC2800C0
:10B7F000FEBD0000C8360020F0B585B00D00002861
:10B8000001D0012040E0474C474E0127287900280D
:10B8100003D0022835D01DD335E001A80C2100F05B
:10B820002DFDE8680190694601A8FFF720FD00287A
:10B830000CD002988188E98001882981FFF75EFE9B
:10B8400069460988090161188F7300E00A20022106
:10B85000297119E02300203301AA0021A81DFFF758
:10B8600050FD002807D10298FFF748FEA18C09017E
:10B8700061188F7303E020340021002206C40A28D7
:10B8800002D1300000E00F2005B0F0BD38B500282F
:10B8900001D0012032BD264C0025207B002801D09C
:10B8A000257301E0FFF777FE1E482178491E06291F
:10B8B00036D801A2525C974406363C4266485A008C
:10B8C00000216218937A002B08D095720A01821821
:10B8D0009389002B02D1927B002A08D1491C89B29E
:10B8E0000229EEDB2570658065600F4832BD6180FE
:10B8F000FFF743FE32BDFFF731FE32BDFFF70EFE0C
:10B9000032BD062121706188090140184068FFF7A7
:10B910004FFC32BD072020706560FFF73DFC32BD53
:10B920000F2032BDC83500201D1D0000E81F00207B
:10B93000C8360020F0B585B0954C216F1C225143CC
:10B9400066183178491E08D0491E012910D9891E70
:10B95000012911D9891E13D015E03100FFF75EFED1
:10B9600000286DD000218B4A90420ED101911BE03E
:10B970003100FFF7ABFEF3E73100FFF73DFFEFE7E4
:10B98000FFF784FFECE70F20ECE701903078022806
:10B9900001D0032808D12B48026CB37DD218026471
:10B9A000426CB37DD21A4264012203256846337883
:10B9B0005B1E052B29D801A7FF5CBF444A3A1E1421
:10B9C0000804052120E004220270F2888281C181EE
:10B9D0001BE00570F1888181318911E00223037039
:10B9E00033898381B388C381F3680293337C062B48
:10B9F00000D10121017408E0027031898181B18890
:10BA0000C181F068029000E001706846FFF770FBAA
:10BA10001C21206F1C225043201800F02DFC606F69
:10BA2000002806D0216F491C0D402567401E606725
:10BA300003D10420FFF74FFB02E00020FFF77AFF5D
:10BA400005B0F0BDD833002080B50420FFF748FBD7
:10BA5000002805D10420FFF739FB0020FFF76AFF1B
:10BA600001BD80B50800FFF765FF01BDFDB58AB0D7
:10BA70000D00002700240220FFF732FB002801D12F
:10BA8000022075E0002D01D1052071E02888A4492D
:10BA9000884202D06888002801D1042068E0288903
:10BAA000029068680190002600E0761C02988642A9
:10BAB00008D20198F1004058FFF702FB0028F4D1AA
:10BAC000032055E00B98002811D106E06968C200F8
:10BAD000891889886418A4B2401C29898842F5D342
:10BAE00069462000FFF772FB002805D040E000887F
:10BAF000694608800B98448803A80CA9097801704E
:10BB000007746946098841822989817503218182E8
:10BB10009F4EB169491CB1610691298801816988EC
:10BB20008180C4800CA90978032904D104210174FF
:10BB30000A990968099147816A682989FFF72EFCEB
:10BB4000002806D1684601882000FFF760FB082026
:10BB50000EE00A98002808D0476006980A99086005
:10BB60000A98877230890A990881FFF76DFF0020D3
:10BB70000DB0F0BD97490A78082A01D10C20704712
:10BB80009300CB185860521C0A70002070470000C8
:10BB9000283200201D1D000000B58DB0684614211C
:10BBA00000F06CFB0220FFF79BFA002817D1012060
:10BBB000FFF796FA002837D10120FFF787FA00F047
:10BBC000CBF9FFF72BFC002801D10B202DE0062834
:10BBD00009D10220FFF77AFA0120FFF77CFA6846C4
:10BBE000FFF786FA20E005A901220A7001280CD08F
:10BBF00003280AD005280FD007280DD0092806D021
:10BC00000A2806D00B2802D007E0002002E003201B
:10BC100000E00220087100E00A710022002105A85E
:10BC2000FFF7BCFBFFF710FF00200DB000BD38B5DB
:10BC300004000D00002C01D0002D01D1052032BDE3
:10BC40006946FFF714FB00280FD0606873496A4605
:10BC50001288120189188A89521C8A8128600C3046
:10BC600068600120A072002032BD0A2032BD10B5EC
:10BC700082B0040001D1052016BD6946FFF7F7FA2E
:10BC8000002811D065486946098809014018818952
:10BC9000002907D0A27A002A04D0491E8181002001
:10BCA000A07216BD062016BD0A2016BD38B50400C8
:10BCB0000D000220FFF714FA002801D1022032BD46
:10BCC000002C01D1052032BD69462800FFF77EFA1D
:10BCD000002803D1694609882180658032BD10B5EE
:10BCE00004000220FFF7FCF9002801D1022010BD5A
:10BCF000002C01D1052010BD218803290DDA6088B0
:10BD0000464B0A019A185289121AD21E05D4FFF71F
:10BD10007EFA00202080608010BD042010BD00004D
:10BD2000FFFF000080B502230CE080B5002A01D19E
:10BD3000052002BD022306E080B5002801D10520C0
:10BD400002BD03230022FFF791FE02BD10B588B0AB
:10BD500004000220FFF7C4F9002801D1022015E0F9
:10BD60002F48844201D1042010E06846052101706B
:10BD700001210171C48000220021FFF70FFB002880
:10BD800003D0FFF761FE002000E0082008B010BDDE
:10BD9000C836002000B587B00220FFF7A1F90028BF
:10BDA00001D1022014E0062069460870002200211B
:10BDB0006846FFF7F3FA002809D01A4801780029ED
:10BDC00001D001210173FFF73FFE002000E00820B1
:10BDD00007B000BD2436002003B581B002A901A838
:10BDE000FFF78FFA0EBD01B513000A006946002067
:10BDF000FFF787FA02BD01B513000A00002168466B
:10BE0000FFF77FFA02BD002801D0002901D10520EB
:10BE1000704700680860002070470000C8350020A7
:10BE2000FFFF0000C83600207FB5020068460023EF
:10BE300000240025002678C06846137A012B02D022
:10BE4000022B06D00DE0047013690293938A83815C
:10BE500007E0012303709389D4891B1B0381938915
:10BE600043815068019068461268926890477FBD90
:10BE7000002808D0AA494A68904204D389688842B9
:10BE800001D20120704700207047A648416E491E2C
:10BE9000416604D1A2490A78FD2313400B70016E5C
:10BEA000491C042900D100210166704738B59D481E
:10BEB000016E182251434318406E002826D0187A8C
:10BEC000012802D002280FD01CE0D88A9C8AE832D0
:10BED000251A954200DA221A800092B2D968091810
:10BEE0001C69201829DF01E0988928DF112807D173
:10BEF0008B480178FD220A4004211143017031BDB5
:10BF0000002803D009211800FFF78EFF31BD8448B7
:10BF100001780622114200D0704780B502220A4300
:10BF20000270FFF7C3FF01BD38B50400A448416E9D
:10BF3000042901D1002032BD026E5218042A00D318
:10BF4000121F491C416618214A438518280000F039
:10BF500093F92560012032BDFCB59A489A49401AF0
:10BF600001090191994800680022D243904202D110
:10BF70009748006880026A4A1278D2073CD40022AF
:10BF8000674B5B6800930AE0009B14011B191C6857
:10BF9000002C03D05B68002B00D0491E521C019B73
:10BFA0009A42F1D300221BE0009E1F01F619376868
:10BFB000002F02D07768002F04D1767BB44201D2E3
:10BFC00034001D005B1C019EB342EDD3009B2D0687
:10BFD0002C0D1B1958601C7BA402001B1860521CFE
:10BFE0008A4203D2002415000023ECE74C48007875
:10BFF000012101434A4801700020F6BDF8B5040054
:10C000000D0017001E0046480078C00701D401202B
:10C01000F2BD2000FFF72CFF002801D10220F2BD65
:10C02000002F01D0002D01D10320F2BD03200742D3
:10C0300001D1054201D00620F2BD2068854204D31B
:10C040006068B1006918884201D20520F2BD002E57
:10C0500001D10420F2BD6846FFF766FF002801D138
:10C060000720F2BD069800994860009804600120FE
:10C07000009908720098C760009805610098868250
:10C08000FFF745FF0020F2BDF2B582B004001500B5
:10C090001F0023480078C00701D40120FEBD200006
:10C0A000FFF7E6FE002801D10220FEBD029800281D
:10C0B00001D10320FEBD800501D00620FEBD029EF9
:10C0C0002068864204D36068AA02B118884201D26F
:10C0D0000520FEBD002D01D10420FEBD6846FFF7FE
:10C0E00023FF002801D10720FEBD0098476000987B
:10C0F0000460022000990872B00A009988810098B3
:10C100000582FFF704FF0020FEBD002801D10320B7
:10C1100070472B49496E0160002070470000000005
:10C12000082A00201033002038B50100244B186E77
:10C13000182250431818274A147802252C4232D06E
:10C140000023022902D0032920D036E05370017A5F
:10C1500001290CD0022930D18189491C8181C189F2
:10C16000491CC181028A89B2914226D10CE0C18A60
:10C17000828AEB01541A9C4201DA531A9BB2C91805
:10C18000C18289B2914218D1002107E05178491C3F
:10C190005170C9B2042910DB53700821FFF744FE27
:10C1A000FFF773FE09E0600707D5FB202040107001
:10C1B000596E002901D005431570FFF777FE31BD98
:10C1C00010330020F81F0020E81F0020141000107A
:10C1D00014000010082A0020124207D08B0706D056
:10C1E0000B78491C0370401C521EF7D87047830718
:10C1F00006D00B78491C0370401C521EF9D17047C1
:10C2000070B4103A03D378C9103A78C0FBD2530700
:10C2100001D318C918C001D508C908C0D20704D372
:10C220000B880380891C801C002A01D50B780370C1
:10C2300070BC7047094205D0830705D00270401CCE
:10C24000491EF9D170470000130030B414001500E6
:10C25000103902D310393CC0FCD2490700D30CC0BE
:10C2600000D504C0890002D30280801C002900D5BB
:10C27000027030BC704700000022DBE70022E3E7D9
:10C2800010B5040000F07CFC200000F073FE10BD2F
:10C2900070B584B06A4600BF04A370CB70C26A4612
:10C2A000508011716846FFF7EBFF7FBD0200000070
:10C2B00000000000000000003EB5040020780028C7
:10C2C00011D1207907280ED1684600BF06A12CC9DC
:10C2D0002CC06D46608801F00BF968806088A880EA
:10C2E0006846FFF7CDFF37BD0700000000000000E3
:10C2F00000000000FBB506001700AB4D297801F0E7
:10C300005BFA089C002F12D06846027A69783000E8
:10C3100001F052FA2200A978300001F04DFA002C09
:10C320000BD068468188300001F00DF9F7BD002C74
:10C3300003D06846808801F00AF9F7BDF0B587B0F0
:10C34000050000240C3001F0B1F8060001AF288888
:10C3500078809648864203D1288801F06FF806005D
:10C360009248864215D004AA0721300001F078FBDC
:10C3700000280ED1059834300090007CC00707D407
:10C3800029000C310098123001F07AF8002800D012
:10C39000009C002300222100288886DF002806D088
:10C3A00009213970029001A8FFF76AFF1AE0002CFA
:10C3B0000CD106203870C448B880BA7101A8FFF7C4
:10C3C0005FFF002000900023002207E00021288862
:10C3D000FFF75EFF00200090002301223100288833
:10C3E000FFF788FF07B0F0BDF0B585B004002088E6
:10C3F00001F080F90700208801F020F80500207A7C
:10C400000490607A0390B14E00223178208801F0C8
:10C41000D3F9002F35D06079400710D507212800C7
:10C4200001F012FC002813D0694608220A70228805
:10C430004A808D8002906846FFF722FF08E0B178BD
:10C44000208801F0ACF9002802D0280001F07FF824
:10C450006846032101702188418061794A07D20F23
:10C460000271A1794A07D20F4271801D04A90A788E
:10C4700002706846C01D03A90A7802706846FFF77B
:10C48000FFFE05B0F0BD0000FEB56B4607A4E0CC92
:10C49000E0C36B46588099809A7100228B490978D5
:10C4A00001F08AF96846FFF7EBFEF7BD06000000D1
:10C4B0000000000000000000F4B586B004000D008C
:10C4C000394F397801F06BF9002842D0200000F094
:10C4D000B5FF0600354886423BD07978200001F050
:10C4E0005EF900282FD003A91BA00CC80CC102685C
:10C4F0000A6003A8448085806946097E8171B97805
:10C50000200001F04CF9002803D0300001F01FF8A2
:10C5100010E00721300001F04FFB00280AD0052869
:10C5200008D16846092101704480052001906846C1
:10C53000FFF7A6FE00223978200001F03DF903A89C
:10C54000FFF79EFE05E06846027E29002000FFF707
:10C550009BFF07B0F0BD00000400000000000000D9
:10C560000000000010B504002078182802D101F066
:10C5700004F9207010BD10B5544C2000FFF7F2FFF5
:10C58000601CFFF7EFFFA01CFFF7ECFF20781828D6
:10C5900005D06078182802D0A078182801D103208F
:10C5A00010BD002010BD0000182A0020FFFF000071
:10C5B000F7B58CB06846008E01F09CF869460870AB
:10C5C000B94C250000260E71202104A8FFF756FE65
:10C5D00068460078002801D1BF485DE001270D982A
:10C5E000002801D185263AE00078384237D06846E5
:10C5F000008E00F023FF0500A54206D101F006FAE7
:10C600000500A5423CD069460F7102AB012207210B
:10C61000280001F04CFA04001FD150210398FFF7C5
:10C620002BFE684600780399087003983430049014
:10C630000E9807900398183008900398401C0990B2
:10C64000A6480B90039911316846008E00F002FF56
:10C650000721280001F0C6FA0400002C0AD1684620
:10C660000078022804AB19D1002231006846008E00
:10C670007FDF0400002C04D1852E02D0012201E0CE
:10C6800003240022684600790090012329006846AF
:10C69000008EFFF72FFE20000FB0F0BD0D9A310085
:10C6A0006846008E7FDF04000D980028E2D0002C41
:10C6B000E0D100780121084200D102216846008EB5
:10C6C000FFF7E6FDD8E7000006100000182A00205A
:10C6D000FFB585B000260025002701AA07211846CE
:10C6E00001F0BEF9040009D1029805001835442173
:10C6F000415CCF07FF0F01D0050034356846007F4D
:10C70000002816D1002C14D1002D16D0002F05D1F1
:10C710002800123000F0FEFE00280ED02A0012354C
:10C7200029006846808A85DF04000E990E70002378
:10C730002EE0002C01D0052C25D106980078C007EA
:10C7400010D503AB012207216846008C01F0AFF938
:10C75000040005D107216846008C01F043FA04006B
:10C76000002C04D106996846808A7EDF0400002CE4
:10C7700009D007216846008C01F01EFA002802D07B
:10C78000052800D003240E980378002B00D0012345
:10C79000621E9241D20F00966846018C808AFFF794
:10C7A000A9FD200009B0F0BDF1B584B00F0016005E
:10C7B000002F03D16846008A7EDF72E001243878BA
:10C7C000204201D0012000E002206946087168463D
:10C7D000008A00F033FE0500334885420AD001A8E4
:10C7E00000902B00320039006846008AFFF770FF86
:10C7F00004004EE0387820423BD001F007F969464A
:10C80000C8806846C0882849884202D10325002094
:10C8100025E002AB012207216846C08801F047F9F4
:10C82000050005D107216846C08801F0DBF9050045
:10C83000002D04D139006846008A7EDF0500002DF6
:10C8400002D1012001220BE007216846C08801F0D7
:10C85000B3F9002802D0052800D0032501200022CA
:10C86000009001236846C188008AFFF743FD2C0031
:10C870000FE039006846008A7EDF0400621E9241A4
:10C88000D20F00200090012329006846008AFFF79C
:10C8900031FD002C04D168460179008AFFF7F8FCCD
:10C8A000200005B0F0BD0000FFFF000070B50400DF
:10C8B0000D00160000F01EFF012807D0022809D144
:10C8C000320029002000FFF76FFF70BD2900200013
:10C8D0007EDF70BD004870BD02300000E8340020EB
:10C8E0003EB50500288811280AD0132812D0142834
:10C8F00018D019282BD01A2838D01E2816D037BDAA
:10C900002D1D28793D2801D12B4901E088214901BD
:10C91000002227E068460C21FFF7B0FCA888694692
:10C9200048803EE0281DFFF709FD37BD2D1D6846F4
:10C9300024A11CC91CC06846298841802979CA07DE
:10C94000D20F027129798A07D20F42712AE02D1D78
:10C950002979002903D12800FFF746FD37BD687902
:10C960008207920F2888FFF7A7FD37BD2D1D288865
:10C9700000F0EEFE002818D0104C6178288800F0F6
:10C980000EFF002804D100222178288800F014FF2F
:10C990006C462888608005202070288800F0E0FE22
:10C9A00020716846FFF76CFC37BD012204492888D6
:10C9B000FFF76AFD37BD00003D100000182A002077
:10C9C0000610000001000000000000000000000050
:10C9D000010000D00120704780B501F061FA01BD6F
:10C9E00070B50500100000260022042904D011298A
:10C9F00004D000291FD102E0012200E00126C34C2F
:10CA000000280FD0A17B280000F0D6FE3200617B09
:10CA1000280000F0D1FE0022A17A280000F0CCFE10
:10CA2000002204E0A17A280000F0C6FE3200617AFC
:10CA3000280000F0C1FE70BD3EB504000D0014D00A
:10CA4000112D12D068460C21FFF718FC684644806F
:10CA500001950D2D01D10B2104E0042D01D10A21F6
:10CA600000E009210170FFF7B7FF37BDFBB50600F5
:10CA70001700A64D0846297A014301D10520FEBDC5
:10CA800068460079002801D0002100E0290030002C
:10CA9000FFF70CFF0400002221003000FFF7A0FF89
:10CAA0006846007A002803D021003000FFF7C4FF59
:10CAB000297B200023D0042C15D0082C1FD00D2C4E
:10CAC0001DD0112C03D0964A944218D016E0684627
:10CAD0000279300000F070FE3A00E97A300000F090
:10CAE0006BFE00240BE068460279300000F064FE23
:10CAF0003A00E97A300000F05FFE00E003242000F5
:10CB0000FEBD3EB50400814D00F0F4FD012816D1B4
:10CB1000200000F093FCB049884210D00122E97B4C
:10CB2000200000F049FE68460021002200230EC0CC
:10CB300068460C2101704480FFF74EFF04E000229C
:10CB4000E97B200000F038FE287A002808D0E97B35
:10CB5000200000F024FE002802D12A69290001E00B
:10CB6000002200212000FFF723FD050001222900FB
:10CB70002000FFF735FF29002000FFF75DFF37BDDC
:10CB80003EB504002078002805D0401E07D0401E86
:10CB900007281AD937BD6088FFF7B3FF37BD0021DA
:10CBA000604A137A002B0AD01278D307DB0F25795D
:10CBB000AB4204D39307DB0F6279934200D2012189
:10CBC000012300226088FFF751FF68462178017039
:10CBD00061884180241D03CC6A46121D03C2684649
:10CBE000FFF7FAFE37BDF1B586B06846007E00F06B
:10CBF000F2FDFFF7EDFE002823D0684600F0B5FDFA
:10CC00000024484D1AE0684661004018878868464D
:10CC1000017E380000F0C3FD00280ED0E97A38000C
:10CC200000F0BDFD0600297B380000F0B8FD0123AF
:10CC3000320001003800FFF719FF641C009884429D
:10CC4000E1D307B0F0BD70B586B0060000F0C3FDBB
:10CC5000FFF7BEFE002815D0684600F086FD0024D0
:10CC60000DE068466100401885883100280000F01A
:10CC700096FD002802D02800FFF743FF641C0098AF
:10CC80008442EED306B070BD10B5264C007806285D
:10CC900007D9C01F0BD1A07BFFF7D5FFA07AFFF704
:10CCA000A2FF607BFFF7CFFF607AFFF79CFF10BD0C
:10CCB00010B504002078182802D100F05EFD207025
:10CCC00010BD10B5174C20000930FFF7F1FF200010
:10CCD0000A30FFF7EDFF20000B30FFF7E9FF2000DF
:10CCE0000C30FFF7E5FF20000D30FFF7E1FF2000DB
:10CCF0000E30FFF7DDFF20000F30FFF7D9FFE07B9C
:10CD0000182801D1032010BD002010BDF4290020F7
:10CD100080B5FFF7E5FD0348407AFFF764FF01BDEA
:10CD200002300000F429002030B5002832D001780C
:10CD30008A0701D40A062DD44A06520F052A29DA99
:10CD4000F2220A40322A25D042788378934221D3B6
:10CD5000072A1FDB112B1DDAC278012394081C421D
:10CD600018D1007984081C4214D1D4081C4211D176
:10CD7000C4081C420ED1032403251540194205D1D5
:10CD8000002D07D1204205D1012030BD002DFBD15F
:10CD90002042F9D1002030BD38B505000F4C02D13A
:10CDA0000020207232BDFFF7BFFF002808D020000E
:10CDB00029000522FFF710FA01202072002032BD61
:10CDC000072032BD80B5097801224A400349C97B5A
:10CDD00000F0F2FC01BD0000FFFF0000F42900207C
:10CDE00080B500230A000021FFF740FE02BD30B4E9
:10CDF000012100220368001D002B0BD00468001DD8
:10CE00000C4202D04D466D1E64192260241D1B1F6A
:10CE1000F0D0FAE730BC7047010000D00120704725
:10CE200080B501F0CFF801BDFEB5070000249C4895
:10CE300087422AD0380001F054FB05006E4607D027
:10CE40000B2809D0112805D09649884217D00BE04D
:10CE5000022002E0012412E003203070380000F0CC
:10CE6000EDFA7080B78007E009203070380000F0DC
:10CE7000E5FA7080B78002956846FFF7D1FF22007F
:10CE800089484178380000F097FCF7BDFEB50700EF
:10CE9000002401F0E6FA050001206E4629000ED0BC
:10CEA000042D0BD00C2D07D0112D03D07D4A9542B7
:10CEB00017D00BE0012414E0072000E008203070B8
:10CEC000B780380000F0BAFA708007E009203070AF
:10CED000380000F0B3FA7080B78002956846FFF71B
:10CEE0009FFF220070480178380000F065FCF7BD14
:10CEF00010B584B00400684661884180217800291B
:10CF000003D0022911D009D31FBD0170FFF788FF9C
:10CF1000608800F0EDFAFFF787FF1FBD0121017067
:10CF2000A1888180FFF77CFF1FBD207900280CD0ED
:10CF3000608800F0DDFA5A49884206D00122A549EE
:10CF4000897800F039FC00F03BF81FBD10B50400F3
:10CF5000207801280DD16088FFF766FF608801F016
:10CF600000FB002805D001229A488178608800F0F3
:10CF700023FC10BD0178072900D0704780B5408898
:10CF8000FFF784FF01BD10B5924C00F0F6FB207056
:10CF900000F0F3FB607000F0F0FBA07000F0EDFB20
:10CFA000E0702178182907D06178182904D0A17879
:10CFB000182901D0182801D1032010BD002010BD70
:10CFC00070B58AB03848807800F005FCFFF724FF80
:10CFD000002862D004A800F0C8FB00201BE0092153
:10CFE0006A46117101A98C800390200000F026FA96
:10CFF00001A9488001A8FFF713FF32002A48817871
:10D00000200000F0D9FB2A002748C178200000F05A
:10D01000D3FB0098401C00900098049988423CD2B1
:10D0200004A800994900401884881F48817820008E
:10D0300000F0B5FB0028ECD01B48C178200000F0C0
:10D04000AEFB0028E5D101260025200001F098FA6A
:10D05000010016D006280DD008280BD01128CCD0FE
:10D06000104A9042C9D05C4A9042B8D12000FFF7E4
:10D07000DBFEC2E70026200000F0E0F901F09AFA9A
:10D08000BBE70125052069460871200000F0D6F9AC
:10D0900001A9488001A88480ADE70AB070BD0000F6
:10D0A000FFFF00000230000080370020F0B589B09B
:10D0B0000400484F208850281DD0522802D0542800
:10D0C00004D026E0A088FFF7AFFE22E005AD0620E1
:10D0D0002870A08800F0B2F96880A088A8806888CD
:10D0E00001F068FA0022B978A08800F065FB05A875
:10D0F000FFF796FE0DE0A01D8179012909D1017984
:10D10000012906D140883549884202D1A088FFF71D
:10D11000BDFE787800F05FFB0024FFF77DFE00285D
:10D1200015D0684600F021FB00250DE06846690037
:10D13000401886887978300000F031FB002802D052
:10D140003000FFF771FE6D1C00988542EED33878F1
:10D1500000F041FBFFF760FE002814D0684600F0A5
:10D1600004FB0DE068466100401885883978280086
:10D1700000F015FB002802D02800FFF787FE641C92
:10D1800000988442EED3FFF71BFF09B0F0BD30B525
:10D1900085B001F0DDF9684600F0E7FA002411E0FF
:10D1A0006846610040188588280000F047F90C495E
:10D1B000884205D1012207488178280000F0FCFA56
:10D1C000641CA4B200988442EAD3FFF7F9FE05B0CC
:10D1D00030BD00008037002001340000022900002B
:10D1E000FFFF000010B5040000F026FF2000FFF74D
:10D1F000ADFE10BD70B50024A04EBC4D29780C20AA
:10D2000060433018408800F0CAFA002801D1E0B22B
:10D2100070BD641C082CF1D3FF2070BD10B5040054
:10D22000B2480178200000F0BAFA00280CD00020A3
:10D2300092490C2242438A185288A24201D1C0B2BC
:10D2400010BD401C0828F4D3FF2010BDF8B5040021
:10D250000E00FF27002E1ED0AD4DAC421BD0012288
:10D26000A2480178200000F0A7FA2000FFF7D6FFBF
:10D270000700FF2F02D1FFF7BDFF0700FF2F0AD0E5
:10D280007E480C217943401844800580001D310000
:10D290000722FEF7A1FF3800F2BD0021425C002A00
:10D2A00001D001207047491C1029F7D30020704796
:10D2B00080B5002805D0002903D002780B789A4267
:10D2C00001D0002002BD0622491C401C01F086F955
:10D2D000401E8041C00F02BD01000888102800D008
:10D2E000704770B58EB003A8091D2C22FEF788FF89
:10D2F000874E350003AC2079032826D001F0E5FAEB
:10D300002079002802D002280FD01ED26A4602A936
:10D31000072001F0E1FA002817D001991131201DF2
:10D32000FFF7C6FF00280ED1F0E76A4602A90720E2
:10D3300001F0D2FA002808D00199491C201D00F004
:10D3400041F90028F1D068460589211D2088FFF7A2
:10D350007DFFB5420AD02900208800F0F4F8684625
:10D360002188418001210170FFF73CFF0EB070BDA4
:10D3700070B504000D00401CFFF78FFF00280ED091
:10D380001022691C601C01F029F9461EB641F60FF7
:10D390001135290011342000FFF78AFF304370BD9A
:10D3A00030B587B00400207800282CD120790728D8
:10D3B00029D105AA0721608800F052FB002822D15C
:10D3C00001F083FA03AA6946072001F085FA0028D4
:10D3D00019D06088694609888842F3D00499069874
:10D3E000FFF7C6FF0028EDD001AD608800F080F89F
:10D3F0006880002028706088A88068460088E880DF
:10D4000001A8FFF7EFFE07B030BD10B5374C18206C
:10D410002070002019493E4A0C234343CB185A8000
:10D42000401C0828F8D300F0A8F92070182803D071
:10D43000201D71DF002800D0032010BD80B5FFF74C
:10D44000EDFEFF2804D00D490C225043085A02BDBE
:10D450002F4802BD10B50C00FFF7E0FE0100FF29C8
:10D460000AD02000054A0C2359435118091D0722F0
:10D47000FEF7B2FE002010BD052010BD783300205D
:10D4800038B504000D0000F045F8002803D02088CE
:10D490002988884201D0002032BD0822A91CA01C86
:10D4A00001F09CF8401E8041C00F32BD10B584B021
:10D4B000040001F00AFA01AA6946072001F00CFAFB
:10D4C000002810D0029946312000FFF7D9FF00282C
:10D4D00006D102992A312000FFF7D2FF0028EAD0B6
:10D4E0006846008800E00A4804B010BD44370020B8
:10D4F0000021204A0C234B43D2181388984201D1B3
:10D5000050887047491C0829F3D301487047000030
:10D51000FFFF00000188002903D142189278002AF9
:10D5200001D001207047491C0829F6D3002070471C
:10D5300010B50C00FFF772FEFF2803D00D490C2236
:10D5400050430C5210BD80B5FFF7F2FF01BD38B556
:10D550000500FFF7CDFF0400280000F05BFA05008E
:10D5600005498C4204D0002D02D12000FFF7E0FFD6
:10D57000280032BD78330020FFFF0000F0B58DB0E9
:10D580000C001500002600216F46421AD27B7A5407
:10D59000491C1029F9D30D2138001030FEF76EFE1A
:10D5A0000020215C3A1AD177401C0328F9D3684641
:10D5B0004DDFB81B2F300078A855761C032EF8D30A
:10D5C0000DB0F0BD3EB504000D002078022801D05A
:10D5D00000203EBD0322611C02A8FEF7FDFD0322D0
:10D5E000211D6846FEF7F8FD01AA69462800FFF7ED
:10D5F000C5FF032201A902A800F0F0FF401E8041F0
:10D60000C00F3EBD70B588B00500784C0026288854
:10D61000102804D011284CD01A284FD068E0607D23
:10D62000227D8243211D02A801F071FA01960EE0CD
:10D63000009602A801994900401883881D22210004
:10D640001431201D01F02FFA0198401C019001981F
:10D6500002998842ECD36846A9880180217DC8439D
:10D66000C0B201F006FA6249884219D069460988B9
:10D67000400020188180012368460288210015316E
:10D68000201D01F009FA01236846028821001431A7
:10D69000201D01F001FAA87D022805D1012304E034
:10D6A000042001F057FA23E00023AA882100163154
:10D6B0001BE00023AA882100153116E0287A000912
:10D6C000022801DB012300E00023AA882100173192
:10D6D000201D01F0E1F9287A0009032801DB01236C
:10D6E00000E00023AA8821001831201D01F0D4F9A0
:10D6F00008B070BD70B5060000243C4D3200297D95
:10D70000281D01F0F1F9002809D03200A97D281D5B
:10D7100001F0EAF9002801D0022400E001242000F1
:10D7200070BD70B506000024304D3200297D281DE3
:10D7300001F0DAF9002809D03200697D281D01F0D6
:10D74000D3F9002801D0022400E00124200070BD9C
:10D7500080B5264B0200D97D181D01F0C5F902BD28
:10D7600080B5224B0200197EF6E780B51F490A7D7D
:10D77000FFE7091D01F0CBF902BD00201B490A6833
:10D780001300C340DB0704D40123834013430B6021
:10D790007047401CC0B21828F2DB1820704780B5D3
:10D7A000020012480368CB40DB0703D54118497ECD
:10D7B000001DD2E7002002BD10B504000B4803682D
:10D7C000CB40DB0706D51300220041181931001D9C
:10D7D00001F062F910BD05490A68C240D20702D5BE
:10D7E0000818407E704700207047000094350020E4
:10D7F000FFFF000082490180FF2181700174417C9C
:10D80000F8220A4042740021C16041608160704783
:10D810000A6800E0521C082A08D27A4914235343AC
:10D82000C9180B888342F5D1080070470020704763
:10D8300038B504000D00002001E00098401C009065
:10D8400069462000FFF7E4FF002802D08178A94252
:10D85000F3D132BD38B50400002506E0207C411923
:10D86000C9B2694801F0F0F96D1CE0688542F5D352
:10D870002000FFF7BFFF31BD70B50400002500BFD9
:10D8800004A62000A900715888476D1C052DF8D307
:10D8900070BD000069DD0100A1D3010089CC010049
:10D8A000B9C2010019E40100F0B585B004000027F9
:10D8B00069460F7468461021FEF7E0FC6D466088EB
:10D8C00068802079287121796088FFF7B1FF0126EF
:10D8D00004212278092A47D801A39B5C9F4400BFFA
:10D8E0000A0A5E2C2C62666A748400280BD0417C84
:10D8F000314208D0FFF7AEFF2F702078012800D00A
:10D9000000262E722AE02E70A06821E0002811D097
:10D910008268A3689A420DD1427C32420AD0A54A5D
:10D920001268521CA34B1A60427CFE231340194319
:10D93000417419E002202870E06803900EE0032093
:10D940000BE0297003E0052007E006202870E0685E
:10D95000029003E068460674072028706846FFF7C7
:10D960008BFF01E0E068029092480068002826D012
:10D9700000242448142161434618707C410705D4D3
:10D98000800719D56846007C002815D0B17830880A
:10D9900000F05AF900280FD031886980B1782971D8
:10D9A000042802D10820287002E009212970029081
:10D9B0006846FFF761FF02E0641C082CD9D305B06C
:10D9C000F0BD3EB500250F4C142068432018FFF72A
:10D9D00011FF6D1C082DF7D35020029008200190F4
:10D9E000012000902300A033A02292002100B43136
:10D9F000A434200001F0BEF8002800D003203EBD72
:10DA0000FFFF00001C2A0020C02A002080B501F082
:10DA100003F802BD38B504000025009569460DE005
:10DA20008178200000F0C8F8002802D0052800D036
:10DA300003250098401C009069462000FFF7E8FE8F
:10DA40000028EDD1002D09D1200000F0F3FF0028BF
:10DA500004D0072801D1072500E00325280032BDA6
:10DA600080B5002300F0FAFE02BD817042605021B3
:10DA7000594389B2C91C89100180704780B59BB297
:10DA8000FFF7F3FF01BD8178012908D0062906D0F0
:10DA9000072902D0082904D07047142105E001218C
:10DAA00003E0416889880931890801807047B8B569
:10DAB0000FB483B0002B01D10E2078E0019107292B
:10DAC00001D0082909D1002A07D0092A05D26846C1
:10DAD000808900F0BAFF002801D1072067E0002705
:10DAE0006846017C8089FFF7A3FE0400844800900B
:10DAF00013D0E0680599884229D2002506E0207CF1
:10DB00004119C9B2009801F09FF86D1CEDB2E068B0
:10DB10008542F4D32000FFF76DFEFF217948FFF71F
:10DB200087FE040022D06846808920806846007CF9
:10DB3000A070207CFF281CD10599009801F03DF8C9
:10DB40002074FF2814D12000FFF754FE0EE081421C
:10DB5000EFD20D46EDB2E0688542EAD2207C411951
:10DB6000C9B2009801F070F86D1CF3E711201EE0B7
:10DB700001270598E060217C009801F04DF8020033
:10DB800001D1032013E0059B9BB26846017C0698F7
:10DB9000FFF76BFF002F09D00198082806D10698DF
:10DBA00000888000801F069949688880002008B09E
:10DBB000B0BD00008437002038B50024FFF738FEE0
:10DBC000050001D1052032BD6868002804D000F0AE
:10DBD000C8FE040000D003242800FFF73BFE20000D
:10DBE00032BD00007CB50E00072903D0082901D002
:10DBF000072076BD0025FFF71BFE040001D105209C
:10DC000076BD606800281CD1217C3D4801F004F8F5
:10DC1000020000BF48A003C86B4603C36846867075
:10DC20000DD0E3683100FFF729FF6846FFF72BFFAF
:10DC3000211D684600F07CFE0500092D01D103205E
:10DC400076BD280076BD0000F0B583B007000E0059
:10DC5000072E03D0082E01D00720FEBD38A003C830
:10DC60006A4603C26846867031003800FFF7E0FD5F
:10DC7000040001D10520FEBD0125607C284201D0B1
:10DC80000020FEBD217C1E4800F0C6FF002801D107
:10DC90000320FEBDE368020031006846FFF7EEFE98
:10DCA0006846FFF7F0FE23000833626869463800D3
:10DCB00000F05FFE144A1368667C06213140062995
:10DCC00000D15B1E002802D1F921314010E0591C1F
:10DCD000112807D10B00FD2030400421014361745D
:10DCE00000200BE0042806D10B00FB213140022567
:10DCF0000D43657402E0072800D003201360FEBDC9
:10DD0000C02A0020FFFF00008437002080B500F00B
:10DD1000A0FE02BD80B500F0A0FE02BD80B5138854
:10DD20009B0000936B4600F099FD02BD80B5130087
:10DD3000002200F01EFE02BD0000000000000000F6
:10DD4000000000000000000038B50400002505E0D8
:10DD50002000AA008918096988476D1C9849C8786D
:10DD60008542F5DB31BD0000F0B58BB00700142112
:10DD70006846FEF783FA78886C46A080FFF7B8FB08
:10DD80006080072101208E4D00263A78092A00D9AB
:10DD900083E002A39B5C5B009F4400BF050E21351E
:10DDA0003B43607F787A21703979217266720396DD
:10DDB000A17A0843A0726DE02170397921726672F0
:10DDC000B9680391A17A0843A072A868002861D0BD
:10DDD000B96888425ED1AE60A088E88017E008206C
:10DDE0002070387920726672B8680390F8680490E1
:10DDF000A86800284ED0B96888424BD1AE60E86868
:10DE0000401EE86003E02170397921726072039648
:10DE100040E008212170397921726072B86804905D
:10DE200038E009202070A878002833D0C248FFF7D6
:10DE30006DFFC14988422DD10846FFF76BFFBE49EF
:10DE4000884227D1AE70142105A8FEF717FA05A85D
:10DE50000B210170B8498180418014E00A202070B4
:10DE6000B8680290A878002814D0AE70142105A8D4
:10DE7000FEF704FA05A80C210170AF4981804180AA
:10DE8000B868079005A8FFF75FFF03E0052000E0F2
:10DE9000062020706846FFF757FF0BB0F0BD00006A
:10DEA000F0B587B0070001200090142101A8FEF70B
:10DEB000E5F901AC7888608007200321022600255F
:10DEC0003A78521E0B2A6ED801A39B5C9F4400BF78
:10DED000EC0C2C52687C8894A6B0B4D00120207041
:10DEE0003879020000D00122012800D101253448F0
:10DEF00001797888FFF760FC2A000CE026703879F9
:10DF0000002800D00126267201222D480179788848
:10DF1000FFF752FC3A792A4841797888FFF74CFCA0
:10DF200042E02170264841797888FFF738FC0028C4
:10DF300000D0012626720BE0214801797888FFF78E
:10DF40002EFC00283AD1267025722DE02170257212
:10DF5000B8792073B88821E02070B988A180207238
:10DF6000657228E008212170B988A180207265724D
:10DF7000B86805901FE0062020707868039013E0D1
:10DF800005200EE021700E4841797888FFF707FCE4
:10DF9000002800D00126267225737948608103E0AD
:10DFA0000420207000E000957888FFF747FAA080F1
:10DFB0000098002802D001A8FFF7C6FE07B0F0BD08
:10DFC0000037002070B586B0040014216846FEF7C3
:10DFD00055F960886D46A880FFF78AFA68800720A7
:10DFE000052100222378092B21D801A6F65CB7442D
:10DFF000080812161A2226422C3028706A7208204D
:10E00000287214E00D2008E00E2006E028706A72E5
:10E0100029720CE00F2000E01020287007E0297022
:10E0200005E006202870A0680290A08868806846F5
:10E03000FFF78AFE06B070BD30B585B004002078C9
:10E04000002802D0012804D019E0E08800F0DAF8B6
:10E0500015E001220B4841796088FFF7ADFB1421E0
:10E060006846FEF70BF96D46608868806088FFF7A8
:10E07000E5F9A880002028706846FFF765FE05B026
:10E0800030BD00000037002010B504005B48007868
:10E09000002808D02000FFF71FF92000FEF738FE07
:10E0A0002000FFF703F810BD38B500F0A8FB0028EA
:10E0B00029D1FFF786FC002825D1FEF702FE0028B3
:10E0C00021D1FEF758FA00281DD1FEF75CFF002889
:10E0D00019D100F0C1F9002815D1FFF796F90028F1
:10E0E00011D1464C1448E0800025A560182020710D
:10E0F0006071FFF742FB2071182804D0FFF73DFB49
:10E100006071182801D1032032BD65700120207094
:10E11000002032BD3A490A78002A01D10820704710
:10E12000CA78032A01DB042070479300CB181861DA
:10E13000521CCA7000207047FFFF000080B53049B4
:10E140000978002901D1082002BDFEF725FE02BD95
:10E1500080B52B4A1278002A01D1082002BDFEF7B3
:10E160003FFE02BD80B5FEF72DFE01BD24480078BC
:10E17000002800D1704780B5FFF709F801BD000005
:10E180000111000070B504000D001C4E307800280D
:10E1900001D1082070BD002D01D10E2070BD2000DE
:10E1A000FFF7BFFA002801D1294870BD022801D12C
:10E1B000012000E000202978FE220A401043287048
:10E1C00071792000FFF7EBFA2978F7220A40C000A6
:10E1D000104328702000FFF7BBFA2978FD220A407F
:10E1E0004000104328702000FFF7BAFA2978FB227C
:10E1F0000A40800010432870002070BD00370020C6
:10E200000037002080B572490978002901D1082023
:10E2100002BDFFF79CF902BD38B53D4801780029E1
:10E2200001D1082032BD01218170384C200000E06E
:10E230002800FFF76BFD0500A54205D0FFF7E2FFC0
:10E240000028F5D0032032BD002032BD00000000C0
:10E2500002300000FFB585B02D480078002801D1BC
:10E26000082050E02948FFF751FD040000270097DF
:10E2700058A003C802AA03C26846039002AA062156
:10E280002000FFF74BFD00260025ED43290C6A46D0
:10E29000D1809180072816D1052034E0009700989E
:10E2A000B04202D306466846C4800098A84202D213
:10E2B0000546684684802000FFF728FD040002AA76
:10E2C0000621FFF72BFD0028E9D00528E6D00F48EE
:10E2D000844217D100200599002903D06946C988D6
:10E2E000059A11800699002900D00E60079900292F
:10E2F00003D069468988079A11800899002902D0BD
:10E300000D6000E0032009B0F0BD0000FFFF000039
:10E3100000370020F0B587B007002D4C207800288A
:10E3200001D1082051E000BF2CA003C805AA03C2F8
:10E33000607800280DD10023002221000C31A01D9F
:10E34000FFF788FF002801D0052802D10120607066
:10E3500002E06078002802D0A068002801D01125D2
:10E3600032E0E0680026E1888F421AD1002818D0F8
:10E37000002514216846FDF781FF6C4607202070B8
:10E380003800FFF7B5F86080A7800620207266721B
:10E390000396A07AFE210140A1726846FFF7D4FCE3
:10E3A00012E0401CE0602200083205A93800FFF7A7
:10E3B000BDFC050008D0A660E068401EE060112D9D
:10E3C00002D0042D00D00325280007B0F0BD0000C6
:10E3D00000370020010000000000000001000600DE
:10E3E0000C3700201CB500BF78A003C86A4603C2E2
:10E3F0006B4C00226946208805E00800FFF786FC88
:10E40000208000226946FFF791FC2188654A9142ED
:10E4100001D01128F1D113BD1FB5040020780128C7
:10E4200012D1207901280FD102AA01216088FFF7BB
:10E4300017FB002808D168460221017061884180DD
:10E4400001210171FEF754FD554800885549884265
:10E4500001D0FFF7C7FF1FBD524851490880002077
:10E460007047F1B582B068460089FEF7E7FF070004
:10E470004C48874201D14C48FEBD012600246B4622
:10E48000B6B2320008213800FFF711FB0500761CF8
:10E49000002D22D101990320086003230A1D891D44
:10E4A00068460089AADF050005D108213800FFF77A
:10E4B000CBFB05000FE00C2D01D1012402E0052D5E
:10E4C00000D1002508213800FFF776FB002800D096
:10E4D0000325002CD2D12800FEBD072DFBD10C2531
:10E4E000F9E7F1B582B068460089FEF7A7FF00257D
:10E4F0000026032401272B49884211D06A460821AF
:10E50000FFF7AEFA00280BD10198851D86880468B4
:10E5100006E0002D01D1002E0DD000250026032499
:10E5200023003200290068460089A9DF042804D1AD
:10E530001120002F00D10B20FEBD082801D10020A2
:10E54000F7E70B28F5D10027A007E2D50124E7E77C
:10E5500080B51448FFF7DAFB11490880FFF742FF46
:10E5600001BD00B583B0FEF769FF6A460121FFF7E0
:10E5700077FA002801D000200EBD019800780EBD6A
:10E5800010B50300094C074A02E02088401C208097
:10E5900021881800A7DF06498842F6D010BD000088
:10E5A00088370020FFFF0000023000008A3700207B
:10E5B0000330000000B583B006A10CC969460CC148
:10E5C00000226946FFF7B2FB07BD00000100010011
:10E5D00074240200010001007824020010B402E05B
:10E5E000401C491C521E002A09D00B7804789C421A
:10E5F000F6D002D20020C04302E0012000E000205B
:10E6000010BC704780B5FFF74FF901BDC02109026A
:10E61000884204DBAF49884201D0012070470020C6
:10E620007047C0210902884204DBAA49884201D010
:10E630000120704700207047072809D0012807D023
:10E64000082805D0052803D0062801D0042801D1C8
:10E650000120704700207047F0B589B0684600215E
:10E66000002206C09B4D280003E0200000F04DFB77
:10E67000200000F094FB0400AC4225D08020C001B3
:10E68000271A6A4606A9B8B2FDF7B5FB0A28ECD0EE
:10E69000A64D6878002817D101266E70B8B2FDF734
:10E6A00055FB082801D12E700EE000280CD0002167
:10E6B000697002AA092313705480FF231371049117
:10E6C000059002A8FFF79EFF09B0F0BD7CB50400DD
:10E6D0000D0016002800FFF7AFFF6846002100225A
:10E6E00006C0C02000026B463200291889B22018EB
:10E6F00080B2FDF771FB002800D0052076BDF0B593
:10E7000085B004006068401E8041C00F03908027E0
:10E71000FF0100256E462078012807D065D3032825
:10E7200025D003D305285BD03AD35EE0A089FFF75C
:10E730006DFF002804D1E089FFF773FF002854D053
:10E74000A089C0197080E089307160682178012942
:10E7500005D1002801D1002106E0032104E00028B2
:10E7600001D1012100E004213170039015E0A0895E
:10E77000FFF74CFF002804D1E089FFF752FF002883
:10E7800033D0A089C0197080E0893071606800289A
:10E7900001D1022000E005203070A068029021E045
:10E7A000A089FFF733FF00281FD0E08900281CD183
:10E7B000A089C0197080E1893171FF2131716168D0
:10E7C000002905D10621317080B200F09EFA01E0E7
:10E7D0000720307055490D704D70FFF73DFF01E087
:10E7E000082030706846FFF70DFF50480078002879
:10E7F00003D04E480570FFF72FFF05B0F0BD10B5F0
:10E8000088B08848FDF7B6F9002801D0032023E03E
:10E81000FDF7C2F9002801D004201DE000F02AFA1B
:10E8200068460021002206C00EE002A904A8FDF7F8
:10E83000FEF90298848804A8FDF719FA8020C00127
:10E84000201880B200F04DFA6A4604A97648FDF718
:10E85000CAFA0028E9D0002008B010BDF0B585B094
:10E8600006000D0014001F00FF2E04DC2800FFF737
:10E87000E3FE002801D1072025E002AA290030008C
:10E88000FFF724FF002805D1694602A8FDF7CFF95C
:10E89000002801D0052016E0A5700098408820804F
:10E8A000002F0AD082003868824204D30199606840
:10E8B000FDF792FC03E0042005E00198606002A8E7
:10E8C000FDF7D5F9002005B0F0BD58480021002221
:10E8D00006C07047FFFF000070B586B005000E004F
:10E8E0001400524A02A98020C001281A80B2FDF704
:10E8F0007AFA002805D1694602A8FDF798F90028A0
:10E9000001D000200FE0A570009840882080019879
:10E910006060009880888021C9014018308002A87A
:10E92000FDF7A5F9012006B070BD00008C3700206E
:10E9300038B504000D00A078FFF77EFE002801D155
:10E94000072032BD21882800FDF7B0F9002807D044
:10E95000072802D0092803D001E0042032BD03209B
:10E9600032BD01B56846FDF7BAF9002800D0032092
:10E9700002BD74B589B005000C001E00FF2D04DC3B
:10E98000A078FFF759FE002801D1072042E0606817
:10E990000090208869468880C021090205A86A186D
:10E9A0000280A278511841806946069101210181B7
:10E9B00002AAA1782800FFF789FE05280DD1099841
:10E9C000002804D105A902A8FDF7ACF90CE009AABA
:10E9D00005A902A8FDF7A9F906E009A8FDF77FF946
:10E9E00005A902A8FDF7A8F9002806D007280ED02F
:10E9F00008280AD00E2808D00BE0002E03D03100E2
:10EA000002A8FDF700FA002004E0112002E0042033
:10EA100000E003200AB070BD80B5054800F061F940
:10EA200002BD0000FFE6010007C0000078370020AB
:10EA3000FFFF000080B5FF2801DD072002BD00F0C8
:10EA400055F9FFF709FE002002BD80B500F069F915
:10EA500002BD80B500F090F902BD80B500F09FF9CD
:10EA600002BDFEE701228A400240100000D00120D2
:10EA7000704738B50500002421002800FFF7F2FF99
:10EA8000002801D0200032BD641CA4B2082CF3DBA6
:10EA9000004832BDFFFF000080B500931300012243
:10EAA00000F001F801BD002800D1704770B50029C1
:10EAB00019D0002A17D0002400256E00865B9E42E4
:10EAC0000ED10120A840049B02E086432E70641CF6
:10EAD000944208D20D19002B2E78F6D00643F5E7A4
:10EAE0006D1C082DE9D370BD10B503000800002B84
:10EAF0000BD000214C001C5B944203D189B2FFF77C
:10EB0000B1FF10BD491C0829F4D3002010BDF0B599
:10EB100085B006000C00170000250095002C12D0CF
:10EB2000A9B2F8B2FFF79EFF002809D06800205A6A
:10EB30006946009A5200891888800098401C00900D
:10EB40006D1C082DECD3300069461422FDF758FBEC
:10EB500005B0F0BD10B584B0040068460C21FDF787
:10EB60008DFB02946A460021014800F023F91FBD85
:10EB70000140000070B5140000281CD000291AD0F4
:10EB8000002B18D0059D069E2A007243944212D392
:10EB9000049AEC1DE408A2420DD3002D0BD0002EE8
:10EBA00009D0016043608560C660A9B2406800F08A
:10EBB00029F9002070BD072070BDBAB5070029D023
:10EBC0003868002826D07868002823D0FF25002444
:10EBD0000AE02900380000F037F86D1CEDB2A542BC
:10EBE000F7DBFF25641CE4B2B868844212D221002E
:10EBF000786800F010F9002809D0FF2D00D1250019
:10EC0000601B401C00998842ECD12800B6BDFF2D46
:10EC1000E8D0E3E7FF20B6BD38B505000C00002DB5
:10EC200010D0286800280DD0686800280AD0FF2C72
:10EC300008D000F035F9002804D02868E9684C4372
:10EC4000001932BD002032BD38B505000C00002D82
:10EC50000FD0286800280CD06868002809D0FF2C45
:10EC600007D000F01DF9002803D02100686800F0EB
:10EC7000E1F831BD38B54C4C40212000FDF7FEFADB
:10EC800080256D002900200000F0BCF82900203408
:10EC9000200000F0B7F831BDF8B506000800434C7D
:10ECA0002500310080277F00A14207D1390000F004
:10ECB000DDF80500BD4208D1250006E0B94204DABE
:10ECC00000F0A9F8002800D035002800F2BD0A00A5
:10ECD000FF2800DD704780B50100100000F0AAF8A1
:10ECE00001BD80B53049FFF7D7FF02BD10B5040064
:10ECF0002E48844207D02E492000FFF7CDFFA042C6
:10ED000001D1012010BD002010BD38B50500264CF2
:10ED10002100FFF7DCFF203421002800FFF7D7FF98
:10ED200031BD80B5FF2804DC01001F4800F0B8F8B1
:10ED300002BD002002BD80B5FF2804DC01001C4894
:10ED400000F0AEF802BD002002BD70B50C00174DFA
:10ED5000A84201D1002603E0461CB6B2FF2E09DC12
:10ED60003100200000F09CF8002801D0300070BD78
:10ED7000761CF2E7280070BD38B50B4C210001E08D
:10ED800021002800FFF7E1FF05000848854204D074
:10ED90002800FFF7D0FF0028F2D1280032BD80B54F
:10EDA0000349FFF7D2FF02BDA8340020FFFF000097
:10EDB000C8340020BFF34F8F034804490860BFF3F5
:10EDC0004F8F00BFFDE700BF0400FA050CED00E027
:10EDD00070B582B005000C00002000262978214281
:10EDE0000ED169460870684600F06AF8287820421B
:10EDF00002D104432C7001266846007800F076F8B2
:10EE0000300076BD002800D1704780B5C91DC910FB
:10EE1000FDF732FA01BD0A00002800D1704780B525
:10EE2000012153075B0F9940C9B2D2088018FFF740
:10EE3000CFFF02BD38B54A05120E01244907490F1C
:10EE40008C40E4B2002810D08518287820420CD0DD
:10EE5000002069460870684600F032F82878A04320
:10EE600028706846007800F041F831BD70B50600A2
:10EE70000C00002E12D0002501E06D1CADB2A542A1
:10EE80000CDA01216807400F8140C9B2E810301840
:10EE9000FFF79EFF0028F0D0280070BD200070BD55
:10EEA000002807D0CA08825C4807400FC240D0073C
:10EEB000C00F704701207047EFF3108072B67047A3
:10EEC00038B50400FFF7F8FF0121124A5368002B00
:10EED00007D151601049114B1D680D401560196034
:10EEE00000212170002800D162B631BD10B5094C57
:10EEF000616800290BD0002809D1FFF7DDFF2168E8
:10EF0000074A116000216160002800D162B610BD7F
:10EF10000000000050370020FC06FFBC80E100E04C
:10EF200000E100E001780E2900D9704780B501A208
:10EF3000525C97440E6E182234465E6E546E5E58D4
:10EF40005E6E6A008088FFF7E5F911281BE0808873
:10EF5000FFF7E0F9112816E04189774A914221D163
:10EF600001214088FFF7F4F80CE000BF0EA109680A
:10EF7000009169464088FFF7F5F801BDFCF70AFFEC
:10EF80000E280FD008280DD005E0002005E000F085
:10EF9000CBF901BD8068002804D0FFF7DBFD01BD7F
:10EFA000FFF7E4F801BD00000000000010B582B0DA
:10EFB000624C6088AB49884212D06946FFF7E2F89C
:10EFC000002801D0FFF7C6FD68460078800707D407
:10EFD00000216088FFF7BCF8002801D0FFF7BAFDD8
:10EFE00013BDF8B500220124544D0178002921D029
:10EFF00002296ED0032902D0042944D0F1BD8188B2
:10F0000002249948814206D1687801286AD10E20ED
:10F0100000F02AFC31E0401C814263D128780128AD
:10F0200060D10D2000F020FC002801D0FFF792FDF8
:10F030002C70F1BD020008324188B14800F0EEFEAC
:10F04000002801D0FFF786FDAD4800F09FFE0028A4
:10F0500001D0FFF77FFDAA4800F0B8FE002801D0DC
:10F06000FFF778FDA64800F043FE002801D0FFF727
:10F0700071FD2C70A24800F051FE002801D0FFF76E
:10F0800069FD6C70F1BD8188032304256E469D4F98
:10F09000B9420AD1007AC108214201D034700CE093
:10F0A000000920421ED034700DE07F1EB94219D1F4
:10F0B000007AC708274202D03270737004E000095A
:10F0C00020420FD03270757069468D4800F03EFEC8
:10F0D00004E0002028706A7000F0C6FB002801D010
:10F0E000FFF738FDF1BD80B5FFF734FD01BD1FB559
:10F0F000684600210022002300241EC0804C1221FB
:10F1000020005C30FDF7BAF87F4800901220029092
:10F1100020005C3003907D4801906946200000F09B
:10F1200085FD002801D0FFF715FD1FBD80B501004A
:10F13000734800F091FC01BD06100000F827002084
:10F1400080B5FFF707FD01BD80B5002000F08CFB06
:10F15000002801D0FFF7FEFC00F0B8FE002801D027
:10F16000FFF7F8FC3CDFE3E080B5002810D0012871
:10F1700004D0032804D0042803D001BD052000E0FA
:10F18000022000F071FB002804D0FFF7E3FC01BD72
:10F19000FFF7DAFF01BD70B55D4C667800210122F2
:10F1A000304B574D04280BD00A2806D00D280ED01E
:10F1B0000E2820D00F2834D070BDFFF7C5FF70BDDA
:10F1C0001321608876DF08284BD0002846E0288984
:10F1D000984246D02078022801D1227011E00128FF
:10F1E00004D12170280000F091FD34E02270280045
:10F1F00000F07EFD2FE02889984232D0022E04D103
:10F200006270112000F030FB25E0012E04D1617006
:10F21000280000F093FD1EE06270280000F07EFDE3
:10F2200019E0288998421CD0022E01D0012E09D164
:10F23000FF21280000F0E9FD002803D0082801D0B4
:10F24000FFF788FC2078022801D0012809D1FF218E
:10F25000280000F0D6FD002803D0082801D0FFF7D1
:10F2600079FC70BDFFFF0000452A000038B505009D
:10F27000FEF7C8F92800FEF707FF254C2900201DDE
:10F2800001F002F9280001F0F1F929001C4800F012
:10F290008DFC280000F024FE288810280CD01128AE
:10F2A00023D03A2802D0552826D101E019486080A1
:10F2B0001321A88876DF1BE0072000F0D5FA00288C
:10F2C00001D0FFF747FCA9886180201D01F0B4F848
:10F2D000002801D0FFF73EFC0022C0210902D820FF
:10F2E0004000201801F09EFC02E0002000F0BCFA73
:10F2F000002801D0FFF72EFC280001F087FE31BD69
:10F30000A0320020482A0000E3EF0100E7F00100EE
:10F31000F8270020FFFF000010B50400FCF704FFF1
:10F32000200001F09DFE10BD80B5032001F088FD96
:10F33000002801D0FFF70EFC01BD0000F0B597B02A
:10F340007C4E002332000521002001F029FC00281A
:10F3500001D0FFF7FFFB784A002100BF84A001F035
:10F3600049FC002801D0FFF7F5FB744A74490320DB
:10F3700000F08AFA002801D0FFF7ECFB6946002074
:10F3800000F0E9FD002801D0FFF7E4FB012700258C
:10F3900068460078022801D1012400E0002400BF63
:10F3A00074A0006800900023482278363100684637
:10F3B00001F005FF002801D0FFF7CCFB01AA0121D5
:10F3C000002001F042FF002801D0FFF7C3FB01A895
:10F3D00001F052FF002801D0FFF7BCFB594801F0B3
:10F3E00016FF002801D0FFF7B5FB574801F017FFC3
:10F3F000002801D0FFF7AEFBFEF756FE002801D033
:10F40000FFF7A8FB002C05D0FEF706FF002801D06F
:10F41000FFF7A0FB05216846FCF730FF6846312165
:10F42000017007214170102181700324C1780322EB
:10F430000A43C270017903220A430271FEF77EFE7D
:10F44000002801D0FFF786FB4048FEF763FE002846
:10F4500001D0FFF77FFB112069460870132200BF1F
:10F460003EA168467CDF002801D0FFF773FB01A8AE
:10F470000021002206C0C820400001A908804200E7
:10F480004A808D80C88001A87ADF002801D0FFF76C
:10F4900061FB382109A8FCF7F1FE09A802210170DF
:10F4A00087700621C17005820E9501A82021FCF706
:10F4B000E5FE01A8C770282105911E21069107715C
:10F4C000C82000010790B42008900095204B01AAA5
:10F4D000002109A801F00FFC002801D0FFF73AFB3A
:10F4E0001C4800F07DFF002801D0FFF733FBFFF739
:10F4F000FEFD1C216846FCF7C1FE0095A02080029D
:10F500000190F0200003029068460473C5810774DF
:10F51000059511480690684601F056F8002801D07C
:10F52000FFF718FBFFF700FF48DF0028FCD0FFF7CC
:10F5300011FBF9E744300020ADEF010097F1010025
:10F54000CD0C00006DF2010019F3010025EF010060
:10F5500069F101002DF1010041F101004E6F72646B
:10F5600069635F416C6572745F4E6F7469662E00EB
:10F57000A829002001000007042809D2AE4A126819
:10F58000D343BF4A80001058C340D807C00F00E0E3
:10F590000020087000207047F1B500200025AC4A1B
:10F5A0008300D3586C462478A34202D0401C042820
:10F5B000F6D304282FD2B34C42001218A6182718ED
:10F5C000002917D002291ED01ED235787078002865
:10F5D0000DD022000D3261690A20414320006430C1
:10F5E00001F020FB002802D1684600786073B078F3
:10F5F000387409E02000643001F055FBB578387CA0
:10F60000A84208D100E07578002D04D0216A0800D6
:10F6100001D028008847F1BD80B502210078FFF7AE
:10F62000BBFF01BDF1B584B000250020954EF16906
:10F63000CA4303921146E02252040A4000927169C3
:10F640008A00511802916946097C0191AF4C8022D1
:10F6500092035100019B172B17D802A7FF5C7F0074
:10F66000BF4400BF0C14142B394C67787F887F8807
:10F67000E19595959595C2C8D0D8E1E10399F0221E
:10F6800052040A406260A5603573D3E00098606060
:10F69000A5606846007C2168F0235B044B40134062
:10F6A00006D06260A560022820D1E121C90034E0C3
:10F6B000A260656002281ED12EE000986060A560FF
:10F6C0002068F02149044140114023D06260A560C8
:10F6D000C821890021E000986060A5602068F021C1
:10F6E00049044140114004D06260A560FA2109013B
:10F6F00013E0A2606560C82149000EE000986060D8
:10F70000A5602068F02149044140114002D06260A8
:10F71000A56001E0A2606560C8216846007C307386
:10F7200075690800642101F0E0FD454329000022CD
:10F7300028E000986060A5602068F02149044140FD
:10F74000114002D06260A56001E0A2606560062001
:10F7500030730CE000996160A560A26065600721CC
:10F7600067E020680A00824362600140A1600022D5
:10F77000716907E020680A00824362600140A1606D
:10F78000002202992436300001F04CFA52E0300099
:10F79000443001F088FA1121019A891A1CD00028FE
:10F7A0001AD180221204F26102290ED300957769E2
:10F7B000C82041430800642101F097FD4743390008
:10F7C00000223000443001F02DFAF169F022520499
:10F7D0000A40A26065602DE0F169F02252040A40FF
:10F7E0006260A560F56125E0F02149046160A560D3
:10F7F00012211EE0E02149046160A560A2606560FD
:10F80000132116E0D02252046260A560A1606560F9
:10F8100014210EE0C02149046160A5608908A1603F
:10F820006560152105E0F0214904A1606560694625
:10F83000097C317305B0F0BD100500503448017EDD
:10F84000C90700D4704780B5007BFFF7EBFE01BD10
:10F85000B0F901002D4801688022120413008B4387
:10F8600043600A408260704780B50021284A127EBA
:10F87000D20702D5FFF7D6FE0100080002BD000046
:10F88000B0F90100A4310020F8B505000F000026F2
:10F8900000201F494F618D610A62A9071DD5002410
:10F8A00001220121200000F035F8641C042C01D253
:10F8B0000028F5D0002804D17A08042140A001F0E6
:10F8C000C1FD002801D101F0F1FD002805D12E4A2B
:10F8D000002100BF35A001F08DF9E90705D52B49BE
:10F8E000F02252040A604E600A61002805D1284ABD
:10F8F000002100BF2BA001F07DF9002805D1254A89
:10F90000012100BF28A001F075F9F2BD04050050E7
:10F91000A431002030B503000020042B16D2012AA8
:10F9200005D1012902D11A000D3200E000221A4C43
:10F930005D00EB18E318002906D0022902D005D299
:10F940001A7030BD5A7030BD9A7030BD072030BD7E
:10F9500070B50022114B00BF15A495006459A40096
:10F960001B191C680500D540ED0701D5032500E0F3
:10F9700000250B4E26402C0434431C60521C042AE4
:10F98000E8D3002070BD000019F601000805005002
:10F990003DF8010055F80100A43100200007005097
:10F9A000FFFFFCFFC8310020E831002008320020B2
:10F9B00011000000120000001300000014000000FD
:10F9C0001100030099F501001200030099F50100F0
:10F9D0001300030099F501001400030099F50100DC
:10F9E000714B58681968884200D1704780B5BF498B
:10F9F00014225043091808888A78012A03D100226A
:10FA0000898896DF01E0083198DF002804D1586822
:10FA1000401C4007400F586001BD80B50A22FCF72A
:10FA2000DBFB01BD018A002912D0418B00290FD0D8
:10FA3000818C00290CD0C18D002909D0C18F0029EB
:10FA400006D0018E002903D040300088002801D163
:10FA50000020704701207047F3B595B050216846EB
:10FA6000FCF70CFC6C4616984088608001202070E2
:10FA700016980078002848D116988088AE498842A8
:10FA800043D11698807901283FD10027002505E051
:10FA9000310020001A30FFF7C0FF6D1C1698007A65
:10FAA000EDB285422AD216980C21694346180E36CB
:10FAB0003088BD49401A08D0401E0AD0401E11D0DF
:10FAC000401EE5D0401E15D0E7E731002000103081
:10FAD000E1E7310020003E30FFF79FFF70894821A9
:10FAE0006052DAE7310020002E30FFF796FF708970
:10FAF0002087D2E7310020002430CCE720000830F6
:10FB0000FFF790FF002800D0277068461599096814
:10FB1000884717B0F0BD30B595B004000C31684689
:10FB2000032202708B88022B1BDB9B1E0A88422556
:10FB3000655BAA4217D13C22A25C8271628F8280EF
:10FB40008A790272CA794272E2689A4200D91A002E
:10FB50000392206904900831FCF73EFB6846216857
:10FB6000884715B030BD5225655BAA42F9D14C22B9
:10FB7000A25C82714A22A25AE1E710B594B0040057
:10FB80002089898888420CD188482081462120001C
:10FB90001430FCF773FB0220694608706846216840
:10FBA000884714B010BD00005837002030B595B01C
:10FBB00002000888112834D0362807D038282DD0E4
:10FBC000392831D11000FFF7A6FF2DE00C316B462C
:10FBD000042018708888002820D00888D48DA0427E
:10FBE00004D12820105C9871D08C06E0148FA042BC
:10FBF00014D13220105C9871108E98806C460834B5
:10FC0000881D05782570457865708888012802D19F
:10FC1000FC2129405972684611688847FFF7E0FEC9
:10FC200002E01000FFF7A9FF15B030BD38B50400A1
:10FC30000D00002C04D0002D02D02868002801D12E
:10FC40000E2032BD5C212000FCF718FB2748002164
:10FC5000002206C0554820812868206068686060DE
:10FC6000A868E060E86820610120A0753249A1829F
:10FC70003C2160544E496187A077891EA1834C21A5
:10FC800060544C494A22A152282160544A49E184D7
:10FC9000322160544949218648216054484946220E
:10FCA000A1525822A054562021521434200000F0B2
:10FCB000A4FB32BD70B5434B1D68434C14266E4304
:10FCC000A4196D1C6D076D0F1D6061810221E1811A
:10FCD000231D23610023A3810125257222716371F5
:10FCE0002080A170FFF77CFE002070BD0431002051
:10FCF00080B50100083108882C4A904201D10820C3
:10FD000002BD0122898FFFF7D5FF02BD80B5083003
:10FD10000022818F0088FFF7CDFF02BD80B5010072
:10FD20000889224A904201D1082002BD01225431A3
:10FD30000988FFF7BFFF02BD1118000080B500223F
:10FD40005421415A0089FFF7B5FF02BD38B51D4B5C
:10FD50001C681D4A142565435219641C6407640F0E
:10FD60001C60838C53810223D381141D14610024F1
:10FD70009481012414720C781471497851710089AE
:10FD800010809370FFF72CFE002032BD10B50D4996
:10FD90000A680D4B142454431B19521C5207520F6E
:10FDA0000A60C18D24E00000442A0000FFFF00002B
:10FDB000462A0000452A0000472A0000482A000081
:10FDC00002290000583700200431002010B50249F4
:10FDD0000A68024B04E000BF5837002004310020BD
:10FDE000142454431B19521C5207520F0A60018FEE
:10FDF00099800089188001209870FFF7F1FD00209C
:10FE000010BD80B56A46042302E080B56A4605232A
:10FE1000137051706946FFF799FF02BDF8B50400F1
:10FE20000F001500002C01D10E20F2BD2800FFF7B5
:10FE3000F9FD002801D10720F2BD260008363780E1
:10FE4000002D23D02900083120001C30FFF7E5FDEC
:10FE50002900123120002630FFF7DFFD29001C3178
:10FE600020003030FFF7D9FD2900263120003A303C
:10FE7000FFF7D3FD288EB0872900363120004A30A5
:10FE8000FFF7CBFD40352888543420800020F2BD98
:10FE900080B5012202210020FFF73CFD002801D09F
:10FEA000072812D1072202210120FFF733FD002885
:10FEB00001D0072809D10A2200210020FFF72AFDDE
:10FEC000002801D0072800D1002002BD80B5032002
:10FED000FFF73EFD002801D0062800D1002002BD1A
:10FEE00010B5344C61680088102802D0112826D043
:10FEF00010BD00291FD101220020FFF70BFD0028B3
:10FF000001D0072811D1072202210120FFF702FDAD
:10FF1000002801D0072808D1042202210020FFF781
:10FF2000F9FC002807D0072805D0002803D0216855
:10FF30000A0000D088476068401C606010BD491E00
:10FF4000616007D1FFF7A4FF002803D021680A00F1
:10FF500000D0884710BDF8B50F0000260025154CCD
:10FF60002060002F1DD000A9491C0020FFF704FBD2
:10FF7000002814D169460120FFF7FEFA00280ED1AF
:10FF800068460078002801D0022004E068464078E6
:10FF9000002802D00B20387003E03E7001E005001D
:10FFA00005D16068002802D1FFF772FF0500280024
:10FFB000F2BD00007037002030B500224C49857832
:10FFC00000E0521C4B6A9A420AD29300CB189C78EC
:10FFD000AC42F6D11B880488A342F2D1C86930BD77
:10FFE000002030BD30B593B00C001500D32149007E
:10FFF000415C462251434018FFF7DEFF010005D067
:020000040002F8
:1000000068464580012202700194884713B030BDD4
:10001000F2B582B01500D3214900415C462251431C
:1000200040180090FFF7C8FF06002BD0304C206A24
:10003000062827D2B448216A5022514347187D80B0
:10004000381D00994622FCF7C7F800256846007A5B
:10005000002801D03D7001E002203870FE64206A63
:10006000401C2062616A88420CD1002606E0A64846
:10007000502171434018C16C8847761C606A8642E3
:10008000F5D32562F7BDF1B582B00D00FF21A63191
:100090004318D978491CD9709B4C00269B48C9B29B
:1000A000426A91421ED21E705978491C5970C9B2D9
:1000B000029A46274F43D2190092890040180188BE
:1000C00011804188518000990E71009A0121280009
:1000D00090DF00280AD09E702A0001000298FFF7E6
:1000E00081FF00E09E70032020706580F7BD000056
:1000F000FC35002030B5002A098911D1D3225200E5
:100100008218147846256C4304192489A1420BD027
:10011000491C19801178462251434018008909E092
:10012000481CD488A04201D1002030BD491C198050
:10013000D088401E5880012030BD10B582B002002A
:100140000800FF21A63153185978462461435118FD
:100150001B786A46002B07D05B1EDBB20C2463437E
:10016000CB185B8A5B1C00E0CB8813800989518027
:10017000694692DF16BDF6B583B00600FF20A630B3
:10018000301840784621484330180090FF20A630B0
:10019000355C00980C21694341180A310027681C1E
:1001A000009A1279904221D101AB00223000FFF772
:1001B000A1FF002823D1012003990870002024E02A
:1001C00000980C226A438418163401AB22003000D8
:1001D000FFF790FF002812D12100FF20A630305CED
:1001E000401CFF22A632B0546D1CEDB2009800797D
:1001F0008542E0DA401E8542E2D10024E5E703981B
:10020000077001A96846008A93DF05B0F0BDF1B51B
:1002100084B00C0020880499D5225200895A884263
:1002200070D10498FF21A6314018019004980199DB
:1002300049784622514340180090608800283CD1FC
:100240002000083003900098007905000399098880
:10025000C9B26A18062A01DA401800E005200099A0
:10026000087100260DE038000A3003990A22724313
:100270008918891C0A22FBF7AFFF0020B8826D1C89
:10028000761C00980C216943471800798542EAD30F
:10029000F988049A019B5B7846256B43D218128932
:1002A00091420AD2052808D0019908702188049843
:1002B000FFF743FF00280AD124E0002001990870CD
:1002C000228802A90498FFF756FF00280DD00021CC
:1002D000019A9170228801000498FFF783FE0A4872
:1002E00003210170218841800CE06846007A0028D3
:1002F00008D0228801210498FFF78AFE21880498FB
:10030000FFF7C1FE05B0F0BD502D0020FC350020E8
:10031000FEB505000C002088D5214900695A8842A5
:100320005BD1FF20A6302818407846214843281882
:1003300002902000083001900298FF21A631695CEC
:100340000C22514340180A300026618800290FD141
:100350007F4F00E0491C019A1288914208D2019A0D
:1003600006234B43D2189388BB42F3D15188418175
:1003700069460E70FF20A630285C411C029A127953
:10038000914203D10120694608701DE0401CFF2105
:10039000A6316854228869462800FFF7ECFE002841
:1003A0000ED0FF21A63169188E7022880100280026
:1003B000FFF718FE09480321017021884180F7BD2D
:1003C00068460078002808D0228801212800FFF71D
:1003D0001FFE21882800FFF756FEF7BD502D002094
:1003E000010001D10E2070475A4900224A620123C0
:1003F0000B760A62C8610020704738B5040001D14D
:100400000E2032BD534D287E002801D1082032BD78
:100410002000FFF7D1FD00280AD1686A062809D21A
:100420008100691822880A8062884A80401C6862BC
:10043000002032BD042032BD10B50B00002801D1D0
:100440000E2010BD43490A7E002A02D04A6A002AC3
:1004500001D1082010BDD322520084186278002AEE
:1004600001D0112010BDA3800A62A27022700A88F8
:1004700002804A88428002000121180090DF002893
:1004800001D16170002010BD70B582B006005DD052
:1004900000295BD02F48007E002857D0D320400091
:1004A0003418081D0025098811294AD0302904D0A4
:1004B00032293CD033293FD073BD009020784621AB
:1004C0004843311800980288A08882423ED10098A3
:1004D0004088002821D1009A0832901C03880B80A4
:1004E00043884B80891D921D108808805088488061
:1004F000009801883000FFF720FE002826D06570A4
:1005000000990A8801003000FFF76CFD12480321B2
:10051000017000990988418073BD00213000FFF708
:1005200077FD009801883000FFF7ADFD73BD010035
:100530003000FFF76CFE73BD01003000FFF7E8FEEE
:1005400073BD0088A188884200D1657073BD00002A
:1005500002290000FC350020502D0020408862490F
:100560000A88904204D34988814201D30120704710
:100570000020704738B55D4CE08B5D49884222D041
:10058000217F491C2177227BC9B28A4208D3564970
:1005900075DF002817D0A1690A0014D0884731BD43
:1005A00000252577217C002907D03B2176DF002814
:1005B00003D0A1690A0000D088476169080002D011
:1005C00068460570884731BD70B50600474C20006D
:1005D00031001C22FBF714FE002565773168424E7E
:1005E000002911D030000822FBF7F6FD30007ADF39
:1005F000002808D13E48E08325773E4A002100BF0D
:100600003EA000F0F7FA70BD30007BDF0028F1D08B
:1006100070BD38B50025354C3748FFF79FFF0028DF
:100620001AD1607F002805D0616908001CD06A4695
:10063000157017E0207F002801D1616800E0A168F3
:1006400000222000203000F0EDFA00280CD0A16933
:100650000A0009D0884707E06169080004D001203A
:100660006A46107068468847657731BD38B5010025
:1006700000251E4C20480A88102A06D0112A0FD0C7
:10068000122A2AD0502A0FD031BD8A88E28318312D
:100690000822FBF7A1FD2577E089002823D120E07F
:1006A0001348E08325770DE0891D0888E289904290
:1006B00019D14889022816D10C31080000F015FF25
:1006C00000280ED12000203000F0EDFA00280AD0DA
:1006D000A1690A0007D0884731BD08310822FBF71D
:1006E0007BFDFFF796FF31BD6037002068340020A6
:1006F000FFFF0000750502006837002088340020E5
:100700000121C006C00E8140A6480160704701214A
:10071000C006C00E8140A448016070470121C00698
:10072000C00E8140A1480160704710B58207D30E0A
:10073000FF249C40E2438907090E9940030004D539
:100740009B481B071B0F083B00E09A489B089B0037
:10075000C01803681A401143016010BD002811D071
:1007600095490968954A00BF00BF00BF00BF00BFA0
:1007700000BF00BF00BF914200D000BF401EF2D1B9
:10078000BFF35F8F704738B5802080028C490860C6
:100790008C4880214902016401608B4C0125256051
:1007A0002F20FFF7DBFF6560884C002525612F2097
:1007B000FFF7D4FFA57231BD401A0002000A70474E
:1007C000F8B5824FFE68002E34D0002480480068BF
:1007D0003969FFF7F1FF05003068854218D32D1AFB
:1007E00024183000F669017C00290FD00021017423
:1007F00042698169FB69180006D0100098470028FB
:1008000004D0FEF7A7F901E008009047002EE3D1DD
:10081000787A397A814206D1401C7872C0B20228B7
:1008200001D100207872787A800038184461142051
:10083000FFF76DFFF1BDF8B5644A1378D0680090FA
:10084000002117E02500E469002C13D0B442F9D14F
:10085000A54207D1FE69D660002E03D1B54E3060A7
:100860001161D0722068E469EC61002C02D0256827
:100870002818206001205478A3421BD05468182502
:100880005D4364195B1C9578DBB2AB4200D1002359
:100890002578022D02D0032D05D0EBE76668D768D6
:1008A0003D002C00D0E7D0680028E3D00174C06977
:1008B000D060F8E7D268009B9A4200D10020F2BDD8
:1008C000F1B582B0414CE06800900027012600E0BD
:1008D000E5600298002830D120786178884259D0AC
:1008E0006168182242438918401CA278C0B2904225
:1008F00000D1002020704D6808780128ECD1287CB8
:100900000028E9D188686860C868A8600869E8605C
:100910004869A861E07A002800D06F6020696A68A1
:10092000111A0902090ABE4B99420AD201001000AD
:10093000FFF742FFA96840180CE00546E8690290FD
:10094000ECE71100FFF738FFA968884201D2081AC6
:1009500000E0002028606F60AF602E74EF61E068F7
:100960000028B5D0026829688A4203D3511A016071
:10097000E861ADE7020013688B4205D2C91A100086
:10098000D269002A02D0F6E75B1A13602960EA6197
:10099000C5619EE7E0680099884201D00120FEBD54
:1009A0000020FEBD00E100E000E200E080E200E0A7
:1009B0001CED00E000E400E0142A00200024F40014
:1009C00080E100E008130140041001404836002097
:1009D000041501407CB50025BC4800690190BB4965
:1009E0000A7A1100B94B5B7A9A4210D0491CC9B2FD
:1009F000022900D10021B54A8B00D2185469001990
:100A00000002000AB14A10610120009001E00024B8
:100A10000094AE480172FFF70EFF0600AB48C068B5
:100A2000009900291BD0002210E0E41AD2180023FC
:100A30000B600090C869CB68002B07D0019EB618E8
:100A40003602360A4E608B60CD61009D002805D0CD
:100A500001000B689C42E8D21A1B0A6001269B49E0
:100A6000C8602800FFF72CFF002801D1002E46D0D7
:100A70009648C068002840D000680090944C2068D8
:100A800001909248056929000198FFF795FEC61C60
:100A90008E48807A002813D18E4880214902016453
:100AA00001601120FFF73AFE1120FFF729FE012017
:100AB000894908602F20FFF751FE01208349887281
:100AC0000098864200D20600A8190002000AE063DE
